:100000000C94FA000C941F010C941F010C941F0116
:100010000C941F010C941F010C941F010C941F01E0
:100020000C941F010C941F010C941F010C941F01D0
:100030000C941F010C941F010C941F010C941F01C0
:100040000C941F010C941F010C941F010C941F01B0
:100050000C941F010C941F010C941F010C941F01A0
:100060000C941F010C946F1B0C94021D0C941F0127
:100070000C94DD1B0C945F1C0C941F010C941F014D
:100080000C941F010C941F010C941F010C941F0170
:100090000C941F010C941F010C941F010C941F0160
:1000A0000C941F010C941F010C941F010C941F0150
:1000B0000C941F010C941F010C941F010C941F0140
:1000C0000C941F010C941F010C941F010C941F0130
:1000D0000C941F010C941F010C941F010C941F0120
:1000E0000C941F010C941F010C941F010C941F0110
:1000F0000C941F010C941F010C941F010C941F0100
:100100000C941F010C941F010C941F010C941F01EF
:100110000C941F010C941F010C941F010C941F01DF
:100120000C941F010C941F010C941F010C941F01CF
:100130000C941F010C941F010C941F010C941F01BF
:100140000C941F010C941F010C941F010C941F01AF
:100150000C941F010C941F010C941F010C94221489
:100160000C941F010C941F010C941F010C941F018F
:100170000C941F010C941F010C941F010C941F017F
:100180000C941F010C941F010C941F010C941F016F
:100190000C9409160C9471160C941F010C941F01F9
:1001A0000C941F010C941F010C941F010C941F014F
:1001B0000C941F010C941F010C941F010C941F013F
:1001C0000C941F010C941F010C941F010C941F012F
:1001D0000C941F010C941F010C941F010C941F011F
:1001E0000C941F010C941F010C9471220C949F20FD
:1001F0000C941F0111241FBECFEFDFE3DEBFCDBF84
:1002000000E00CBF18BE19BE1ABE1BBE12E2A0E071
:10021000B0E2E2ECF5E600E00BBF02C007900D9201
:10022000A233B107D9F71FE3A2E3B2E201C01D92E6
:10023000AF30B107E1F70E9448150C94DF320C94FF
:100240000000AAECB1E092E09C93E82FF0E08491EA
:100250001C92089580FF10C0E0E0F2E011A228E0B7
:1002600021A790E191AB88E181AFE0E4F2E011A237
:1002700021A791AB81AF0895E0E0F2E030E231A335
:1002800028E221A790E391AB88E381AFE0E4F2E0BC
:1002900031A321A791AB81AF0895E0E0F2E0808126
:1002A0008C638083E0E4F2E080818C638083089536
:1002B000CF92DF92EF92FF920F931F93CF93DF9332
:1002C00080E20E942101C0E0D2E08C8781E20E949E
:1002D00021018D870F2EF7E0EF2EF02DEC820F2EEF
:1002E000F3E1DF2EF02DDA820F2EF6E0CF2EF02D87
:1002F000C982FF24F394F882F8A2F8A6F8AAF8AE0F
:1003000084E20E94210100E412E0F801848785E282
:100310000E942101F8018587E482D282C182F082A5
:10032000F0A2F0A6F0AAF0AE1092BC261092B92668
:1003300080E00E942A01888182608883F80181819F
:10034000826081830E944D01DF91CF911F910F91B7
:10035000FF90EF90DF90CF900895CF92DF92EF92D1
:10036000FF92CF93DF936B017C01E901BA0180E03A
:1003700090E00E941831A70196010E94CA310E94A4
:10038000E730DC01CB01BE014AE050E00E9453326D
:10039000DF91CF91FF90EF90DF90CF900895EF9293
:1003A000FF920F931F93CF93DF937A01A82FB0E0B2
:1003B000AD0142955295507F5427407F5427FA0152
:1003C000E754FA4D47535A4D80E090E02191319126
:1003D000820F931FE417F507C9F7969587959695B1
:1003E000879596958795683651F06A3671F067362D
:1003F000E1F4813A910510F1815A904021C0843B8B
:10040000910588F0845B904032C01197AE7FA45C68
:10041000BD4D2D913C9111978217930708F45AC056
:10042000821B930B59C080E090E0683601F16A3678
:1004300009F452C0673609F05FC002C080E090E066
:10044000BC0180E090E00E94183127E938EA4FEFC4
:1004500059E30E94CA3125E83BEE41E551E40E9490
:10046000CA3144E650E097010E94AD0145C0BC018D
:1004700080E090E00E94183127E938EA4FEF59E315
:100480000E94CA3125E83BEE41E551E40E94CA31A1
:10049000062F172FD82FC92F862F912FAD2FBC2FA6
:1004A000BC01CD012DEC3CEC4CE050E40E947B30D3
:1004B000882324F400E010E0D0E0C0E0802F912FEA
:1004C000AD2FBC2FBC01CD0144E650E097010E9446
:1004D000AD0112C080E090E0BC0180E090E00E949D
:1004E000183123E730E34BE15AE30E94CA3148EE6A
:1004F00053E097010E94AD01DF91CF911F910F91C1
:10050000FF90EF900895482F50E042955295507F0C
:100510005427407F5427FA01E754FA4D47535A4D68
:1005200020E030E0819191912817390708F49C016F
:10053000E417F507B9F7822F932F089592958295C6
:100540008F7089279F708927813A910510F481EA7D
:1005500090E00895DF92EF92FF920F931F93CF9355
:10056000DF93E0E0F2E086818F3009F016C1E0E42D
:10057000F2E086818F3009F010C18091BC2680FFA7
:1005800071C00091B92610E0C0E0D2E08889998955
:100590000E949E020F2EF9EBEF2EF5E2FF2EF02DBA
:1005A000F801EE0FFF1FEE0DFF1D808391838A89F6
:1005B0009B890E949E02F8013896EE0FFF1FEE0DF8
:1005C000FF1D808391838C899D890E949E02F80182
:1005D0007096EE0FFF1FEE0DFF1D808391838E89B5
:1005E0009F890E949E02F8017896EE0FFF1FEE0D84
:1005F000FF1D80839183C0E4D2E08CA19DA10E9465
:100600009E02F801E05CFF4FEE0FFF1FEE0DFF1D95
:10061000808391838CA59DA50E949E02F801E85BD2
:10062000FF4FEE0FFF1FEE0DFF1D808391838CA9FE
:100630009DA90E949E02F801E05BFF4FEE0FFF1F95
:10064000EE0DFF1D808391838CAD9DAD0E949E02B7
:10065000085A1F4F000F111FE00EF11EF701808393
:1006600091837AC0D090B9260D2D10E0C0E0D2E081
:100670008CA19DA10E949E02F801B0960F2EF9EB6D
:10068000EF2EF5E2FF2EF02DEE0FFF1FEE0DFF1DFA
:10069000808391838CA59DA50E949E02F801B89647
:1006A000EE0FFF1FEE0DFF1D808391838CA99DA986
:1006B0000E949E02F801F096EE0FFF1FEE0DFF1D47
:1006C000808391838CAD9DAD0E949E02F801F896C7
:1006D000EE0FFF1FEE0DFF1D80839183C0E4D2E07B
:1006E0008CA19DA10E949E02F801E05AFF4FEE0FDF
:1006F000FF1FEE0DFF1D808391838A899B890E94D5
:100700009E02F801E859FF4FEE0FFF1FEE0DFF1D8F
:10071000808391838C899D890E949E02F801E05913
:10072000FF4FEE0FFF1FEE0DFF1D808391838E891B
:100730009F890E949E0208581F4F000F111FE00E54
:10074000F11EF701808391838D2D8F5F8093B926F1
:10075000883010F01092B9268FE0E0E0F2E0868356
:10076000E0E4F2E086838091BC268F5F8093BC2614
:100770000E942A010E944D018091AB25893269F4C3
:10078000CCE3D2E200E0802F880F8F5F0E948302CB
:10079000899399930F5F0830B1F7DF91CF911F9143
:1007A0000F91FF90EF90DF9008958091A525823200
:1007B00089F4809132228F5F8093322280FF05C0BE
:1007C00080E090E20E94080E08958FE090E20E947F
:1007D000080E08958DE190E20E94860B87E290E278
:1007E0000E94860B82E390E20E94860B8CE390E2EB
:1007F0000E94860B08951092A42589E28093AB2570
:100800008AE30E94E11485E00E948A0908950E940B
:10081000FB038FE18093A525089580E28093A525B1
:1008200087E490E20E94860B0895CF93C82F81E061
:1008300064E670E00E944230CF3019F0C03101F51B
:1008400010C083E28093A52580E590E20E94860B8C
:100850008CE590E20E94860B84E690E20E94860B73
:100860000FC084E28093A52580E590E20E94860B6C
:100870008CE690E20E94860B84E790E20E94860B51
:10088000CF91089581E28093A5258CE790E20E94A4
:10089000860B0895CF93C82F81E064E670E00E9434
:1008A000423086E890E20E94860B8FEF8093E32629
:1008B000C23191F0C33118F4C13129F505C0C331FB
:1008C00099F0C43101F518C085E28093A52580E92F
:1008D00090E20E94860B17C086E28093A52588E9E6
:1008E00090E20E94860B0FC087E28093A52580EAE4
:1008F00090E20E94860B07C088E28093A52588EAD3
:1009000090E20E94860BCF910895CF93C82F81E08B
:1009100064E670E00E944230C093CE26C13619F0E2
:10092000C23651F405C080EB90E20E94860B04C0F1
:1009300089EB90E20E94860BCF91089582E280932A
:10094000A52582EC90E20E94860B08958091A52552
:100950008052823008F054C08091A42580FD04C0EC
:1009600081E20E94060C0DC08091AB25893221F4F2
:1009700080E20E94060C05C08A3219F48FE10E94C1
:10098000060C8091A42581FD04C081E20E94F20B37
:100990000DC08091AB25893221F480E20E94F20BD8
:1009A00005C08A3219F48FE10E94F20B8091A425D0
:1009B00082FD04C081E20E94DE0B0DC08091AB2558
:1009C000893221F480E20E94DE0B05C08A3219F4DC
:1009D0008FE10E94DE0B8091A42583FD04C081E29B
:1009E0000E94CA0B08958091AB25893221F480E2E0
:1009F0000E94CA0B08958A3219F48FE10E94CA0B33
:100A00000895CF93C82F81E064E670E00E944230E1
:100A100080EB9BE00E94092D82E58093E22685E130
:100A20008093D0268BEC90E20E94860BC03269F056
:100A3000C13218F4CF3189F405C0C13249F0C23255
:100A400061F409C00E940D0408C00E940D0405C095
:100A50000E94420402C00E949E040E94A604CF91FC
:100A60000895682F8091A5258232C1F1833240F428
:100A70008032D1F0813228F58F3109F077C010C073
:100A8000863209F447C0873220F4853209F06EC0FF
:100A900032C0873209F44DC0883209F067C058C0AF
:100AA00080E20E94010508956E3221F481E20E94E5
:100AB000010508956D3209F059C082E20E940105D6
:100AC00008956E3221F482E20E94010508956D328C
:100AD00009F04CC080E20E94010508956E3221F4B5
:100AE00080E20E94010508956D3209F03FC081E265
:100AF0000E94010508958091CE26813619F0823634
:100B0000A9F504C080E00E947B13089581E00E9453
:100B10007B1308958091CE26813619F0823631F507
:100B200004C082E00E947B13089583E00E947B133F
:100B300008958091CE26813619F08236B9F404C02A
:100B400084E00E947B13089585E00E947B13089542
:100B50008091CE26813619F0823641F404C086E0B9
:100B60000E947B13089587E00E947B130895809173
:100B7000A5258F3119F480E00E94310508958091F8
:100B8000AB258A3289F489E28093AB258AE30E94FF
:100B9000E1148AE30E94241385E00E948A0981E01F
:100BA000E0EEF6E0868312C0893281F48AE2809317
:100BB000AB258CE30E94AB148CE30E94F41285E019
:100BC0000E945E0981E0E0EEF6E085830E94A604C3
:100BD0000895CF93C82F81E090E00C2E02C0880FBB
:100BE000991F0A94E2F79091A425892B8093A4255C
:100BF0008C2F0E945E098091AB258A3231F48C2FB4
:100C00000E94AB148C2F0E94F4120E94A604CF9174
:100C10000895CF93C82F81E090E00C2E02C0880F7A
:100C2000991F0A94E2F780959091A42589238093D7
:100C3000A4258C2F0E94E1148C2F0E9424138C2F4A
:100C40000E948A090E94A604CF9108952091A425AC
:100C500030E0082E02C0359527950A94E2F720FD72
:100C600003C00E94E90508950E9409060895CF93E4
:100C7000DF93CDB7DEB72C97CDBFDEBF8091332297
:100C8000909134220196809333229093342221E074
:100C9000843F920708F4C8C2109233221092342283
:100CA0008091A525843209F4FBC0853250F481324D
:100CB00009F467C1833209F482C0803209F0B4C2FA
:100CC0000DC0863209F404C2863208F4C3C18732EB
:100CD00009F438C2883209F0A7C26EC280E067E624
:100CE000AE014F5F5F4F0E94CF018CEC90E2BE01DE
:100CF0006F5F7F4F0E941A0C81E06AE6AE014F5F82
:100D00005F4F0E94CF0182ED90E2BE016F5F7F4F87
:100D10000E941A0C84E067E6AE014F5F5F4F0E94AD
:100D2000CF0189ED90E2BE016F5F7F4F0E941A0CE8
:100D300085E06AE6AE014F5F5F4F0E94CF018FED05
:100D400090E2BE016F5F7F4F0E941A0C88E067E659
:100D5000AE014F5F5F4F0E94CF0186EE90E2BE0171
:100D60006F5F7F4F0E941A0C89E06AE6AE014F5F09
:100D70005F4F0E94CF018CEE90E2BE016F5F7F4F0C
:100D80000E941A0C8CE067E6AE014F5F5F4F0E9435
:100D9000CF0183EF90E2BE016F5F7F4F0E941A0C7C
:100DA0008DE06AE6AE014F5F5F4F0E94CF0189EF91
:100DB00090E2BE016F5F7F4F0E941A0C35C280E047
:100DC00067E6AE014F5F5F4F0E94CF0180E091E286
:100DD000BE016F5F7F4F0E941A0C81E06AE6AE0190
:100DE0004F5F5F4F0E94CF0187E091E2BE016F5FCE
:100DF0007F4F0E941A0C82E068E6AE014F5F5F4FA2
:100E00000E94CF018EE091E2BE016F5F7F4F0E9492
:100E10001A0C83E06AE6AE014F5F5F4F0E94CF017C
:100E200086E191E2BE016F5F7F4F0E941A0C84E061
:100E300067E6AE014F5F5F4F0E94CF018EE191E206
:100E4000BE016F5F7F4F0E941A0C85E06AE6AE011B
:100E50004F5F5F4F0E94CF0185E291E2BE016F5F5D
:100E60007F4F0E941A0C86E068E6AE014F5F5F4F2D
:100E70000E94CF018CE291E2BE016F5F7F4F0E9422
:100E80001A0C87E06AE6AE014F5F5F4F0E94CF0108
:100E900084E391E2BE016F5F7F4F0E941A0CC4C1D0
:100EA00088E067E6AE014F5F5F4F0E94CF0180E0B0
:100EB00091E2BE016F5F7F4F0E941A0C89E06AE6E3
:100EC000AE014F5F5F4F0E94CF0187E091E2BE010C
:100ED0006F5F7F4F0E941A0C8AE068E6AE014F5F99
:100EE0005F4F0E94CF018EE091E2BE016F5F7F4FA6
:100EF0000E941A0C8BE06AE6AE014F5F5F4F0E94C2
:100F0000CF0186E191E2BE016F5F7F4F0E941A0C14
:100F10008CE067E6AE014F5F5F4F0E94CF018EE12C
:100F200091E2BE016F5F7F4F0E941A0C8DE06AE66E
:100F3000AE014F5F5F4F0E94CF0185E291E2BE019B
:100F40006F5F7F4F0E941A0C8EE068E6AE014F5F24
:100F50005F4F0E94CF018CE291E2BE016F5F7F4F35
:100F60000E941A0C8FE06AE6AE014F5F5F4F0E944D
:100F7000CF0184E391E2BE016F5F7F4F0E941A0CA4
:100F800053C180E0BE016F5F7F4F0E94D8138CEC8D
:100F900090E2BE016F5F7F4F0E941A0C81E0BE019C
:100FA0006F5F7F4F0E94D81382ED90E2BE016F5FAA
:100FB0007F4F0E941A0C82E0BE016F5F7F4F0E943C
:100FC000D81389ED90E2BE016F5F7F4F0E941A0C2B
:100FD00083E0BE016F5F7F4F0E94D8138FED90E2D8
:100FE000BE016F5F7F4F0E941A0C84E0BE016F5FED
:100FF0007F4F0E94D81386EE90E2BE016F5F7F4F55
:101000000E941A0C85E0BE016F5F7F4F0E94D813CB
:101010008CEE90E2BE016F5F7F4F0E941A0C86E05B
:10102000BE016F5F7F4F0E94D81383EF90E2BE0135
:101030006F5F7F4F0E941A0C87E0BE016F5F7F4F8A
:101040000E94D81389EF90E2BE016F5F7F4F0E942C
:101050001A0CEAC08091E32690E083709070181615
:1010600019060CF0E1C080E0BE016F5F7F4F0E9467
:1010700015148CE391E2BE016F5F7F4F0E941A0C42
:1010800081E0BE016F5F7F4F0E94151483E491E2FF
:10109000BE016F5F7F4F0E941A0C80E0BE016F5F40
:1010A0007F4F0E94D8138AE491E2BE016F5F7F4FA9
:1010B0000E941A0C81E0BE016F5F7F4F0E94D8131F
:1010C00081E591E2BE016F5F7F4F0E941A0CACC0B8
:1010D0008091E3268C7009F4A7C082E0BE016F5FA7
:1010E0007F4F0E9415148CE391E2BE016F5F7F4F2A
:1010F0000E941A0C83E0BE016F5F7F4F0E9415149F
:1011000083E491E2BE016F5F7F4F0E941A0C82E080
:10111000BE016F5F7F4F0E94D8138AE491E2BE0147
:101120006F5F7F4F0E941A0C83E0BE016F5F7F4F9D
:101130000E94D81381E591E2BE016F5F7F4F0E944C
:101140001A0C72C08091E326807309F46DC084E0AC
:10115000BE016F5F7F4F0E9415148CE391E2BE01C8
:101160006F5F7F4F0E941A0C85E0BE016F5F7F4F5B
:101170000E94151483E491E2BE016F5F7F4F0E94CD
:101180001A0C84E0BE016F5F7F4F0E94D8138AE47F
:1011900091E2BE016F5F7F4F0E941A0C85E0BE0195
:1011A0006F5F7F4F0E94D81381E591E2BE016F5FB0
:1011B0007F4F0E941A0C38C08091E326807CA1F1F9
:1011C00086E0BE016F5F7F4F0E9415148CE391E2B1
:1011D000BE016F5F7F4F0E941A0C87E0BE016F5FF8
:1011E0007F4F0E94151483E491E2BE016F5F7F4F31
:1011F0000E941A0C86E0BE016F5F7F4F0E94D813D9
:101200008AE491E2BE016F5F7F4F0E941A0C87E073
:10121000BE016F5F7F4F0E94D81381E591E2BE014E
:101220006F5F7F4F0E941A0C2C96CDBFDEBFDF91FF
:10123000CF91089580E090E06091A4250E948F32C4
:1012400084EE96E261E070E040E150E00E94853279
:10125000089580E090E00E9475328093A42584EE8A
:1012600096E261E070E040E150E00E94693208954A
:101270000E942909089580E090E00E947532089547
:101280000895E0E0F7E080E4818B828B838B848B90
:101290008EE1868381831092D1268FE3E0E2F7E02E
:1012A000828389E28093CB268093C8268FEF809338
:1012B000E0268093CD268093C72608958230B1F032
:1012C000833028F4882341F0813019F50AC0833037
:1012D00091F08530F1F414C082E0E0E0F7E085831E
:1012E000089584E0E0E0F7E08583089588E0E0E099
:1012F000F7E08583089580E1E0E0F7E085830895D5
:101300008091A425880FE0E0F7E0858382E00E94C9
:10131000A62F08958230B1F0833028F4882341F05D
:10132000813009F50AC0833091F08530E1F414C0B2
:1013300082E0E0E0F7E08683089584E0E0E0F7E013
:101340008683089588E0E0E0F7E08683089580E1F1
:10135000E0E0F7E0868308951092CC261092D32621
:1013600081E08093D42608958091CD268093C7266E
:101370008091E0268093CD26E0E2F7E0808580939F
:10138000E0260895CF93C82F81E06AE070E00E94C4
:1013900042300E94B705C230B1F0C33028F4CC23EC
:1013A00051F0C13039F50BC0C430A9F0C43078F029
:1013B000C53001F518C080E00E9426061BC081E000
:1013C0000E94260617C082E00E94260613C083E012
:1013D0000E9426060FC01092DE261092DF268AE2B7
:1013E0008093C82607C01092DE261092DF268AE27C
:1013F0008093CB26CF910895843019F0853059F52C
:1014000015C089E28093C8268091DE269091DF2660
:1014100023E0893E920738F00E94730B1092DE267B
:101420001092DF2608950E94BF05089589E28093F7
:10143000CB268091A525813271F48091DE26909192
:10144000DF2623E0893E920730F00E941A091092AD
:10145000DE261092DF260895282F30E0042E02C0E9
:10146000359527950A94E2F720FD1BC070E0042E05
:1014700002C0759567950A94E2F760FF12C020914B
:10148000E02630E0042E02C0359527950A94E2F755
:1014900020FD04C0842F0E94C2090895842F0E9459
:1014A000FC090895CF93DF938091CD26C091E0266B
:1014B000C827D091C726D8278091CB268A32B1F48D
:1014C0008091DE269091DF2601968093DE26909310
:1014D000DF262091A525213249F423E0893E920799
:1014E00028F081E064E670E00E9442308091C826D6
:1014F0008A3291F48091DE269091DF2601968093C6
:10150000DE269093DF2623E0883E920729F481E0CF
:1015100064E670E00E9442308C2F6D2F40E00E9404
:101520002C0A8C2F6D2F41E00E942C0A8C2F6D2FDE
:1015300042E00E942C0A8C2F6D2F43E00E942C0A5F
:101540008C2F6D2F44E00E942C0A8C2F6D2F45E0CC
:101550000E942C0ADF91CF9108958091A5258F518B
:101560008430A8F580915821909159219923C4F095
:10157000019680935821909359210E94F3150E945F
:10158000FE15809158219091592121E0853F9207C5
:1015900064F18FEF9FEF8093582190935921089524
:1015A0000E94F315882339F0109258211092592186
:1015B0008DE20E9431050E94FE158823B1F0109241
:1015C0005821109259218EE20E94310508950E94FF
:1015D000F315882319F08DE20E9431050E94FE1553
:1015E000882319F08EE20E94310508959091A42578
:1015F0008091AB25893209F043C0990F8091CC26A8
:10160000882339F4E0E0F7E095838F5F8093CC2660
:1016100010C0813039F4E0E0F7E0968382E08093F7
:10162000CC2607C08F5F8093CC268B3010F01092B1
:10163000CC268091D4266091D326680F6093D32660
:10164000662334F060FD12C082E00E94D82F0EC0E5
:10165000882321F06E5F6093D32603C06E5F609392
:10166000D32682E06091D3260E94D82F8091D32682
:1016700081508E3F28F08091D42681958093D42686
:101680000E94B4090E94520A0E94AD0A08958EE495
:101690008093E2268FE18093CA26089580EB9BE039
:1016A0000E94501C80EB9BE00E945A1C80EB9BE048
:1016B0000E948C2580EB9BE00E94E82C80EB9BE055
:1016C0000E944B1C80EB9BE00E94551C82E580939E
:1016D000E22681E98093CA2680EB9BE06AE571E20D
:1016E0000E94F42508950E944E0B80EB9BE06CE570
:1016F00071E20E94F42581E98093CA2608950E9430
:101700004E0B8091A5250E9401050895CF93DF938C
:10171000EC018091CA268F3191F480EB9BE00E940E
:10172000AD2523E08C39920750F480EB9BE0BE019D
:101730000E94F42580EB9BE06DE00E947A29DF9106
:10174000CF9108958F3119F0803251F405C083E6AE
:1017500091E20E94860B04C08CE691E20E94860B07
:1017600085E791E20E94860B81E891E20E94860B58
:101770008DE891E20E94860B87E991E20E94860B38
:10178000089585EA91E20E94860B80EB91E20E9427
:10179000860B0895CF93C82F813239F48CEB91E2F8
:1017A0000E94860B0E94C10B07C087EC91E20E9449
:1017B000860B8C2F0E94A20BCF910895CF93C82F38
:1017C000813239F482ED91E20E94860B0E94C10BB6
:1017D00007C08DED91E20E94860B8C2F0E94A20B18
:1017E000CF910895CF93C82F813239F488EE91E2DA
:1017F0000E94860B0E94C10B07C083EF91E20E94FA
:10180000860B8C2F0E94A20BCF910895CF93C82FE7
:10181000813239F48EEF91E20E94860B0E94C10B57
:1018200007C088E092E20E94860B8C2F0E94A20BD8
:10183000CF9108950F931F93CF93DF93EC018B010A
:101840008091CA268F31B9F480EB9BE00E94AD25D0
:1018500023E08C39920778F480EB9BE0BE010E9474
:10186000F42580EB9BE0B8010E94F42580EB9BE01F
:101870006DE00E947A29DF91CF911F910F91089519
:101880008091E226823521F081E00E94A62F03C0DC
:1018900081E00E94C22F8091CA26803951F081399F
:1018A000F1F4109235221092362280E98093CA26F4
:1018B00016C0809135229091362201968093352270
:1018C0009093362223E18738920748F01092352210
:1018D000109236228FE18093CA268093A5258091AD
:1018E000E2268F3419F482E58093E2268091352236
:1018F0009091362223E18838920730F40196809344
:10190000352290933622089523E18838920749F4CE
:1019100082E58093E22688E293E2809335229093D9
:1019200036220895ECE4F2E2AFEBB6E284EA95E207
:1019300048E330E222E240834183328334832583CB
:1019400026831D92E559FF4FE817F907A1F710927A
:10195000BE2686E18093BB261092AA258EE3809353
:10196000382280E28093392210923B220895813000
:1019700081F0813028F08230A9F0833029F51BC036
:10198000663519F0673519F421C080E0089580E0CC
:101990000895663519F0673519F41AC082E0089584
:1019A00080E00895663519F0673519F413C084E0B6
:1019B000089580E00895663519F0673519F40CC074
:1019C00086E0089580E0089580E0089581E008951C
:1019D00083E0089585E0089587E00895CF93DF932D
:1019E00086EA95E20E942D32EC018091B825609143
:1019F000BD260E94B70CBE010E944B13DF91CF9110
:101A00000895813009F449C0813038F0823009F4FA
:101A100084C0833009F0FBC0C0C0643521F0653557
:101A200009F0F5C01DC08091BA26863559F087357A
:101A300020F4893409F0EBC00CC0893651F08637A8
:101A400009F0E5C080E067E64CEA55E20E94CF016C
:101A5000089581E06AE64CEA55E20E94CF010895BC
:101A60008091BA26863559F0873520F4893409F0FB
:101A7000CEC00CC0893651F0863709F0C8C082E06C
:101A800068E64CEA55E20E94CF01089583E06AE6D9
:101A90004CEA55E20E94CF010895643521F0653586
:101AA00009F0B5C01DC08091BA26863559F087353A
:101AB00020F4893409F0ABC00CC0893651F0863768
:101AC00009F0A5C084E067E64CEA55E20E94CF0128
:101AD000089585E06AE64CEA55E20E94CF01089538
:101AE0008091BA26863559F0873520F4893409F07B
:101AF0008EC00CC0893651F0863709F088C086E068
:101B000068E64CEA55E20E94CF01089587E06AE654
:101B10004CEA55E20E94CF010895643521F0653505
:101B200009F075C01DC08091BA26863559F08735F9
:101B300020F4893409F06BC00CC0893651F0863727
:101B400009F065C088E067E64CEA55E20E94CF01E3
:101B5000089589E06AE64CEA55E20E94CF010895B3
:101B60008091BA26863559F0873520F4893409F0FA
:101B70004EC00CC0893651F0863709F048C08AE063
:101B800068E64CEA55E20E94CF0108958BE06AE6D0
:101B90004CEA55E20E94CF010895643519F065358D
:101BA000B1F51BC08091BA26863549F0873518F407
:101BB000893469F50BC0893649F0863741F58CE0E8
:101BC00067E64CEA55E20E94CF0108958DE06AE68F
:101BD0004CEA55E20E94CF0108958091BA268635DD
:101BE00049F0873518F4893491F40BC0893649F0EF
:101BF000863769F48EE068E64CEA55E20E94CF0130
:101C000008958FE06AE64CEA55E20E94CF010895FC
:101C1000EF92FF920F931F93CF93DF938C017091FC
:101C2000BE26672F272F30E08BE690E0289FA0018B
:101C3000299F500D389F500D11240F2EFCE4EF2EDC
:101C4000F2E2FF2EF02DE40EF51EA1E34CE452E289
:101C5000EBE6F0E0862F992787FD90958E9F900107
:101C60008F9F300D9E9F300D1124240F351FE901E9
:101C7000AB8361500AF467E0AF5FA93359F7F8010D
:101C80008081882399F505C0942F8191882321F5BF
:101C900003C040E050E090E0F701E90FF11D82E25F
:101CA0008683E701C40FD51F1F8281E08093BF2682
:101CB0008093C0268093C1268093C2268093C3263A
:101CC0008093C4268093C5268093C6267F5F709339
:101CD000BE26783040F413C08D934F5F5F4F44367B
:101CE000510591F6E2CF1092BE2609C0E7018E831E
:101CF000F8013196D701179641E050E0C5CFDF914A
:101D0000CF911F910F91FF90EF90089580933A2209
:101D100088E392E20E94080E08952F923F924F921C
:101D20005F926F927F928F929F92AF92BF92CF926B
:101D3000DF92EF92FF920F931F93CF93DF930F2EBB
:101D4000F7EAAF2EF5E2BF2EF02DD6E102E112E266
:101D50000F2EFBE1CF2EF02D0F2EF9EA8F2EF5E29C
:101D60009F2EF02D0F2EFEE17F2EF02D0F2EF8EA84
:101D70004F2EF5E25F2EF02D0F2EFCE16F2EF02D91
:101D80000F2EFCEA2F2EF5E23F2EF02D0F2EF8E15C
:101D9000DF2EF02D0F2EF6EAEF2EF5E2FF2EF02DBE
:101DA0006AC180EA98E00E94A72DC82F0E94860E83
:101DB0008091BB268A3109F4C2C08B3180F487310F
:101DC00009F44FC0883120F4863109F054C114C0A1
:101DD000883109F489C0893109F04DC1A0C08C3126
:101DE00009F4E1C08C3108F4C4C08D3109F400C19C
:101DF0008E3109F040C1F1C0C43461F1C53440F402
:101E0000C234D1F0C334F8F4C13409F034C10EC087
:101E1000C23691F0C33620F4C13609F02CC106C099
:101E2000C33689F0C43609F026C114C087E1809317
:101E3000BB261092B8251FC187E18093BB2681E0A5
:101E40008093B82518C187E18093BB2682E08093F8
:101E5000B82511C187E18093BB2683E08093B82524
:101E60000AC1CA35D9F0CB3560F4CE3419F1CF347C
:101E700018F4CD3499F524C0C035B1F0C33571F5EF
:101E800026C0C03789F0C13728F4CD36C9F0CE3628
:101E900029F510C0C337D9F0CA3701F5D092BB2657
:101EA00083E58093BD26E7C0D092BB2684E580936E
:101EB000BD26E1C0D092BB2685E58093BD26DBC060
:101EC00089E18093BB2686E58093BD26D4C089E155
:101ED0008093BB2687E58093BD26CDC0C8010E94B4
:101EE000080ED093BB26C7C0C93469F0CA3428F4A1
:101EF0008C2F8053823068F406C0C93621F0C63773
:101F000011F0C63531F48DE18093BB26C093BA261B
:101F1000B2C0C8010E94080ED093BB26ACC08C2F63
:101F200080538A3030F48AE18093BB26F701C08366
:101F3000A2C0C8010E94080ED093BB269CC0CD3021
:101F400059F0CD3080F08C2F80538A3060F4C092ED
:101F5000BB26F501C0838FC0F50110820E94EE0CF4
:101F6000D093BB2688C0C8010E94080ED093BB2620
:101F700082C0CD3059F0CD3080F08C2F80538A3024
:101F800060F46092BB26F201C08375C0F20110823A
:101F90000E94EE0CD093BB266EC0C8010E94080EB2
:101FA000D093BB2668C0CD3059F0CD3080F08C2F57
:101FB00080538A3060F47092BB26F401C0835BC00A
:101FC000F40110820E94EE0CD093BB2654C0C801CD
:101FD0000E94080ED093BB264EC0CD3019F40E944B
:101FE000EE0C03C0C8010E94080ED093BB2643C06C
:101FF000CD30E1F58091BA26893421F18A3428F474
:102000008033A9F0813361F507C08936D9F086376E
:10201000C9F0863529F516C0D093BB268091B82526
:102020000E94E9058EE192E20E94080E24C0D0933E
:10203000BB268091B8250E94090687E292E20E94A1
:10204000080E19C0D093BB268091B8256091BD269B
:102050000E94010D80EA98E0B1010E94F4250BC0B6
:10206000C8010E94080ED093BB2605C0C8010E947B
:10207000080ED093BB2680EA98E00E94272D009797
:1020800009F08FCE8091A5258232B1F5C9E00FEB22
:1020900016E20F2EFBE6EF2EFF24F02D23C0209139
:1020A0003722F801E20FF11D8081882391F030E0A2
:1020B0002E9DC0012F9D900D3E9D900D1124845B9F
:1020C0009D4D0E94860B80913722F801E80FF11D8B
:1020D0001082809137228F5F80933722883010F0F2
:1020E0001092372280EB9BE00E94AD25F2E0803019
:1020F0009F0710F4C15099F6DF91CF911F910F9176
:10210000FF90EF90DF90CF90BF90AF909F908F9017
:102110007F906F905F904F903F902F90089585E152
:102120008093D0261092DD2608958091D02695E1E7
:102130009093D02608952BED36E29091DB26909374
:10214000DC26D9019E919093DB26F901329790818C
:102150009C93D90113979C919083F90134979081B6
:102160009C93808380818D30C1F48091D826823306
:10217000A1F48091D926813381F48091DA268035CB
:1021800061F48091DB268A3541F48091DC26843528
:1021900021F48CE08093D02608958091D7268D304D
:1021A000C1F48091D8268333A1F48091D92681335C
:1021B00081F48091DA26803561F48091DB268A35BE
:1021C00041F48091DC26843521F48DE08093D02683
:1021D00008958091D7268D30C1F48091D82684331C
:1021E000A1F48091D926813381F48091DA2680355B
:1021F00061F48091DB268A3541F48091DC268435B8
:1022000021F48EE08093D02608958091D7268D30DA
:10221000C1F48091D8268733A1F48091D9268133E7
:1022200081F48091DA26803561F48091DB268A354D
:1022300041F48091DC26843521F481E18093D0261D
:1022400008958091D7268D30C1F48091D8268833A7
:10225000A1F48091D926813381F48091DA268035EA
:1022600061F48091DB268A3541F48091DC26843547
:1022700021F482E18093D02608958091D7268D3075
:10228000C1F48091D8268933A1F48091D926813375
:1022900081F48091DA26803561F48091DB268A35DD
:1022A00041F48091DC26843521F483E18093D026AB
:1022B00008958091D7268D30C1F48091D82680333F
:1022C000A1F48091D926823381F48091DA26803579
:1022D00061F48091DB268A3541F48091DC268435D7
:1022E00021F484E18093D02608958091D7268D3003
:1022F000C1F48091D8268633A1F48091D926893300
:1023000081F48091DA26803561F48091DB268A356C
:1023100041F48091DC26843521F480E68093D02638
:1023200008958091D7268D30C1F48091D8268733C7
:10233000A1F48091D926893381F48091DA26803501
:1023400061F48091DB268A3541F48091DC26843566
:1023500021F481E68093D02608958091D7268D3090
:10236000C1F48091D8268833A1F48091D92689338D
:1023700081F48091DA26803561F48091DB268A35FC
:1023800041F48091DC26843521F482E68093D026C6
:1023900008958091D7268D30C1F48091D826893355
:1023A000A1F48091D926893381F48091DA26803591
:1023B00061F48091DB268A3541F48091DC268435F6
:1023C00021F483E68093D02608958091D7268D301E
:1023D000C1F48091D8268533A1F48091D926813328
:1023E00081F48091DA26803561F48091DB268A358C
:1023F00041F48091DC26843521F48FE08093D0264F
:1024000008958091D7268D30B9F48091D8268633EF
:1024100099F48091D926813379F48091DA26803538
:1024200059F48091DB268A3539F48091DC26843595
:1024300019F480E18093D02608958091D0268531CB
:1024400009F459C00E949510823191F1833180F4D2
:102450008E3031F18F3030F48C30D1F08D3009F086
:102460004AC01AC0803109F443C08131E8F43CC04D
:10247000803691F1813628F48331F1F08431D9F539
:102480001FC0823629F18236F8F08336A1F528C0C4
:1024900080E20E940105089581E20E9401050895ED
:1024A00082E20E940105089581E10E944A04089594
:1024B00082E10E944A04089583E10E944A0408953B
:1024C00084E10E944A04089581E60E9485040895EB
:1024D00082E60E948504089581E20E940105089524
:1024E00080E20E94010508958FE00E94150408957E
:1024F00080E10E9415040895E0EEF6E016828FE177
:102500008183E0E6F6E085838BEF8183E0ECF9E000
:102510008DED808382E081831092E1261092C9269E
:102520001092E32681E68093CE26089591E0909361
:10253000E1268093CF26843018F4823058F405C009
:10254000863068F08830A0F40FC091E0E0E6F6E055
:1025500096830EC092E0E0E6F6E0968309C094E030
:10256000E0E6F6E0968304C098E0E0E6F6E09683C5
:1025700080FF05C082E0E0ECF9E08383089581E00C
:10258000E0ECF9E08383089561E070E00090CF26ED
:1025900002C0660F771F0A94E2F760958091C92602
:1025A00068236093C9266623F1F070E060FD12C0D5
:1025B00021E030E0E1E0F0E0822FAF01022E02C026
:1025C000440F551F0A94E2F74623572314161506A5
:1025D0002CF401C080E00E94961208952F5F3F4FB7
:1025E0002830310549F708958230C1F0833028F44E
:1025F000882351F0813039F50CC08A33C9F08C330F
:10260000E1F0833001F50FC082E0E0EEF6E0858373
:10261000089584E0E0EEF6E08583089588E0E0EE3A
:10262000F6E08583089580E1E0EEF6E08583089585
:102630008EE1E0EEF6E0858308958091A425880F71
:10264000E0EEF6E0858308958230B1F0833028F41F
:10265000882341F08130F1F40AC0833091F08A334D
:10266000C9F414C082E0E0EEF6E08683089584E0C9
:10267000E0EEF6E08683089588E0E0EEF6E08683FB
:10268000089580E1E0EEF6E0868308958EE1E0EEC5
:10269000F6E0868308959091E126992321F0209118
:1026A000CF26281739F1E82FF0E021E030E0082E9E
:1026B00002C0220F331F0A94E2F7422F2091E32633
:1026C000242B2093E326EE0FFF1FEC51F94D262F0C
:1026D000372F54E02030350710F02FEF33E0208300
:1026E00031832091C926422B4093C926992311F4A6
:1026F0000E94961208956E32B9F4282F30E0F90145
:10270000EE0FFF1FEC51F94D4081518194E04030B4
:10271000590708F5F901EE0FFF1FEC51F94D4F5F16
:102720005F4F4083518317C06D32A9F4282F30E0EA
:10273000F901EE0FFF1FEC51F94D40815181411518
:10274000510549F0F901EE0FFF1FEC51F94D4150D1
:10275000504040835183E82FF0E0EE0FFF1FEC5113
:10276000F94D608171810E944B1308958093CE26AC
:102770000895E82FF0E0EE0FFF1FEC51F94D608156
:10278000718180E090E00E94183120E030E040EA62
:1027900050E40E94CA3120E030EC4FE754E40E943C
:1027A0007F30462F572F682F792FCB01BA0108951C
:1027B000CF92DF92EF92FF921F93CF93DF93182F68
:1027C000EB0180FD08C00E94B91348EE53E09E0162
:1027D0000E94AD0122C081500E94B9136B017C019F
:1027E000E12FF0E0EE0FFF1FEC51F94D6081718198
:1027F00080E090E00E9418319B01AC01C701B60156
:102800000E94CA3120E030EC4FE754E40E947F3050
:1028100048EE53E09E010E94AD01DF91CF911F91E0
:10282000FF90EF90DF90CF900895E82FF0E0EE0F4B
:10283000FF1FEC51F94D808191814AE050E00E94E8
:10284000533208951F920F920FB60F9208B60F924F
:1028500009B60F920BB60F9211242F933F934F930B
:102860005F936F937F938F939F93AF93BF93EF93F8
:10287000FF9381E00E94A62F8091E1268230C9F06B
:10288000833039F1813009F047C082E08093E1263E
:10289000E091CF26F0E0EE0FFF1FEC51F94D808163
:1028A00091819695879596958795E0ECF9E08383DD
:1028B00033C083E08093E126E091CF26F0E0EE0F75
:1028C000FF1FEC51F94D80818370E0ECF9E08383C8
:1028D00023C08091CF26843018F4823058F405C08C
:1028E000863068F08830A0F40FC081E0E0E6F6E0C2
:1028F00085830EC082E0E0E6F6E0858309C084E0CF
:10290000E0E6F6E0858304C088E0E0E6F6E0858353
:102910001092E1260E94C412FF91EF91BF91AF91F6
:102920009F918F917F916F915F914F913F912F91E7
:102930000F900BBE0F9009BE0F9008BE0F900FBEF8
:102940000F901F9018950895E0E4F6E083E38183EB
:102950008683868308958230C1F0833028F48823EB
:1029600051F0813069F50CC08A33C9F08C33E1F045
:10297000833031F50FC081E0E0E4F6E0858308950F
:1029800082E0E0E4F6E08583089580E1E0E4F6E0AB
:102990008583089580E2E0E4F6E08583089583E38B
:1029A000E0E4F6E0858308958091A425982F96951C
:1029B00096959295907F8370892BE0E4F6E085836D
:1029C00008958230B1F0833028F4882341F08130BB
:1029D000F1F40AC0833091F08A33C9F414C081E065
:1029E000E0E4F6E08683089582E0E0E4F6E08683A2
:1029F000089580E1E0E4F6E08683089580E2E0E473
:102A0000F6E08683089583E3E0E4F6E086830895A4
:102A10000895E0E5F0E082E282838BE0808380E04D
:102A20000E94A62FE0E5F0E081818B30E9F780E09D
:102A30000E94C22FE0E5F0E082E0868381E080938F
:102A4000600098ED94BF809340008AE0808380E02E
:102A500090E0089587E08093500080E00E94A62FC8
:102A6000E0E5F0E081818730E9F780E00E94C22F45
:102A7000E0E5F0E082E0868381E08093600098EDFD
:102A800094BF809340008AE0808380E090E00895C6
:102A90000E9410300E9441090E94CB150E942A1505
:102AA0000E94470B0E94920C0E948F1080EA98E0CF
:102AB00060E00E94F01680EB98E060E00E94F01663
:102AC00080EB9BE060E00E94F0160E941A2D0E94AD
:102AD00058010E94A4140E947C120E9407040E94C4
:102AE0003809E0E0F8E087E080838EE390E086A399
:102AF00097A387E8E0EAF0E08283789480E00E9480
:102B0000C22F81E00E94C22F82E064E670E00E9442
:102B10004230E0E8F6E083E0818382E0858380E074
:102B200061E00E94D82F12E001E00F2EF0E8EF2EB6
:102B3000F6E0FF2EF02DCC24C394BC2CDD24689449
:102B4000D1F8C0E0D8E001C00195F701B7820E943A
:102B50004E300E94F60A0E94AA020E9437060E9486
:102B6000E02D0E94400C0E948D0E0E941D120E94BA
:102B7000A314F701D6828C8580FFFDCFCC86F701A8
:102B8000D58280E0612F0E94D82F100F812F8150B5
:102B90008E3FD0F6DACFE0E2F7E080EC828380E48B
:102BA000828780E883878FE08187808586FD03C0E8
:102BB00089E9868B04C08AE9E0E2F7E0868BE0E2EF
:102BC000F7E0808588231CF089E9878B04C08AE9B7
:102BD000E0E2F7E0878B1092D5261092D6268CE2A1
:102BE0008093D22608958091D2268D3229F48CE2EA
:102BF0008093D22681E0089580E008958091D226C6
:102C00008E3229F48CE28093D22681E0089580E010
:102C100008951F920F920FB60F9208B60F920BB63F
:102C20000F9211248F939F93EF93FF93E0E2F7E0CD
:102C300086898A3901F5808588236CF08091D526B4
:102C40009091D62601978093D5269093D6268EE232
:102C50008093D2260CC08091D5269091D6260196DD
:102C60008093D5269093D6268DE28093D22689E94B
:102C7000E0E2F7E0868BE0E2F7E08689893901F54A
:102C8000808588236CF08091D5269091D626019678
:102C90008093D5269093D6268DE28093D2260CC0C1
:102CA0008091D5269091D62601978093D526909332
:102CB000D6268EE28093D2268AE9E0E2F7E0868B80
:102CC00081E0E0E2F7E08487FF91EF919F918F919F
:102CD0000F900BBE0F9008BE0F900FBE0F901F906D
:102CE00018951F920F920FB60F9208B60F920BB65F
:102CF0000F9211248F939F93EF93FF93E0E2F7E0FD
:102D000087898A3901F5808586FD0DC08091D52699
:102D10009091D62601968093D5269093D6268DE263
:102D20008093D2260CC08091D5269091D62601970B
:102D30008093D5269093D6268EE28093D22689E979
:102D4000E0E2F7E0878BE0E2F7E08789893901F577
:102D5000808586FD0DC08091D5269091D62601975D
:102D60008093D5269093D6268EE28093D2260CC0EF
:102D70008091D5269091D62601968093D526909362
:102D8000D6268DE28093D2268AE9E0E2F7E0878BAF
:102D900082E0E0E2F7E08487FF91EF919F918F91CD
:102DA0000F900BBE0F9008BE0F900FBE0F901F909C
:102DB00018950895E0EAF6E080E3818385818F7CB1
:102DC0008583E0E4FBE087E0808383E181838FEF0C
:102DD00090E086A397A380E190E080A791A7089553
:102DE000FC0188E0E03AF80751F4A0E4B6E088E09E
:102DF00011968C93119715968C93159761C088E066
:102E0000E03BF80751F4A0E4B6E080E811968C931B
:102E1000119715968C93159753C089E0E03AF807FF
:102E200051F4A0E6B6E088E011968C9311971596C0
:102E30008C93159745C089E0E03BF80751F4A0E674
:102E4000B6E080E811968C93119715968C931597A0
:102E500037C08AE0E03AF80751F4A0E8B6E088E02D
:102E600011968C93119715968C93159729C08AE02B
:102E7000E03BF80751F4A0E8B6E080E811968C93A7
:102E8000119715968C9315971BC08BE0E03AF807C5
:102E900051F4A0EAB6E088E011968C93119715964C
:102EA0008C9315970DC08BE0E03BF80749F4A0EA3E
:102EB000B6E080E811968C93119715968C93159730
:102EC000613039F0623051F48CEA878385EC868377
:102ED00009C088EA87838EE6868304C084EA8783F4
:102EE00082E38683138288E1848383E08583089567
:102EF000FC01818185FFFDCF60830895CF92DF9231
:102F0000EF92FF920F931F93CF93DF936C01E62F05
:102F1000F72FEF0109900020E9F72197CE1BDF0B77
:102F200079F0E62EF72E00E010E0F70161917F01C5
:102F3000C6010E9478170F5F1F4F0C171D07A9F7D6
:102F4000DF91CF911F910F91FF90EF90DF90CF9085
:102F50000895CF93DF93EC01673009F49DC068308A
:102F600090F4633009F458C0643030F46130A1F15A
:102F7000623008F041C020C0653009F46DC0663091
:102F800008F07AC059C06B3009F4C6C06C3038F410
:102F9000693009F4A1C06A3008F0AEC08DC06D3050
:102FA00009F4DAC06D3008F4C7C06E3009F4E4C02B
:102FB0006F3009F000C1F0C060E30E947817CE01C5
:102FC00060E30E947817CE0160E30E947817CE017B
:102FD00060E30E947817EFC060E30E947817CE018B
:102FE00060E30E947817CE0160E30E947817CE015B
:102FF00061E30E947817DFC060E30E947817CE017A
:1030000060E30E947817CE0161E30E947817CE0139
:1030100060E30E947817CFC060E30E947817CE016A
:1030200060E30E947817CE0161E30E947817CE0119
:1030300061E30E947817BFC060E30E947817CE0159
:1030400061E30E947817CE0160E30E947817CE01F9
:1030500060E30E947817AFC060E30E947817CE014A
:1030600061E30E947817CE0160E30E947817CE01D9
:1030700061E30E9478179FC060E30E947817CE0139
:1030800061E30E947817CE0161E30E947817CE01B8
:1030900060E30E9478178FC060E30E947817CE012A
:1030A00061E30E947817CE0161E30E947817CE0198
:1030B00061E30E9478177FC061E30E947817CE0118
:1030C00060E30E947817CE0160E30E947817CE017A
:1030D00060E30E9478176FC061E30E947817CE0109
:1030E00060E30E947817CE0160E30E947817CE015A
:1030F00061E30E9478175FC061E30E947817CE01F8
:1031000060E30E947817CE0161E30E947817CE0138
:1031100060E30E9478174FC061E30E947817CE01E8
:1031200060E30E947817CE0161E30E947817CE0118
:1031300061E30E9478173FC061E30E947817CE01D7
:1031400061E30E947817CE0160E30E947817CE01F8
:1031500060E30E9478172FC061E30E947817CE01C8
:1031600061E30E947817CE0160E30E947817CE01D8
:1031700061E30E9478171FC061E30E947817CE01B7
:1031800061E30E947817CE0161E30E947817CE01B7
:1031900060E30E9478170FC061E30E947817CE01A8
:1031A00061E30E947817CE0161E30E947817CE0197
:1031B00061E30E947817DF91CF9108951F93CF9319
:1031C000DF93EC01162F62E60E947817612F62955B
:1031D0006F70CE010E94A917612F6F70CE010E94FF
:1031E000A917DF91CF911F910895673009F43FC06F
:1031F000683070F4633059F1643028F46130F9F0CC
:10320000623008F518C0653051F1663060F523C0B2
:103210006B30E9F16C3028F4693089F16A3098F547
:103220002AC06D30E1F16D30B0F16E30E1F16F30F8
:1032300009F040C03CC060E30E947817089561E344
:103240000E947817089562E30E947817089563E357
:103250000E947817089564E30E947817089565E343
:103260000E947817089566E30E947817089567E32F
:103270000E947817089568E30E947817089569E31B
:103280000E947817089561E40E947817089562E417
:103290000E947817089563E40E947817089564E403
:1032A0000E947817089565E40E947817089566E4EF
:1032B0000E94781708951F93CF93DF93EC01162F88
:1032C00062956F700E94F518612F6F70CE010E9499
:1032D000F518DF91CF911F9108951F93CF93DF933E
:1032E000EC01142F0E945B19CE01612F0E945B1923
:1032F000DF91CF911F9108951F93CF93DF93EC013E
:10330000162F672F0E945B19CE01612F0E945B1957
:10331000DF91CF911F910895CF93DF93EC01673038
:1033200009F49DC0683090F4633009F458C06430EB
:1033300030F46130A1F1623008F041C020C0653046
:1033400009F46DC0663008F07AC059C06B3009F4DA
:10335000C6C06C3038F4693009F4A1C06A3008F096
:10336000AEC08DC06D3009F4DAC06D3008F4C7C04E
:103370006E3009F4E4C06F3009F000C1F0C060E3C2
:103380000E947A29CE0160E30E947A29CE0160E38F
:103390000E947A29CE0160E30E947A29EFC060E39F
:1033A0000E947A29CE0160E30E947A29CE0160E36F
:1033B0000E947A29CE0161E30E947A29DFC060E38E
:1033C0000E947A29CE0160E30E947A29CE0161E34E
:1033D0000E947A29CE0160E30E947A29CFC060E37F
:1033E0000E947A29CE0160E30E947A29CE0161E32E
:1033F0000E947A29CE0161E30E947A29BFC060E36E
:103400000E947A29CE0161E30E947A29CE0160E30D
:103410000E947A29CE0160E30E947A29AFC060E35E
:103420000E947A29CE0161E30E947A29CE0160E3ED
:103430000E947A29CE0161E30E947A299FC060E34D
:103440000E947A29CE0161E30E947A29CE0161E3CC
:103450000E947A29CE0160E30E947A298FC060E33E
:103460000E947A29CE0161E30E947A29CE0161E3AC
:103470000E947A29CE0161E30E947A297FC061E32C
:103480000E947A29CE0160E30E947A29CE0160E38E
:103490000E947A29CE0160E30E947A296FC061E31D
:1034A0000E947A29CE0160E30E947A29CE0160E36E
:1034B0000E947A29CE0161E30E947A295FC061E30C
:1034C0000E947A29CE0160E30E947A29CE0161E34D
:1034D0000E947A29CE0160E30E947A294FC061E3FD
:1034E0000E947A29CE0160E30E947A29CE0161E32D
:1034F0000E947A29CE0161E30E947A293FC061E3EC
:103500000E947A29CE0161E30E947A29CE0160E30C
:103510000E947A29CE0160E30E947A292FC061E3DC
:103520000E947A29CE0161E30E947A29CE0160E3EC
:103530000E947A29CE0161E30E947A291FC061E3CB
:103540000E947A29CE0161E30E947A29CE0161E3CB
:103550000E947A29CE0160E30E947A290FC061E3BC
:103560000E947A29CE0161E30E947A29CE0161E3AB
:103570000E947A29CE0161E30E947A29DF91CF91DE
:1035800008951F93CF93DF93EC01162F62E60E94FC
:103590007A29612F62956F70CE010E948C19612F7C
:1035A0006F70CE010E948C19DF91CF911F91089509
:1035B000673009F43FC0683070F4633059F164300B
:1035C00028F46130F9F0623008F518C0653051F127
:1035D000663060F523C06B30E9F16C3028F4693057
:1035E00089F16A3098F52AC06D30E1F16D30B0F1A3
:1035F0006E30E1F16F3009F040C03CC060E30E94E2
:103600007A29089561E30E947A29089562E30E946D
:103610007A29089563E30E947A29089564E30E9459
:103620007A29089565E30E947A29089566E30E9445
:103630007A29089567E30E947A29089568E30E9431
:103640007A29089569E30E947A29089561E40E9425
:103650007A29089562E40E947A29089563E40E9419
:103660007A29089564E40E947A29089565E40E9405
:103670007A29089566E40E947A2908951F93CF93CA
:10368000DF93EC01162F62956F700E94D81A612F9C
:103690006F70CE010E94D81ADF91CF911F910895CB
:1036A0001F93CF93DF93EC01142F0E943E1BCE019A
:1036B000612F0E943E1BDF91CF911F9108951F93B0
:1036C000CF93DF93EC01162F672F0E943E1BCE0194
:1036D000612F0E943E1BDF91CF911F9108951F9291
:1036E0000F920FB60F9208B60F9209B60F920AB654
:1036F0000F920BB60F9211242F933F934F935F932A
:103700008F939F93AF93BF93CF93DF93EF93FF93E9
:10371000C0EAD8E0E2E0FFE346EF56E213C088815A
:10372000A081B181A650B54D8C9380819181019685
:10373000808391838081918124E08030920710F012
:103740001082118289818823FCF480819181DA01C1
:103750002D913C9111978217930740F080819181C0
:103760002D913C911197821B930B0AC0808191810E
:10377000DA012D913C91119780509C4F821B930B45
:10378000B4E080309B0758F2FF91EF91DF91CF9129
:10379000BF91AF919F918F915F914F913F912F91E9
:1037A0000F900BBE0F900ABE0F9009BE0F9008BE7F
:1037B0000F900FBE0F901F9018951F920F920FB68B
:1037C0000F9208B60F9209B60F920AB60F920BB677
:1037D0000F9211242F933F934F935F938F939F9357
:1037E000AF93BF93CF93DF93EF93FF93C0EBD8E0FA
:1037F000E4E0FFE348EF56E213C08881A081B18185
:10380000A650B14D8C9380819181019680839183E4
:103810008081918124E08030920710F01082118223
:1038200089818823FCF480819181DA012D913C917A
:1038300011978217930740F0808191812D913C91DF
:103840001197821B930B0AC080819181DA012D911F
:103850003C91119780509C4F821B930BB4E08030B9
:103860009B0758F2FF91EF91DF91CF91BF91AF91FC
:103870009F918F915F914F913F912F910F900BBE30
:103880000F900ABE0F9009BE0F9008BE0F900FBE9A
:103890000F901F901895FC018381806383830895A6
:1038A000FC0183818F7C83830895FC018381826086
:1038B00083830895FC0183818C7F838308951F9205
:1038C0000F920FB60F9208B60F9209B60F920AB672
:1038D0000F920BB60F9211242F933F934F935F9348
:1038E0006F937F938F939F93AF93BF93CF93DF9308
:1038F000EF93FF93E0EBF8E0818185FD1AC03AC0B9
:1039000020813181808191810196808391838081A2
:10391000918144E08030940710F010821182205091
:10392000354CE9018881EB018883898185FD07C0D9
:1039300021C0AEEFB2E3EAE0FFE360EB78E08D9107
:103940009C911197208131818217930740F08D91CE
:103950009C91119720813181821B930B09C08D911D
:103960009C9111972081318180509C4F821B930B39
:10397000009731F62091FE323091FF3280910A3F5C
:1039800090910B3F2817390758F08091FE329091A3
:10399000FF3220910A3F30910B3F821B930B0CC0EA
:1039A0008091FE329091FF3220910A3F30910B3F7F
:1039B00080509C4F821B930B009729F080EB98E07E
:1039C0000E94551C04C080EB98E00E945A1CFF9195
:1039D000EF91DF91CF91BF91AF919F918F917F91A7
:1039E0006F915F914F913F912F910F900BBE0F9070
:1039F0000ABE0F9009BE0F9008BE0F900FBE0F9029
:103A00001F9018951F920F920FB60F9208B60F9243
:103A100009B60F920AB60F920BB60F9211242F938C
:103A20003F934F935F936F937F938F939F93AF9346
:103A3000BF93CF93DF93EF93FF93E0EAF8E08181A8
:103A400085FD1AC03AC02081318180819181019623
:103A5000808391838081918144E08030940710F0CD
:103A6000108211822050394CE9018881EB01888352
:103A7000898185FD07C021C0ACEFB2E3E8E0FFE338
:103A800060EA78E08D919C911197208131818217B5
:103A9000930740F08D919C91119720813181821B79
:103AA000930B09C08D919C91119720813181805099
:103AB0009C4F821B930B009731F62091FC32309182
:103AC000FD328091083F9091093F2817390758F03F
:103AD0008091FC329091FD322091083F3091093F56
:103AE000821B930B0CC08091FC329091FD3220918F
:103AF000083F3091093F80509C4F821B930B0097E9
:103B000029F080EA98E00E94551C04C080EA98E001
:103B10000E945A1CFF91EF91DF91CF91BF91AF911D
:103B20009F918F917F916F915F914F913F912F91D5
:103B30000F900BBE0F900ABE0F9009BE0F9008BEEB
:103B40000F900FBE0F901F9018950F931F93CF9358
:103B5000DF93DC0111968C91119785FD42C091C0D5
:103B60002BE0A03BB20751F038E0A03AB30741F098
:103B700088E0A03BB80731F422E005C020E003C094
:103B800021E001C020E030E0C901880F991FFB014E
:103B9000E80FF91F408151818081918101968083D6
:103BA000918380819181E4E080309E0740F0C901DB
:103BB000880F991F860F971FFC0110821182C9017F
:103BC000982F8827990F990F840F951FF801E80FF8
:103BD000F91F80818C9311968C91119785FD07C0F8
:103BE00050C0CAEFD2E366E07FE300E013E3FBE0FE
:103BF000A03BBF0751F028E0A03AB20741F038E0FF
:103C0000A03BB30731F422E005C020E003C021E06F
:103C100001C020E030E0C901880F991FFE01E80FC4
:103C2000F91F40815181FB01E80FF91F80819181CB
:103C30004817590788F0220F331FFE01E20FF31FC8
:103C400040815181FB01E20FF31F80819181FA01D4
:103C5000E81BF90BCF0112C0C901880F991FFE01A3
:103C6000E80FF91F40815181FB01E80FF91F208106
:103C70003181CA0180509C4F821B930B009709F041
:103C80006FCFFBE0A03BBF0751F028E0A03AB2079E
:103C900041F038E0A03BB30731F422E005C020E05A
:103CA00003C021E001C020E030E0C901880F991F66
:103CB000FC01E650FD4C408151818A5F904CFC0133
:103CC000808191814817590778F0220F331FF9013D
:103CD000E650FD4C408151812A5F304CF9018081D2
:103CE0009181481B590B10C0220F331FF901E65078
:103CF000FD4C408151812A5F304CF90180819181D6
:103D000040505C4F481B590B4115510521F0CD0126
:103D10000E94551C03C0CD010E945A1CDF91CF9117
:103D20001F910F9108953F924F925F926F927F92F1
:103D30008F929F92AF92BF92CF92DF92EF92FF92BB
:103D40000F931F93CF93DF936C01FC01818185FD5D
:103D50001DC18FC1F0EBCF16FBE0DF0661F020EA5A
:103D6000C21628E0D20649F030EBC31638E0D3067D
:103D700031F422E005C020E003C021E001C020E0D2
:103D800030E0C901880F991FF401E80FF91F408145
:103D9000518180819181019680839183808191817D
:103DA00064E08030960710F010821182C901982FCC
:103DB0008827990F990F840F951F840D951DFC017D
:103DC000B080FDE0BF1611F43092E226F801808148
:103DD00091818050954CFC01A082F80180819181F5
:103DE00001968083918380819181F4E080309F07E8
:103DF00018F0F80110821182F701818185FD18C049
:103E000031C0E881F98188819981019688839983FD
:103E10008881998124E08030920710F018821982FD
:103E2000E050F54C8081F7018083818185FF1AC0C5
:103E3000F80180819181288139818217930738F0B8
:103E40008081918128813981821B930B09C0F801FF
:103E5000808191812881398180509C4F821B930BF6
:103E6000009779F6F8018081918128813981821744
:103E7000930738F08081918128813981821B930BCF
:103E800009C0F801808191812881398180509C4F3F
:103E9000821B930B009721F0C7010E94551C03C0A1
:103EA000C7010E945A1CF801808191818050954C75
:103EB000FC01B082F8018081918101968083918319
:103EC00080819181F4E080309F0718F0F801108222
:103ED0001182F701818185FD18C031C0E881F98127
:103EE000888199810196888399838881998124E0CA
:103EF0008030920710F018821982E050F54C8081D2
:103F0000F7018083818185FF1AC0F801808191814A
:103F1000288139818217930738F080819181288127
:103F20003981821B930B09C0F8018081918128811E
:103F3000398180509C4F821B930B009779F6F801D2
:103F400080819181288139818217930738F080819F
:103F5000918128813981821B930B09C0F8018081EE
:103F600091812881398180509C4F821B930B00974F
:103F700021F0C7010E94551C03C0C7010E945A1CB2
:103F8000F601B082818185FD25C073C00F2EFAEF46
:103F90006F2EF2E37F2EF02D0F2EF6E08F2EFFE333
:103FA0009F2EF02D0F2EF0E04F2EF3E35F2EF02D1D
:103FB0000F2EFEE43F2EF02D0EEF12E30F2EF0E653
:103FC000AF2EF02D0F2EF0EBEF2EF8E0FF2EF02DA0
:103FD000CAE0DFE3F0EBCF16FBE0DF0661F020EA9A
:103FE000C21628E0D20649F030EBC31638E0D306FB
:103FF00031F422E005C020E003C021E001C020E050
:1040000030E0C901880F991FF301E80FF91F4081C3
:104010005181F401E80FF91F8081918148175907F8
:1040200088F0220F331FF301E20FF31F408151810B
:10403000F401E20FF31F80819181FA01E81BF90B73
:10404000CF0110C0220F331FF301E20FF31F808155
:104050009181F401E20FF31F2081318180509C4F48
:10406000821B930B009729F08091E226823509F498
:1040700071CEC6010E945A1CF0EBCF16FBE0DF06A2
:1040800061F020EAC21628E0D20649F030EBC316F0
:1040900038E0D30631F422E005C020E003C021E07F
:1040A00001C020E030E0C901880F991FFC01E650F3
:1040B000FD4C408151818A5F904CFC01808191814F
:1040C0004817590778F0220F331FF901E650FD4CCD
:1040D000808191812A5F304CF90120813181821BDE
:1040E000930B12C0220F331FF901E650FD4C4081A3
:1040F00051812A5F304CF9018081918140505C4FA1
:104100009A01281B390BC901009739F08091E226EA
:10411000823519F4C6010E94551CDF91CF911F9181
:104120000F91FF90EF90DF90CF90BF90AF909F9056
:104130008F907F906F905F904F903F9008951F9267
:104140000F920FB60F9208B60F9209B60F920AB6E9
:104150000F920BB60F9211243F924F925F926F9283
:104160007F928F929F92AF92BF92CF92DF92EF9207
:10417000FF920F931F932F933F934F935F936F93F0
:104180007F938F939F93AF93BF93CF93DF93EF93DF
:10419000FF93E0EBFBE0818185FDFBC048C1D601C8
:1041A000ED91FC9111978D919C91119701968D93B2
:1041B0009C9311978D919C911197B4E080309B074F
:1041C00020F0D6011D921C921197E40DF51DB080D0
:1041D000BDE0BB1611F43092E226F8018081918196
:1041E0008050954CDC01AC92808191810196808356
:1041F000918380819181B4E080309B0710F0108220
:104200001182F701818185FD1AC032C0E881F981F0
:10421000888199810196888399838881998124E096
:104220008030920710F018821982E050F54C80819E
:10423000D7018C9311968C91119785FF19C0F801C5
:1042400080819181288139818217930738F080819C
:10425000918128813981821B930B08C080819181D3
:104260002881398180509C4F821B930B009771F6F7
:10427000F80180819181288139818217930738F074
:104280008081918128813981821B930B08C08081B4
:1042900091812881398180509C4F821B930B00971C
:1042A00021F0C7010E94551C03C0C7010E945A1C7F
:1042B000F801808191818050954CDC01BC92808115
:1042C000918101968083918380819181B4E08030D7
:1042D0009B0710F010821182F701818185FD1AC0C1
:1042E00032C0E881F9818881998101968883998318
:1042F0008881998124E08030920710F01882198219
:10430000E050F54C8081D7018C9311968C911197D8
:1043100085FF19C0F8018081918128813981821738
:10432000930738F08081918128813981821B930B1A
:1043300008C0808191812881398180509C4F821BE7
:10434000930B009771F6F801808191812881398162
:104350008217930738F08081918128813981821BEF
:10436000930B08C0808191812881398180509C4FB6
:10437000821B930B009721F0C7010E94551C03C0BC
:10438000C7010E945A1CF301B082818185FD2BC0B8
:104390004EC00F2EFAEF8F2EF2E39F2EF02D0F2E30
:1043A000F6E0CF2EFFE3DF2EF02D0F2EF0E04F2EA4
:1043B000F3E35F2EF02D0F2EFEE43F2EF02D0EEFD7
:1043C00012E30F2EF0E6AF2EF02D0F2EF0EBEF2EB6
:1043D000F8E0FF2EF02DCAE0DFE30F2EF0EB6F2E9A
:1043E000FBE07F2EF02DD4018D919C911197F60169
:1043F000208131818217930740F08D919C91119714
:1044000020813181821B930B0BC0D4018D919C9133
:104410001197F6012081318180509C4F821B930BB4
:10442000009729F08091E226823509F4B8CE80EB1E
:104430009BE00E945A1C2091FA323091FB3280910D
:10444000063F9091073F2817390758F08091FA32BC
:104450009091FB322091063F3091073F821B930BD6
:104460000CC08091FA329091FB322091063F30913E
:10447000073F80509C4F821B930B009741F0809127
:10448000E226823521F480EB9BE00E94551CFF91CF
:10449000EF91DF91CF91BF91AF919F918F917F91DC
:1044A0006F915F914F913F912F911F910F91FF90CD
:1044B000EF90DF90CF90BF90AF909F908F907F90C4
:1044C0006F905F904F903F900F900BBE0F900ABE81
:1044D0000F9009BE0F9008BE0F900FBE0F901F9057
:1044E00018951F920F920FB60F9208B60F9209B649
:1044F0000F920AB60F920BB60F9211244F925F9251
:104500006F927F928F929F92AF92BF92CF92DF92E3
:10451000EF92FF920F931F932F933F934F935F93CD
:104520006F937F938F939F93AF93BF93CF93DF93BB
:10453000EF93FF930F2EF0EB8F2EFBE09F2EF02DCD
:104540000F2EF0E0AF2EFFE3BF2EF02D0F2EF4EF75
:104550006F2EF6E27F2EF02D0EEF12E30F2EF0EB12
:10456000EF2EF8E0FF2EF02DCAE0DFE30F2EFFE480
:10457000CF2EF02D0F2EFAEF4F2EF6E25F2EF02DFC
:104580008DC0F401D080F801808191818050954CDC
:10459000FC01D082F8018081918101968083918312
:1045A00080819181F4E080309F0718F0F80110823B
:1045B0001182F701818185FD18C031C0E881F98140
:1045C000888199810196888399838881998124E0E3
:1045D0008030920710F018821982E050F54C8081EB
:1045E000F7018083818185FF1AC0F8018081918164
:1045F000288139818217930738F080819181288141
:104600003981821B930B09C0F80180819181288137
:10461000398180509C4F821B930B009779F6F801EB
:1046200080819181288139818217930738F08081B8
:10463000918128813981821B930B09C0F801808107
:1046400091812881398180509C4F821B930B009768
:1046500021F0C7010E94551C03C0C7010E945A1CCB
:10466000FDE0DF1611F4C092E2268D2D0E949B1012
:10467000F50180819181840D951DFC01D082F501A9
:104680008081918101968083918380819181F4E082
:1046900080309F0718F0F50110821182F4018181AA
:1046A00088230CF5F50180819181F301208131810E
:1046B0008217930748F0F50180819181F3012081F1
:1046C0003181821B930B0AC0F50180819181F30136
:1046D0002081318180509C4F821B930BF4E080300D
:1046E0009F0708F44ECFFF91EF91DF91CF91BF91DB
:1046F000AF919F918F917F916F915F914F913F917A
:104700002F911F910F91FF90EF90DF90CF90BF906E
:10471000AF909F908F907F906F905F904F900F9091
:104720000BBE0F900ABE0F9009BE0F9008BE0F90EF
:104730000FBE0F901F901895CF92DF92EF92FF92CD
:104740000F931F93CF93DF93DC010F2EF0E0CF2E5A
:10475000FFE3DF2EF02D04EF16E20F2EFAEFEF2E1F
:10476000F6E2FF2EF02D3AC04C912BE0A03BB207B1
:1047700051F038E0A03AB30741F088E0A03BB80719
:1047800031F462E005C060E003C061E001C060E0B8
:1047900070E0CB01880F991FF601E80FF91F208107
:1047A0003181CB01982F8827990F990F820F931F82
:1047B0008E0D9F1DEC01488380819181019680833D
:1047C000918380819181D4E080309D0738F0FB0196
:1047D000EE0FFF1FEC0DFD1D1082118211968C91C2
:1047E000119788230CF04CC02BE0A03BB20751F08E
:1047F00038E0A03AB30741F088E0A03BB80731F4B5
:1048000022E005C020E003C021E001C020E030E04C
:10481000C901880F991FF601E80FF91F40815181E6
:10482000F801E80FF91F808191814817590788F036
:10483000220F331FF601E20FF31F40815181F8016F
:10484000E20FF31F80819181EA01C81BD90BCE01D1
:1048500012C0C901880F991FF601E80FF91F4081A6
:104860005181F801E80FF91F20813181CA01805080
:104870009C4F821B930BD4E080309D0708F474CFCB
:10488000DF91CF911F910F91FF90EF90DF90CF902C
:1048900008954F925F926F927F928F929F92AF9204
:1048A000BF92CF92DF92EF92FF920F931F93CF931D
:1048B000DF935C010F2EF0E08F2EFFE39F2EF02D93
:1048C0000F2EF4EF6F2EF6E27F2EF02D0EEF12E397
:1048D0000F2EF0EBEF2EF8E0FF2EF02DCAE0DFE315
:1048E0000F2EFFE4CF2EF02D0F2EFAEF4F2EF6E213
:1048F0005F2EF02DACC0D501DC90F8018081918154
:104900008050954CDC01DC928081918101968083FE
:10491000918380819181B4E080309B0710F01082F8
:104920001182F701818185FD1AC032C0E881F981C9
:10493000888199810196888399838881998124E06F
:104940008030920710F018821982E050F54C808177
:10495000D7018C9311968C91119785FF19C0F8019E
:1049600080819181288139818217930738F0808175
:10497000918128813981821B930B08C080819181AC
:104980002881398180509C4F821B930B009771F6D0
:10499000F80180819181288139818217930738F04D
:1049A0008081918128813981821B930B08C080818D
:1049B00091812881398180509C4F821B930B0097F5
:1049C00021F0C7010E94551C03C0C7010E945A1C58
:1049D000BDE0DB1611F4C092E2268D2D0E949B10E3
:1049E000E0EBAE16EBE0BE0661F0F0EAAF16F8E0E1
:1049F000BF0649F020EBA21628E0B20631F442E0EF
:104A000005C040E003C041E001C040E050E0CA0101
:104A1000880F991FF401E80FF91F20813181CA0125
:104A2000982F8827990F990F820F931F840D951D3A
:104A3000DC01DC9280819181019680839183808169
:104A40009181B4E080309B0710F010821182D50173
:104A500011968C91119788230CF04DC0B0EBAB16DA
:104A6000BBE0BB0661F0E0EAAE16E8E0BE0649F046
:104A7000F0EBAF16F8E0BF0631F422E005C020E00D
:104A800003C021E001C020E030E0C901880F991F78
:104A9000F401E80FF91F40815181F301E80FF91F7C
:104AA000808191814817590788F0220F331FF40144
:104AB000E20FF31F40815181F301E20FF31F808168
:104AC00091819A01281B390BC90110C0220F331F95
:104AD000F401E20FF31F80819181F301E20FF31FD4
:104AE0002081318180509C4F821B930B34E08030B9
:104AF000930708F400CFDF91CF911F910F91FF90A2
:104B0000EF90DF90CF90BF90AF909F908F907F906D
:104B10006F905F904F9008952BE0803B920751F08B
:104B2000E8E0803A9E0741F0F8E0803B9F0731F4CF
:104B300082E005C080E003C081E001C080E090E039
:104B4000880F991FFC01E650FD4C108211828A5F8C
:104B5000904CFC011082118208952BE0803B92075B
:104B600051F0E8E0803A9E0741F0F8E0803B9F0773
:104B700031F482E005C080E003C081E001C080E044
:104B800090E09C01220F331FF901E650FD4C40815B
:104B900051812A5F304CF90120813181421753073E
:104BA00080F09C01220F331FF901E650FD4C8081FB
:104BB00091812A5F304CF90120813181821B930B56
:104BC00008959C01220F331FF901E650FD4C4081EE
:104BD00051812A5F304CF90120813181CA01805016
:104BE0009C4F821B930B08952F923F924F925F929E
:104BF0006F927F928F929F92AF92BF92CF92DF92ED
:104C0000EF92FF920F931F93CF93DF9300D00F92F9
:104C1000CDB7DEB76C01262F372FD9010D900020BC
:104C2000E9F71197CD01821B930B8B839C8300972F
:104C300009F44AC369837A83222433240F2EFAEFBE
:104C40006F2EF2E37F2EF02D0F2EF0E04F2EF3E3C8
:104C50005F2EF02D0F2EF6E08F2EFFE39F2EF02D0E
:104C60000F2EFEEFEF2EF2E3FF2EF02DA981BA8179
:104C70007D91A983BA83B0EBCB16BBE0DB0661F074
:104C8000E0EACE16E8E0DE0649F0F0EBCF16F8E0F9
:104C9000DF0631F462E005C060E003C061E001C0FE
:104CA00060E0462F50E0CA01880F991FF301E80F1A
:104CB000F91F20813181CA01982F8827990F990FF8
:104CC000820F931F840D951DDC017C93808191815F
:104CD00001968083918380819181B4E080309B072D
:104CE00010F010821182662339F0D60111968C9152
:104CF000119785FD44C28EC2F601818185FD54C1A4
:104D0000A8C1F0EBCF16FBE0DF0661F020EAC21687
:104D100028E0D20649F030EBC31638E0D30631F470
:104D200022E005C020E003C021E001C020E030E027
:104D3000C901880F991FF401E80FF91F40815181C3
:104D4000808191810196808391838081918164E04B
:104D50008030960710F010821182C901982F8827A1
:104D6000990F990F840F951F840D951DFC01B0803C
:104D7000FDE0BF1619F42EE42093E226D7018D91B1
:104D80009C9111978050954CFC01A0828D919C9133
:104D9000119701968D939C9311978D919C911197EA
:104DA000F4E080309F0718F01D921C921197D801F3
:104DB00011968C91119785FD1FC03FC0AAE0BFE3FB
:104DC000ED91FC9111978D919C91119701968D9386
:104DD0009C9311978D919C911197B4E080309B0723
:104DE00018F01D921C921197E050F54C8081F8014B
:104DF0008083818185FF21C0D7018D919C9111977E
:104E0000EAE0FFE3208131818217930740F08D9122
:104E10009C91119720813181821B930B0CC0D7018B
:104E20008D919C911197EAE0FFE3208131818050C0
:104E30009C4F821B930B009709F6D7018D919C9193
:104E40001197EAE0FFE3208131818217930740F058
:104E50008D919C91119720813181821B930B0CC005
:104E6000D7018D919C911197EAE0FFE32081318178
:104E700080509C4F821B930B009721F0C8010E9429
:104E8000551C03C0C8010E945A1CD7018D919C91EA
:104E900011978050954CFC01B0828D919C91119797
:104EA00001968D939C9311978D919C911197F4E0AD
:104EB00080309F0718F01D921C921197D80111960F
:104EC0008C91119785FD1FC03FC0AAE0BFE3ED9113
:104ED000FC9111978D919C91119701968D939C93C4
:104EE00011978D919C911197B4E080309B0718F039
:104EF0001D921C921197E050F54C8081F80180833F
:104F0000818185FF21C0D7018D919C911197EAE0A5
:104F1000FFE3208131818217930740F08D919C91AE
:104F2000119720813181821B930B0CC0D7018D9189
:104F30009C911197EAE0FFE32081318180509C4FE2
:104F4000821B930B009709F6D7018D919C911197C5
:104F5000EAE0FFE3208131818217930740F08D91D1
:104F60009C91119720813181821B930B0CC0D7013A
:104F70008D919C911197EAE0FFE32081318180506F
:104F80009C4F821B930B009721F0C8010E94551C77
:104F900003C0C8010E945A1CD601BC9211968C9184
:104FA000119785FD07C055C00F2EF0E6AF2EF02DEE
:104FB00000EB18E0B0EBCB16BBE0DB0661F0E0EAFB
:104FC000CE16E8E0DE0649F0F0EBCF16F8E0DF069B
:104FD00031F422E005C020E003C021E001C020E060
:104FE00030E0C901880F991FF301E80FF91F4081D4
:104FF0005181F401E80FF91F808191814817590709
:1050000088F0220F331FF301E20FF31F408151811B
:10501000F401E20FF31F808191819A01281B390B63
:10502000C90110C0220F331FF301E20FF31F80816B
:105030009181F401E20FF31F2081318180509C4F58
:10504000821B930B009729F08091E226823509F4A8
:1050500058CEC6010E945A1C30EBC3163BE0D30663
:1050600061F060EAC61668E0D60649F080EBC81623
:1050700088E0D80631F482E005C080E003C081E01A
:1050800001C080E0282F30E0C901880F991FF3018B
:10509000E80FF91F40815181F401E80FF91F808169
:1050A00091814817590788F0220F331FF301E20F4F
:1050B000F31F40815181F401E20FF31F8081918140
:1050C000DA01A81BB90BCD0110C0220F331FF30169
:1050D000E20FF31F80819181F401E20FF31F208121
:1050E000318180509C4F821B930B009709F4E3C0E1
:1050F0008091E226823509F0DEC0C6010E94551C6F
:10510000DAC0B0EBCB16BBE0DB0661F0E0EACE160E
:10511000E8E0DE0649F0F0EBCF16F8E0DF0631F408
:1051200022E005C020E003C021E001C020E030E023
:10513000C901880F991FF401E80FF91F40815181BF
:10514000808191810196808391838081918164E047
:105150008030960710F010821182C901982F88279D
:10516000990F990F840F951F840D951DFC01808167
:10517000D6018C9311968C91119785FF4BC0B0EBA3
:10518000CB16BBE0DB0661F0E0EACE16E8E0DE0617
:1051900049F0F0EBCF16F8E0DF0631F422E005C06D
:1051A00020E003C021E001C020E030E0C901880F09
:1051B000991FF301E80FF91F40815181F401E80FB5
:1051C000F91F808191814817590788F0220F331FFA
:1051D000F301E20FF31F40815181F401E20FF31F4D
:1051E000808191819A01281B390BC90110C0220FBF
:1051F000331FF301E20FF31F80819181F401E20F6D
:10520000F31F2081318180509C4F821B930B0097AC
:1052100009F077CF30EBC3163BE0D30661F060EACC
:10522000C61668E0D60649F080EBC81688E0D806B6
:1052300031F422E005C020E003C021E001C020E0FD
:1052400030E0C901880F991FF301E80FF91F408171
:105250005181F401E80FF91F8081918148175907A6
:1052600088F0220F331FF301E20FF31F40815181B9
:10527000F401E20FF31F80819181DA01A81BB90BC1
:10528000CD0110C0220F331FF301E20FF31F808105
:105290009181F401E20FF31F2081318180509C4FF6
:1052A000821B930B009721F0C6010E94551C03C07E
:1052B000C6010E945A1C0894211C311CEB81FC8100
:1052C0002E163F0609F0D2CC2496CDBFDEBFDF916B
:1052D000CF911F910F91FF90EF90DF90CF90BF90F3
:1052E000AF909F908F907F906F905F904F903F9086
:1052F0002F9008953F924F925F926F927F928F927C
:105300009F92AF92BF92CF92DF92EF92FF920F9354
:105310001F93CF93DF936C012BE0803B920759F0F2
:1053200038E0803A930749F080EBC81688E0D80649
:1053300031F442E005C040E003C041E001C040E07C
:10534000C42FD0E0FE01EE0FFF1FE650FD4C208180
:105350003181CE01982F8827990F990F820F931FC3
:10536000DC01A050BD4C6C938081918101968083BB
:10537000918380819181E4E080309E0730F0CC0FF2
:10538000DD1FC650DD4C18821982442329F0F60136
:10539000818185FD2FC281C2F601818185FD1DC1FC
:1053A0008FC1F0EBCF16FBE0DF0661F020EAC216FA
:1053B00028E0D20649F030EBC31638E0D30631F4CA
:1053C00022E005C020E003C021E001C020E030E081
:1053D000C901880F991FF401E80FF91F408151811D
:1053E000808191810196808391838081918164E0A5
:1053F0008030960710F010821182C901982F8827FB
:10540000990F990F840F951F840D951DFC01B08095
:10541000FDE0BF1611F43092E226F80180819181FF
:105420008050954CFC01A082F80180819181019609
:105430008083918380819181F4E080309F0718F010
:10544000F80110821182F701818185FD18C031C0F9
:10545000E881F9818881998101968883998388817F
:10546000998124E08030920710F018821982E05070
:10547000F54C8081F7018083818185FF1AC0F80196
:1054800080819181288139818217930738F080814A
:10549000918128813981821B930B09C0F801808199
:1054A00091812881398180509C4F821B930B0097FA
:1054B00079F6F801808191812881398182179307DB
:1054C00038F08081918128813981821B930B09C03A
:1054D000F801808191812881398180509C4F821B05
:1054E000930B009721F0C7010E94551C03C0C70110
:1054F0000E945A1CF801808191818050954CFC01DA
:10550000B082F801808191810196808391838081AE
:105510009181F4E080309F0718F0F8011082118229
:10552000F701818185FD18C031C0E881F98188814A
:1055300099810196888399838881998124E08030BC
:10554000920710F018821982E050F54C8081F70123
:105550008083818185FF1AC0F80180819181288133
:1055600039818217930738F08081918128813981B0
:10557000821B930B09C0F8018081918128813981B8
:1055800080509C4F821B930B009779F6F801808125
:105590009181288139818217930738F08081918128
:1055A00028813981821B930B09C0F8018081918188
:1055B0002881398180509C4F821B930B009721F0EA
:1055C000C7010E94551C03C0C7010E945A1CF60166
:1055D000B082818185FD25C073C00F2EFAEF6F2E3A
:1055E000F2E37F2EF02D0F2EF6E08F2EFFE39F2E9D
:1055F000F02D0F2EF0E04F2EF3E35F2EF02D0F2E47
:10560000FEE43F2EF02D0EEF12E30F2EF0E6AF2E4C
:10561000F02D0F2EF0EBEF2EF8E0FF2EF02DCAE06C
:10562000DFE3F0EBCF16FBE0DF0661F020EAC21605
:1056300028E0D20649F030EBC31638E0D30631F447
:1056400022E005C020E003C021E001C020E030E0FE
:10565000C901880F991FF301E80FF91F408151819B
:10566000F401E80FF91F808191814817590788F0EC
:10567000220F331FF301E20FF31F40815181F40128
:10568000E20FF31F80819181FA01E81BF90BCF0132
:1056900010C0220F331FF301E20FF31F80819181AD
:1056A000F401E20FF31F2081318180509C4F821B57
:1056B000930B009729F08091E226823509F471CE90
:1056C000C6010E945A1CF0EBCF16FBE0DF0661F02A
:1056D00020EAC21628E0D20649F030EBC31638E0C3
:1056E000D30631F422E005C020E003C021E001C070
:1056F00020E030E0C901880F991FFC01E650FD4C05
:10570000408151818A5F904CFC01808191814817D2
:10571000590778F0220F331FF901E650FD4C8081C4
:1057200091812A5F304CF90120813181821B930BDA
:1057300012C0220F331FF901E650FD4C4081518108
:105740002A5F304CF9018081918140505C4F9A0171
:10575000281B390BC901009709F4EFC08091E2269C
:10576000823509F0EAC0C6010E94551CE6C030EB44
:10577000C3163BE0D30661F080EAC81688E0D8067D
:1057800049F0E0EBCE16E8E0DE0631F422E005C099
:1057900020E003C021E001C020E030E0C901880F13
:1057A000991FFB01E80FF91F408151818081918190
:1057B00001968083918380819181F4E080309F07FE
:1057C00040F0C901880F991F860F971FFC011082B6
:1057D0001182C901982F8827990F990F840F951F5F
:1057E000FE01E80FF91F8081F6018083818185FD2C
:1057F00007C053C0AAEFB2E366E07FE3C0E0D3E3A3
:10580000F0EBCF16FBE0DF0661F020EAC21628E0DD
:10581000D20649F030EBC31638E0D30631F422E06B
:1058200005C020E003C021E001C020E030E0C90154
:10583000880F991FFD01E80FF91F40815181FB017D
:10584000E80FF91F808191814817590788F0220FCE
:10585000331FFD01E20FF31F40815181FB01E20F75
:10586000F31F80819181FA01E81BF90BCF0112C06F
:10587000C901880F991FFD01E80FF91F408151816F
:10588000FB01E80FF91F20813181CA0180509C4F34
:10589000821B930B009709F06ACFF0EBCF16FBE069
:1058A000DF0661F020EAC21628E0D20649F030EBAC
:1058B000C31638E0D30631F422E005C020E003C06F
:1058C00021E001C020E030E0C901880F991FFC01F0
:1058D000E650FD4C408151818A5F904CFC018081F3
:1058E00091814817590778F0220F331FF901E650CC
:1058F000FD4C408151812A5F304CF90180819181BA
:10590000481B590B10C0220F331FF901E650FD4C04
:10591000408151812A5F304CF90180819181405052
:105920005C4F481B590B4115510521F0C6010E94DF
:10593000551C03C0C6010E945A1CDF91CF911F91D4
:105940000F91FF90EF90DF90CF90BF90AF909F901E
:105950008F907F906F905F904F903F9008952BE0D5
:10596000803B920751F068E0803A960741F028E0CA
:10597000803B920731F422E005C020E003C021E023
:1059800001C020E030E0F901EE0FFF1FEA5FF04CAC
:1059900040815181808191810196808391838081B2
:1059A000918164E08030960738F0F901EE0FFF1F17
:1059B000EA5FF04C10821182F901FE2FEE27FF0FF3
:1059C000FF0F4E0F5F1FFA01E050FD4C80810895DC
:1059D0002BE0803B920751F0E8E0803A9E0741F0CF
:1059E000F8E0803B9F0731F482E005C080E003C00F
:1059F00081E001C080E090E0880F991FFC01E05039
:105A0000F14C108211828C50994DFC011082118250
:105A10000895CF93DF93EC010E948C25CE010E9464
:105A2000E82CCE010E944B1CCE010E94551CDF9138
:105A3000CF91089580EA98E00E94092D80EB98E0CC
:105A40000E94092D80EB9BE00E94092D08952BE018
:105A5000803B920751F0E8E0803A9E0741F0F8E081
:105A6000803B9F0731F482E005C080E003C081E005
:105A700001C080E090E09C01220F331FF901E0504B
:105A8000F14C408151812C50394DF90120813181F7
:105A90004217530780F09C01220F331FF901E05099
:105AA000F14C808191812C50394DF9012081318157
:105AB000821B930B08959C01220F331FF901E050C4
:105AC000F14C408151812C50394DF90120813181B7
:105AD000CA0180509C4F821B930B08952BE0803BA2
