:100000000C94FA000C941F010C941F010C941F0116
:100010000C941F010C941F010C941F010C941F01E0
:100020000C941F010C941F010C941F010C941F01D0
:100030000C941F010C941F010C941F010C941F01C0
:100040000C941F010C941F010C941F010C941F01B0
:100050000C941F010C941F010C941F010C941F01A0
:100060000C941F010C9479180C940C1A0C941F0119
:100070000C94E7180C9469190C941F010C941F013F
:100080000C941F010C941F010C941F010C941F0170
:100090000C941F010C941F010C941F010C941F0160
:1000A0000C941F010C941F010C941F010C941F0150
:1000B0000C941F010C941F010C941F010C941F0140
:1000C0000C941F010C941F010C941F010C941F0130
:1000D0000C941F010C941F010C941F010C941F0120
:1000E0000C941F010C941F010C941F010C941F0110
:1000F0000C941F010C941F010C941F010C941F0100
:100100000C941F010C941F010C941F010C941F01EF
:100110000C941F010C941F010C941F010C941F01DF
:100120000C941F010C941F010C941F010C941F01CF
:100130000C941F010C941F010C941F010C941F01BF
:100140000C941F010C941F010C941F010C941F01AF
:100150000C941F010C941F010C941F010C942C1182
:100160000C941F010C941F010C941F010C941F018F
:100170000C941F010C941F010C941F010C941F017F
:100180000C941F010C941F010C941F010C941F016F
:100190000C9413130C947B130C941F010C941F01EB
:1001A0000C941F010C941F010C941F010C941F014F
:1001B0000C941F010C941F010C941F010C941F013F
:1001C0000C941F010C941F010C941F010C941F012F
:1001D0000C941F010C941F010C941F010C941F011F
:1001E0000C941F010C941F010C94A01F0C94B41DBF
:1001F0000C941F0111241FBECFEFDFE3DEBFCDBF84
:1002000000E00CBF18BE19BE1ABE1BBE12E2A0E071
:10021000B0E2E0E5F0E600E00BBF02C007900D920F
:10022000A831B107D9F71EE3A8E1B2E201C01D92DF
:10023000AD3DB107E1F70E9452120C9426300C94A8
:100240000000AAECB1E092E09C93E82FF0E08491EA
:100250001C92089580FF10C0E0E0F2E011A228E0B7
:1002600021A790E191AB88E181AFE0E4F2E011A237
:1002700021A791AB81AF0895E0E0F2E030E231A335
:1002800028E221A790E391AB88E381AFE0E4F2E0BC
:1002900031A321A791AB81AF0895E0E0F2E0808126
:1002A0008C638083E0E4F2E080818C638083089536
:1002B000CF92DF92EF92FF920F931F93CF93DF9332
:1002C00080E20E942101C0E0D2E08C8781E20E949E
:1002D00021018D870F2EF7E0EF2EF02DEC820F2EEF
:1002E000F3E1DF2EF02DDA820F2EF6E0CF2EF02D87
:1002F000C982FF24F394F882F8A2F8A6F8AAF8AE0F
:1003000084E20E94210100E412E0F801848785E282
:100310000E942101F8018587E482D282C182F082A5
:10032000F0A2F0A6F0AAF0AE10928A2610928926CA
:1003300080E00E942A01888182608883F80181819F
:10034000826081830E944D01DF91CF911F910F91B7
:10035000FF90EF90DF90CF900895CF92DF92EF92D1
:10036000FF92CF93DF936B017C01E901BA0180E03A
:1003700090E00E94852EA70196010E94372F0E94CF
:10038000542EDC01CB01BE014AE050E00E949A2FBE
:10039000DF91CF91FF90EF90DF90CF900895EF9293
:1003A000FF920F931F93CF93DF937A01A82FB0E0B2
:1003B000AD0142955295507F5427407F5427FA0152
:1003C000E757FA4D47565A4D80E090E02191319120
:1003D000820F931FE417F507C9F7969587959695B1
:1003E000879596958795683651F06A3671F067362D
:1003F000E1F4813A910510F1815A904021C0843B8B
:10040000910588F0845B904032C01197AE7FA25E68
:10041000BD4D2D913C9111978217930708F45AC056
:10042000821B930B59C080E090E0683601F16A3678
:1004300009F452C0673609F05FC002C080E090E066
:10044000BC0180E090E00E94852E27E938EA4FEF5A
:1004500059E30E94372F25E83BEE41E551E40E9425
:10046000372F44E650E097010E94AD0145C0BC0122
:1004700080E090E00E94852E27E938EA4FEF59E3AB
:100480000E94372F25E83BEE41E551E40E94372FCB
:10049000062F172FD82FC92F862F912FAD2FBC2FA6
:1004A000BC01CD012DEC3CEC4CE050E40E94E82D69
:1004B000882324F400E010E0D0E0C0E0802F912FEA
:1004C000AD2FBC2FBC01CD0144E650E097010E9446
:1004D000AD0112C080E090E0BC0180E090E00E949D
:1004E000852E23E730E34BE15AE30E94372F48EE95
:1004F00053E097010E94AD01DF91CF911F910F91C1
:10050000FF90EF900895482F50E042955295507F0C
:100510005427407F5427FA01E757FA4D47565A4D62
:1005200020E030E0819191912817390708F49C016F
:10053000E417F507B9F7822F932F089592958295C6
:100540008F7089279F708927813A910510F481EA7D
:1005500090E00895DF92EF92FF920F931F93CF9355
:10056000DF93E0E0F2E086818F3009F016C1E0E42D
:10057000F2E086818F3009F010C180918A2680FFD9
:1005800071C00091892610E0C0E0D2E08889998985
:100590000E949E020F2EF9E8EF2EF5E2FF2EF02DBD
:1005A000F801EE0FFF1FEE0DFF1D808391838A89F6
:1005B0009B890E949E02F8013896EE0FFF1FEE0DF8
:1005C000FF1D808391838C899D890E949E02F80182
:1005D0007096EE0FFF1FEE0DFF1D808391838E89B5
:1005E0009F890E949E02F8017896EE0FFF1FEE0D84
:1005F000FF1D80839183C0E4D2E08CA19DA10E9465
:100600009E02F801E05CFF4FEE0FFF1FEE0DFF1D95
:10061000808391838CA59DA50E949E02F801E85BD2
:10062000FF4FEE0FFF1FEE0DFF1D808391838CA9FE
:100630009DA90E949E02F801E05BFF4FEE0FFF1F95
:10064000EE0DFF1D808391838CAD9DAD0E949E02B7
:10065000085A1F4F000F111FE00EF11EF701808393
:1006600091837AC0D09089260D2D10E0C0E0D2E0B1
:100670008CA19DA10E949E02F801B0960F2EF9E870
:10068000EF2EF5E2FF2EF02DEE0FFF1FEE0DFF1DFA
:10069000808391838CA59DA50E949E02F801B89647
:1006A000EE0FFF1FEE0DFF1D808391838CA99DA986
:1006B0000E949E02F801F096EE0FFF1FEE0DFF1D47
:1006C000808391838CAD9DAD0E949E02F801F896C7
:1006D000EE0FFF1FEE0DFF1D80839183C0E4D2E07B
:1006E0008CA19DA10E949E02F801E05AFF4FEE0FDF
:1006F000FF1FEE0DFF1D808391838A899B890E94D5
:100700009E02F801E859FF4FEE0FFF1FEE0DFF1D8F
:10071000808391838C899D890E949E02F801E05913
:10072000FF4FEE0FFF1FEE0DFF1D808391838E891B
:100730009F890E949E0208581F4F000F111FE00E54
:10074000F11EF701808391838D2D8F5F8093892621
:10075000883010F0109289268FE0E0E0F2E0868386
:10076000E0E4F2E0868380918A268F5F80938A2678
:100770000E942A010E944D0180918825893269F4E6
:10078000CEE1D2E200E0802F880F8F5F0E948302CB
:10079000899399930F5F0830B1F7DF91CF911F9143
:1007A0000F91FF90EF90DF9008958091872582321E
:1007B00089F4809118228F5F8093182280FF05C0F2
:1007C00080E090E20E94C90C08958FE090E20E94C0
:1007D000C90C08958DE190E20E946F0B87E290E2D0
:1007E0000E946F0B82E390E20E946F0B8CE390E219
:1007F0000E946F0B08951092862589E280938825C8
:100800008AE30E94EB1185E00E946F0908950E941F
:10081000FB038FE180938725089580E280938725ED
:1008200087E490E20E94080C0895CF93C82F81E0DE
:1008300064E670E00E94AF2DCF3019F0C03101F5B1
:1008400010C083E28093872581E590E20E94080C26
:100850008EE590E20E946F0B86E690E20E946F0B9D
:100860000FC084E28093872581E590E20E94080C06
:100870008EE690E20E946F0B86E790E20E946F0B7B
:10088000CF91089581E2809387258EE790E20E94C0
:10089000080C0895CF93C82F81E064E670E00E94B1
:1008A000AF2D89E890E20E94080C8FEF8093B1266B
:1008B000C23191F0C33118F4C13129F505C0C331FB
:1008C00099F0C43101F518C085E28093872584E949
:1008D00090E20E946F0B17C086E2809387258CE917
:1008E00090E20E946F0B0FC087E28093872584EA15
:1008F00090E20E946F0B07C088E2809387258CEA04
:1009000090E20E946F0BCF910895CF93C82F81E0A2
:1009100064E670E00E94AF2DC0939B26C13619F0AB
:10092000C23651F405C084EB90E20E946F0B04C004
:100930008DEB90E20E946F0BCF91089582E280933D
:10094000872586EC90E20E94080C08958091872507
:100950008052823008F054C08091862580FD04C00A
:1009600081E20E94F40B0DC080918825893221F428
:1009700080E20E94F40B05C08A3219F48FE10E94D4
:10098000F40B8091862581FD04C081E20E94E00B7A
:100990000DC080918825893221F480E20E94E00B0D
:1009A00005C08A3219F48FE10E94E00B8091862500
:1009B00082FD04C081E20E94CC0B0DC0809188258D
:1009C000893221F480E20E94CC0B05C08A3219F4EE
:1009D0008FE10E94CC0B8091862583FD04C081E2CB
:1009E0000E94B80B089580918825893221F480E215
:1009F0000E94B80B08958A3219F48FE10E94B80B57
:100A00000895CF93C82F81E064E670E00E94AF2D77
:100A100080EB9BE00E945B2A82E58093B02685E113
:100A200080939D2680ED90E20E946F0BC03269F0AA
:100A3000C13218F4CF3189F405C0C13249F0C23255
:100A400061F409C00E940D0408C00E940D0405C095
:100A50000E94420402C00E949E040E94A604CF91FC
:100A60000895682F809187258232C1F1833240F446
:100A70008032D1F0813228F58F3109F077C010C073
:100A8000863209F447C0873220F4853209F06EC0FF
:100A900032C0873209F44DC0883209F067C058C0AF
:100AA00080E20E94010508956E3221F481E20E94E5
:100AB000010508956D3209F059C082E20E940105D6
:100AC00008956E3221F482E20E94010508956D328C
:100AD00009F04CC080E20E94010508956E3221F4B5
:100AE00080E20E94010508956D3209F03FC081E265
:100AF0000E940105089580919B26813619F0823667
:100B0000A9F504C080E00E948510089581E00E944C
:100B10008510089580919B26813619F0823631F533
:100B200004C082E00E948510089583E00E94851031
:100B3000089580919B26813619F08236B9F404C05D
:100B400084E00E948510089585E00E948510089534
:100B500080919B26813619F0823641F404C086E0EC
:100B60000E948510089587E00E9485100895809165
:100B700087258F3119F480E00E9431050895809116
:100B800088258A3289F489E2809388258AE30E9445
:100B9000EB118AE30E942E1085E00E946F0981E02C
:100BA000E0EEF6E0868312C0893281F48AE2809317
:100BB00088258CE30E94B5118CE30E94FE0F85E02E
:100BC0000E94430981E0E0EEF6E085830E94A604DE
:100BD0000895CF93C82F81E090E00C2E02C0880FBB
:100BE000991F0A94E2F7909186258927809386259C
:100BF00090E00C2E02C0959587950A94E2F780FD4F
:100C00000AC08C2F0E94EB118C2F0E942E108C2F6B
:100C10000E946F090DC08C2F0E9443098091882586
:100C20008A3231F48C2F0E94B5118C2F0E94FE0F56
:100C30000E94A604CF910895CF93DF93CDB7DEB77E
:100C40002C97CDBFDEBF8091192290911A22019678
:100C50008093192290931A2221E0843F920708F48E
:100C6000C8C21092192210921A22809187258432CC
:100C700009F4FBC0853250F4813209F467C1833234
:100C800009F482C0803209F0B4C20DC0863209F482
:100C900004C2863208F4C3C1873209F438C28832EC
:100CA00009F0A7C26EC280E067E6AE014F5F5F4FFA
:100CB0000E94CF0181ED90E2BE016F5F7F4F0E94E5
:100CC000290C81E06AE6AE014F5F5F4F0E94CF01C1
:100CD00087ED90E2BE016F5F7F4F0E94290C84E098
:100CE00067E6AE014F5F5F4F0E94CF018EED90E24D
:100CF000BE016F5F7F4F0E94290C85E06AE6AE015E
:100D00004F5F5F4F0E94CF0184EE90E2BE016F5FA4
:100D10007F4F0E94290C88E067E6AE014F5F5F4F6E
:100D20000E94CF018BEE90E2BE016F5F7F4F0E9469
:100D3000290C89E06AE6AE014F5F5F4F0E94CF0148
:100D400081EF90E2BE016F5F7F4F0E94290C8CE023
:100D500067E6AE014F5F5F4F0E94CF0188EF90E2E0
:100D6000BE016F5F7F4F0E94290C8DE06AE6AE01E5
:100D70004F5F5F4F0E94CF018EEF90E2BE016F5F29
:100D80007F4F0E94290C35C280E067E6AE014F5FBD
:100D90005F4F0E94CF0185E091E2BE016F5F7F4F00
:100DA0000E94290C81E06AE6AE014F5F5F4F0E940E
:100DB000CF018CE091E2BE016F5F7F4F0E94290C52
:100DC00082E068E6AE014F5F5F4F0E94CF0183E192
:100DD00091E2BE016F5F7F4F0E94290C83E06AE6BB
:100DE000AE014F5F5F4F0E94CF018BE191E2BE01E8
:100DF0006F5F7F4F0E94290C84E067E6AE014F5F72
:100E00005F4F0E94CF0183E291E2BE016F5F7F4F8F
:100E10000E94290C85E06AE6AE014F5F5F4F0E9499
:100E2000CF018AE291E2BE016F5F7F4F0E94290CE1
:100E300086E068E6AE014F5F5F4F0E94CF0181E31D
:100E400091E2BE016F5F7F4F0E94290C87E06AE646
:100E5000AE014F5F5F4F0E94CF0189E391E2BE0177
:100E60006F5F7F4F0E94290CC4C188E067E6AE0126
:100E70004F5F5F4F0E94CF0185E091E2BE016F5F3F
:100E80007F4F0E94290C89E06AE6AE014F5F5F4FF9
:100E90000E94CF018CE091E2BE016F5F7F4F0E9404
:100EA000290C8AE068E6AE014F5F5F4F0E94CF01D8
:100EB00083E191E2BE016F5F7F4F0E94290C8BE0BE
:100EC0006AE6AE014F5F5F4F0E94CF018BE191E276
:100ED000BE016F5F7F4F0E94290C8CE067E6AE0178
:100EE0004F5F5F4F0E94CF0183E291E2BE016F5FCF
:100EF0007F4F0E94290C8DE06AE6AE014F5F5F4F85
:100F00000E94CF018AE291E2BE016F5F7F4F0E9493
:100F1000290C8EE068E6AE014F5F5F4F0E94CF0163
:100F200081E391E2BE016F5F7F4F0E94290C8FE049
:100F30006AE6AE014F5F5F4F0E94CF0189E391E205
:100F4000BE016F5F7F4F0E94290C53C180E0BE013C
:100F50006F5F7F4F0E94E21081ED90E2BE016F5FF4
:100F60007F4F0E94290C81E0BE016F5F7F4F0E947E
:100F7000E21087ED90E2BE016F5F7F4F0E94290C67
:100F800082E0BE016F5F7F4F0E94E2108EED90E223
:100F9000BE016F5F7F4F0E94290C83E0BE016F5F2F
:100FA0007F4F0E94E21084EE90E2BE016F5F7F4FA0
:100FB0000E94290C84E0BE016F5F7F4F0E94E21007
:100FC0008BEE90E2BE016F5F7F4F0E94290C85E09F
:100FD000BE016F5F7F4F0E94E21081EF90E2BE0181
:100FE0006F5F7F4F0E94290C86E0BE016F5F7F4FCD
:100FF0000E94E21088EF90E2BE016F5F7F4F0E9477
:10100000290C87E0BE016F5F7F4F0E94E2108EEFD8
:1010100090E2BE016F5F7F4F0E94290CEAC0809171
:10102000B12690E083709070181619060CF0E1C09C
:1010300080E0BE016F5F7F4F0E941F1181E491E24B
:10104000BE016F5F7F4F0E94290C81E0BE016F5F80
:101050007F4F0E941F1188E491E2BE016F5F7F4FB6
:101060000E94290C80E0BE016F5F7F4F0E94E2105A
:101070008FE491E2BE016F5F7F4F0E94290C81E0F7
:10108000BE016F5F7F4F0E94E21086E591E2BE01D4
:101090006F5F7F4F0E94290CACC08091B1268C708D
:1010A00009F4A7C082E0BE016F5F7F4F0E941F114D
:1010B00081E491E2BE016F5F7F4F0E94290C83E0C3
:1010C000BE016F5F7F4F0E941F1188E491E2BE0155
:1010D0006F5F7F4F0E94290C82E0BE016F5F7F4FE0
:1010E0000E94E2108FE491E2BE016F5F7F4F0E9489
:1010F000290C83E0BE016F5F7F4F0E94E21086E5FE
:1011000091E2BE016F5F7F4F0E94290C72C08091F7
:10111000B126807309F46DC084E0BE016F5F7F4F1C
:101120000E941F1181E491E2BE016F5F7F4F0E9418
:10113000290C85E0BE016F5F7F4F0E941F1188E47C
:1011400091E2BE016F5F7F4F0E94290C84E0BE01D7
:101150006F5F7F4F0E94E2108FE491E2BE016F5FEC
:101160007F4F0E94290C85E0BE016F5F7F4F0E9478
:10117000E21086E591E2BE016F5F7F4F0E94290C6D
:1011800038C08091B126807CA1F186E0BE016F5FFE
:101190007F4F0E941F1181E491E2BE016F5F7F4F7C
:1011A0000E94290C87E0BE016F5F7F4F0E941F11D4
:1011B00088E491E2BE016F5F7F4F0E94290C86E0B8
:1011C000BE016F5F7F4F0E94E2108FE491E2BE018B
:1011D0006F5F7F4F0E94290C87E0BE016F5F7F4FDA
:1011E0000E94E21086E591E2BE016F5F7F4F0E9490
:1011F000290C2C96CDBFDEBFDF91CF91089580E002
:1012000090E0609186250E94D62F82EB96E261E005
:1012100070E040E150E00E94CC2F089580E090E023
:101220000E94BC2F8093862582EB96E261E070E0FD
:1012300040E150E00E94B02F08950E940E090895E9
:1012400080E090E00E94BC2F08950895E0E0F7E070
:1012500080E4818B828B838B848B8EE18683818378
:1012600010929E268FE3E0E2F7E0828389E280938A
:101270009826809395268FEF8093AD2680939A26AB
:101280008093942608958230B1F0833028F4882327
:1012900041F0813019F50AC0833091F08530F1F4C6
:1012A00014C082E0E0E0F7E08583089584E0E0E0A8
:1012B000F7E08583089588E0E0E0F7E0858308950E
:1012C00080E1E0E0F7E08583089580918625880F2E
:1012D000E0E0F7E0858382E00E94132D08958230DC
:1012E000B1F0833028F4882341F0813009F50AC039
:1012F000833091F08530E1F414C082E0E0E0F7E063
:101300008683089584E0E0E0F7E08683089588E02E
:10131000E0E0F7E08683089580E1E0E0F7E086838F
:101320000895109299261092A02681E08093A1261C
:10133000089580919A26809394268091AD2680937B
:101340009A26E0E2F7E080858093AD260895CF935A
:10135000C82F81E06AE070E00E94AF2D0E94B705BF
:10136000C230B1F0C33028F4CC2351F0C13039F58C
:101370000BC0C430A9F0C43078F0C53001F518C0F6
:1013800080E00E94E9051BC081E00E94E90517C0CA
:1013900082E00E94E90513C083E00E94E9050FC0C6
:1013A0001092AB261092AC268AE28093952607C055
:1013B0001092AB261092AC268AE280939826CF91A9
:1013C0000895843019F0853059F515C089E280936D
:1013D00095268091AB269091AC2623E0893E92071A
:1013E00038F00E94360B1092AB261092AC2608956E
:1013F0000E94BF05089589E28093982680918725F1
:10140000813271F48091AB269091AC2623E0893E25
:10141000920730F00E94FF081092AB261092AC2683
:101420000895282F30E0042E02C0359527950A94A0
:10143000E2F720FD1BC070E0042E02C07595679591
:101440000A94E2F760FF12C02091AD2630E0042E2E
:1014500002C0359527950A94E2F720FD04C0842F39
:101460000E94A7090895842F0E94E1090895CF934F
:10147000DF9380919A26C091AD26C827D0919426FB
:10148000D827809198268A32B1F48091AB2690912A
:10149000AC2601968093AB269093AC2620918725AD
:1014A000213249F423E0893E920728F081E064E686
:1014B00070E00E94AF2D809195268A3291F4809140
:1014C000AB269091AC2601968093AB269093AC26E8
:1014D00023E0883E920729F481E064E670E00E94F0
:1014E000AF2D8C2F6D2F40E00E94110A8C2F6D2F95
:1014F00041E00E94110A8C2F6D2F42E00E94110AD8
:101500008C2F6D2F43E00E94110A8C2F6D2F44E029
:101510000E94110A8C2F6D2F45E00E94110ADF9165
:10152000CF910895809187258F518430A8F58091BF
:101530005D2190915E219923C4F0019680935D21F5
:1015400090935E210E94FD120E94081380915D21FC
:1015500090915E2121E0853F920764F18FEF9FEF2C
:1015600080935D2190935E2108950E94FD1288234F
:1015700039F010925D2110925E218DE20E943105BA
:101580000E9408138823B1F010925D2110925E2111
:101590008EE20E94310508950E94FD12882319F001
:1015A0008DE20E9431050E940813882319F08EE213
:1015B0000E94310508959091862580918825893271
:1015C00009F043C0990F80919926882339F4E0E00F
:1015D000F7E095838F5F8093992610C0813039F4AE
:1015E000E0E0F7E0968382E08093992607C08F5F62
:1015F000809399268B3010F0109299268091A12625
:101600006091A026680F6093A026662334F060FDE9
:1016100012C082E00E94452D0EC0882321F06E5F2B
:101620006093A02603C06E5F6093A02682E0609165
:10163000A0260E94452D8091A02681508E3F28F043
:101640008091A12681958093A1260E9499090E94EC
:10165000370A0E94920A08958EE48093B0268AEF9A
:101660008093AE268FE1809397260895CF9380EBE9
:101670009BE00E945A1980EB9BE00E94641980EB6A
:101680009BE00E94D82280EB9BE00E943A2A80EBEC
:101690009BE00E94551980EB9BE00E945F1982E558
:1016A0008093B026C1E9C093972680EB9BE06AEF58
:1016B0000E94C72680EB9BE06FE571E20E94402309
:1016C00080EB9BE06AEF0E94C72680EB9BE061E61F
:1016D00071E20E944023C0939726CF910895CF9343
:1016E000DF93EC01809197268F31B9F480EB9BE07A
:1016F0000E94F92223E08C39920778F480EB9BE07A
:101700006AEF0E94C72680EB9BE0BE010E94402347
:1017100080EB9BE06DE00E94C726DF91CF9108959A
:101720008F3119F0803251F405C088E691E20E94B1
:101730006F0B04C081E791E20E946F0B8AE791E290
:101740000E946F0B86E891E20E946F0B82E991E2A2
:101750000E946F0B8CE991E20E946F0B08958AEA58
:1017600091E20E946F0B85EB91E20E946F0B08954E
:10177000CF93C82F813239F481EC91E20E946F0B34
:101780000E94AF0B07C08CEC91E20E946F0B8C2F74
:101790000E94900BCF910895CF93C82F813239F4D6
:1017A00087ED91E20E946F0B0E94AF0B07C082EEA3
:1017B00091E20E946F0B8C2F0E94900BCF910895A5
:1017C000CF93C82F813239F48DEE91E20E946F0BD6
:1017D0000E94AF0B07C088EF91E20E946F0B8C2F25
:1017E0000E94900BCF910895CF93C82F813239F486
:1017F00083E092E20E946F0B0E94AF0B07C08DE066
:1018000092E20E946F0B8C2F0E94900BCF91089553
:10181000CF93DF93EC01809197268F31B9F480EB61
:101820009BE00E94F92223E08C39920778F480EB48
:101830009BE06EEF0E94C72680EB9BE0BE010E94FA
:10184000402380EB9BE06DE00E94C726DF91CF91A3
:1018500008950F931F93CF93DF938C01EB01809139
:1018600097268F31E1F480EB9BE00E94F92223E080
:101870008C399207A0F480EB9BE06AEF0E94C726A8
:1018800080EB9BE0B8010E94402380EB9BE0BE010F
:101890000E94402380EB9BE06DE00E94C726DF9111
:1018A000CF911F910F9108958091B026823521F03C
:1018B00081E00E94132D03C081E00E942F2D8091B2
:1018C0009726803951F08139F1F410921B22109241
:1018D0001C2280E98093972616C080911B2290914C
:1018E0001C22019680931B2290931C2223E18738AF
:1018F000920748F010921B2210921C228FE18093D5
:101900009726809387258091B0268F3419F08035F3
:1019100061F408C08091AE268A3F39F482E5809355
:10192000B02603C082E58093B02680911B2290915F
:101930001C2223E18838920730F4019680931B2201
:1019400090931C22089523E18838920749F482E598
:101950008093B02688E293E280931B2290931C220E
:101960000895EEE2F2E2ACE8B6E286E895E248E3FA
:1019700030E222E24083418332833483258326830D
:101980001D92E559FF4FE817F907A1F710928B2632
:101990000895EF92FF920F931F93CF93DF938C01E3
:1019A00070918B26672F272F30E08BE690E0289FE1
:1019B000A001299F500D389F500D11240F2EFEE2DB
:1019C000EF2EF2E2FF2EF02DE40EF51EA1E34EE223
:1019D00052E2EBE6F0E0862F992787FD90958E9FE7
:1019E00090018F9F300D9E9F300D1124240F351FC5
:1019F000E901AB8361500AF467E0AF5FA93359F79F
:101A0000F8018081882399F505C0942F819188235E
:101A100021F503C040E050E090E0F701E90FF11D2F
:101A200082E28683E701C40FD51F1F8281E0809385
:101A30008C2680938D2680938E2680938F2680938C
:101A400090268093912680939226809393267F5FA1
:101A500070938B26783040F413C08D934F5F5F4FA7
:101A60004436510591F6E2CF10928B2609C0E7016A
:101A70008E83F8013196D701179641E050E0C5CF2B
:101A8000DF91CF911F910F91FF90EF900895EF920A
:101A9000FF920F931F93CF93809187258232B1F5E8
:101AA000C9E00CE816E20F2EFBE6EF2EFF24F02D26
:101AB00023C020911D22F801E20FF11D80818823AF
:101AC00091F030E02E9DC0012F9D900D3E9D900D18
:101AD0001124825D9D4D0E946F0B80911D22F801A3
:101AE000E80FF11D108280911D228F5F80931D22CF
:101AF000883010F010921D2280EB9BE00E94F922AA
:101B000022E08030920710F4C15099F6CF911F91D6
:101B10000F91FF90EF90089585E180939D2610929C
:101B2000AA2608958091A4268E3739F49091A5268F
:101B300081E0973219F080E0089580E00895809167
:101B40009D2695E190939D26089528EA36E290918E
:101B5000A8269093A926D9019E919093A826F901D1
:101B6000329790819C93D90113979C919083F901AE
:101B7000349790819C93808380818D30C1F48091D3
:101B8000A5268233A1F48091A626813381F4809129
:101B9000A726803561F48091A8268A3541F480918A
:101BA000A926843521F48CE080939D2608958091A8
:101BB000A4268D30C1F48091A5268333A1F48091B1
:101BC000A626813381F48091A726803561F4809127
:101BD000A8268A3541F48091A926843521F48DE028
:101BE00080939D2608958091A4268D30C1F4809124
:101BF000A5268433A1F48091A626813381F48091B7
:101C0000A726803561F48091A8268A3541F4809119
:101C1000A926843521F48EE080939D260895809135
:101C2000A4268D30C1F48091A5268733A1F480913C
:101C3000A626813381F48091A726803561F48091B6
:101C4000A8268A3541F48091A926843521F481E1C2
:101C500080939D2608958091A4268D30C1F48091B3
:101C6000A5268833A1F48091A626813381F4809142
:101C7000A726803561F48091A8268A3541F48091A9
:101C8000A926843521F482E180939D2608958091D0
:101C9000A4268D30C1F48091A5268933A1F48091CA
:101CA000A626813381F48091A726803561F4809146
:101CB000A8268A3541F48091A926843521F483E150
:101CC00080939D2608958091A4268D30C1F4809143
:101CD000A5268033A1F48091A626823381F48091D9
:101CE000A726803561F48091A8268A3541F4809139
:101CF000A926843521F484E180939D26089580915E
:101D0000A4268D30C1F48091A5268633A1F480915C
:101D1000A626893381F48091A726803561F48091CD
:101D2000A8268A3541F48091A926843521F480E6DD
:101D300080939D2608958091A4268D30C1F48091D2
:101D4000A5268733A1F48091A626893381F480915A
:101D5000A726803561F48091A8268A3541F48091C8
:101D6000A926843521F481E680939D2608958091EB
:101D7000A4268D30C1F48091A5268833A1F48091EA
:101D8000A626893381F48091A726803561F480915D
:101D9000A8268A3541F48091A926843521F482E66B
:101DA00080939D2608958091A4268D30C1F4809162
:101DB000A5268933A1F48091A626893381F48091E8
:101DC000A726803561F48091A8268A3541F4809158
:101DD000A926843521F483E680939D260895809179
:101DE000A4268D30C1F48091A5268533A1F480917D
:101DF000A626813381F48091A726803561F48091F5
:101E0000A8268A3541F48091A926843521F48FE0F3
:101E100080939D2608958091A4268D30B9F48091F9
:101E2000A526863399F48091A626813379F4809192
:101E3000A726803559F48091A8268A3539F48091F7
:101E4000A926843519F480E180939D260895809118
:101E50009D26853109F459C00E949F0D823191F170
:101E6000833180F48E3031F18F3030F48C30D1F00A
:101E70008D3009F04AC01AC0803109F443C0813165
:101E8000E8F43CC0803691F1813628F48331F1F0DA
:101E90008431D9F51FC0823629F18236F8F08336B5
:101EA000A1F528C080E20E940105089581E20E9408
:101EB0000105089582E20E940105089581E10E94D2
:101EC0004A04089582E10E944A04089583E10E9431
:101ED0004A04089584E10E944A04089581E60E941C
:101EE0008504089582E60E948504089581E20E9497
:101EF0000105089580E20E94010508958FE00E9487
:101F00001504089580E10E9415040895E0EEF6E0BE
:101F100016828FE18183E0E6F6E085838BEF818393
:101F2000E0ECF9E08DED808382E081831092AF26B2
:101F3000109296261092B12681E680939B260895F2
:101F400091E09093AF2680939C26843018F48230E1
:101F500058F405C0863068F08830A0F40FC091E0D6
:101F6000E0E6F6E096830EC092E0E0E6F6E09683C7
:101F700009C094E0E0E6F6E0968304C098E0E0E66D
:101F8000F6E0968380FF05C082E0E0ECF9E0838311
:101F9000089581E0E0ECF9E08383089561E070E06A
:101FA00000909C2602C0660F771F0A94E2F76095A6
:101FB000809196266823609396266623F1F070E060
:101FC00060FD12C021E030E0E1E0F0E0822FAF01DF
:101FD000022E02C0440F551F0A94E2F746235723EE
:101FE000141615062CF401C080E00E94A00F08957D
:101FF0002F5F3F4F2830310549F708958230C1F0F7
:10200000833028F4882351F0813039F50CC08A33AD
:10201000C9F08C33E1F0833001F50FC082E0E0EECF
:10202000F6E08583089584E0E0EEF6E08583089588
:1020300088E0E0EEF6E08583089580E1E0EEF6E0EA
:10204000858308958EE1E0EEF6E085830895809122
:102050008625880FE0EEF6E0858308958230B1F0A2
:10206000833028F4882341F08130F1F40AC08330B2
:1020700091F08A33C9F414C082E0E0EEF6E0868382
:10208000089584E0E0EEF6E08683089588E0E0EECF
:10209000F6E08683089580E1E0EEF6E08683089519
:1020A0008EE1E0EEF6E0868308959091AF269923C5
:1020B00021F020919C26281739F1E82FF0E021E04B
:1020C00030E0082E02C0220F331F0A94E2F7422F9D
:1020D0002091B126242B2093B126EE0FFF1FEE5442
:1020E000F94D262F372F54E02030350710F02FEF11
:1020F00033E02083318320919626422B409396260D
:10210000992311F40E94A00F08956E32B9F4282F7C
:1021100030E0F901EE0FFF1FEE54F94D408151817F
:1021200094E04030590708F5F901EE0FFF1FEE5417
:10213000F94D4F5F5F4F4083518317C06D32A9F453
:10214000282F30E0F901EE0FFF1FEE54F94D4081CA
:1021500051814115510549F0F901EE0FFF1FEE5471
:10216000F94D4150504040835183E82FF0E0EE0F8D
:10217000FF1FEE54F94D608171810E945510089542
:1021800080939B260895E82FF0E0EE0FFF1FEE549A
:10219000F94D6081718180E090E00E94852E20E001
:1021A00030E040EA50E40E94372F20E030EC4FE767
:1021B00054E40E94EC2D462F572F682F792FCB0126
:1021C000BA010895CF92DF92EF92FF921F93CF93BF
:1021D000DF93182FEB0180FD08C00E94C31048EE6A
:1021E00053E09E010E94AD0122C081500E94C310A5
:1021F0006B017C01E12FF0E0EE0FFF1FEE54F94D73
:102200006081718180E090E00E94852E9B01AC018D
:10221000C701B6010E94372F20E030EC4FE754E4AD
:102220000E94EC2D48EE53E09E010E94AD01DF912B
:10223000CF911F91FF90EF90DF90CF900895E82FFE
:10224000F0E0EE0FFF1FEE54F94D808191814AE0DE
:1022500050E00E949A2F08951F920F920FB60F928E
:1022600008B60F9209B60F920BB60F9211242F9356
:102270003F934F935F936F937F938F939F93AF930E
:10228000BF93EF93FF9381E00E94132D8091AF26BF
:102290008230C9F0833039F1813009F047C082E0E3
:1022A0008093AF26E0919C26F0E0EE0FFF1FEE54E6
:1022B000F94D808191819695879596958795E0EC6B
:1022C000F9E0838333C083E08093AF26E0919C26BE
:1022D000F0E0EE0FFF1FEE54F94D80818370E0ECCB
:1022E000F9E0838323C080919C26843018F48230E7
:1022F00058F405C0863068F08830A0F40FC081E043
:10230000E0E6F6E085830EC082E0E0E6F6E0858355
:1023100009C084E0E0E6F6E0858304C088E0E0E6FA
:10232000F6E085831092AF260E94CE0FFF91EF91C9
:10233000BF91AF919F918F917F916F915F914F91DD
:102340003F912F910F900BBE0F9009BE0F9008BECA
:102350000F900FBE0F901F9018950895E0E4F6E0DF
:1023600083E381838683868308958230C1F083303E
:1023700028F4882351F0813069F50CC08A33C9F004
:102380008C33E1F0833031F50FC081E0E0E4F6E01A
:102390008583089582E0E0E4F6E08583089580E196
:1023A000E0E4F6E08583089580E2E0E4F6E08583EA
:1023B000089583E3E0E4F6E085830895809186251F
:1023C000982F969596959295907F8370892BE0E44F
:1023D000F6E0858308958230B1F0833028F48823B5
:1023E00041F08130F1F40AC0833091F08A33C9F4AE
:1023F00014C081E0E0E4F6E08683089582E0E0E442
:10240000F6E08683089580E1E0E4F6E086830895AF
:1024100080E2E0E4F6E08683089583E3E0E4F6E01A
:10242000868308950895E0E5F0E082E282838BE000
:10243000808380E00E94132DE0E5F0E081818B3005
:10244000E9F780E00E942F2DE0E5F0E082E086834E
:1024500081E08093600098ED94BF809340008AE013
:10246000808380E090E0089587E08093500080E0D2
:102470000E94132DE0E5F0E081818730E9F780E0EC
:102480000E942F2DE0E5F0E082E0868381E08093DA
:10249000600098ED94BF809340008AE0808380E0E4
:1024A00090E008950E947D2D0E9426090E94D51279
:1024B0000E9434120E942C0B0E94B10C0E948C0DC1
:1024C00080EA98E060E00E94FA1380EB98E060E018
:1024D0000E94FA1380EB9BE060E00E94FA130E94D6
:1024E0006C2A0E9458010E94AE110E94860F0E9421
:1024F00007040E941D09E0E0F8E087E080838EE396
:1025000090E086A397A387E8E0EAF0E082837894DE
:1025100080E00E942F2D81E00E942F2D82E064E652
:1025200070E00E94AF2DE0E8F6E083E0818382E076
:10253000858380E061E00E94452D12E001E00F2ECE
:10254000F0E8EF2EF6E0FF2EF02DCC24C394BC2C47
:10255000DD246894D1F8C0E0D8E001C00195F7010E
:10256000B7820E94BB2D0E94DB0A0E94AA020E9431
:102570001C060E94322B0E94540C0E94470D0E94A0
:10258000270F0E94AD11F701D6828C8580FFFDCF09
:10259000CC86F701D58280E0612F0E94452D100F77
:1025A000812F81508E3FD0F6DACFE0E2F7E080EC69
:1025B000828380E4828780E883878FE081878085BB
:1025C00086FD03C089E9868B04C08AE9E0E2F7E072
:1025D000868BE0E2F7E0808588231CF089E9878B11
:1025E00004C08AE9E0E2F7E0878B1092A2261092FD
:1025F000A3268CE280939F26089580919F268D329A
:1026000029F48CE280939F2681E0089580E008956C
:1026100080919F268E3229F48CE280939F2681E060
:10262000089580E008951F920F920FB60F9208B69A
:102630000F920BB60F9211248F939F93EF93FF93FA
:10264000E0E2F7E086898A3901F5808588236CF01D
:102650008091A2269091A32601978093A226909321
:10266000A3268EE280939F260CC08091A226909193
:10267000A32601968093A2269093A3268DE28093B1
:102680009F2689E9E0E2F7E0868BE0E2F7E08689C1
:10269000893901F5808588236CF08091A22690917C
:1026A000A32601968093A2269093A3268DE2809381
:1026B0009F260CC08091A2269091A326019780931B
:1026C000A2269093A3268EE280939F268AE9E0E2D9
:1026D000F7E0868B81E0E0E2F7E08487FF91EF91FD
:1026E0009F918F910F900BBE0F9008BE0F900FBE61
:1026F0000F901F9018951F920F920FB60F9208B669
:102700000F920BB60F9211248F939F93EF93FF9329
:10271000E0E2F7E087898A3901F5808586FD0DC002
:102720008091A2269091A32601968093A226909351
:10273000A3268DE280939F260CC08091A2269091C3
:10274000A32601978093A2269093A3268EE28093DE
:102750009F2689E9E0E2F7E0878BE0E2F7E08789EE
:10276000893901F5808586FD0DC08091A226909162
:10277000A32601978093A2269093A3268EE28093AE
:102780009F260CC08091A2269091A326019680934B
:10279000A2269093A3268DE280939F268AE9E0E209
:1027A000F7E0878B82E0E0E2F7E08487FF91EF912A
:1027B0009F918F910F900BBE0F9008BE0F900FBE90
:1027C0000F901F9018950895E0EAF6E080E381836A
:1027D00085818F7C8583E0E4FBE087E0808383E173
:1027E00081838FEF90E086A397A380E190E080A79C
:1027F00091A70895FC0188E0E03AF80751F4A0E4BD
:10280000B6E088E011968C93119715968C931597E6
:1028100061C088E0E03BF80751F4A0E4B6E080E84E
:1028200011968C93119715968C93159753C089E048
:10283000E03AF80751F4A0E6B6E088E011968C93F0
:10284000119715968C93159745C089E0E03BF807E2
:1028500051F4A0E6B6E080E811968C931197159696
:102860008C93159737C08AE0E03AF80751F4A0E856
:10287000B6E088E011968C93119715968C93159776
:1028800029C08AE0E03BF80751F4A0E8B6E080E810
:1028900011968C93119715968C9315971BC08BE00E
:1028A000E03AF80751F4A0EAB6E088E011968C937C
:1028B000119715968C9315970DC08BE0E03BF807A8
:1028C00049F4A0EAB6E080E811968C93119715962A
:1028D0008C931597613039F0623051F48CEA87831C
:1028E00085EC868309C088EA87838EE6868304C0E8
:1028F00084EA878382E38683138288E1848383E08A
:1029000085830895FC01818185FFFDCF6083089553
:10291000CF92DF92EF92FF920F931F93CF93DF93AB
:102920006C01E62FF72FEF0109900020E9F72197BE
:10293000CE1BDF0B79F0E62EF72E00E010E0F7015A
:1029400061917F01C6010E9482140F5F1F4F0C1717
:102950001D07A9F7DF91CF911F910F91FF90EF9085
:10296000DF90CF900895CF93DF93EC01673009F4A7
:102970009DC0683090F4633009F458C0643030F47E
:102980006130A1F1623008F041C020C0653009F427
:102990006DC0663008F07AC059C06B3009F4C6C00B
:1029A0006C3038F4693009F4A1C06A3008F0AEC068
:1029B0008DC06D3009F4DAC06D3008F4C7C06E30D8
:1029C00009F4E4C06F3009F000C1F0C060E30E9478
:1029D0008214CE0160E30E948214CE0160E30E9463
:1029E0008214CE0160E30E948214EFC060E30E9473
:1029F0008214CE0160E30E948214CE0160E30E9443
:102A00008214CE0161E30E948214DFC060E30E9461
:102A10008214CE0160E30E948214CE0161E30E9421
:102A20008214CE0160E30E948214CFC060E30E9452
:102A30008214CE0160E30E948214CE0161E30E9401
:102A40008214CE0161E30E948214BFC060E30E9441
:102A50008214CE0161E30E948214CE0160E30E94E1
:102A60008214CE0160E30E948214AFC060E30E9432
:102A70008214CE0161E30E948214CE0160E30E94C1
:102A80008214CE0161E30E9482149FC060E30E9421
:102A90008214CE0161E30E948214CE0161E30E94A0
:102AA0008214CE0160E30E9482148FC060E30E9412
:102AB0008214CE0161E30E948214CE0161E30E9480
:102AC0008214CE0161E30E9482147FC061E30E9400
:102AD0008214CE0160E30E948214CE0160E30E9462
:102AE0008214CE0160E30E9482146FC061E30E94F1
:102AF0008214CE0160E30E948214CE0160E30E9442
:102B00008214CE0161E30E9482145FC061E30E94DF
:102B10008214CE0160E30E948214CE0161E30E9420
:102B20008214CE0160E30E9482144FC061E30E94D0
:102B30008214CE0160E30E948214CE0161E30E9400
:102B40008214CE0161E30E9482143FC061E30E94BF
:102B50008214CE0161E30E948214CE0160E30E94E0
:102B60008214CE0160E30E9482142FC061E30E94B0
:102B70008214CE0161E30E948214CE0160E30E94C0
:102B80008214CE0161E30E9482141FC061E30E949F
:102B90008214CE0161E30E948214CE0161E30E949F
:102BA0008214CE0160E30E9482140FC061E30E9490
:102BB0008214CE0161E30E948214CE0161E30E947F
:102BC0008214CE0161E30E948214DF91CF910895B7
:102BD0001F93CF93DF93EC01162F62E60E948214BD
:102BE000612F62956F70CE010E94B314612F6F70D8
:102BF000CE010E94B314DF91CF911F9108956730E9
:102C000009F43FC0683070F4633059F1643028F43F
:102C10006130F9F0623008F518C0653051F1663066
:102C200060F523C06B30E9F16C3028F4693089F12C
:102C30006A3098F52AC06D30E1F16D30B0F16E3038
:102C4000E1F16F3009F040C03CC060E30E948214A3
:102C5000089561E30E948214089562E30E94821441
:102C6000089563E30E948214089564E30E9482142D
:102C7000089565E30E948214089566E30E94821419
:102C8000089567E30E948214089568E30E94821405
:102C9000089569E30E948214089561E40E948214F9
:102CA000089562E40E948214089563E40E948214ED
:102CB000089564E40E948214089565E40E948214D9
:102CC000089566E40E94821408951F93CF93DF93C2
:102CD000EC01162F62956F700E94FF15612F6F70C7
:102CE000CE010E94FF15DF91CF911F9108951F9390
:102CF000CF93DF93EC01142F0E946516CE01612F54
:102D00000E946516DF91CF911F9108951F93CF9375
:102D1000DF93EC01162F672F0E946516CE01612FFD
:102D20000E946516DF91CF911F910895CF93DF9395
:102D3000EC01673009F49DC0683090F4633009F409
:102D400058C0643030F46130A1F1623008F041C005
:102D500020C0653009F46DC0663008F07AC059C0F3
:102D60006B3009F4C6C06C3038F4693009F4A1C086
:102D70006A3008F0AEC08DC06D3009F4DAC06D3035
:102D800008F4C7C06E3009F4E4C06F3009F000C128
:102D9000F0C060E30E94C726CE0160E30E94C72610
:102DA000CE0160E30E94C726CE0160E30E94C726E1
:102DB000EFC060E30E94C726CE0160E30E94C726F1
:102DC000CE0160E30E94C726CE0161E30E94C726C0
:102DD000DFC060E30E94C726CE0160E30E94C726E1
:102DE000CE0161E30E94C726CE0160E30E94C726A0
:102DF000CFC060E30E94C726CE0160E30E94C726D1
:102E0000CE0161E30E94C726CE0161E30E94C7267E
:102E1000BFC060E30E94C726CE0161E30E94C726BF
:102E2000CE0160E30E94C726CE0160E30E94C72660
:102E3000AFC060E30E94C726CE0161E30E94C726AF
:102E4000CE0160E30E94C726CE0161E30E94C7263F
:102E50009FC060E30E94C726CE0161E30E94C7269F
:102E6000CE0161E30E94C726CE0160E30E94C7261F
:102E70008FC060E30E94C726CE0161E30E94C7268F
:102E8000CE0161E30E94C726CE0161E30E94C726FE
:102E90007FC061E30E94C726CE0160E30E94C7267F
:102EA000CE0160E30E94C726CE0160E30E94C726E0
:102EB0006FC061E30E94C726CE0160E30E94C7266F
:102EC000CE0160E30E94C726CE0161E30E94C726BF
:102ED0005FC061E30E94C726CE0160E30E94C7265F
:102EE000CE0161E30E94C726CE0160E30E94C7269F
:102EF0004FC061E30E94C726CE0160E30E94C7264F
:102F0000CE0161E30E94C726CE0161E30E94C7267D
:102F10003FC061E30E94C726CE0161E30E94C7263D
:102F2000CE0160E30E94C726CE0160E30E94C7265F
:102F30002FC061E30E94C726CE0161E30E94C7262D
:102F4000CE0160E30E94C726CE0161E30E94C7263E
:102F50001FC061E30E94C726CE0161E30E94C7261D
:102F6000CE0161E30E94C726CE0160E30E94C7261E
:102F70000FC061E30E94C726CE0161E30E94C7260D
:102F8000CE0161E30E94C726CE0161E30E94C726FD
:102F9000DF91CF9108951F93CF93DF93EC01162F0C
:102FA00062E60E94C726612F62956F70CE010E9473
:102FB0009616612F6F70CE010E949616DF91CF9109
:102FC0001F910895673009F43FC0683070F4633092
:102FD00059F1643028F46130F9F0623008F518C016
:102FE000653051F1663060F523C06B30E9F16C302B
:102FF00028F4693089F16A3098F52AC06D30E1F122
:103000006D30B0F16E30E1F16F3009F040C03CC07E
:1030100060E30E94C726089561E30E94C7260895D1
:1030200062E30E94C726089563E30E94C7260895BD
:1030300064E30E94C726089565E30E94C7260895A9
:1030400066E30E94C726089567E30E94C726089595
:1030500068E30E94C726089569E30E94C726089581
:1030600061E40E94C726089562E40E94C72608957D
:1030700063E40E94C726089564E40E94C726089569
:1030800065E40E94C726089566E40E94C726089555
:103090001F93CF93DF93EC01162F62956F700E9400
:1030A000E217612F6F70CE010E94E217DF91CF917E
:1030B0001F9108951F93CF93DF93EC01142F0E946B
:1030C0004818CE01612F0E944818DF91CF911F91BF
:1030D00008951F93CF93DF93EC01162F672F0E9463
:1030E0004818CE01612F0E944818DF91CF911F919F
:1030F00008951F920F920FB60F9208B60F9209B65D
:103100000F920AB60F920BB60F9211242F933F9392
:103110004F935F938F939F93AF93BF93CF93DF931F
:10312000EF93FF93C0EAD8E0E0EDFEE344EC56E213
:1031300013C08881A081B181A853B54D8C93808143
:1031400091810196808391838081918124E08030F8
:10315000920710F01082118289818823FCF480810B
:103160009181DA012D913C9111978217930740F0DC
:10317000808191812D913C911197821B930B0AC004
:1031800080819181DA012D913C91119780509C4F63
:10319000821B930BB4E080309B0758F2FF91EF91B4
:1031A000DF91CF91BF91AF919F918F915F914F919F
:1031B0003F912F910F900BBE0F900ABE0F9009BE4A
:1031C0000F9008BE0F900FBE0F901F9018951F9282
:1031D0000F920FB60F9208B60F9209B60F920AB669
:1031E0000F920BB60F9211242F933F934F935F933F
:1031F0008F939F93AF93BF93CF93DF93EF93FF93FF
:10320000C0EBD8E0E2EDFEE346EC56E213C0888165
:10321000A081B181A853B14D8C9380819181019699
:10322000808391838081918124E08030920710F027
:103230001082118289818823FCF480819181DA01D6
:103240002D913C9111978217930740F080819181D5
:103250002D913C911197821B930B0AC08081918123
:10326000DA012D913C91119780509C4F821B930B5A
:10327000B4E080309B0758F2FF91EF91DF91CF913E
:10328000BF91AF919F918F915F914F913F912F91FE
:103290000F900BBE0F900ABE0F9009BE0F9008BE94
:1032A0000F900FBE0F901F901895FC0183818063D3
:1032B00083830895FC0183818F7C83830895FC01BF
:1032C0008381826083830895FC0183818C7F838363
:1032D00008951F920F920FB60F9208B60F9209B67B
:1032E0000F920AB60F920BB60F9211242F933F93B1
:1032F0004F935F936F937F938F939F93AF93BF93FE
:10330000CF93DF93EF93FF93E0EBF8E0818185FDAE
:103310001AC03AC0208131818081918101968083D9
:1033200091838081918144E08030940710F0108275
:1033300011822253354CE9018881EB018883898110
:1033400085FD07C021C0ACECB2E3E8EDFEE360EB25
:1033500078E08D919C91119720813181821793079C
:1033600040F08D919C91119720813181821B930BAC
:1033700009C08D919C9111972081318180509C4F83
:10338000821B930B009731F62091CC323091CD32D5
:103390008091D83E9091D93E2817390758F08091F6
:1033A000CC329091CD322091D83E3091D93E821BC3
:1033B000930B0CC08091CC329091CD322091D83EAD
:1033C0003091D93E80509C4F821B930B009729F07F
:1033D00080EB98E00E945F1904C080EB98E00E94A7
:1033E0006419FF91EF91DF91CF91BF91AF919F91C0
:1033F0008F917F916F915F914F913F912F910F909E
:103400000BBE0F900ABE0F9009BE0F9008BE0F9022
:103410000FBE0F901F9018951F920F920FB60F922C
:1034200008B60F9209B60F920AB60F920BB60F921A
:1034300011242F933F934F935F936F937F938F93B9
:103440009F93AF93BF93CF93DF93EF93FF93E0EA04
:10345000F8E0818185FD1AC03AC0208131818081E8
:1034600091810196808391838081918144E08030B5
:10347000940710F0108211822253394CE90188819F
:10348000EB018883898185FD07C021C0AAECB2E3E6
:10349000E6EDFEE360EA78E08D919C911197208142
:1034A00031818217930740F08D919C911197208173
:1034B0003181821B930B09C08D919C9111972081C2
:1034C000318180509C4F821B930B009731F62091E5
:1034D000CA323091CB328091D63E9091D73E281798
:1034E000390758F08091CA329091CB322091D63E64
:1034F0003091D73E821B930B0CC08091CA329091C1
:10350000CB322091D63E3091D73E80509C4F821BCB
:10351000930B009729F080EA98E00E945F1904C09D
:1035200080EA98E00E946419FF91EF91DF91CF91BA
:10353000BF91AF919F918F917F916F915F914F91CB
:103540003F912F910F900BBE0F900ABE0F9009BEB6
:103550000F9008BE0F900FBE0F901F9018950F93FD
:103560001F93CF93DF93DC0111968C91119785FD0A
:1035700042C091C02BE0A03BB20751F038E0A03A26
:10358000B30741F088E0A03BB80731F422E005C062
:1035900020E003C021E001C020E030E0C901880F35
:1035A000991FFB01E80FF91F4081518180819181B2
:1035B00001968083918380819181E4E080309E0731
:1035C00040F0C901880F991F860F971FFC011082D8
:1035D0001182C901982F8827990F990F840F951F81
:1035E000F801E80FF91F80818C9311968C91119747
:1035F00085FD07C050C0C8ECD2E364ED7EE30EEC5D
:1036000012E3FBE0A03BBF0751F028E0A03AB2076D
:1036100041F038E0A03BB30731F422E005C020E0E0
:1036200003C021E001C020E030E0C901880F991FEC
:10363000FE01E80FF91F40815181FB01E80FF91FDE
:10364000808191814817590788F0220F331FFE01AE
:10365000E20FF31F40815181FB01E20FF31F8081D4
:103660009181FA01E81BF90BCF0112C0C901880F43
:10367000991FFE01E80FF91F40815181FB01E80FFE
:10368000F91F20813181CA0180509C4F821B930B0E
:10369000009709F06FCFFBE0A03BBF0751F028E097
:1036A000A03AB20741F038E0A03BB30731F422E082
:1036B00005C020E003C021E001C020E030E0C901E6
:1036C000880F991FFC01E853FD4C408151818C52B9
:1036D000914CFC01808191814817590778F0220FA5
:1036E000331FF901E853FD4C408151812C52314C7C
:1036F000F90180819181481B590B10C0220F331FA3
:10370000F901E853FD4C408151812C52314CF901B3
:103710008081918140505C4F481B590B41155105E8
:1037200021F0CD010E945F1903C0CD010E946419F0
:10373000DF91CF911F910F9108953F924F925F9229
:103740006F927F928F929F92AF92BF92CF92DF92B1
:10375000EF92FF920F931F93CF93DF935C010F2E95
:10376000F8EC6F2EF2E37F2EF02D0F2EF4ED8F2E5E
:10377000FEE39F2EF02D0F2EFEEC4F2EF2E35F2E78
:10378000F02D0CEC12E30F2EF0E6CF2EF02D0F2EC5
:10379000F0EBEF2EF8E0FF2EF02DC8EDDEE30F2E5C
:1037A000FEE43F2EF02D27C120EBA2162BE0B2063F
:1037B00061F030EAA31638E0B30649F060EBA616D4
:1037C00068E0B60631F422E005C020E003C021E045
:1037D00001C020E030E0C901880F991FF401E80F13
:1037E000F91F40815181808191810196808391836D
:1037F00080819181E4E080309E0740F0C901880F0C
:10380000991F880D991DFC0110821182C901982F02
:103810008827990F990F840F951F840D951DFC0122
:10382000D080FAEFDF1619F02EEFD21619F4D092ED
:10383000AE26E1C03DE0D31611F43092B026F80177
:10384000808191818253954CFC01C082F801808176
:10385000918101968083918380819181F4E0803011
:103860009F0718F0F80110821182F701818185FD10
:1038700018C031C0E881F9818881998101968883D7
:1038800099838881998124E08030920710F0188212
:103890001982E253F54C8081F7018083818185FF95
:1038A0001AC0F8018081918128813981821793079C
:1038B00038F08081918128813981821B930B09C066
:1038C000F801808191812881398180509C4F821B31
:1038D000930B009779F6F8018081918128813981D5
:1038E0008217930738F08081918128813981821B6A
:1038F000930B09C0F8018081918128813981805022
:103900009C4F821B930B009721F0C7010E945F1907
:1039100003C0C7010E946419F8018081918182531C
:10392000954CFC01D082F8018081918101968083C1
:10393000918380819181F4E080309F0718F0F80135
:1039400010821182F701818185FD18C031C0E881A4
:10395000F9818881998101968883998388819981E9
:1039600024E08030920710F018821982E253F54C5F
:103970008081F7018083818185FF1AC0F8018081F1
:103980009181288139818217930738F08081918154
:1039900028813981821B930B09C0F80180819181B4
:1039A0002881398180509C4F821B930B009779F6B8
:1039B000F80180819181288139818217930738F03D
:1039C0008081918128813981821B930B09C0F80184
:1039D000808191812881398180509C4F821B930B7B
:1039E000009721F0C7010E945F1903C0C7010E9420
:1039F0006419F501D082F501818185FF4FC0F0EB9C
:103A0000AF16FBE0BF0661F020EAA21628E0B2067E
:103A100049F030EBA31638E0B30631F422E005C0DC
:103A200020E003C021E001C020E030E0C901880FA0
:103A3000991FF301E80FF91F40815181F401E80F4C
:103A4000F91F808191814817590788F0220F331F91
:103A5000F301E20FF31F40815181F401E20FF31FE4
:103A600080819181FA01E81BF90BCF0110C0220F70
:103A7000331FF301E20FF31F80819181F401E20F04
:103A8000F31F2081318180509C4F821B930B009744
:103A900029F08091B026823509F486CEC5010E94B6
:103AA0006419F0EBAF16FBE0BF0661F020EAA21646
:103AB00028E0B20649F030EBA31638E0B30631F443
:103AC00022E005C020E003C021E001C020E030E09A
:103AD000C901880F991FFC01E853FD4C40815181B9
:103AE0008C52914CFC01808191814817590778F0E4
:103AF000220F331FF901E853FD4C808191812C5234
:103B0000314CF90120813181821B930B12C0220FAD
:103B1000331FF901E853FD4C408151812C52314C47
:103B2000F9018081918140505C4F9A01281B390B2B
:103B3000C901009739F08091B026823519F4C5018A
:103B40000E945F19DF91CF911F910F91FF90EF902D
:103B5000DF90CF90BF90AF909F908F907F906F90AD
:103B60005F904F903F9008951F920F920FB60F9263
:103B700008B60F9209B60F920AB60F920BB60F92C3
:103B800011243F924F925F926F927F928F929F92F9
:103B9000AF92BF92CF92DF92EF92FF920F931F935B
:103BA0002F933F934F935F936F937F938F939F9345
:103BB000AF93BF93CF93DF93EF93FF930F2EF0EB71
:103BC0006F2EFBE07F2EF02D0F2EF8EC8F2EF2E300
:103BD0009F2EF02D0F2EF4EDAF2EFEE3BF2EF02D15
:103BE0000F2EFEEC4F2EF2E35F2EF02D0CEC12E3C5
:103BF0000F2EF0E6CF2EF02D0F2EF0EBEF2EF8E08B
:103C0000FF2EF02DC8EDDEE30F2EFEE43F2EF02D4B
:103C100015C1D501ED91FC9111978D919C91119752
:103C200001968D939C9311978D919C911197B4E07F
:103C300080309B0720F0D5011D921C921197E40D56
:103C4000F51DD080BAEFDB1619F0EEEFDE1619F491
:103C5000D092AE26F3C0FDE0DF1611F43092B0260C
:103C6000D8018D919C9111978253954CFC01C08293
:103C70008D919C91119701968D939C9311978D91A5
:103C80009C911197F4E080309F0718F01D921C92D0
:103C90001197D70111968C91119785FD18C033C0EB
:103CA000E881F98188819981019688839983888147
:103CB0009981B4E080309B0710F018821982E2539A
:103CC000F54C8081F7018083818185FF1CC0D8017C
:103CD0008D919C911197288139818217930740F02B
:103CE0008D919C91119728813981821B930B09C07A
:103CF000F801808191812881398180509C4F821BFD
:103D0000930B009769F6D8018D919C9111972881AA
:103D100039818217930740F08D919C9111972881EA
:103D20003981821B930B09C0F80180819181288120
:103D3000398180509C4F821B930B009721F0C70163
:103D40000E945F1903C0C7010E946419D8018D91B8
:103D50009C9111978253954CFC01D0828D919C913E
:103D6000119701968D939C9311978D919C9111972A
:103D7000F4E080309F0718F01D921C921197D70134
:103D800011968C91119785FD18C033C0E881F98197
:103D90008881998101968883998388819981B4E08B
:103DA00080309B0710F018821982E253F54C808115
:103DB000F7018083818185FF1CC0D8018D919C9182
:103DC0001197288139818217930740F08D919C913A
:103DD000119728813981821B930B09C0F8018081DA
:103DE00091812881398180509C4F821B930B0097D1
:103DF00069F6D8018D919C9111972881398182179C
:103E0000930740F08D919C91119728813981821BF5
:103E1000930B09C0F80180819181288139818050FC
:103E20009C4F821B930B009721F0C7010E945F19E2
:103E300003C0C7010E946419D301DC92F3018181A0
:103E400085FF24C0D4018D919C911197F5012081AB
:103E500031818217930740F08D919C9111972081B9
:103E60003181821B930B0BC0D4018D919C911197D2
:103E7000F5012081318180509C4F821B930B00976C
:103E800029F08091B026823509F4C3CE80EB9BE007
:103E90000E9464192091C8323091C9328091D43E79
:103EA0009091D53E2817390758F08091C8329091EB
:103EB000C9322091D43E3091D53E821B930B0CC069
:103EC0008091C8329091C9322091D43E3091D53E34
:103ED00080509C4F821B930B009741F08091B0263D
:103EE000823521F480EB9BE00E945F19FF91EF91F6
:103EF000DF91CF91BF91AF919F918F917F916F9102
:103F00005F914F913F912F911F910F91FF90EF90F3
:103F1000DF90CF90BF90AF909F908F907F906F90E9
:103F20005F904F903F900F900BBE0F900ABE0F9086
:103F300009BE0F9008BE0F900FBE0F901F901895EE
:103F40001F920F920FB60F9208B60F9209B60F92FA
:103F50000AB60F920BB60F9211244F925F926F9296
:103F60007F928F929F92AF92BF92CF92DF92EF9209
:103F7000FF920F931F932F933F934F935F936F93F2
:103F80007F938F939F93AF93BF93CF93DF93EF93E1
:103F9000FF930F2EF0EB8F2EFBE09F2EF02D0F2EB8
:103FA000FEECAF2EFEE3BF2EF02D0F2EF2EC6F2EA7
:103FB000F6E27F2EF02D0CEC12E30F2EF0EBEF2E3D
:103FC000F8E0FF2EF02DC8EDDEE30F2EFFE4CF2E3C
:103FD000F02D0F2EF8EC4F2EF6E25F2EF02D99C04B
:103FE000F401D080F801808191818253954CFC01CD
:103FF000D082F801808191810196808391838081B4
:104000009181F4E080309F0718F0F801108211824E
:10401000F701818185FD18C031C0E881F98188816F
:1040200099810196888399838881998124E08030E1
:10403000920710F018821982E253F54C8081F70143
:104040008083818185FF1AC0F80180819181288158
:1040500039818217930738F08081918128813981D5
:10406000821B930B09C0F8018081918128813981DD
:1040700080509C4F821B930B009779F6F80180814A
:104080009181288139818217930738F0808191814D
:1040900028813981821B930B09C0F80180819181AD
:1040A0002881398180509C4F821B930B009721F00F
:1040B000C7010E945F1903C0C7010E946419FDE097
:1040C000DF1671F48091AE268E3F41F40E94920D6E
:1040D000882331F080E58093B02602C0C092B026DC
:1040E0008D2D0E94A50DF50180819181840D951D76
:1040F000FC01D082F50180819181019680839183BA
:1041000080819181F4E080309F0718F0F5011082E2
:104110001182F401818188230CF5F5018081918160
:10412000F301208131818217930748F0F5018081E6
:104130009181F30120813181821B930B0AC0F5012B
:1041400080819181F3012081318180509C4F821BBD
:10415000930BF4E080309F0708F442CFFF91EF917A
:10416000DF91CF91BF91AF919F918F917F916F918F
:104170005F914F913F912F911F910F91FF90EF9081
:10418000DF90CF90BF90AF909F908F907F906F9077
:104190005F904F900F900BBE0F900ABE0F9009BE1C
:1041A0000F9008BE0F900FBE0F901F901895CF92E2
:1041B000DF92EF92FF920F931F93CF93DF93DC0177
:1041C0000F2EFEECCF2EFEE3DF2EF02D02EC16E2DA
:1041D0000F2EF8ECEF2EF6E2FF2EF02D3AC04C91A8
:1041E0002BE0A03BB20751F038E0A03AB30741F012
:1041F00088E0A03BB80731F462E005C060E003C08E
:1042000061E001C060E070E0CB01880F991FF6010A
:10421000E80FF91F20813181CB01982F8827990F52
:10422000990F820F931F8E0D9F1DEC014883808193
:10423000918101968083918380819181D4E0803047
:104240009D0738F0FB01EE0FFF1FEC0DFD1D1082E6
:10425000118211968C91119788230CF04CC02BE0A1
:10426000A03BB20751F038E0A03AB30741F088E034
:10427000A03BB80731F422E005C020E003C021E0F4
:1042800001C020E030E0C901880F991FF601E80F56
:10429000F91F40815181F801E80FF91F8081918158
:1042A0004817590788F0220F331FF601E20FF31F5A
:1042B00040815181F801E20FF31F80819181EA0171
:1042C000C81BD90BCE0112C0C901880F991FF60176
:1042D000E80FF91F40815181F801E80FF91F208193
:1042E0003181CA0180509C4F821B930BD4E08030F7
:1042F0009D0708F474CFDF91CF911F910F91FF902C
:10430000EF90DF90CF9008953F924F925F926F921F
:104310007F928F929F92AF92BF92CF92DF92EF9255
:10432000FF920F931F93CF93DF935C010F2EFEEC50
:104330008F2EFEE39F2EF02D0F2EF2EC6F2EF6E265
:104340007F2EF02D0CEC12E30F2EF0EBEF2EF8E0A9
:10435000FF2EF02DC8EDDEE30F2EFFE4CF2EF02D63
:104360000F2EF0E53F2EF02D0F2EF8EC4F2EF6E23B
:104370005F2EF02DB7C0D501DC90F80180819181CE
:104380008253954CDC01DC9280819181019680837F
:10439000918380819181B4E080309B0710F010827E
:1043A0001182F701818185FD1AC032C0E881F9814F
:1043B000888199810196888399838881998124E0F5
:1043C0008030920710F018821982E253F54C8081F8
:1043D000D7018C9311968C91119785FF19C0F80124
:1043E00080819181288139818217930738F08081FB
:1043F000918128813981821B930B08C08081918132
:104400002881398180509C4F821B930B009771F655
:10441000F80180819181288139818217930738F0D2
:104420008081918128813981821B930B08C0808112
:1044300091812881398180509C4F821B930B00977A
:1044400021F0C7010E945F1903C0C7010E946419CF
:10445000BDE0DB1669F48091AE268E3F39F40E94F0
:10446000920D882329F03092B02602C0C092B02667
:104470008D2D0E94A50DE0EBAE16EBE0BE0661F0BF
:10448000F0EAAF16F8E0BF0649F020EBA21628E0EC
:10449000B20631F442E005C040E003C041E001C093
:1044A00040E050E0CA01880F991FF401E80FF91F9E
:1044B00020813181CA01982F8827990F990F820F87
:1044C000931F840D951DDC01DC9280819181019602
:1044D0008083918380819181B4E080309B0710F0CC
:1044E00010821182D50111968C91119788230CF0BE
:1044F0004DC0B0EBAB16BBE0BB0661F0E0EAAE1618
:10450000E8E0BE0649F0F0EBAF16F8E0BF0631F484
:1045100022E005C020E003C021E001C020E030E03F
:10452000C901880F991FF401E80FF91F40815181DB
:10453000F301E80FF91F808191814817590788F02E
:10454000220F331FF401E20FF31F40815181F30169
:10455000E20FF31F808191819A01281B390BC90159
:1045600010C0220F331FF401E20FF31F80819181ED
:10457000F301E20FF31F2081318180509C4F821B99
:10458000930B34E08030930708F4F5CEDF91CF91A0
:104590001F910F91FF90EF90DF90CF90BF90AF9061
:1045A0009F908F907F906F905F904F903F90089575
:1045B0002BE0803B920751F0E8E0803A9E0741F003
:1045C000F8E0803B9F0731F482E005C080E003C043
:1045D00081E001C080E090E0880F991FFC01E85362
:1045E000FD4C108211828C52914CFC011082118280
:1045F00008952BE0803B920751F0E8E0803A9E0757
:1046000041F0F8E0803B9F0731F482E005C080E094
:1046100003C081E001C080E090E09C01220F331FC5
:10462000F901E853FD4C408151812C52314CF90184
:10463000208131814217530780F09C01220F331FE4
:10464000F901E853FD4C808191812C52314CF901E4
:1046500020813181821B930B08959C01220F331F0F
:10466000F901E853FD4C408151812C52314CF90144
:1046700020813181CA0180509C4F821B930B089589
:104680002F923F924F925F926F927F928F929F9262
:10469000AF92BF92CF92DF92EF92FF920F931F9350
:1046A000CF93DF9300D00F92CDB7DEB77C01262FDA
:1046B000372FD9010D900020E9F71197CD01821B0A
:1046C000930B8B839C83009709F44BC369837A8394
:1046D000222433240F2EF8EC6F2EF2E37F2EF02DE0
:1046E0000F2EFEEC4F2EF2E35F2EF02D0F2EF4ED89
:1046F0008F2EFEE39F2EF02D0F2EFCECCF2EF2E33B
:10470000DF2EF02DA981BA815D91A983BA83B0EB28
:10471000EB16BBE0FB0661F0E0EAEE16E8E0FE0611
:1047200049F0F0EBEF16F8E0FF0631F442E005C087
:1047300040E003C041E001C040E0642F70E0CB01E5
:10474000880F991FF301E80FF91F20813181CB01F8
:10475000982F8827990F990F820F931F840D951D0D
:10476000DC015C93808191810196808391838081BB
:104770009181B4E080309B0710F0108211824423B5
:1047800009F45EC1D70111968C91119785FD44C241
:104790008EC2B0EBEB16BBE0FB0661F0E0EAEE1672
:1047A000E8E0FE0649F0F0EBEF16F8E0FF0631F422
:1047B00022E005C020E003C021E001C020E030E09D
:1047C000C901880F991FF401E80FF91F4081518139
:1047D000808191810196808391838081918164E0C1
:1047E0008030960710F010821182C901982F882717
:1047F000990F990F840F951F840D951DFC01B080B2
:10480000FAEFBF1619F02EEFB21619F4B092AE26D9
:104810001DC13DE0B31619F46EE46093B026D601D5
:104820008D919C9111978253954CFC01A0828D91A2
:104830009C91119701968D939C9311978D919C91CA
:104840001197F4E080309F0718F01D921C92119789
:10485000D80111968C91119785FD1FC03FC0A8ED1E
:10486000BEE3ED91FC9111978D919C91119701966A
:104870008D939C9311978D919C911197B4E080300A
:104880009B0718F01D921C921197E253F54C808102
:10489000F8018083818185FF21C0D6018D919C9193
:1048A0001197E8EDFEE3208131818217930740F0F4
:1048B0008D919C91119720813181821B930B0CC0AB
:1048C000D6018D919C911197E8EDFEE32081318115
:1048D00080509C4F821B930B009709F6D6018D9157
:1048E0009C911197E8EDFEE32081318182179307B7
:1048F00040F08D919C91119720813181821B930B07
:104900000CC0D6018D919C911197E8EDFEE32081BA
:10491000318180509C4F821B930B009721F0C8017E
:104920000E945F1903C0C8010E946419D6018D91CD
:104930009C9111978253954CFC01B0828D919C9172
:10494000119701968D939C9311978D919C9111973E
:10495000F4E080309F0718F01D921C921197D80147
:1049600011968C91119785FD1FC03FC0A8EDBEE345
:10497000ED91FC9111978D919C91119701968D93DA
:104980009C9311978D919C911197B4E080309B0777
:1049900018F01D921C921197E253F54C8081F8019A
:1049A0008083818185FF21C0D6018D919C911197D3
:1049B000E8EDFEE3208131818217930740F08D916D
:1049C0009C91119720813181821B930B0CC0D601E1
:1049D0008D919C911197E8EDFEE32081318180500B
:1049E0009C4F821B930B009709F6D6018D919C91E9
:1049F0001197E8EDFEE3208131818217930740F0A3
:104A00008D919C91119720813181821B930B0CC059
:104A1000D6018D919C911197E8EDFEE320813181C3
:104A200080509C4F821B930B009721F0C8010E947D
:104A30005F1903C0C8010E946419D701BC9206C067
:104A40000F2EF0E6AF2EF02D00EB18E0F70181817C
:104A500085FF4FC0F0EBEF16FBE0FF0661F020EAA8
:104A6000E21628E0F20649F030EBE31638E0F306F0
:104A700031F422E005C020E003C021E001C020E0C5
:104A800030E0C901880F991FF301E80FF91F408139
:104A90005181F401E80FF91F80819181481759076E
:104AA00088F0220F331FF301E20FF31F4081518181
:104AB000F401E20FF31F80819181DA01A81BB90B89
:104AC000CD0110C0220F331FF301E20FF31F8081CD
:104AD0009181F401E20FF31F2081318180509C4FBE
:104AE000821B930B009729F08091B026823509F440
:104AF00050CEC7010E946419B0EBEB16BBE0FB0679
:104B000061F0E0EAEE16E8E0FE0649F0F0EBEF16A1
:104B1000F8E0FF0631F422E005C020E003C021E008
:104B200001C020E030E0C901880F991FF301E80FB0
:104B3000F91F40815181F401E80FF91F80819181B3
:104B40004817590788F0220F331FF301E20FF31FB4
:104B500040815181F401E20FF31F808191819A011C
:104B6000281B390BC90110C0220F331FF301E20FBC
:104B7000F31F80819181F401E20FF31F20813181C5
:104B800080509C4F821B930B009709F4E1C08091E9
:104B9000B026823509F0DCC0C7010E945F19D8C079
:104BA00030EBE3163BE0F30661F060EAE61668E0FE
:104BB000F60649F080EBE81688E0F80631F422E0CA
:104BC00005C020E003C021E001C020E030E0C901C1
:104BD000880F991FF401E80FF91F408151818081EE
:104BE000918101968083918380819181A4E08030BE
:104BF0009A0710F010821182C901982F8827990F07
:104C0000990F840F951F840D951DDC018C91F70180
:104C10008083818185FF4BC0F0EBEF16FBE0FF0640
:104C200061F020EAE21628E0F20649F030EBE316E4
:104C300038E0F30631F422E005C020E003C021E0B3
:104C400001C020E030E0C901880F991FF301E80F8F
:104C5000F91F40815181F401E80FF91F8081918192
:104C60004817590788F0220F331FF301E20FF31F93
:104C700040815181F401E20FF31F80819181DA01BB
:104C8000A81BB90BCD0110C0220F331FF301E20F97
:104C9000F31F80819181F401E20FF31F20813181A4
:104CA00080509C4F821B930B009709F079CFB0EB9B
:104CB000EB16BBE0FB0661F0E0EAEE16E8E0FE066C
:104CC00049F0F0EBEF16F8E0FF0631F422E005C002
:104CD00020E003C021E001C020E030E0C901880FDE
:104CE000991FF301E80FF91F40815181F401E80F8A
:104CF000F91F808191814817590788F0220F331FCF
:104D0000F301E20FF31F40815181F401E20FF31F21
:104D1000808191819A01281B390BC90110C0220F93
:104D2000331FF301E20FF31F80819181F401E20F41
:104D3000F31F2081318180509C4F821B930B009781
:104D400021F0C7010E945F1903C0C7010E946419C6
:104D50000894211C311C8B819C812816390609F08E
:104D6000D1CC2496CDBFDEBFDF91CF911F910F91A3
:104D7000FF90EF90DF90CF90BF90AF909F908F907B
:104D80007F906F905F904F903F902F9008953F924B
:104D90004F925F926F927F928F929F92AF92BF924B
:104DA000CF92DF92EF92FF920F931F93CF93DF93F7
:104DB0006C012BE0803B920759F038E0803A930772
:104DC00049F080EBC81688E0D80631F442E005C00F
:104DD00040E003C041E001C040E0C42FD0E0FE014C
:104DE000EE0FFF1FE853FD4C20813181CE01982F3B
:104DF0008827990F990F820F931FDC01A253BD4C96
:104E00006C938081918101968083918380819181CF
:104E1000E4E080309E0730F0CC0FDD1FC853DD4C3E
:104E200018821982442309F427C1F601818185FD86
:104E300033C285C2F0EBCF16FBE0DF0661F020EA5B
:104E4000C21628E0D20649F030EBC31638E0D3068C
:104E500031F422E005C020E003C021E001C020E0E1
:104E600030E0C901880F991FF401E80FF91F408154
:104E7000518180819181019680839183808191818C
:104E800064E08030960710F010821182C901982FDB
:104E90008827990F990F840F951F840D951DFC018C
:104EA000B080FAEFBF1619F02EEFB21619F4B092D7
:104EB000AE2606C13DE0B31611F43092B026F801DB
:104EC000808191818253954CFC01A082F801808100
:104ED000918101968083918380819181F4E080307B
:104EE0009F0718F0F80110821182F701818185FD7A
:104EF00018C031C0E881F981888199810196888341
:104F000099838881998124E08030920710F018827B
:104F10001982E253F54C8081F7018083818185FFFE
:104F20001AC0F80180819181288139818217930705
:104F300038F08081918128813981821B930B09C0CF
:104F4000F801808191812881398180509C4F821B9A
:104F5000930B009779F6F80180819181288139813E
:104F60008217930738F08081918128813981821BD3
:104F7000930B09C0F801808191812881398180508B
:104F80009C4F821B930B009721F0C7010E945F1971
:104F900003C0C7010E946419F80180819181825386
:104FA000954CFC01B082F80180819181019680834B
:104FB000918380819181F4E080309F0718F0F8019F
:104FC00010821182F701818185FD18C031C0E8810E
:104FD000F981888199810196888399838881998153
:104FE00024E08030920710F018821982E253F54CC9
:104FF0008081F7018083818185FF1AC0F80180815B
:105000009181288139818217930738F080819181BD
:1050100028813981821B930B09C0F801808191811D
:105020002881398180509C4F821B930B009779F621
:10503000F80180819181288139818217930738F0A6
:105040008081918128813981821B930B09C0F801ED
:10505000808191812881398180509C4F821B930BE4
:10506000009721F0C7010E945F1903C0C7010E9489
:105070006419F601B08224C00F2EF8EC6F2EF2E313
:105080007F2EF02D0F2EF4ED8F2EFEE39F2EF02DB0
:105090000F2EFEEC4F2EF2E35F2EF02D0CEC12E300
:1050A0000F2EF0E6AF2EF02D0F2EF0EBEF2EF8E0E6
:1050B000FF2EF02DC8EDDEE30F2EFEE43F2EF02D87
:1050C000F601818185FF4FC0F0EBCF16FBE0DF06D4
:1050D00061F020EAC21628E0D20649F030EBC31690
:1050E00038E0D30631F422E005C020E003C021E01F
:1050F00001C020E030E0C901880F991FF301E80FDB
:10510000F91F40815181F401E80FF91F80819181DD
:105110004817590788F0220F331FF301E20FF31FDE
:1051200040815181F401E20FF31F80819181FA01E6
:10513000E81BF90BCF0110C0220F331FF301E20F60
:10514000F31F80819181F401E20FF31F20813181EF
:1051500080509C4F821B930B009729F08091B026C2
:10516000823509F467CEC6010E946419F0EBCF16B0
:10517000FBE0DF0661F020EAC21628E0D20649F023
:1051800030EBC31638E0D30631F422E005C020E04E
:1051900003C021E001C020E030E0C901880F991F61
:1051A000FC01E853FD4C408151818C52914CFC0133
:1051B000808191814817590778F0220F331FF90138
:1051C000E853FD4C408151812C52314CF9018081D2
:1051D0009181481B590B10C0220F331FF901E8536E
:1051E000FD4C408151812C52314CF90180819181DB
:1051F00040505C4F481B590B4115510509F4EFC055
:105200008091B026823509F0EAC0C6010E945F197C
:10521000E6C0F0EBCF16FBE0DF0661F020EAC21635
:1052200028E0D20649F030EBC31638E0D30631F45B
:1052300022E005C020E003C021E001C020E030E012
:10524000C901880F991FFB01E80FF91F40815181A7
:105250008081918101968083918380819181E4E0B6
:1052600080309E0740F0C901880F991F860F971F55
:10527000FC0110821182C901982F8827990F990F7C
:10528000840F951FFE01E80FF91F8081F6018083CE
:10529000818185FD07C053C0A8ECB2E364ED7EE3D5
:1052A000CEECD2E3F0EBCF16FBE0DF0661F020EAB4
:1052B000C21628E0D20649F030EBC31638E0D30618
:1052C00031F422E005C020E003C021E001C020E06D
:1052D00030E0C901880F991FFD01E80FF91F4081D7
:1052E0005181FB01E80FF91F80819181481759070F
:1052F00088F0220F331FFD01E20FF31F408151811F
:10530000FB01E20FF31F80819181FA01E81BF90B89
:10531000CF0112C0C901880F991FFD01E80FF91FC5
:1053200040815181FB01E80FF91F20813181CA01C1
:1053300080509C4F821B930B009709F06ACFF0EBD3
:10534000CF16FBE0DF0661F020EAC21628E0D206A5
:1053500049F030EBC31638E0D30631F422E005C043
:1053600020E003C021E001C020E030E0C901880F47
:10537000991FFC01E853FD4C408151818C52914CA6
:10538000FC01808191814817590778F0220F331F63
:10539000F901E853FD4C408151812C52314CF90107
:1053A00080819181481B590B10C0220F331FF901D6
:1053B000E853FD4C408151812C52314CF9018081E0
:1053C000918140505C4F481B590B4115510521F00C
:1053D000C6010E945F1903C0C6010E946419DF91D3
:1053E000CF911F910F91FF90EF90DF90CF90BF90E2
:1053F000AF909F908F907F906F905F904F903F9075
:1054000008952BE0803B920751F068E0803A9607C0
:1054100041F028E0803B920731F422E005C020E013
:1054200003C021E001C020E030E0F901EE0FFF1FD2
:10543000EC52F14C408151818081918101968083B1
:1054400091838081918164E08030960738F0F90182
:10545000EE0FFF1FEC52F14C10821182F901FE2F6A
:10546000EE27FF0FFF0F4E0F5F1FFA01E253FD4CB7
:10547000808108952BE0803B920751F0E8E0803A6C
:105480009E0741F0F8E0803B9F0731F482E005C0C1
:1054900080E003C081E001C080E090E0880F991FA8
:1054A000FC01E253F14C108211828E53994DFC01A4
:1054B000108211820895CF93DF93EC010E94D822CD
:1054C000CE010E943A2ACE010E945519CE010E94B7
:1054D0005F19DF91CF91089580EA98E00E945B2ADE
:1054E00080EB98E00E945B2A80EB9BE00E945B2AA5
:1054F00008952BE0803B920751F0E8E0803A9E0748
:1055000041F0F8E0803B9F0731F482E005C080E085
:1055100003C081E001C080E090E09C01220F331FB6
:10552000F901E253F14C408151812E53394DF9017B
:10553000208131814217530780F09C01220F331FD5
:10554000F901E253F14C808191812E53394DF901DB
:1055500020813181821B930B08959C01220F331F00
:10556000F901E253F14C408151812E53394DF9013B
:1055700020813181CA0180509C4F821B930B08957A
:105580002BE0803B920751F028E0803A920741F0EF
:1055900028E0803B920731F442E005C040E003C0C0
:1055A00041E001C040E050E0FA01EE0FFF1FE2537E
:1055B000F14C808191819A01322F2227330F330FD2
:1055C000820F931FDC01A853B94D6C9380819181A8
:1055D0000196808391838081918124E080309207BD
:1055E00038F0FA01EE0FFF1FE253F14C10821182E6
:1055F00008952BE0803B920751F068E0803A9607CF
:1056000041F028E0803B920731F422E005C020E021
:1056100003C021E001C020E030E0F901EE0FFF1FE0
:10562000EE53F94D408151818081918101968083B3
:1056300091838081918164E08030960738F0F90190
:10564000EE0FFF1FEE53F94D10821182F901FE2F6C
:10565000EE27FF0FFF0F4E0F5F1FFA01E853F94DC2
:10566000808108953F924F925F926F927F928F92C6
:105670009F92AF92BF92CF92DF92EF92FF920F93E1
:105680001F93CF93DF932091C8323091C93280911C
:10569000D43E9091D53E2817390758F08091C832F2
:1056A0009091C9322091D43E3091D53E821B930B0C
:1056B0000CC08091C8329091C9322091D43E309173
:1056C000D53E80509C4F821B930B009709F499C1E3
:1056D00016C1D501ED91FC9111978D919C91119777
:1056E00001968D939C9311978D919C911197B4E0A5
:1056F00080309B0720F0D5011D921C921197E40D7C
:10570000F51DD080BAEFDB1619F0EEEFDE1619F4B6
:10571000D092AE261EC1FDE0DF1611F43092B02605
:10572000D8018D919C9111978253954CFC01C082B8
:105730008D919C91119701968D939C9311978D91CA
:105740009C911197F4E080309F0718F01D921C92F5
:105750001197D70111968C91119785FD18C033C010
:10576000E881F9818881998101968883998388816C
:105770009981B4E080309B0710F018821982E253BF
:10578000F54C8081F7018083818185FF1CC0D801A1
:105790008D919C911197288139818217930740F050
:1057A0008D919C91119728813981821B930B09C09F
:1057B000F801808191812881398180509C4F821B22
:1057C000930B009769F6D8018D919C9111972881D0
:1057D00039818217930740F08D919C911197288110
:1057E0003981821B930B09C0F80180819181288146
:1057F000398180509C4F821B930B009721F0C70189
:105800000E945F1903C0C7010E946419D8018D91DD
:105810009C9111978253954CFC01D0828D919C9163
:10582000119701968D939C9311978D919C9111974F
:10583000F4E080309F0718F01D921C921197D70159
:1058400011968C91119785FD18C033C0E881F981BC
:105850008881998101968883998388819981B4E0B0
:1058600080309B0710F018821982E253F54C80813A
:10587000F7018083818185FF1CC0D8018D919C91A7
:105880001197288139818217930740F08D919C915F
:10589000119728813981821B930B09C0F8018081FF
:1058A00091812881398180509C4F821B930B0097F6
:1058B00069F6D8018D919C911197288139818217C1
:1058C000930740F08D919C91119728813981821B1B
:1058D000930B09C0F8018081918128813981805022
:1058E0009C4F821B930B009721F0C7010E945F1908
:1058F00003C0C7010E946419D301DC922AC00F2E95
:10590000F0EB6F2EFBE07F2EF02D0F2EF8EC8F2E9C
:10591000F2E39F2EF02D0F2EF4EDAF2EFEE3BF2EFF
:10592000F02D0F2EFEEC4F2EF2E35F2EF02D0CEC3F
:1059300012E30F2EF0E6CF2EF02D0F2EF0EBEF2E10
:10594000F8E0FF2EF02DC8EDDEE30F2EFEE43F2E33
:10595000F02DF301818185FF24C0D4018D919C91AC
:105960001197F501208131818217930740F08D91C5
:105970009C91119720813181821B930B0BC0D40124
:105980008D919C911197F5012081318180509C4F20
:10599000821B930B009729F08091B026823509F481
:1059A00098CE80EB9BE00E9464192091C832309120
:1059B000C9328091D43E9091D53E2817390758F0CE
:1059C0008091C8329091C9322091D43E3091D53E19
:1059D000821B930B0CC08091C8329091C9322091E8
:1059E000D43E3091D53E80509C4F821B930B009744
:1059F00041F08091B026823521F480EB9BE00E943B
:105A00005F19DF91CF911F910F91FF90EF90DF9081
:105A1000CF90BF90AF909F908F907F906F905F904E
:105A20004F903F900895813061F0813018F08230BE
:105A3000A9F40EC08FEF90E0E0E0FBE080AF91AF03
:105A400008958FEF90E0E0E0FBE082AF93AF089520
:105A50008FEF90E080933E0B90933F0B0895813041
:105A600051F0813018F0823079F40AC0E0E0FBE0B8
:105A700010AE11AE0895E0E0FBE012AE13AE089553
:105A800010923E0B10923F0B0895813059F08130F7
:105A900018F0823091F40CC070E0E0E0FBE060AF01
:105AA00071AF089570E0E0E0FBE062AF73AF08957E
:105AB00070E060933E0B70933F0B0895813059F076
:105AC000813018F0823091F40CC0E0E0FBE080A55A
:105AD000809580A70895E0E0FBE082A5809582A7ED
