:100000000C94FA000C941F010C941F010C941F0116
:100010000C941F010C941F010C941F010C941F01E0
:100020000C941F010C941F010C941F010C941F01D0
:100030000C941F010C941F010C941F010C941F01C0
:100040000C941F010C941F010C941F010C941F01B0
:100050000C941F010C941F010C941F010C941F01A0
:100060000C941F010C94E80F0C94D8100C941F01F1
:100070000C9456100C947B110C941F010C941F01CE
:100080000C941F010C941F010C941F010C941F0170
:100090000C941F010C941F010C941F010C941F0160
:1000A0000C941F010C941F010C941F010C941F0150
:1000B0000C941F010C941F010C941F010C941F0140
:1000C0000C941F010C941F010C941F010C941F0130
:1000D0000C941F010C941F010C941F010C941F0120
:1000E0000C941F010C941F010C941F010C941F0110
:1000F0000C941F010C941F010C941F010C941F0100
:100100000C941F010C941F010C941F010C941F01EF
:100110000C941F010C941F010C941F010C941F01DF
:100120000C941F010C941F010C941F010C941F01CF
:100130000C941F010C941F010C941F010C941F01BF
:100140000C941F010C941F010C941F010C941F01AF
:100150000C941F010C941F010C941F010C941F019F
:100160000C941F010C941F010C941F010C941F018F
:100170000C941F010C941F010C941F010C941F017F
:100180000C941F010C941F010C941F010C941F016F
:100190000C94820A0C94EA0A0C941F010C941F011F
:1001A0000C941F010C941F010C941F010C941F014F
:1001B0000C941F010C941F010C941F010C941F013F
:1001C0000C941F010C941F010C941F010C941F012F
:1001D0000C941F010C941F010C941F010C941F011F
:1001E0000C941F010C941F010C9425180C941E12E2
:1001F0000C941F0111241FBECFEFDFE3DEBFCDBF84
:1002000000E00CBF18BE19BE1ABE1BBE11E2A0E072
:10021000B0E2E0E5F2E400E00BBF02C007900D920F
:10022000A834B107D9F71DE3A8E4B1E201C01D92DB
:10023000A23FB107E1F70E94CB090C9426210C9450
:100240000000AAECB1E092E09C93E82FF0E08491EA
:100250001C92089580FF10C0E0E0F2E011A228E0B7
:1002600021A790E191AB88E181AFE0E4F2E011A237
:1002700021A791AB81AF0895E0E0F2E030E231A335
:1002800028E221A790E391AB88E381AFE0E4F2E0BC
:1002900031A321A791AB81AF0895E0E0F2E0808126
:1002A0008C638083E0E4F2E080818C638083089536
:1002B000CF92DF92EF92FF920F931F93CF93DF9332
:1002C00080E20E942101C0E0D2E08C8781E20E949E
:1002D00021018D870F2EF7E0EF2EF02DEC820F2EEF
:1002E000F3E1DF2EF02DDA820F2EF6E0CF2EF02D87
:1002F000C982FF24F394F882F8A2F8A6F8AAF8AE0F
:1003000084E20E94210100E412E0F801848785E282
:100310000E942101F8018587E482D282C182F082A5
:10032000F0A2F0A6F0AAF0AE1092BA251092B9256C
:1003300080E00E942A01888182608883F80181819F
:10034000826081830E944D01DF91CF911F910F91B7
:10035000FF90EF90DF90CF900895CF92DF92EF92D1
:10036000FF92CF93DF936B017C01E901BA0180E03A
:1003700090E00E94FB1FA70196010E9461200E944D
:10038000CA1FDC01CB01BE014AE050E00E94EC2014
:10039000CE010E947008DF91CF91FF90EF90DF9027
:1003A000CF900895CF93DF93EA01A82FB0E0AD017D
:1003B00042955295507F5427407F5427FA01E754C5
:1003C000FB4D47535B4D80E090E021913191820FCE
:1003D000931FE417F507C9F7969587959695879526
:1003E00096958795673619F06936C9F406C0813A43
:1003F0009105E8F0815A90401CC01197FD01F595D8
:10040000E795F595E795EE0FFF1FE25BFE4D208126
:1004100031818217930720F1821B930B23C068362A
:1004200009F443C06936F1F0673669F502C080E02F
:1004300090E0BC0180E090E00E94FB1F27E938EAD1
:100440004FEF59E30E94612025E83BEE41E551E47E
:100450000E94612044E650E09E010E94AD0125C04B
:1004600080E090E0BC0180E090E00E94FB1F23E769
:1004700030E34BE15AE30E94612048EE53E09E01D5
:100480000E94AD0112C060E070E0CB0120E030E0DE
:100490004AE754E40E9461200E94CF1FDC01CB0197
:1004A000BE014AE050E00E94EC20DF91CF91089518
:1004B000482F50E042955295507F5427407F542753
:1004C000FA01E754FB4D47535B4D20E030E081914A
:1004D00091912817390708F49C01E417F507B9F73B
:1004E000822F932F0895929582958F7089279F7000
:1004F0008927813A910510F481EA90E00895DF920E
:10050000EF92FF920F931F93CF93DF93E0E0F2E01F
:1005100086818F3009F017C1E0E4F2E086818F30E8
:1005200009F011C18091BA2580FF71C00091B925F1
:1005300010E0C0E0D2E0888999890E9473020F2EF2
:10054000F9EBEF2EF4E2FF2EF02DF801EE0FFF1F76
:10055000EE0DFF1D808391838A899B890E9473021F
:10056000F8013896EE0FFF1FEE0DFF1D808391837B
:100570008C899D890E947302F8017096EE0FFF1F0F
:10058000EE0DFF1D808391838E899F890E947302E7
:10059000F8017896EE0FFF1FEE0DFF1D808391830B
:1005A000C0E4D2E08CA19DA10E947302F801E05C3E
:1005B000FF4FEE0FFF1FEE0DFF1D808391838CA573
:1005C0009DA50E947302F801E85BFF4FEE0FFF1F2D
:1005D000EE0DFF1D808391838CA99DA90E9473025B
:1005E000F801E05BFF4FEE0FFF1FEE0DFF1D808354
:1005F00091838CAD9DAD0E947302085A1F4F000F6E
:10060000111FE00EF11EF701808391837AC0D09014
:10061000B9250D2D10E0C0E0D2E08CA19DA10E9473
:100620007302F801B0960F2EF9EBEF2EF4E2FF2ED5
:10063000F02DEE0FFF1FEE0DFF1D808391838CA523
:100640009DA50E947302F801B896EE0FFF1FEE0DF4
:10065000FF1D808391838CA99DA90E947302F801DC
:10066000F096EE0FFF1FEE0DFF1D808391838CAD82
:100670009DAD0E947302F801F896EE0FFF1FEE0D7C
:10068000FF1D80839183C0E4D2E08CA19DA10E94D4
:100690007302F801E05AFF4FEE0FFF1FEE0DFF1D32
:1006A000808391838A899B890E947302F801E859AB
:1006B000FF4FEE0FFF1FEE0DFF1D808391838C898E
:1006C0009D890E947302F801E059FF4FEE0FFF1F52
:1006D000EE0DFF1D808391838E899F890E94730296
:1006E00008581F4F000F111FE00EF11EF701808305
:1006F00091838D2D8F5F8093B925883010F01092F3
:10070000B9258FE0E0E0F2E08683E0E4F2E0868362
:100710008091BA258F5F8093BA250E942A010E949A
:100720004D018091B824893271F4CEE4D1E200E029
:10073000802F880F880F8F5F0E94580289939993AA
:100740000F5F0430A9F7DF91CF911F910F91FF90B8
:10075000EF90DF900895CF93DF93CDB7DEB72C975E
:10076000CDBFDEBF8091B7248232E1F48091482171
:100770008F5F8093482180FF05C080E090E20E9457
:10078000700804C08FE090E20E94700888E067E67D
:10079000AE014F5F5F4F0E94D201CE0101960E94D1
:1007A000700810C08DE190E20E94240787E290E279
:1007B0000E94240782E390E20E9424078CE390E2E7
:1007C0000E9424072C96CDBFDEBFDF91CF91089504
:1007D0001092B62489E28093B8248AE30E946409C7
:1007E00085E00E94D60508950E94E8038FE180937A
:1007F000B724089580E28093B72487E490E20E94B2
:10080000B107089581E28093B72481E590E20E94C8
:10081000B107089582E28093B7248CE590E20E94AC
:10082000B10708958091B7248052823008F054C0F7
:100830008091B62480FD04C081E20E949D070DC016
:100840008091B824893221F480E20E949D0705C07E
:100850008A3219F48FE10E949D078091B62481FDB0
:1008600004C081E20E9489070DC08091B8248932BA
:1008700021F480E20E94890705C08A3219F48FE1D1
:100880000E9489078091B62482FD04C081E20E9403
:1008900075070DC08091B824893221F480E20E944E
:1008A000750705C08A3219F48FE10E94750780919F
:1008B000B62483FD04C081E20E94610708958091FF
:1008C000B824893221F480E20E94610708958A32B7
:1008D00019F48FE10E9461070895CF93C82F81E03A
:1008E00064E670E00E94911F80EB9BE00E946F1D08
:1008F00082E58093D62585E18093C72586E690E240
:100900000E9424078091B724803269F0813218F464
:100910008F3131F505C0813281F0823209F517C07F
:100920000E94FA031DC0CE3219F40E94020418C0BE
:10093000CD32B1F40E940A0413C0CE3219F40E94E1
:100940000A040EC0CD3261F40E94FA0309C0CE320F
:1009500019F40E94FA0304C0CD3211F40E9402047B
:100960000E941204CF9108958091B7248F3119F419
:1009700080E00E946D0408958091B8248A3251F479
:1009800089E28093B8248AE30E94640985E00E948A
:10099000D6050BC0893249F48AE28093B8248CE3EF
:1009A0000E942E0985E00E94AA050E941204089563
:1009B000CF93C82F81E090E00C2E02C0880F991FC2
:1009C0000A94E2F79091B62489278093B62490E0A8
:1009D0000C2E02C0959587950A94E2F780FD07C01A
:1009E0008C2F0E9464098C2F0E94D6050AC08C2F80
:1009F0000E94AA058091B8248A3219F48C2F0E9493
:100A00002E090E941204CF910895CF93DF93CDB7A2
:100A1000DEB72C97CDBFDEBF8091492190914A214E
:100A200001968093492190934A2121E0843F9207C7
:100A300008F479C01092492110924A218091B7247C
:100A4000803209F070C080E067E6AE014F5F5F4F13
:100A50000E94D20187E690E2BE016F5F7F4F0E9445
:100A6000C60781E069E6AE014F5F5F4F0E94D20189
:100A70008CE690E2BE016F5F7F4F0E94C60784E064
:100A800067E6AE014F5F5F4F0E94D20182E790E2BE
:100A9000BE016F5F7F4F0E94C60785E069E6AE0129
:100AA0004F5F5F4F0E94D20187E790E2BE016F5F08
:100AB0007F4F0E94C60788E067E6AE014F5F5F4F39
:100AC0000E94D2018DE790E2BE016F5F7F4F0E94CE
:100AD000C60789E069E6AE014F5F5F4F0E94D20111
:100AE00082E890E2BE016F5F7F4F0E94C6078CE0F4
:100AF00067E6AE014F5F5F4F0E94D20188E890E247
:100B0000BE016F5F7F4F0E94C6078DE069E6AE01B0
:100B10004F5F5F4F0E94D2018DE890E2BE016F5F90
:100B20007F4F0E94C6072C96CDBFDEBFDF91CF91CD
:100B30000895E0E0F7E080E4818B828B838B848BE7
:100B40008EE1868381831092C8258FE3E0E2F7E08F
:100B5000828308958230B1F0833028F4882341F0F5
:100B6000813019F50AC0833091F08530F1F414C05A
:100B700082E0E0E0F7E08583089584E0E0E0F7E0DC
:100B80008583089588E0E0E0F7E08583089580E1BB
:100B9000E0E0F7E0858308958091B624880FE0E0D7
:100BA000F7E0858382E00E94F51E08958230B1F05F
:100BB000833028F4882341F0813009F50AC083305E
:100BC00091F08530E1F414C082E0E0E0F7E0868344
:100BD000089584E0E0E0F7E08683089588E0E0E0AF
:100BE000F7E08683089580E1E0E0F7E086830895EA
:100BF0001092C5251092CA2581E08093CB250895D7
:100C00008091C6258093C4258091D4258093C625E4
:100C1000E0E2F7E080858093D4250895CF93C82F34
:100C200081E06AE070E00E94911F0E94B404C2302B
:100C3000B1F0C33028F4CC2351F0C130E9F40BC03B
:100C4000C430A9F0C43078F0C530B1F413C080E0EE
:100C50000E94D80411C081E00E94D8040DC082E037
:100C60000E94D80409C083E00E94D80405C00E94F5
:100C7000BC0402C00E94AB03CF910895089588235D
:100C8000B9F470E0042E02C0759567950A94E2F7F6
:100C900060FF0EC02091D42530E0042E02C03595AF
:100CA00027950A94E2F720FD03C0842F0E940E06C8
:100CB0000895CF93DF93C091C6258091D425C8278E
:100CC000D091C425DC278C2F6D2F40E00E943F0679
:100CD0008C2F6D2F41E00E943F068C2F6D2F42E03C
:100CE0000E943F068C2F6D2F43E00E943F068C2F01
:100CF0006D2F44E00E943F068C2F6D2F45E00E942F
:100D00003F06DF91CF9108959091B6248091B82449
:100D1000893209F043C0990F8091C525882339F4A1
:100D2000E0E0F7E095838F5F8093C52510C08130A8
:100D300039F4E0E0F7E0968382E08093C52507C0B0
:100D40008F5F8093C5258B3010F01092C525809160
:100D5000CB256091CA25680F6093CA25662334F0BD
:100D600060FD12C082E00E94271F0EC0882321F080
:100D70006E5F6093CA2503C06E5F6093CA2582E0F0
:100D80006091CA250E94271F8091CA2581508E3FFD
:100D900028F08091CB2581958093CB250E94000679
:100DA0000E9459068091B7248332A9F18091932043
:100DB000909194209923C4F001968093932090936E
:100DC00094200E946C0A0E94770A8091932090914F
:100DD000942021E0853F920764F18FEF9FEF80938D
:100DE00093209093942008950E946C0A882339F0F0
:100DF00010929320109294208DE20E946D040E9424
:100E0000770A8823B1F010929320109294208EE2FA
:100E10000E946D0408950E946C0A882319F08DE2E7
:100E20000E946D040E94770A882319F08EE20E94C6
:100E30006D0408958EE48093D6258AEF8093D5259E
:100E400085E18093C7250895CF93DF93EC0180EB74
:100E50009BE06AEF0E94F81A80EB9BE0BE010E94C3
:100E6000BF1880EB9BE06DE00E94F81ADF91CF91F4
:100E700008958F3119F0803251F405C085E990E270
:100E80000E94240704C08EE990E20E94240787EAAA
:100E900090E20E94240783EB90E20E9424078FEBEC
:100EA00090E20E94240789EC90E20E9424070895B2
:100EB00087ED90E20E94240782EE90E20E942407D0
:100EC0000895CF93C82F813239F48EEE90E20E94BC
:100ED00024070E94580707C089EF90E20E94240768
:100EE0008C2F0E943907CF910895CF93C82F81325C
:100EF00039F484E091E20E9424070E94580707C059
:100F00008FE091E20E9424078C2F0E943907CF9135
:100F10000895CF93C82F813239F48AE191E20E947B
:100F200024070E94580707C085E291E20E94240727
:100F30008C2F0E943907CF910895CF93C82F81320B
:100F400039F480E391E20E9424070E94580707C009
:100F50008AE391E20E9424078C2F0E943907CF91E7
:100F60000895CF93DF93EC0180EB9BE06EEF0E943E
:100F7000F81A80EB9BE0BE010E94BF1880EB9BE05B
:100F80006DE00E94F81ADF91CF9108950F931F939F
:100F9000CF93DF93EC018B0180EB9BE06AEF0E9423
:100FA000F81A80EB9BE0BE010E94BF1880EB9BE02B
:100FB00060E20E94F81A80EB9BE0B8010E94BF1823
:100FC00080EB9BE06DE00E94F81ADF91CF911F91BA
:100FD0000F9108958091CE258E3739F49091CF25C9
:100FE00081E0973219F080E0089580E008958091C3
:100FF000C72595E19093C72508959091CE259093AC
:10100000CF259091CF259093D0259091D025909386
:10101000D1259091D1259093D2259091D22590936E
:10102000D3258093CE258091CE25803279F480918E
:10103000CF25803259F48091D025803239F48091C7
:10104000D125803219F485E18093C72508958091D8
:10105000D625823521F081E00E94F51E03C081E093
:101060000E94111F8091D6258F3419F0803561F4CC
:1010700008C08091D5258A3F39F482E58093D62532
:1010800003C082E58093D62580914B2190914C211D
:1010900023E18838920730F4019680934B21909396
:1010A0004C21089523E18838920749F482E5809322
:1010B000D62588E293E280934B2190934C210895AA
:1010C000EEE5F1E2ACEBB5E286EB94E210821D9224
:1010D000E559FF4FE817F907C9F71092BB250895A6
:1010E000EF92FF921F93CF93DF937C011091BB256A
:1010F000212F30E08BE690E0289FA001299F500D22
:10110000389F500D1124EA01C25ADE4D88E38883CE
:10111000898380E28A838C8382E28D83E12FF1E3ED
:101120004EE551E26BE670E08E2F90E0869F9001D5
:10113000879F300D969F300D1124240F351FD90144
:101140001396FC931397EF5FE83008F0E0E0FF5F41
:10115000F93351F7F7018081882331F505C0942FC9
:101160008191882369F403C040E050E090E0FE01E3
:10117000E90FF11D82E28683C40FD51F1F8206C0CE
:101180008D934F5F5F4F4436510549F7ECEBF5E225
:10119000E10FF11D81E080831F5F1093BB251830A4
:1011A00058F01092BB2508C08E83F7013196DE01FE
:1011B000179641E050E0D3CFDF91CF911F91FF9080
:1011C000EF900895EF92FF920F931F93CF9380912A
:1011D000B7248232B1F5C9E00CEB15E20F2EFBE625
:1011E000EF2EFF24F02D23C020914D21F801E20FB6
:1011F000F11D8081882391F030E02E9DC0012F9D4C
:10120000900D3E9D900D1124825A9E4D0E94240700
:1012100080914D21F801E80FF11D108280914D2140
:101220008F5F80934D21883010F010924D2180EB1C
:101230009BE00E94781822E08030920710F4C150A1
:1012400099F6CF911F910F91FF90EF900895E0E4F0
:10125000F6E083E381838683868308958230C1F03C
:10126000833028F4882351F0813069F50CC08A332B
:10127000C9F08C33E1F0833031F50FC081E0E0E458
:10128000F6E08583089582E0E0E4F6E08583089542
:1012900080E1E0E4F6E08583089580E2E0E4F6E0B2
:1012A0008583089583E3E0E4F6E0858308958091E3
:1012B000B624982F969596959295907F8370892B5A
:1012C000E0E4F6E0858308958230B1F0833028F4BD
:1012D000882341F08130F1F40AC0833091F08A33E1
:1012E000C9F414C081E0E0E4F6E08683089582E06A
:1012F000E0E4F6E08683089580E1E0E4F6E08683AA
:10130000089580E2E0E4F6E08683089583E3E0E474
:10131000F6E0868308950895E0E5F0E082E28283B6
:101320008BE0808380E00E94F51EE0E5F0E08181A3
:101330008B30E9F780E00E94111FE0E5F0E082E0E9
:10134000868381E08093600098ED94BF8093400095
:101350008AE0808380E090E0089587E080935000E9
:1013600080E00E94F51EE0E5F0E081818730E9F73A
:1013700080E00E94111FE0E5F0E082E0868381E0DA
:101380008093600098ED94BF809340008AE0808352
:1013900080E090E008950E945F1F0E9499050E94DE
:1013A000440A0E94AD090E941A070E94600880EA60
:1013B00098E060E00E94690B80EB98E060E00E949A
:1013C000690B80EB9BE060E00E94690B0E94801D2E
:1013D0000E9458010E9427090E94F403E0E0F8E00F
:1013E00087E080838EE390E086A397A387E8E0EA16
:1013F000F0E08283789480E00E94111F81E00E94D7
:10140000111F82E064E670E00E94911FE0E8F6E0C0
:1014100083E0818382E0858380E061E00E94271F72
:1014200012E001E00F2EF0E8EF2EF6E0FF2EF02D97
:10143000CC24C394BC2CDD246894D1F8C0E0D8E05F
:1014400001C00195F701B7820E949D1F0E9484068A
:101450000E947F020E9405050E94461E0E942708E6
:101460000E94E208F701D6828C8580FFFDCFCC86F2
:10147000F701D58280E0612F0E94271F100F812F76
:1014800081508E3FF0F6DECFE0E2F7E080EC828321
:1014900080E4828780E883878FE08187808586FD6E
:1014A00003C089E9868B04C08AE9E0E2F7E0868B15
:1014B000E0E2F7E0808588231CF089E9878B04C08F
:1014C0008AE9E0E2F7E0878B1092CC251092CD25D7
:1014D0008CE28093C92508958091C9258D3229F425
:1014E0008CE28093C92581E0089580E00895809181
:1014F000C9258E3229F48CE28093C92581E00895B4
:1015000080E008951F920F920FB60F9208B60F92C7
:101510000BB60F9211248F939F93EF93FF93E0E20A
:10152000F7E086898A3901F5808588236CF08091FF
:10153000CC259091CD2501978093CC259093CD25F6
:101540008EE28093C9250CC08091CC259091CD2549
:1015500001968093CC259093CD258DE28093C9256B
:1015600089E9E0E2F7E0868BE0E2F7E086898939F5
:1015700001F5808588236CF08091CC259091CD2554
:1015800001968093CC259093CD258DE28093C9253B
:101590000CC08091CC259091CD2501978093CC25CE
:1015A0009093CD258EE28093C9258AE9E0E2F7E0A9
:1015B000868B81E0E0E2F7E08487FF91EF919F91D5
:1015C0008F910F900BBE0F9008BE0F900FBE0F9023
:1015D0001F9018951F920F920FB60F9208B60F9298
:1015E0000BB60F9211248F939F93EF93FF93E0E23A
:1015F000F7E087898A3901F5808586FD0DC08091E5
:10160000CC259091CD2501968093CC259093CD2526
:101610008DE28093C9250CC08091CC259091CD2579
:1016200001978093CC259093CD258EE28093C92598
:1016300089E9E0E2F7E0878BE0E2F7E08789893922
:1016400001F5808586FD0DC08091CC259091CD253A
:1016500001978093CC259093CD258EE28093C92568
:101660000CC08091CC259091CD2501968093CC25FE
:101670009093CD258DE28093C9258AE9E0E2F7E0D9
:10168000878B82E0E0E2F7E08487FF91EF919F9102
:101690008F910F900BBE0F9008BE0F900FBE0F9052
:1016A0001F9018950895E0EAF6E080E38183858134
:1016B0008F7C8583E0E4FBE087E0808383E18183A6
:1016C0008FEF90E086A397A380E190E080A791A799
:1016D0000895FC0188E0E03AF80751F4A0E4B6E090
:1016E00088E011968C93119715968C93159761C08D
:1016F00088E0E03BF80751F4A0E4B6E080E81196FA
:101700008C93119715968C93159753C089E0E03A06
:10171000F80751F4A0E6B6E088E011968C93119793
:1017200015968C93159745C089E0E03BF80751F476
:10173000A0E6B6E080E811968C93119715968C93ED
:10174000159737C08AE0E03AF80751F4A0E8B6E010
:1017500088E011968C93119715968C93159729C054
:101760008AE0E03BF80751F4A0E8B6E080E8119683
:101770008C93119715968C9315971BC08BE0E03ACC
:10178000F80751F4A0EAB6E088E011968C9311971F
:1017900015968C9315970DC08BE0E03BF80749F444
:1017A000A0EAB6E080E811968C93119715968C9379
:1017B0001597613039F0623051F48CEA878385ECFB
:1017C000868309C088EA87838EE6868304C084EA1C
:1017D00087838EE28683138288E1848383E0858316
:1017E0000895FC01818185FFFDCF60830895CF922C
:1017F000DF92EF92FF920F931F93CF93DF936C01D1
:10180000E62FF72FEF0109900020E9F72197CE1B73
:10181000DF0B79F0E62EF72E00E010E0F701619182
:101820007F01C6010E94F10B0F5F1F4F0C171D07B0
:10183000A9F7DF91CF911F910F91FF90EF90DF906B
:10184000CF900895CF93DF93EC01673009F49DC0EA
:10185000683090F4633009F458C0643030F461307B
:10186000A1F1623008F041C020C0653009F46DC0BC
:10187000663008F07AC059C06B3009F4C6C06C30CD
:1018800038F4693009F4A1C06A3008F0AEC08DC0E8
:101890006D3009F4DAC06D3008F4C7C06E3009F459
:1018A000E4C06F3009F000C1F0C060E30E94F10BAA
:1018B000CE0160E30E94F10BCE0160E30E94F10BC8
:1018C000CE0160E30E94F10BEFC060E30E94F10BD8
:1018D000CE0160E30E94F10BCE0160E30E94F10BA8
:1018E000CE0161E30E94F10BDFC060E30E94F10BC7
:1018F000CE0160E30E94F10BCE0161E30E94F10B87
:10190000CE0160E30E94F10BCFC060E30E94F10BB7
:10191000CE0160E30E94F10BCE0161E30E94F10B66
:10192000CE0161E30E94F10BBFC060E30E94F10BA6
:10193000CE0161E30E94F10BCE0160E30E94F10B46
:10194000CE0160E30E94F10BAFC060E30E94F10B97
:10195000CE0161E30E94F10BCE0160E30E94F10B26
:10196000CE0161E30E94F10B9FC060E30E94F10B86
:10197000CE0161E30E94F10BCE0161E30E94F10B05
:10198000CE0160E30E94F10B8FC060E30E94F10B77
:10199000CE0161E30E94F10BCE0161E30E94F10BE5
:1019A000CE0161E30E94F10B7FC061E30E94F10B65
:1019B000CE0160E30E94F10BCE0160E30E94F10BC7
:1019C000CE0160E30E94F10B6FC061E30E94F10B56
:1019D000CE0160E30E94F10BCE0160E30E94F10BA7
:1019E000CE0161E30E94F10B5FC061E30E94F10B45
:1019F000CE0160E30E94F10BCE0161E30E94F10B86
:101A0000CE0160E30E94F10B4FC061E30E94F10B35
:101A1000CE0160E30E94F10BCE0161E30E94F10B65
:101A2000CE0161E30E94F10B3FC061E30E94F10B24
:101A3000CE0161E30E94F10BCE0160E30E94F10B45
:101A4000CE0160E30E94F10B2FC061E30E94F10B15
:101A5000CE0161E30E94F10BCE0160E30E94F10B25
:101A6000CE0161E30E94F10B1FC061E30E94F10B04
:101A7000CE0161E30E94F10BCE0161E30E94F10B04
:101A8000CE0160E30E94F10B0FC061E30E94F10BF5
:101A9000CE0161E30E94F10BCE0161E30E94F10BE4
:101AA000CE0161E30E94F10BDF91CF9108951F9366
:101AB000CF93DF93EC01162F62E60E94F10B612FAA
:101AC00062956F70CE010E94220C612F6F70CE0163
:101AD0000E94220CDF91CF911F910895673009F485
:101AE0003FC0683070F4633059F1643028F46130DD
:101AF000F9F0623008F518C0653051F1663060F5D4
:101B000023C06B30E9F16C3028F4693089F16A3018
:101B100098F52AC06D30E1F16D30B0F16E30E1F131
:101B20006F3009F040C03CC060E30E94F10B0895A3
:101B300061E30E94F10B089562E30E94F10B0895A6
:101B400063E30E94F10B089564E30E94F10B089592
:101B500065E30E94F10B089566E30E94F10B08957E
:101B600067E30E94F10B089568E30E94F10B08956A
:101B700069E30E94F10B089561E40E94F10B08955E
:101B800062E40E94F10B089563E40E94F10B089552
:101B900064E40E94F10B089565E40E94F10B08953E
:101BA00066E40E94F10B08951F93CF93DF93EC013D
:101BB000162F62956F700E946E0D612F6F70CE01AF
:101BC0000E946E0DDF91CF911F9108951F93CF93C7
:101BD000DF93EC01142F0E94D40DCE01612F0E94DF
:101BE000D40DDF91CF911F9108951F93CF93DF9371
:101BF000EC01162F672F0E94D40DCE01612F0E9499
:101C0000D40DDF91CF911F910895CF93DF93EC0115
:101C1000673009F49DC0683090F4633009F458C00F
:101C2000643030F46130A1F1623008F041C020C06E
:101C3000653009F46DC0663008F07AC059C06B3069
:101C400009F4C6C06C3038F4693009F4A1C06A30B8
:101C500008F0AEC08DC06D3009F4DAC06D3008F404
:101C6000C7C06E3009F4E4C06F3009F000C1F0C0A5
:101C700060E30E94F81ACE0160E30E94F81ACE01D8
:101C800060E30E94F81ACE0160E30E94F81AEFC0E8
:101C900060E30E94F81ACE0160E30E94F81ACE01B8
:101CA00060E30E94F81ACE0161E30E94F81ADFC0D7
:101CB00060E30E94F81ACE0160E30E94F81ACE0198
:101CC00061E30E94F81ACE0160E30E94F81ACFC0C7
:101CD00060E30E94F81ACE0160E30E94F81ACE0178
:101CE00061E30E94F81ACE0161E30E94F81ABFC0B6
:101CF00060E30E94F81ACE0161E30E94F81ACE0157
:101D000060E30E94F81ACE0160E30E94F81AAFC0A7
:101D100060E30E94F81ACE0161E30E94F81ACE0136
:101D200060E30E94F81ACE0161E30E94F81A9FC096
:101D300060E30E94F81ACE0161E30E94F81ACE0116
:101D400061E30E94F81ACE0160E30E94F81A8FC086
:101D500060E30E94F81ACE0161E30E94F81ACE01F6
:101D600061E30E94F81ACE0161E30E94F81A7FC075
:101D700061E30E94F81ACE0160E30E94F81ACE01D6
:101D800060E30E94F81ACE0160E30E94F81A6FC067
:101D900061E30E94F81ACE0160E30E94F81ACE01B6
:101DA00060E30E94F81ACE0161E30E94F81A5FC056
:101DB00061E30E94F81ACE0160E30E94F81ACE0196
:101DC00061E30E94F81ACE0160E30E94F81A4FC046
:101DD00061E30E94F81ACE0160E30E94F81ACE0176
:101DE00061E30E94F81ACE0161E30E94F81A3FC035
:101DF00061E30E94F81ACE0161E30E94F81ACE0155
:101E000060E30E94F81ACE0160E30E94F81A2FC026
:101E100061E30E94F81ACE0161E30E94F81ACE0134
:101E200060E30E94F81ACE0161E30E94F81A1FC015
:101E300061E30E94F81ACE0161E30E94F81ACE0114
:101E400061E30E94F81ACE0160E30E94F81A0FC005
:101E500061E30E94F81ACE0161E30E94F81ACE01F4
:101E600061E30E94F81ACE0161E30E94F81ADF9143
:101E7000CF9108951F93CF93DF93EC01162F62E665
:101E80000E94F81A612F62956F70CE010E94050EB4
:101E9000612F6F70CE010E94050EDF91CF911F91CF
:101EA0000895673009F43FC0683070F4633059F129
:101EB000643028F46130F9F0623008F518C06530FC
:101EC00051F1663060F523C06B30E9F16C3028F4D5
:101ED000693089F16A3098F52AC06D30E1F16D30D2
:101EE000B0F16E30E1F16F3009F040C03CC060E30A
:101EF0000E94F81A089561E30E94F81A089562E3B7
:101F00000E94F81A089563E30E94F81A089564E3A2
:101F10000E94F81A089565E30E94F81A089566E38E
:101F20000E94F81A089567E30E94F81A089568E37A
:101F30000E94F81A089569E30E94F81A089561E46E
:101F40000E94F81A089562E40E94F81A089563E462
:101F50000E94F81A089564E40E94F81A089565E44E
:101F60000E94F81A089566E40E94F81A08951F93D3
:101F7000CF93DF93EC01162F62956F700E94510F83
:101F8000612F6F70CE010E94510FDF91CF911F9191
:101F900008951F93CF93DF93EC01142F0E94B70F86
:101FA000CE01612F0E94B70FDF91CF911F9108954D
:101FB0001F93CF93DF93EC01162F672F0E94B70F6B
:101FC000CE01612F0E94B70FDF91CF911F9108952D
:101FD0001F920F920FB60F9208B60F9209B60F928A
:101FE0000AB60F920BB60F9211242F933F934F9383
:101FF0005F938F939F93AF93BF93CF93DF93EF93B1
:10200000FF93C0EAD8E0E5EEFDE349ED55E213C0E9
:102010008881A081B181A352B64D8C93808191813A
:102020000196808391838081918124E080309207A2
:1020300010F01082118289818823FCF480819181C3
:10204000DA012D913C9111978217930740F080811E
:1020500091812D913C911197821B930B0AC0808135
:102060009181DA012D913C91119780509C4F821BF8
:10207000930BB4E080309B0758F2FF91EF91DF9112
:10208000CF91BF91AF919F918F915F914F913F9170
:102090002F910F900BBE0F900ABE0F9009BE0F90AC
:1020A00008BE0F900FBE0F901F9018951F920F92B1
:1020B0000FB60F9208B60F9209B60F920AB60F929A
:1020C0000BB60F9211242F933F934F935F938F93EF
:1020D0009F93AF93BF93CF93DF93EF93FF93C0EBA7
:1020E000D8E0E7EEFDE34BED55E213C08881A08117
:1020F000B181A352B24D8C938081918101968083EE
:1021000091838081918124E08030920710F01082C9
:10211000118289818823FCF480819181DA012D91DB
:102120003C9111978217930740F0808191812D9106
:102130003C911197821B930B0AC080819181DA0137
:102140002D913C91119780509C4F821B930BB4E0D2
:1021500080309B0758F2FF91EF91DF91CF91BF91B3
:10216000AF919F918F915F914F913F912F910F90E0
:102170000BBE0F900ABE0F9009BE0F9008BE0F90C5
:102180000FBE0F901F901895FC018381806383839D
:102190000895FC0183818F7C83830895FC018381F2
:1021A000826083830895FC0183818C7F83830895FB
:1021B0001F920F920FB60F9208B60F9209B60F92A8
:1021C0000AB60F920BB60F9211242F933F934F93A1
:1021D0005F936F937F938F939F93AF93BF93CF93AF
:1021E000DF93EF93FF93E0EAF8E0818185FD1AC069
:1021F0003AC02081318180819181019680839183D1
:102200008081918144E08030940710F01082118227
:102210002D513A4CE9018881EB018883898185FD44
:1022200007C021C0AFEDB1E3EBEEFDE360EA78E07B
:102230008D919C911197208131818217930740F0F5
:102240008D919C91119720813181821B930B09C044
:102250008D919C9111972081318180509C4F821BE0
:10226000930B009731F62091DF313091E03180916E
:10227000EB3D9091EC3D2817390758F08091DF3104
:102280009091E0312091EB3D3091EC3D821B930B1E
:102290000CC08091DF319091E0312091EB3D309185
:1022A000EC3D80509C4F821B930B009729F080EAF5
:1022B00098E00E94CE1004C080EA98E00E94D310FB
:1022C000FF91EF91DF91CF91BF91AF919F918F914E
:1022D0007F916F915F914F913F912F910F900BBE26
:1022E0000F900ABE0F9009BE0F9008BE0F900FBE50
:1022F0000F901F9018951F920F920FB60F9208B66D
:102300000F9209B60F920AB60F920BB60F921124D4
:102310002F933F934F935F936F937F938F939F93ED
:10232000AF93BF93CF93DF93EF93FF93E0EBF8E08E
:10233000818185FD1AC03AC02081318180819181DF
:102340000196808391838081918144E0803094075D
:1023500010F0108211822D51364CE9018881EB0179
:102360008883898185FD07C021C0A1EEB1E3EDEE30
:10237000FDE360EB78E08D919C9111972081318194
:102380008217930740F08D919C91119720813181A4
:10239000821B930B09C08D919C91119720813181F3
:1023A00080509C4F821B930B009731F62091E131B6
:1023B0003091E2318091ED3D9091EE3D2817390743
:1023C00058F08091E1319091E2312091ED3D3091D2
:1023D000EE3D821B930B0CC08091E1319091E23174
:1023E0002091ED3D3091EE3D80509C4F821B930B30
:1023F000009729F080EB98E00E94CE1004C080EB9B
:1024000098E00E94D310FF91EF91DF91CF91BF919F
:10241000AF919F918F917F916F915F914F913F917C
:102420002F910F900BBE0F900ABE0F9009BE0F9018
:1024300008BE0F900FBE0F901F9018951F920F921D
:102440000FB60F9208B60F9209B60F920AB60F9206
:102450000BB60F9211241F932F933F934F935F93CB
:102460006F937F938F939F93AF93BF93CF93DF939C
:10247000EF93FF9340EB5BE0CDEDD1E3A9EEBDE33D
:1024800063EE71E31EE424C0ED91FC9111978D91F0
:102490009C91119701968D939C9311978D919C918E
:1024A000119724E08030920718F01D921C9211972A
:1024B000E60FF71F80818A3F11F08E3F19F4809359
:1024C000D52506C08D3011F41093D625FA018083EE
:1024D000FA01818185FF20C0888199812D913C91ED
:1024E00011978217930740F0888199812D913C9133
:1024F0001197821B930B09C0888199812D913C9182
:10250000119780509C4F821B930B009729F080916C
:10251000D625823509F4B8CF80EB9BE00E94D3101A
:102520002091DD313091DE318091E93D9091EA3D9D
:102530002817390758F08091DD319091DE312091D4
:10254000E93D3091EA3D821B930B0CC08091DD3157
:102550009091DE312091E93D3091EA3D80509C4FD1
:10256000821B930B009741F08091D625823521F490
:1025700080EB9BE00E94CE10FF91EF91DF91CF9115
:10258000BF91AF919F918F917F916F915F914F918B
:102590003F912F911F910F900BBE0F900ABE0F908D
:1025A00009BE0F9008BE0F900FBE0F901F90189598
:1025B0000F931F93CF93DF93DC0111968C911197AA
:1025C00085FD42C091C02BE0A03BB20751F038E03E
:1025D000A03AB30741F088E0A03BB80731F422E00D
:1025E00005C020E003C021E001C020E030E0C901C7
:1025F000880F991FFB01E80FF91F408151818081ED
:10260000918101968083918380819181E4E0803083
:102610009E0740F0C901880F991F860F971FFC0184
:1026200010821182C901982F8827990F990F840F62
:10263000951FF801E80FF91F80818C9311968C91FA
:10264000119785FD07C050C0CDEDD1E369EE7DE364
:1026500003EE11E3FBE0A03BBF0751F028E0A03AF6
:10266000B20741F038E0A03BB30731F422E005C0E7
:1026700020E003C021E001C020E030E0C901880F64
:10268000991FFE01E80FF91F40815181FB01E80FFE
:10269000F91F808191814817590788F0220F331F55
:1026A000FE01E20FF31F40815181FB01E20FF31F96
:1026B00080819181FA01E81BF90BCF0112C0C90199
:1026C000880F991FFE01E80FF91F40815181FB011E
:1026D000E80FF91F20813181CA0180509C4F821B75
:1026E000930B009709F06FCFFBE0A03BBF0751F0C1
:1026F00028E0A03AB20741F038E0A03BB30731F43C
:1027000022E005C020E003C021E001C020E030E06D
:10271000C901880F991FFC01E352FE4C4081518191
:102720008751924CFC01808191814817590778F0BC
:10273000220F331FF901E352FE4C40815181275192
:10274000324CF90180819181481B590B10C0220F36
:10275000331FF901E352FE4C408151812751324C25
:10276000F9018081918140505C4F481B590B411504
:10277000510521F0CD010E94CE1003C0CD010E9471
:10278000D310DF91CF911F910F910895FF920F9376
:102790001F93CF93DF93EC01ADEDB1E369EE7DE3E1
:1027A00003EE11E30F2EFEE4FF2EF02D46C02BE0CA
:1027B000C03BD20751F038E0C03AD30741F088E07F
:1027C000C03BD80731F422E005C020E003C021E07F
:1027D00001C020E030E0C901880F991FFB01E80F1C
:1027E000F91F40815181808191810196808391837D
:1027F00080819181E4E080309E0740F0C901880F1C
:10280000991F860F971FFC0110821182C901982F12
:102810008827990F990F840F951FF801E80FF91F6A
:1028200080818A3F11F08E3F19F48093D52505C031
:102830008D3011F4F092D6258883898185FF4EC0B2
:10284000FBE0C03BDF0751F028E0C03AD20741F07F
:1028500038E0C03BD30731F422E005C020E003C0DC
:1028600021E001C020E030E0C901880F991FFD017F
:10287000E80FF91F40815181FB01E80FF91F8081AA
:1028800091814817590788F0220F331FFD01E20F8D
:10289000F31F40815181FB01E20FF31F8081918181
:1028A000FA01E81BF90BCF0112C0C901880F991F6B
:1028B000FD01E80FF91F40815181FB01E80FF91F6D
:1028C00020813181CA0180509C4F821B930B00975D
:1028D00029F08091D625823509F469CFCE010E9476
:1028E000D310FBE0C03BDF0751F028E0C03AD2072D
:1028F00041F038E0C03BD30731F422E005C020E0CE
:1029000003C021E001C020E030E0C901880F991F19
:10291000FC01E352FE4C408151818751924CFC01F5
:10292000808191814817590778F0220F331FF901F0
:10293000E352FE4C408151812751324CF901808194
:102940009181481B590B10C0220F331FF901E3522C
:10295000FE4C408151812751324CF9018081918197
:1029600040505C4F481B590B4115510539F080917F
:10297000D625823519F4CE010E94CE10DF91CF9179
:102980001F910F91FF900895CF92DF92EF92FF92E7
:102990000F931F93CF93DF93DC010F2EF3EECF2E17
:1029A000FDE3DF2EF02D07ED15E20F2EFDEDEF2EEE
:1029B000F5E2FF2EF02D3AC04C912BE0A03BB20780
:1029C00051F038E0A03AB30741F088E0A03BB807E7
:1029D00031F462E005C060E003C061E001C060E086
:1029E00070E0CB01880F991FF601E80FF91F2081D5
:1029F0003181CB01982F8827990F990F820F931F50
:102A00008E0D9F1DEC01488380819181019680830A
:102A1000918380819181D4E080309D0738F0FB0163
:102A2000EE0FFF1FEC0DFD1D1082118211968C918F
:102A3000119788230CF04CC02BE0A03BB20751F05B
:102A400038E0A03AB30741F088E0A03BB80731F482
:102A500022E005C020E003C021E001C020E030E01A
:102A6000C901880F991FF601E80FF91F40815181B4
:102A7000F801E80FF91F808191814817590788F004
:102A8000220F331FF601E20FF31F40815181F8013D
:102A9000E20FF31F80819181EA01C81BD90BCE019F
:102AA00012C0C901880F991FF601E80FF91F408174
:102AB0005181F801E80FF91F20813181CA0180504E
:102AC0009C4F821B930BD4E080309D0708F474CF99
:102AD000DF91CF911F910F91FF90EF90DF90CF90FA
:102AE00008952F923F924F925F926F927F928F92B2
:102AF0009F92BF92CF92DF92EF92FF920F931F931C
:102B0000CF93DF936C010F2EF3EE8F2EFDE39F2EFC
:102B1000F02D0F2EF7ED6F2EF5E27F2EF02D01EE4A
:102B200011E30F2EF0EBEF2EF8E0FF2EF02DCDEE9F
:102B3000DDE30F2EFEEC2F2EF5E23F2EF02D0F2EB3
:102B4000FDED4F2EF5E25F2EF02D19C2D601BC909F
:102B5000F801808191818D51964CDC01BC9280817D
:102B6000918101968083918380819181B4E080304E
:102B70009B0710F010821182F701818185FD1AC038
:102B800032C0E881F981888199810196888399838F
:102B90008881998124E08030920710F01882198290
:102BA000ED51F64C8081D7018C9311968C91119741
:102BB00085FF19C0F80180819181288139818217B0
:102BC000930738F08081918128813981821B930B92
:102BD00008C0808191812881398180509C4F821B5F
:102BE000930B009771F6F8018081918128813981DA
:102BF0008217930738F08081918128813981821B67
:102C0000930B08C0808191812881398180509C4F2D
:102C1000821B930B009721F0C7010E94CE1003C0C6
:102C2000C7010E94D310BDE0BB1609F06EC18091B0
:102C3000D5258E3F09F066C1F801808191818D51C3
:102C4000964CE4E4F1E2DC01EC93D8018D919C9187
:102C5000119701968D939C9311978D919C9111974B
:102C6000B4E080309B0718F0F80110821182D70180
:102C700011968C91119785FD18C033C0E881F981B8
:102C80008881998101968883998388819981B4E0AC
:102C900080309B0710F018821982ED51F64C80812C
:102CA000F7018083818185FF1CC0D8018D919C91A3
:102CB0001197288139818217930740F08D919C915B
:102CC000119728813981821B930B09C0F8018081FB
:102CD00091812881398180509C4F821B930B0097F2
:102CE00069F6D8018D919C911197288139818217BD
:102CF000930740F08D919C91119728813981821B17
:102D0000930B09C0F801808191812881398180501D
:102D10009C4F821B930B009721F0C7010E94CE109D
:102D200003C0C7010E94D310D1012C91F80180810A
:102D300091818D51964CDC012C938081918101967B
:102D40008083918380819181B4E080309B0710F073
:102D500010821182F701818185FD1AC032C0E8819D
:102D6000F9818881998101968883998388819981E5
:102D700024E08030920710F018821982ED51F64C51
:102D80008081D7018C9311968C91119785FF19C082
:102D9000F80180819181288139818217930738F069
:102DA0008081918128813981821B930B08C08081A9
:102DB00091812881398180509C4F821B930B009711
:102DC00071F6F801808191812881398182179307FA
:102DD00038F08081918128813981821B930B08C052
:102DE000808191812881398180509C4F821B930B77
:102DF000009721F0C7010E94CE1003C0C7010E94B6
:102E0000D310EFECF5E22081D8018D919C911197C0
:102E10008D51964CFC0120838D919C9111970196C8
:102E20008D939C9311978D919C911197F4E0803034
:102E30009F0718F01D921C921197D70111968C9143
:102E4000119785FD18C033C0E881F9818881998187
:102E500001968883998388819981B4E080309B07AB
:102E600010F018821982ED51F64C8081F7018083B1
:102E7000818185FF1CC0D8018D919C91119728817B
:102E800039818217930740F08D919C911197288189
:102E90003981821B930B09C0F801808191812881BF
:102EA000398180509C4F821B930B009769F6D801A3
:102EB0008D919C911197288139818217930740F059
:102EC0008D919C91119728813981821B930B09C0A8
:102ED000F801808191812881398180509C4F821B2B
:102EE000930B009721F0C7010E94CE1003C0C701C9
:102EF0000E94D3100E94EA07882339F080E580936E
:102F0000D62503C08FE48093D6258B2D0E94FD0724
:102F1000F0EBCF16FBE0DF0661F020EAC21628E0F6
:102F2000D20649F030EBC31638E0D30631F442E064
:102F300005C040E003C041E001C040E050E0CA01EC
:102F4000880F991FF401E80FF91F20813181CA0110
:102F5000982F8827990F990F820F931F840D951D25
:102F6000DC01BC9280819181019680839183808174
:102F70009181B4E080309B0710F010821182D6015D
:102F800011968C91119788230CF04DC0B0EBCB16A5
:102F9000BBE0DB0661F0E0EACE16E8E0DE0649F0D1
:102FA000F0EBCF16F8E0DF0631F422E005C020E0B8
:102FB00003C021E001C020E030E0C901880F991F63
:102FC000F401E80FF91F40815181F301E80FF91F67
:102FD000808191814817590788F0220F331FF4012F
:102FE000E20FF31F40815181F301E20FF31F808153
:102FF00091819A01281B390BC90110C0220F331F80
:10300000F401E20FF31F80819181F301E20FF31FBE
:103010002081318180509C4F821B930B34E08030A3
:10302000930708F493CDDF91CF911F910F91FF90FB
:10303000EF90DF90CF90BF909F908F907F906F9098
:103040005F904F903F902F9008951F920F920FB670
:103050000F9208B60F9209B60F920BB60F92112479
:103060002F933F934F935F936F937F938F939F9390
:10307000AF93BF93EF93FF9380EB9BE00E9471159A
:10308000FF91EF91BF91AF919F918F917F916F9140
:103090005F914F913F912F910F900BBE0F9009BE02
:1030A0000F9008BE0F900FBE0F901F9018952BE049
:1030B000803B920751F0E8E0803A9E0741F0F8E04B
:1030C000803B9F0731F482E005C080E003C081E0CF
:1030D00001C080E090E0880F991FFC01E352FE4C94
:1030E000108211828751924CFC0110821182089546
:1030F0002BE0803B920751F0E8E0803A9E0741F0D8
:10310000F8E0803B9F0731F482E005C080E003C017
:1031100081E001C080E090E09C01220F331FF901A3
:10312000E352FE4C408151812751324CF9012081FC
:1031300031814217530780F09C01220F331FF901A0
:10314000E352FE4C808191812751324CF90120815C
:103150003181821B930B08959C01220F331FF901CB
:10316000E352FE4C408151812751324CF9012081BC
:103170003181CA0180509C4F821B930B08955F924E
:103180006F927F928F929F92AF92BF92CF92DF9277
:10319000EF92FF920F931F93CF93DF93EC01E62FF3
:1031A000F72FDF010D900020E9F711973D016E1A0E
:1031B0007F0A09F40DC2862E972EAA24BB240F2E57
:1031C000FDEDEF2EF1E3FF2EF02D0F2EF3EECF2EBF
:1031D000F1E3DF2EF02D09EE1DE30F2EFEE45F2E4E
:1031E000F02DD4015D914D01BBE0C03BDB0751F0F8
:1031F000E8E0C03ADE0741F0F8E0C03BDF0731F419
:1032000042E005C040E003C041E001C040E0642F5F
:1032100070E0CB01880F991FF701E80FF91F20819B
:103220003181CB01982F8827990F990F820F931F17
:103230008C0D9D1DDC015C938081918101968083C2
:10324000918380819181B4E080309B0710F01082DF
:103250001182442309F444C0898185FD1CC163C1E6
:10326000FBE0C03BDF0751F028E0C03AD20741F055
:1032700038E0C03BD30731F422E005C020E003C0B2
:1032800021E001C020E030E0C901880F991FF8015A
:10329000E80FF91F408151818081918101968083DF
:1032A00091838081918164E08030960710F01082D4
:1032B0001182C901982F8827990F990F840F951FA4
:1032C0008C0D9D1DFC0180818A3F11F08E3F19F409
:1032D0008093D52505C08D3011F45092D625888372
:1032E000898185FF4CC0FBE0C03BDF0751F028E03F
:1032F000C03AD20741F038E0C03BD30731F422E0B6
:1033000005C020E003C021E001C020E030E0C90199
:10331000880F991FF701E80FF91F40815181F801CB
:10332000E80FF91F808191814817590788F0220F13
:10333000331FF701E20FF31F40815181F801E20FC3
:10334000F31F80819181DA01A81BB90BCD0110C058
:10335000220F331FF701E20FF31F80819181F801E3
:10336000E20FF31F2081318180509C4F821B930B11
:10337000009729F08091D625823509F471CFCE01CE
:103380000E94D310BBE0C03BDB0751F0E8E0C03A3D
:10339000DE0741F0F8E0C03BDF0731F422E005C072
:1033A00020E003C021E001C020E030E0C901880F27
:1033B000991FF701E80FF91F40815181F801E80FCB
:1033C000F91F808191814817590788F0220F331F18
:1033D000F701E20FF31F40815181F801E20FF31F63
:1033E000808191819A01281B390BC90110C0220FDD
:1033F000331FF701E20FF31F80819181F801E20F83
:10340000F31F2081318180509C4F821B930B0097CA
:1034100009F4D7C08091D625823509F0D2C0CE01FB
:103420000E94CE10CEC03BE0C03BD30751F068E015
:10343000C03AD60741F088E0C03BD80731F422E01B
:1034400005C020E003C021E001C020E030E0C90158
:10345000880F991FF801E80FF91F40815181808181
:10346000918101968083918380819181A4E0803055
:103470009A0710F010821182C901982F8827990F9E
:10348000990F840F951F8C0D9D1DDC018C918883F5
:10349000898185FF48C0BBE0C03BDB0751F0E8E015
:1034A000C03ADE0741F0F8E0C03BDF0731F422E02C
:1034B00005C020E003C021E001C020E030E0C901E8
:1034C000880F991FF701E80FF91F40815181F8011A
:1034D000E80FF91F808191814817590788F0220F62
:1034E000331FF701E20FF31F40815181F801E20F12
:1034F000F31F808191819A01281B390BC90110C0EB
:10350000220F331FF701E20FF31F80819181F80131
:10351000E20FF31F2081318180509C4F821B930B5F
:10352000009709F080CF3BE0C03BD30751F068E043
:10353000C03AD60741F088E0C03BD80731F422E01A
:1035400005C020E003C021E001C020E030E0C90157
:10355000880F991FF701E80FF91F40815181F80189
:10356000E80FF91F808191814817590788F0220FD1
:10357000331FF701E20FF31F40815181F801E20F81
:10358000F31F80819181DA01A81BB90BCD0110C016
:10359000220F331FF701E20FF31F80819181F801A1
:1035A000E20FF31F2081318180509C4F821B930BCF
:1035B000009721F0CE010E94CE1003C0CE010E94E0
:1035C000D3100894A11CB11CA614B70409F009CEAD
:1035D000DF91CF911F910F91FF90EF90DF90CF90EF
:1035E000BF90AF909F908F907F906F905F90089565
:1035F000FF920F931F93CF93DF93EC012BE0803B5F
:10360000920751F038E0803A930741F088E0C03BE0
:10361000D80731F442E005C040E003C041E001C0FA
:1036200040E0042F10E0D801AA0FBB1FA352BE4CEC
:103630002D913C911197C801982F8827990F990FC8
:10364000820F931FFC01ED51FE4C60838D919C9184
:10365000119701968D939C9311978D919C91119741
:10366000E4E080309E0718F0FD01108211824423AF
:1036700009F44BC0898185FD35C184C1FBE0C03BA5
:10368000DF0751F028E0C03AD20741F038E0C03BF4
:10369000D30731F422E005C020E003C021E001C0DF
:1036A00020E030E0C901880F991FFB01E80FF91FE6
:1036B00040815181808191810196808391838081B5
:1036C0009181E4E080309E0740F0C901880F991F86
:1036D000860F971FFC0110821182C901982F88273D
:1036E000990F990F840F951FF801E80FF91F80813A
:1036F0008A3F11F08E3F19F48093D52510C08D308C
:1037000011F4F092D62588830AC0ADEDB1E369EEDD
:103710007DE303EE11E30F2EFEE4FF2EF02D8981F1
:1037200085FF4EC0FBE0C03BDF0751F028E0C03A08
:10373000D20741F038E0C03BD30731F422E005C0A6
:1037400020E003C021E001C020E030E0C901880F83
:10375000991FFD01E80FF91F40815181FB01E80F1E
:10376000F91F808191814817590788F0220F331F74
:10377000FD01E20FF31F40815181FB01E20FF31FB6
:1037800080819181FA01E81BF90BCF0112C0C901B8
:10379000880F991FFD01E80FF91F40815181FB013E
:1037A000E80FF91F20813181CA0180509C4F821B94
:1037B000930B009729F08091D625823509F45ECFCE
:1037C000CE010E94D310FBE0C03BDF0751F028E0A0
:1037D000C03AD20741F038E0C03BD30731F422E0D1
:1037E00005C020E003C021E001C020E030E0C901B5
:1037F000880F991FFC01E352FE4C40815181875193
:10380000924CFC01808191814817590778F0220F72
:10381000331FF901E352FE4C408151812751324C54
:10382000F90180819181481B590B10C0220F331F71
:10383000F901E352FE4C408151812751324CF9018C
:103840008081918140505C4F481B590B41155105B7
:1038500009F4E5C08091D625823509F0E0C0CE019B
:103860000E94CE10DCC0FBE0C03BDF0751F028E037
:10387000C03AD20741F038E0C03BD30731F422E030
:1038800005C020E003C021E001C020E030E0C90114
:10389000880F991FFB01E80FF91F4081518180813A
:1038A000918101968083918380819181E4E08030D1
:1038B0009E0740F0C901880F991F860F971FFC01D2
:1038C00010821182C901982F8827990F990F840FB0
:1038D000951FF801E80FF91F80818883898185FD94
:1038E00007C050C0ADEDB1E369EE7DE303EE11E337
:1038F000FBE0C03BDF0751F028E0C03AD20741F0BF
:1039000038E0C03BD30731F422E005C020E003C01B
:1039100021E001C020E030E0C901880F991FFD01BE
:10392000E80FF91F40815181FB01E80FF91F8081E9
:1039300091814817590788F0220F331FFD01E20FCC
:10394000F31F40815181FB01E20FF31F80819181C0
:10395000FA01E81BF90BCF0112C0C901880F991FAA
:10396000FD01E80FF91F40815181FB01E80FF91FAC
:1039700020813181CA0180509C4F821B930B00979C
:1039800009F071CFFBE0C03BDF0751F028E0C03AFF
:10399000D20741F038E0C03BD30731F422E005C044
:1039A00020E003C021E001C020E030E0C901880F21
:1039B000991FFC01E352FE4C408151818751924C8A
:1039C000FC01808191814817590778F0220F331F3D
:1039D000F901E352FE4C408151812751324CF901EB
:1039E00080819181481B590B10C0220F331FF901B0
:1039F000E352FE4C408151812751324CF9018081C4
:103A0000918140505C4F481B590B4115510521F0E5
:103A1000CE010E94CE1003C0CE010E94D310DF91D0
:103A2000CF911F910F91FF9008952BE0803B92075B
:103A300051F068E0803A960741F028E0803B920719
:103A400031F422E005C020E003C021E001C020E005
:103A500030E0F901EE0FFF1FE751F24C4081518138
:103A6000808191810196808391838081918164E03E
:103A70008030960738F0F901EE0FFF1FE751F24C46
:103A800010821182F901FE2FEE27FF0FFF0F4E0F5C
:103A90005F1FFA01ED51FE4C808108952BE0803BC1
:103AA000920751F0E8E0803A9E0741F0F8E0803B51
:103AB0009F0731F482E005C080E003C081E001C0CF
:103AC00080E090E0880F991FFC01ED51F24C1082CC
:103AD000118289529A4DFC01108211820895CF9370
:103AE000DF93EC010E945718CE010E944E1DCE01BB
:103AF0000E94C410CE010E94CE10DF91CF91089594
:103B000080EA98E00E946F1D80EB98E00E946F1D94
:103B100080EB9BE00E946F1D08952BE0803B920795
:103B200051F0E8E0803A9E0741F0F8E0803B9F07C3
:103B300031F482E005C080E003C081E001C080E094
:103B400090E09C01220F331FF901ED51F24C4081AE
:103B5000518129523A4DF901208131814217530791
:103B600080F09C01220F331FF901ED51F24C80814E
:103B7000918129523A4DF90120813181821B930BA9
:103B800008959C01220F331FF901ED51F24C408141
:103B9000518129523A4DF90120813181CA01805069
:103BA0009C4F821B930B08952BE0803B920751F0B2
:103BB00028E0803A920741F028E0803B920731F4F8
:103BC00042E005C040E003C041E001C040E050E0F9
:103BD000FA01EE0FFF1FED51F24C808191819A01A5
:103BE000322F2227330F330F820F931FDC01A35292
:103BF000BA4D6C93808191810196808391838081FD
:103C0000918124E08030920738F0FA01EE0FFF1F17
:103C1000ED51F24C1082118208952BE0803B920707
:103C200051F068E0803A960741F028E0803B920727
:103C300031F422E005C020E003C021E001C020E013
:103C400030E0F901EE0FFF1FE952FA4D408151813A
:103C5000808191810196808391838081918164E04C
:103C60008030960738F0F901EE0FFF1FE952FA4D48
:103C700010821182F901FE2FEE27FF0FFF0F4E0F6A
:103C80005F1FFA01E352FA4D808108951F93CF938D
:103C9000DF932091DD313091DE318091E93D9091CB
:103CA000EA3D2817390758F08091DD319091DE31D7
:103CB0002091E93D3091EA3D821B930B0CC080912D
:103CC000DD319091DE312091E93D3091EA3D805027
:103CD0009C4F821B930B009709F483C025C0ED9184
:103CE000FC9111978D919C91119701968D939C93C6
:103CF00011978D919C91119724E08030920718F0D4
:103D00001D921C921197E60FF71F80818A3F11F0D8
:103D10008E3F19F48093D52510C08D3011F4109387
:103D2000D625FA01808309C040EB5BE0CDEDD1E3FD
:103D3000A9EEBDE363EE71E31EE4FA01818185FF24
:103D400020C0888199812D913C911197821793070A
:103D500040F0888199812D913C911197821B930BA2
:103D600009C0888199812D913C91119780509C4F79
:103D7000821B930B009729F08091D625823509F498
:103D8000AECF80EB9BE00E94D3102091DD313091CB
:103D9000DE318091E93D9091EA3D2817390758F0CE
:103DA0008091DD319091DE312091E93D3091EA3D05
:103DB000821B930B0CC08091DD319091DE312091FC
:103DC000E93D3091EA3D80509C4F821B930B009758
:103DD00041F08091D625823521F480EB9BE00E9452
:103DE000CE10DF91CF911F910895813061F0813025
:103DF00018F08230A9F40EC08FEF90E0E0E0FBE015
:103E000080AF91AF08958FEF90E0E0E0FBE082AFEC
:103E100093AF08958FEF90E080933E0B90933F0B0C
:103E20000895813051F0813018F0823079F40AC061
:103E3000E0E0FBE010AE11AE0895E0E0FBE012AE72
:103E400013AE089510923E0B10923F0B08958130EF
:103E500059F0813018F0823091F40CC070E0E0E04D
:103E6000FBE060AF71AF089570E0E0E0FBE062AFAF
:103E700073AF089570E060933E0B70933F0B08950D
:103E8000813059F0813018F0823091F40CC0E0E0BC
:103E9000FBE080A5809580A70895E0E0FBE082A587
:103EA000809582A70895E0E0FBE086A5809586A72F
:103EB000089590E0E0E0FBE084AF95AF0895CF93E4
:103EC000DF93E0EAF6E08FE0818380E4808B818BF2
:103ED000838BC0E0DBE087E0888383EF89838FEF0B
:103EE00090E08EA39FA380E00E94591F18AE19AEE8
:103EF0001AAE1BAE10923E0B10923F0BDF91CF918A
:103F000008958091F03D81508093F03D85E280934B
:103F1000462185E08093F13D8091EF3D0E94591F3D
:103F20000895882349F08093F03D6115710521F0D3
:103F30006093EF3D0E94811F089580914621853254
:103F400019F0863219F518C08091F13D81508093A7
:103F5000F13D8823F1F40E94591F8091F03D8823A0
:103F600021F484E280934621089586E280934621DD
:103F700082E38093F13D08958091F13D81508093DB
:103F8000F13D882331F40E94811F089580E00E9452
:103F9000591F089504D06894B1118DC0089570D050
:103FA00088F09F5790F0B92F9927B751A0F0D1F022
:103FB000660F771F881F991F1AF0BA95C9F712C0AC
:103FC000B13081F077D0B1E0089574C0672F782FB9
:103FD0008827B85F39F0B93FCCF386957795679518
:103FE000B395D9F73EF490958095709561957F4F84
:103FF0008F4F9F4F0895E89409C097FB3EF490952A
:104000008095709561957F4F8F4F9F4F9923A9F0B1
:10401000F92F96E9BB279395F69587957795679540
:10402000B795F111F8CFFAF4BB0F11F460FF1BC084
:104030006F5F7F4F8F4F9F4F16C0882311F096E917
:1040400011C0772321F09EE8872F762F05C06623C5
:1040500071F096E8862F70E060E02AF09A95660F7E
:10406000771F881FDAF7880F9695879597F9089537
:1040700057FD9058440F551F59F05F3F71F0479519
:10408000880F97FB991F61F09F3F79F087950895FE
:10409000121613061406551FF2CF4695F1DF08C01D
:1040A000161617061806991FF1CF8695710561053A
:1040B00008940895E894BB2766277727CB0197F9E2
:1040C00008950BD078C069D028F06ED018F09523F1
:1040D00009F05AC05FC01124EECFCADFA0F3959F4C
:1040E000D1F3950F50E0551F629FF001729FBB27DF
:1040F000F00DB11D639FAA27F00DB11DAA1F649F8B
:104100006627B00DA11D661F829F2227B00DA11D3D
:10411000621F739FB00DA11D621F839FA00D611DC3
:10412000221F749F3327A00D611D231F849F600DE4
:10413000211D822F762F6A2F11249F5750408AF01D
:10414000E1F088234AF0EE0FFF1FBB1F661F771FA9
:10415000881F91505040A9F79E3F510570F014C040
:10416000AACF5F3FECF3983EDCF386957795679591
:10417000B795F795E7959F5FC1F7FE2B880F911DC7
:104180009695879597F9089597F99F6780E870E06D
:1041900060E008959FEF80EC089500240A941616BD
:1041A000170618060906089500240A941216130625
:1041B000140605060895092E0394000C11F48823B3
:1041C00052F0BB0F40F4BF2B11F460FF04C06F5FCF
:1041D0007F4F8F4F9F4F0895FB019F01423074F036
:1041E000453264F4642F77270E941221805D8A3360
:1041F0000CF0895D8193CB010097A1F71082C90172
:104200000C940221DC01FC01672F71917723E1F707
:10421000329704C07C916D9370836291AE17BF0793
:10422000C8F30895AA1BBB1B51E107C0AA1FBB1FFF
:10423000A617B70710F0A61BB70B881F991F5A9532
:10424000A9F780959095BC01CD010895F894FFCF12
:1042500048656C6C6F20576F726C642E2E2E004E6A
:104260006F212049207265667573652100373520FE
:104270003120313233340037352031312035363773
:104280003800373520322038373635003735203280
:104290003120343332310052554E204D5F4F55544A
:1042A0000052554E204D5F4354524C0052554E2003
:1042B0004D5F434F4E0000373520310037352031F8
:1042C0003100373520320037352032310037352084
:1042D000330037352033310037352034003735206F
:1042E000343100FFFF434F4C4F5220363900434FCB
:1042F0004C4F5220313600434952434C4520313017
:10430000204600434F4C4F522057484954450043E4
:104310004952434C4520313000415243203820312E
:1043200032352031343500434F4C4F5220424C55EA
:104330004500424F58203330203330204600585932
:104340002033363520313939005859203338302060
:104350003230390058592033363520313531005844
:104360005920333830203136310058592033363512
:104370002031303300585920333830203131330068
:1043800058592033363520353500585920333830C8
:08439000203635002B0024004B
:00000001FF
