:100000000C94FA000C941F010C941F010C941F0116
:100010000C941F010C941F010C941F010C941F01E0
:100020000C941F010C941F010C941F010C941F01D0
:100030000C941F010C941F010C941F010C941F01C0
:100040000C941F010C941F010C941F010C941F01B0
:100050000C941F010C941F010C941F010C941F01A0
:100060000C941F010C94230D0C94B60E0C941F01DC
:100070000C94910D0C94130E0C941F010C941F0101
:100080000C941F010C941F010C941F010C941F0170
:100090000C941F010C941F010C941F010C941F0160
:1000A0000C941F010C941F010C941F010C941F0150
:1000B0000C941F010C941F010C941F010C941F0140
:1000C0000C941F010C941F010C941F010C941F0130
:1000D0000C941F010C941F010C941F010C941F0120
:1000E0000C941F010C941F010C941F010C941F0110
:1000F0000C941F010C941F010C941F010C941F0100
:100100000C941F010C941F010C941F010C941F01EF
:100110000C941F010C941F010C941F010C941F01DF
:100120000C941F010C941F010C941F010C941F01CF
:100130000C941F010C941F010C941F010C941F01BF
:100140000C941F010C941F010C941F010C941F01AF
:100150000C941F010C941F010C941F010C941F019F
:100160000C941F010C941F010C941F010C941F018F
:100170000C941F010C941F010C941F010C941F017F
:100180000C941F010C941F010C941F010C941F016F
:100190000C94BD070C9425080C941F010C941F01AE
:1001A0000C941F010C941F010C941F010C941F014F
:1001B0000C941F010C941F010C941F010C941F013F
:1001C0000C941F010C941F010C941F010C941F012F
:1001D0000C941F010C941F010C941F010C941F011F
:1001E0000C941F010C941F010C948F180C94CB12CB
:1001F0000C941F0111241FBECFEFDFE3DEBFCDBF84
:1002000000E00CBF18BE19BE1ABE1BBE11E2A0E072
:10021000B0E2E4ECFAE400E00BBF02C007900D92FC
:10022000AC31B107D9F71CE3ACE1B1E201C01D92DA
:10023000A13BB107E1F70E941E070C9460250C94C6
:100240000000E0E0F2E080E18283118291E090839F
:1002500081A388E181A7089581E8E0E0F2E080A32E
:1002600083A18823E9F3E0E0F2E081E083A384A1A5
:1002700095A1089581E8E0E0F2E080A783A58823B6
:10028000E9F3E0E0F2E081E083A784A595A5089575
:10029000CF92DF92EF92FF920F931F93CF93DF9352
:1002A0008C0110922321109224218FEF9FEF8093D5
:1002B0002521909326210115110549F1C0E0D0E0D8
:1002C000CC24DD2476010E942C01AC0160E070E0BA
:1002D000C40ED51EE61EF71E209125213091262141
:1002E0008217930720F48093252190932621209153
:1002F0002321309124212817390720F480932321CA
:10030000909324212196C017D107E9F603C0CC248D
:10031000DD24760100932021980140E050E0C701E0
:10032000B6010E943E252093212130932221DF91A6
:10033000CF911F910F91FF90EF90DF90CF90089594
:10034000CF92DF92EF92FF920F931F93CF93DF93A1
:100350008C0110922321109224218FEF9FEF809324
:100360002521909326210115110549F1C0E0D0E027
:10037000CC24DD2476010E943A01AC0160E070E0FB
:10038000C40ED51EE61EF71E209125213091262190
:100390008217930720F480932521909326212091A2
:1003A0002321309124212817390720F48093232119
:1003B000909324212196C017D107E9F603C0CC24DD
:1003C000DD24760100932021980140E050E0C70130
:1003D000B6010E943E252093212130932221DF91F6
:1003E000CF911F910F91FF90EF90DF90CF900895E4
:1003F000089580918324823289F480911C218F5F3B
:1004000080931C2180FF05C080E090E20E94DE0501
:1004100008958FE090E20E94DE0508958DE190E25C
:100420000E94B50487E290E20E94B50482E390E264
:100430000E94B5048CE390E20E94B50408951092E6
:10044000802489E2809384248AE30E94B70685E0B1
:100450000E94690308950E941F0280E28093832412
:10046000089580E28093832487E490E20E9442050D
:10047000089581E28093832481E590E20E94420501
:10048000089582E2809383248CE590E20E944205E5
:100490000895809183248052823008F054C0809166
:1004A000802480FD04C081E20E942E050DC0809151
:1004B0008424893221F480E20E942E0505C08A320C
:1004C00019F48FE10E942E058091802481FD04C0E3
:1004D00081E20E941A050DC080918424893221F4A2
:1004E00080E20E941A0505C08A3219F48FE10E9449
:1004F0001A058091802482FD04C081E20E940605D5
:100500000DC080918424893221F480E20E94060586
:1005100005C08A3219F48FE10E940605809180247B
:1005200083FD04C081E20E94F20408958091842436
:10053000893221F480E20E94F20408958A3219F48B
:100540008FE10E94F2040895CF93C82F81E064E602
:1005500070E00E94052580EB9BE00E943A2182E535
:100560008093942485E18093852486E690E20E941E
:10057000B50480918324813271F08232B1F08032EF
:10058000E9F4CE3219F40E94390218C0CD32B1F428
:100590000E94410213C0CE3219F40E9441020EC0E3
:1005A000CD3261F40E94310209C0CE3219F40E94AA
:1005B000310204C0CD3211F40E9439020E94490276
:1005C000CF910895809184248A3251F489E28093F6
:1005D00084248AE30E94B70685E00E9469030BC069
:1005E000893249F48AE2809384248CE30E94810654
:1005F00085E00E943D030E9449020895CF93C82FD1
:1006000081E090E00C2E02C0880F991F0A94E2F757
:100610009091802489278093802490E00C2E02C042
:10062000959587950A94E2F780FD07C08C2F0E946C
:10063000B7068C2F0E9469030AC08C2F0E943D03CD
:10064000809184248A3219F48C2F0E9481060E94A2
:100650004902CF9108950895E0E0F7E080E4818BAE
:10066000828B838B848B8EE1868381831092862498
:100670008FE3E0E2F7E0828308958230B1F08330C7
:1006800028F4882341F0813019F50AC0833091F0B5
:100690008530F1F414C082E0E0E0F7E0858308954E
:1006A00084E0E0E0F7E08583089588E0E0E0F7E0AB
:1006B0008583089580E1E0E0F7E0858308958091E7
:1006C0008024880FE0E0F7E0858382E00E946924BF
:1006D00008958230B1F0833028F4882341F08130CE
:1006E00009F50AC0833091F08530E1F414C082E04E
:1006F000E0E0F7E08683089584E0E0E0F7E08683B9
:10070000089588E0E0E0F7E08683089580E1E0E086
:10071000F7E086830895109281241092882481E066
:100720008093892408958091822480932721809149
:10073000922480938224E0E2F7E0808580939224E3
:100740000895CF93C82F81E06AE070E00E940525EC
:10075000C230B1F0C33028F4CC2351F0C130E9F4F9
:100760000BC0C430A9F0C43078F0C530B1F413C068
:1007700080E00E94FE0211C081E00E94FE020DC0D6
:1007800082E00E94FE0209C083E00E94FE0205C0D2
:100790000E94E20202C00E94F901CF9108950895DB
:1007A0008823B9F470E0042E02C0759567950A9409
:1007B000E2F760FF0EC02091922430E0042E02C0C8
:1007C000359527950A94E2F720FD03C0842F0E94F7
:1007D000A1030895CF93DF93C09182248091922446
:1007E000C827D0912721DC278C2F6D2F40E00E9455
:1007F000D0038C2F6D2F41E00E94D0038C2F6D2FE2
:1008000042E00E94D0038C2F6D2F43E00E94D00362
:100810008C2F6D2F44E00E94D0038C2F6D2F45E06C
:100820000E94D003DF91CF91089590918024809110
:100830008424893209F043C0990F80918124882350
:1008400039F4E0E0F7E095838F5F8093812410C056
:10085000813039F4E0E0F7E0968382E080938124F0
:1008600007C08F5F809381248B3010F01092812419
:100870008091892460918824680F6093882466237E
:1008800034F060FD12C082E00E949B240EC08823D9
:1008900021F06E5F6093882403C06E5F60938824AC
:1008A00082E0609188240E949B248091882481505A
:1008B0008E3F28F0809189248195809389240E941D
:1008C00093030E94EA03809183248332A9F18091EB
:1008D0006720909168209923C4F001968093672047
:1008E000909368200E94A7070E94B207809167201A
:1008F0009091682021E0853F920764F18FEF9FEF90
:10090000809367209093682008950E94A70788230A
:1009100039F010926720109268208DE20E94A402A4
:100920000E94B2078823B1F01092672010926820CD
:100930008EE20E94A40208950E94A707882319F05E
:100940008DE20E94A4020E94B207882319F08EE271
:100950000E94A40208958EE4809394248AEF8093E9
:10096000932485E1809385240895CF93DF93EC0150
:1009700080EB9BE06AEF0E94381D80EB9BE0BE019C
:100980000E94291980EB9BE06DE00E94381DDF91E9
:10099000CF9108958F3119F0803251F405C089E666
:1009A00090E20E94B50404C082E790E20E94B50480
:1009B0008BE790E20E94B50487E890E20E94B504BC
:1009C00083E990E20E94B5048DE990E20E94B504AB
:1009D00008958BEA90E20E94B50486EB90E20E94B3
:1009E000B5040895CF93C82F813239F482EC90E298
:1009F0000E94B5040E94E90407C08DEC90E20E94B9
:100A0000B5048C2F0E94CA04CF910895CF93C82FAC
:100A1000813239F488ED90E20E94B5040E94E90425
:100A200007C083EE90E20E94B5048C2F0E94CA0496
:100A3000CF910895CF93C82F813239F48EEE90E292
:100A40000E94B5040E94E90407C089EF90E20E9469
:100A5000B5048C2F0E94CA04CF910895CF93C82F5C
:100A6000813239F484E091E20E94B5040E94E904E5
:100A700007C08EE091E20E94B5048C2F0E94CA0448
:100A8000CF910895CF93DF93EC0180EB9BE06EEF65
:100A90000E94381D80EB9BE0BE010E94291980EB6B
:100AA0009BE06DE00E94381DDF91CF910895809109
:100AB0008C248E3739F490918D2481E0973219F08F
:100AC00080E0089580E008958091852495E19093D9
:100AD0008524089590918C2490938D2490918D2459
:100AE00090938E2490918E2490938F2490918F24B4
:100AF00090939024909190249093912480938C24AF
:100B000080918C24803279F480918D24803259F444
:100B100080918E24803239F480918F24803219F4B0
:100B200085E180938524089580919424823521F075
:100B300081E00E94692403C081E00E9485248091A5
:100B400094248F3419F0803561F408C08091932487
:100B50008A3F39F482E58093942403C082E5809330
:100B6000942480911D2190911E2123E188389207C1
:100B700030F4019680931D2190931E21089523E166
:100B80008838920749F482E58093942488E293E2BE
:100B900080931D2190931E21089510922821109278
:100BA00093211092FE21109269221092D422109269
:100BB0003F231092AA23109215240895EF92FF92DA
:100BC0001F93CF93DF937C0110919524212F30E068
:100BD0008BE690E0289FA001299F500D389F500D73
:100BE0001124EA01C85DDE4D88E38883898380E2B1
:100BF0008A838C8382E28D83E12FF1E348E251E224
:100C00006BE670E08E2F90E0869F9001879F300DFD
:100C1000969F300D1124240F351FD9011396FC9394
:100C20001397EF5FE83008F0E0E0FF5FF93351F72A
:100C3000F7018081882301F505C0942F81918823D5
:100C400069F403C040E050E090E0FE01E90FF11DBF
:100C500082E28683C40FD51F1F8206C08D934F5F2B
:100C60005F4F4436510549F71F5F109395241830A4
:100C700058F01092952408C08E83F7013196DE015A
:100C8000179641E050E0D9CFDF91CF911F91FF90AF
:100C9000EF9008950F931F93CF9380918324823216
:100CA00029F5C9E00BE610E017C020911F2130E0C4
:100CB000209FC001219F900D309F900D1124885DD1
:100CC0009E4D0E94B50480911F218F5F80931F214C
:100CD000883010F010921F2180EB9BE00E94E218F8
:100CE00022E08030920710F4C150F9F6CF911F91A5
:100CF0000F910895E0E4F6E083E3818386838683A1
:100D000008958230C1F0833028F4882351F0813077
:100D100069F50CC08A33C9F08C33E1F0833031F5CA
:100D20000FC081E0E0E4F6E08583089582E0E0E42E
:100D3000F6E08583089580E1E0E4F6E08583089598
:100D400080E2E0E4F6E08583089583E3E0E4F6E002
:100D50008583089580918024982F969596959295F5
:100D6000907F8370892BE0E4F6E0858308958230DC
:100D7000B1F0833028F4882341F08130F1F40AC0C7
:100D8000833091F08A33C9F414C081E0E0E4F6E0E6
:100D90008683089582E0E0E4F6E08683089580E1AA
:100DA000E0E4F6E08683089580E2E0E4F6E08683FE
:100DB000089583E3E0E4F6E0868308950895E0E58E
:100DC000F0E082E282838BE0808380E00E946924ED
:100DD000E0E5F0E081818B30E9F780E00E94852436
:100DE000E0E5F0E082E0868381E08093600098EDAA
:100DF00094BF809340008AE0808380E090E0089573
:100E000087E08093500080E00E946924E0E5F0E0F4
:100E100081818730E9F780E00E948524E0E5F0E0F9
:100E200082E0868381E08093600098ED94BF809398
:100E300040008AE0808380E090E008950E94D324FF
:100E40000E942C030E947F070E9400070E94AB04AF
:100E50000E94CD0580EA98E060E00E94A40880EB43
:100E600098E060E00E94A40880EB9BE060E00E94B4
:100E7000A4080E944B210E9421010E947A060E9430
:100E80002B02E0E0F8E087E080838EE390E086A329
:100E900097A387E8E0EAF0E08283789480E00E94FC
:100EA000852481E00E94852482E064E670E00E944F
:100EB000052580E061E00E949B2412E001E0C0E093
:100EC000D8E0FF24F39401C001950E9411250E94EF
:100ED00015040E942B030E9411220E9494050E9477
:100EE0004A068C8580FFFDCFFC8680E0612F0E9442
:100EF0009B24100F812F81508E3F30F7E6CFE0E228
:100F0000F7E080EC828380E4828780E883878FE04B
:100F10008187808586FD03C089E9868B04C08AE9C4
:100F2000E0E2F7E0868BE0E2F7E0808588231CF0C2
:100F300089E9878B04C08AE9E0E2F7E0878B1092A9
:100F40008A2410928B248CE28093872408958091C8
:100F500087248D3229F48CE28093872481E00895E0
:100F600080E00895809187248E3229F48CE280936A
:100F7000872481E0089580E008951F920F920FB6B4
:100F80000F9208B60F920BB60F9211248F939F9376
:100F9000EF93FF93E0E2F7E086898A3901F58085D7
:100FA00088236CF080918A2490918B240197809300
:100FB0008A2490938B248EE2809387240CC08091A6
:100FC0008A2490918B24019680938A2490938B2479
:100FD0008DE28093872489E9E0E2F7E0868BE0E206
:100FE000F7E08689893901F5808588236CF0809146
:100FF0008A2490918B24019680938A2490938B2449
:101000008DE2809387240CC080918A2490918B2458
:10101000019780938A2490938B248EE28093872477
:101020008AE9E0E2F7E0868B81E0E0E2F7E084879E
:10103000FF91EF919F918F910F900BBE0F9008BE83
:101040000F900FBE0F901F9018951F920F920FB622
:101050000F9208B60F920BB60F9211248F939F93A5
:10106000EF93FF93E0E2F7E087898A3901F5808505
:1010700086FD0DC080918A2490918B2401968093E7
:101080008A2490938B248DE2809387240CC08091D6
:101090008A2490918B24019780938A2490938B24A7
:1010A0008EE28093872489E9E0E2F7E0878BE0E233
:1010B000F7E08789893901F5808586FD0DC080912B
:1010C0008A2490918B24019780938A2490938B2477
:1010D0008EE2809387240CC080918A2490918B2487
:1010E000019680938A2490938B248DE280938724A9
:1010F0008AE9E0E2F7E0878B82E0E0E2F7E08487CC
:10110000FF91EF919F918F910F900BBE0F9008BEB2
:101110000F900FBE0F901F9018950895E0EAF6E02B
:1011200080E3818385818F7C8583E0E4FBE087E039
:10113000808383E181838FEF90E086A397A380E192
:1011400090E080A791A70895FC0188E0E03AF807B5
:1011500051F4A0E4B6E088E011968C9311971596AF
:101160008C93159761C088E0E03BF80751F4A0E448
:10117000B6E080E811968C93119715968C9315978D
:1011800053C089E0E03AF80751F4A0E6B6E088E001
:1011900011968C93119715968C93159745C089E0FD
:1011A000E03BF80751F4A0E6B6E080E811968C9396
:1011B000119715968C93159737C08AE0E03AF80797
:1011C00051F4A0E8B6E088E011968C93119715963B
:1011D0008C93159729C08AE0E03BF80751F4A0E80A
:1011E000B6E080E811968C93119715968C9315971D
:1011F0001BC08BE0E03AF80751F4A0EAB6E088E0C3
:1012000011968C93119715968C9315970DC08BE0C2
:10121000E03BF80749F4A0EAB6E080E811968C9329
:10122000119715968C931597613039F0623051F40F
:101230008CEA878385EC868309C088EA87838EE6FB
:10124000868304C084EA87838EE28683138288E1E2
:10125000848383E085830895FC01818185FFFDCF30
:1012600060830895CF92DF92EF92FF920F931F93C6
:10127000CF93DF936C01E62FF72FEF010990002049
:10128000E9F72197CE1BDF0B79F0E62EF72E00E071
:1012900010E0F70161917F01C6010E942C090F5FE8
:1012A0001F4F0C171D07A9F7DF91CF911F910F91C9
:1012B000FF90EF90DF90CF900895CF93DF93EC01F4
:1012C000673009F49DC0683090F4633009F458C069
:1012D000643030F46130A1F1623008F041C020C0C8
:1012E000653009F46DC0663008F07AC059C06B30C3
:1012F00009F4C6C06C3038F4693009F4A1C06A3012
:1013000008F0AEC08DC06D3009F4DAC06D3008F45D
:10131000C7C06E3009F4E4C06F3009F000C1F0C0FE
:1013200060E30E942C09CE0160E30E942C09CE01EB
:1013300060E30E942C09CE0160E30E942C09EFC0FB
:1013400060E30E942C09CE0160E30E942C09CE01CB
:1013500060E30E942C09CE0161E30E942C09DFC0EA
:1013600060E30E942C09CE0160E30E942C09CE01AB
:1013700061E30E942C09CE0160E30E942C09CFC0DA
:1013800060E30E942C09CE0160E30E942C09CE018B
:1013900061E30E942C09CE0161E30E942C09BFC0C9
:1013A00060E30E942C09CE0161E30E942C09CE016A
:1013B00060E30E942C09CE0160E30E942C09AFC0BB
:1013C00060E30E942C09CE0161E30E942C09CE014A
:1013D00060E30E942C09CE0161E30E942C099FC0AA
:1013E00060E30E942C09CE0161E30E942C09CE012A
:1013F00061E30E942C09CE0160E30E942C098FC09A
:1014000060E30E942C09CE0161E30E942C09CE0109
:1014100061E30E942C09CE0161E30E942C097FC088
:1014200061E30E942C09CE0160E30E942C09CE01E9
:1014300060E30E942C09CE0160E30E942C096FC07A
:1014400061E30E942C09CE0160E30E942C09CE01C9
:1014500060E30E942C09CE0161E30E942C095FC069
:1014600061E30E942C09CE0160E30E942C09CE01A9
:1014700061E30E942C09CE0160E30E942C094FC059
:1014800061E30E942C09CE0160E30E942C09CE0189
:1014900061E30E942C09CE0161E30E942C093FC048
:1014A00061E30E942C09CE0161E30E942C09CE0168
:1014B00060E30E942C09CE0160E30E942C092FC03A
:1014C00061E30E942C09CE0161E30E942C09CE0148
:1014D00060E30E942C09CE0161E30E942C091FC029
:1014E00061E30E942C09CE0161E30E942C09CE0128
:1014F00061E30E942C09CE0160E30E942C090FC019
:1015000061E30E942C09CE0161E30E942C09CE0107
:1015100061E30E942C09CE0161E30E942C09DF9156
:10152000CF9108951F93CF93DF93EC01162F62E6BE
:101530000E942C09612F62956F70CE010E945D0997
:10154000612F6F70CE010E945D09DF91CF911F91D5
:101550000895673009F43FC0683070F4633059F182
:10156000643028F46130F9F0623008F518C0653055
:1015700051F1663060F523C06B30E9F16C3028F42E
:10158000693089F16A3098F52AC06D30E1F16D302B
:10159000B0F16E30E1F16F3009F040C03CC060E363
:1015A0000E942C09089561E30E942C09089562E3CA
:1015B0000E942C09089563E30E942C09089564E3B6
:1015C0000E942C09089565E30E942C09089566E3A2
:1015D0000E942C09089567E30E942C09089568E38E
:1015E0000E942C09089569E30E942C09089561E482
:1015F0000E942C09089562E40E942C09089563E476
:101600000E942C09089564E40E942C09089565E461
:101610000E942C09089566E40E942C0908951F93E6
:10162000CF93DF93EC01162F62956F700E94A90A89
:10163000612F6F70CE010E94A90ADF91CF911F9197
:1016400008951F93CF93DF93EC01142F0E940F0B8B
:10165000CE01612F0E940F0BDF91CF911F91089552
:101660001F93CF93DF93EC01162F672F0E940F0B70
:10167000CE01612F0E940F0BDF91CF911F91089532
:10168000CF93DF93EC01673009F49DC0683090F48C
:10169000633009F458C0643030F46130A1F1623035
:1016A00008F041C020C0653009F46DC0663008F014
:1016B0007AC059C06B3009F4C6C06C3038F4693058
:1016C00009F4A1C06A3008F0AEC08DC06D3009F4D5
:1016D000DAC06D3008F4C7C06E3009F4E4C06F3072
:1016E00009F000C1F0C060E30E94381DCE0160E344
:1016F0000E94381DCE0160E30E94381DCE0160E3D8
:101700000E94381DEFC060E30E94381DCE0160E3E7
:101710000E94381DCE0160E30E94381DCE0161E3B6
:101720000E94381DDFC060E30E94381DCE0160E3D7
:101730000E94381DCE0161E30E94381DCE0160E396
:101740000E94381DCFC060E30E94381DCE0160E3C7
:101750000E94381DCE0161E30E94381DCE0161E375
:101760000E94381DBFC060E30E94381DCE0161E3B6
:101770000E94381DCE0160E30E94381DCE0160E357
:101780000E94381DAFC060E30E94381DCE0161E3A6
:101790000E94381DCE0160E30E94381DCE0161E336
:1017A0000E94381D9FC060E30E94381DCE0161E396
:1017B0000E94381DCE0161E30E94381DCE0160E316
:1017C0000E94381D8FC060E30E94381DCE0161E386
:1017D0000E94381DCE0161E30E94381DCE0161E3F5
:1017E0000E94381D7FC061E30E94381DCE0160E376
:1017F0000E94381DCE0160E30E94381DCE0160E3D7
:101800000E94381D6FC061E30E94381DCE0160E365
:101810000E94381DCE0160E30E94381DCE0161E3B5
:101820000E94381D5FC061E30E94381DCE0160E355
:101830000E94381DCE0161E30E94381DCE0160E395
:101840000E94381D4FC061E30E94381DCE0160E345
:101850000E94381DCE0161E30E94381DCE0161E374
:101860000E94381D3FC061E30E94381DCE0161E334
:101870000E94381DCE0160E30E94381DCE0160E356
:101880000E94381D2FC061E30E94381DCE0161E324
:101890000E94381DCE0160E30E94381DCE0161E335
:1018A0000E94381D1FC061E30E94381DCE0161E314
:1018B0000E94381DCE0161E30E94381DCE0160E315
:1018C0000E94381D0FC061E30E94381DCE0161E304
:1018D0000E94381DCE0161E30E94381DCE0161E3F4
:1018E0000E94381DDF91CF9108951F93CF93DF930E
:1018F000EC01162F62E60E94381D612F62956F7011
:10190000CE010E94400B612F6F70CE010E94400BF0
:10191000DF91CF911F910895673009F43FC068307F
:1019200070F4633059F1643028F46130F9F06230BA
:1019300008F518C0653051F1663060F523C06B3092
:10194000E9F16C3028F4693089F16A3098F52AC0E1
:101950006D30E1F16D30B0F16E30E1F16F3009F0D2
:1019600040C03CC060E30E94381D089561E30E94BE
:10197000381D089562E30E94381D089563E30E94B4
:10198000381D089564E30E94381D089565E30E94A0
:10199000381D089566E30E94381D089567E30E948C
:1019A000381D089568E30E94381D089569E30E9478
:1019B000381D089561E40E94381D089562E40E9474
:1019C000381D089563E40E94381D089564E40E9460
:1019D000381D089565E40E94381D089566E40E944C
:1019E000381D08951F93CF93DF93EC01162F629556
:1019F0006F700E948C0C612F6F70CE010E948C0C56
:101A0000DF91CF911F9108951F93CF93DF93EC0146
:101A1000142F0E94F20CCE01612F0E94F20CDF9174
:101A2000CF911F9108951F93CF93DF93EC01162F51
:101A3000672F0E94F20CCE01612F0E94F20CDF9101
:101A4000CF911F9108951F920F920FB60F9208B673
:101A50000F9209B60F920AB60F920BB60F9211248D
:101A60002F933F934F935F938F939F93AF93BF9326
:101A7000CF93DF93EF93FF93C0EAD8E0E4EAFCE36F
:101A800048E954E213C08881A081B181A456B74DC2
:101A90008C93808191810196808391838081918153
:101AA00024E08030920710F010821182898188230F
:101AB000FCF480819181DA012D913C91119782177C
:101AC000930740F0808191812D913C911197821B69
:101AD000930B0AC080819181DA012D913C9111977D
:101AE00080509C4F821B930BB4E080309B0758F2D0
:101AF000FF91EF91DF91CF91BF91AF919F918F9126
:101B00005F914F913F912F910F900BBE0F900ABEA6
:101B10000F9009BE0F9008BE0F900FBE0F901F9040
:101B200018951F920F920FB60F9208B60F9209B632
:101B30000F920AB60F920BB60F9211242F933F9378
:101B40004F935F938F939F93AF93BF93CF93DF9305
:101B5000EF93FF93C0EBD8E0E6EAFCE34AE954E2F6
:101B600013C08881A081B181A456B34D8C9380812C
:101B700091810196808391838081918124E08030DE
:101B8000920710F01082118289818823FCF48081F1
:101B90009181DA012D913C9111978217930740F0C2
:101BA000808191812D913C911197821B930B0AC0EA
:101BB00080819181DA012D913C91119780509C4F49
:101BC000821B930BB4E080309B0758F2FF91EF919A
:101BD000DF91CF91BF91AF919F918F915F914F9185
:101BE0003F912F910F900BBE0F900ABE0F9009BE30
:101BF0000F9008BE0F900FBE0F901F901895FC011C
:101C00008381806383830895FC0183818F7C838338
:101C10000895FC018381826083830895FC018381A0
:101C20008C7F838308951F920F920FB60F9208B690
:101C30000F9209B60F920AB60F920BB60F921124AB
:101C40002F933F934F935F936F937F938F939F93C4
:101C5000AF93BF93CF93DF93EF93FF93E0EBF8E065
:101C6000818185FD1AC03AC02081318180819181B6
:101C70000196808391838081918144E08030940734
:101C800010F0108211822E55374CE9018881EB014A
:101C90008883898185FD07C021C0A0EAB0E3ECEA12
:101CA000FCE360EB78E08D919C911197208131816C
:101CB0008217930740F08D919C911197208131817B
:101CC000821B930B09C08D919C91119720813181CA
:101CD00080509C4F821B930B009731F62091A030CF
:101CE0003091A1308091AC3C9091AD3C28173907E0
:101CF00058F08091A0309091A1302091AC3C30916F
:101D0000AD3C821B930B0CC08091A0309091A13010
:101D10002091AC3C3091AD3C80509C4F821B930B8A
:101D2000009729F080EB98E00E94090E04C080EB38
:101D300098E00E940E0EFF91EF91DF91CF91BF913D
:101D4000AF919F918F917F916F915F914F913F9153
:101D50002F910F900BBE0F900ABE0F9009BE0F90EF
:101D600008BE0F900FBE0F901F9018951F920F92F4
:101D70000FB60F9208B60F9209B60F920AB60F92DD
:101D80000BB60F9211242F933F934F935F936F9352
:101D90007F938F939F93AF93BF93CF93DF93EF93F3
:101DA000FF93E0EAF8E0818185FD1AC03AC0208106
:101DB000318180819181019680839183808191819D
:101DC00044E08030940710F0108211822E553B4C75
:101DD000E9018881EB018883898185FD07C021C0E5
:101DE000AEE9B0E3EAEAFCE360EA78E08D919C9129
:101DF0001197208131818217930740F08D919C913A
:101E0000119720813181821B930B09C08D919C9188
:101E100011972081318180509C4F821B930B00973A
:101E200031F620919E3030919F308091AA3C909164
:101E3000AB3C2817390758F080919E3090919F3025
:101E40002091AA3C3091AB3C821B930B0CC080913B
:101E50009E3090919F302091AA3C3091AB3C8050B5
:101E60009C4F821B930B009729F080EA98E00E9418
:101E7000090E04C080EA98E00E940E0EFF91EF91D7
:101E8000DF91CF91BF91AF919F918F917F916F9192
:101E90005F914F913F912F910F900BBE0F900ABE13
:101EA0000F9009BE0F9008BE0F900FBE0F901F90AD
:101EB00018950F931F93CF93DF93DC0111968C91AC
:101EC000119785FD42C091C02BE0A03BB20751F0B5
:101ED00038E0A03AB30741F088E0A03BB80731F4FE
:101EE00022E005C020E003C021E001C020E030E096
:101EF000C901880F991FFB01E80FF91F408151812B
:101F00008081918101968083918380819181E4E039
:101F100080309E0740F0C901880F991F860F971FD8
:101F2000FC0110821182C901982F8827990F990FFF
:101F3000840F951FF801E80FF91F80818C9311968B
:101F40008C91119785FD07C050C0CCE9D0E368EAB9
:101F50007CE302EA10E3FBE0A03BBF0751F028E07E
:101F6000A03AB20741F038E0A03BB30731F422E0D9
:101F700005C020E003C021E001C020E030E0C9013D
:101F8000880F991FFE01E80FF91F40815181FB0165
:101F9000E80FF91F808191814817590788F0220FB7
:101FA000331FFE01E20FF31F40815181FB01E20F5D
:101FB000F31F80819181FA01E81BF90BCF0112C058
:101FC000C901880F991FFE01E80FF91F4081518157
:101FD000FB01E80FF91F20813181CA0180509C4F1D
:101FE000821B930B009709F06FCFFBE0A03BBF076C
:101FF00051F028E0A03AB20741F038E0A03BB30727
:1020000031F422E005C020E003C021E001C020E05F
:1020100030E0C901880F991FFC01E456FF4C408154
:1020200051818855934CFC01808191814817590753
:1020300078F0220F331FF901E456FF4C40815181A3
:102040002855334CF90180819181481B590B10C0F0
:10205000220F331FF901E456FF4C4081518128556E
:10206000334CF9018081918140505C4F481B590BE2
:102070004115510521F0CD010E94090E03C0CD018B
:102080000E940E0EDF91CF911F910F9108953F9204
:102090004F925F926F927F928F929F92AF92BF9278
:1020A000CF92DF92EF92FF920F931F93CF93DF9324
:1020B0005C010F2EFCE96F2EF0E37F2EF02D0F2E2A
:1020C000F8EA8F2EFCE39F2EF02D0F2EF2EA4F2E12
:1020D000F0E35F2EF02D0EE910E30F2EFBE2CF2E82
:1020E000F02D0F2EF0EAEF2EF8E0FF2EF02DCAEAC9
:1020F000DCE30F2EFEE43F2EF02D95C120EBA2165F
:102100002BE0B20661F030EAA31638E0B30649F0DE
:1021100060EBA61668E0B60631F422E005C020E0C8
:1021200003C021E001C020E030E0C901880F991F01
:10213000F401E80FF91F408151818081918101965E
:102140008083918380819181E4E080309E0740F01C
:10215000C901880F991F880D991DFC0110821182F9
:10216000C901982F8827990F990F840F951F840D07
:10217000951DFC01D080FAEFDF1621F02EEFD2166C
:1021800009F0DDC0F801808191818E559B4CFC01E6
:10219000C082F80180819181019680839183808142
:1021A0009181F4E080309F0718F0F80110821182CD
:1021B000F701818185FD18C031C0E881F9818881EE
:1021C00099810196888399838881998124E0803060
:1021D000920710F018821982EE55FB4C8081F701AE
:1021E0008083818185FF1AC0F801808191812881D7
:1021F00039818217930738F0808191812881398154
:10220000821B930B09C0F80180819181288139815B
:1022100080509C4F821B930B009779F6F8018081C8
:102220009181288139818217930738F080819181CB
:1022300028813981821B930B09C0F801808191812B
:102240002881398180509C4F821B930B009721F08D
:10225000C7010E94090E03C0C7010E940E0EF801BB
:10226000808191818E559B4CFC01D082F801808148
:10227000918101968083918380819181F4E0803007
:102280009F0718F0F80110821182F701818185FD06
:1022900018C031C0E881F9818881998101968883CD
:1022A00099838881998124E08030920710F0188208
:1022B0001982EE55FB4C8081F7018083818185FF77
:1022C0001AC0F80180819181288139818217930792
:1022D00038F08081918128813981821B930B09C05C
:1022E000F801808191812881398180509C4F821B27
:1022F000930B009779F6F8018081918128813981CB
:102300008217930738F08081918128813981821B5F
:10231000930B09C0F8018081918128813981805017
:102320009C4F821B930B009721F0C7010E94090E5E
:1023300003C0C7010E940E0ED092932474C0F8010E
:10234000808191818E559B4CFC01D082F801808167
:10235000918101968083918380819181F4E0803026
:102360009F0718F0F80110821182F701818185FD25
:1023700018C031C0E881F9818881998101968883EC
:1023800099838881998124E08030920710F0188227
:102390001982EE55FB4C8081F7018083818185FF96
:1023A0001AC0F801808191812881398182179307B1
:1023B00038F08081918128813981821B930B09C07B
:1023C000F801808191812881398180509C4F821B46
:1023D000930B009779F6F8018081918128813981EA
:1023E0008217930738F08081918128813981821B7F
:1023F000930B09C0F8018081918128813981805037
:102400009C4F821B930B009721F0C7010E94090E7D
:1024100003C0C7010E940E0EFDE0DF1611F43092DA
:102420009424F501D082F501818185FF4FC0F0EB46
:10243000AF16FBE0BF0661F020EAA21628E0B20664
:1024400049F030EBA31638E0B30631F422E005C0C2
:1024500020E003C021E001C020E030E0C901880F86
:10246000991FF301E80FF91F40815181F401E80F32
:10247000F91F808191814817590788F0220F331F77
:10248000F301E20FF31F40815181F401E20FF31FCA
:1024900080819181FA01E81BF90BCF0110C0220F56
:1024A000331FF301E20FF31F80819181F401E20FEA
:1024B000F31F2081318180509C4F821B930B00972A
:1024C00029F080919424823509F418CEC5010E9428
:1024D0000E0EF0EBAF16FBE0BF0661F020EAA2168D
:1024E00028E0B20649F030EBA31638E0B30631F429
:1024F00022E005C020E003C021E001C020E030E080
:10250000C901880F991FFC01E456FF4C408151819D
:102510008855934CFC01808191814817590778F0C8
:10252000220F331FF901E456FF4C40815181285599
:10253000334CF90180819181481B590B10C0220F47
:10254000331FF901E456FF4C408151812855334C2B
:10255000F9018081918140505C4F481B590B411516
:10256000510539F080919424823519F4C5010E94F7
:10257000090EDF91CF911F910F91FF90EF90DF90A7
:10258000CF90BF90AF909F908F907F906F905F9013
:102590004F903F9008951F920F920FB60F9208B67A
:1025A0000F9209B60F920AB60F920BB60F92112432
:1025B0003F924F925F926F927F928F929F92AF92D3
:1025C000BF92CF92DF92EF92FF920F931F932F93C0
:1025D0003F934F935F936F937F938F939F93AF93AB
:1025E000BF93CF93DF93EF93FF930F2EF0EB6F2EFC
:1025F000FBE07F2EF02D0F2EFCE98F2EF0E39F2EB7
:10260000F02D0F2EF8EAAF2EFCE3BF2EF02D0F2E8B
:10261000F2EA4F2EF0E35F2EF02D0EE910E30F2EBD
:10262000FBE2CF2EF02D0F2EF0EAEF2EF8E0FF2E7A
:10263000F02DCAEADCE30F2EFEE43F2EF02D8CC114
:10264000D501ED91FC9111978D919C911197019677
:102650008D939C9311978D919C911197B4E080304C
:102660009B0720F0D5011D921C921197E40DF51DDA
:10267000D080BAEFDB1621F0EEEFDE1609F0EFC0E6
:10268000D8018D919C9111978E559B4CFC01C08275
:102690008D919C91119701968D939C9311978D919B
:1026A0009C911197F4E080309F0718F01D921C92C6
:1026B0001197D70111968C91119785FD18C033C0E1
:1026C000E881F9818881998101968883998388813D
:1026D0009981B4E080309B0710F018821982EE5582
:1026E000FB4C8081F7018083818185FF1CC0D8016C
:1026F0008D919C911197288139818217930740F021
:102700008D919C91119728813981821B930B09C06F
:10271000F801808191812881398180509C4F821BF2
:10272000930B009769F6D8018D919C9111972881A0
:1027300039818217930740F08D919C9111972881E0
:102740003981821B930B09C0F80180819181288116
:10275000398180509C4F821B930B009721F0C70159
:102760000E94090E03C0C7010E940E0ED8018D9170
:102770009C9111978E559B4CFC01D0828D919C9120
:10278000119701968D939C9311978D919C91119720
:10279000F4E080309F0718F01D921C921197D7012A
:1027A00011968C91119785FD18C033C0E881F9818D
:1027B0008881998101968883998388819981B4E081
:1027C00080309B0710F018821982EE55FB4C8081F7
:1027D000F7018083818185FF1CC0D8018D919C9178
:1027E0001197288139818217930740F08D919C9130
:1027F000119728813981821B930B09C0F8018081D0
:1028000091812881398180509C4F821B930B0097C6
:1028100069F6D8018D919C91119728813981821791
:10282000930740F08D919C91119728813981821BEB
:10283000930B09C0F80180819181288139818050F2
:102840009C4F821B930B009721F0C7010E94090E39
:1028500003C0C7010E940E0ED09293247DC0D80100
:102860008D919C9111978E559B4CFC01D0828D913E
:102870009C91119701968D939C9311978D919C91AA
:102880001197F4E080309F0718F01D921C92119769
:10289000D70111968C91119785FD18C033C0E8813E
:1028A000F9818881998101968883998388819981AA
:1028B000B4E080309B0710F018821982EE55FB4C73
:1028C0008081F7018083818185FF1CC0D8018D91B3
:1028D0009C911197288139818217930740F08D913F
:1028E0009C91119728813981821B930B09C0F801B3
:1028F000808191812881398180509C4F821B930B6C
:10290000009769F6D8018D919C91119728813981A2
:102910008217930740F08D919C91119728813981FE
:10292000821B930B09C0F801808191812881398134
:1029300080509C4F821B930B009721F0C7010E948F
:10294000090E03C0C7010E940E0EFDE0DF1611F450
:1029500030929424D301DC92F301818185FF24C05D
:10296000D4018D919C911197F501208131818217BD
:10297000930740F08D919C91119720813181821BAA
:10298000930B0BC0D4018D919C911197F50120817F
:10299000318180509C4F821B930B009729F08091CE
:1029A0009424823509F44CCE80EB9BE00E940E0EFD
:1029B00020919C3030919D308091A83C9091A93C11
:1029C0002817390758F080919C3090919D302091C4
:1029D000A83C3091A93C821B930B0CC080919C3089
:1029E00090919D302091A83C3091A93C80509C4F03
:1029F000821B930B009741F080919424823521F43F
:102A000080EB9BE00E94090EFF91EF91DF91CF9147
:102A1000BF91AF919F918F917F916F915F914F91F6
:102A20003F912F911F910F91FF90EF90DF90CF90EA
:102A3000BF90AF909F908F907F906F905F904F90DE
:102A40003F900F900BBE0F900ABE0F9009BE0F90E3
:102A500008BE0F900FBE0F901F901895CF92DF9277
:102A6000EF92FF920F931F93CF93DF93DC010F2E12
:102A7000F2EACF2EFCE3DF2EF02D06E914E20F2E52
:102A8000FCE9EF2EF4E2FF2EF02D3AC04C912BE042
:102A9000A03BB20751F038E0A03AB30741F088E01C
:102AA000A03BB80731F462E005C060E003C061E01C
:102AB00001C060E070E0CB01880F991FF601E80FBC
:102AC000F91F20813181CB01982F8827990F990F09
:102AD000820F931F8E0D9F1DEC0148838081918191
:102AE00001968083918380819181D4E080309D071D
:102AF00038F0FB01EE0FFF1FEC0DFD1D108211825F
:102B000011968C91119788230CF04CC02BE0A03BC0
:102B1000B20751F038E0A03AB30741F088E0A03B9B
:102B2000B80731F422E005C020E003C021E001C075
:102B300020E030E0C901880F991FF601E80FF91F66
:102B400040815181F801E80FF91F80819181481778
:102B5000590788F0220F331FF601E20FF31F40815F
:102B60005181F801E20FF31F80819181EA01C81BB6
:102B7000D90BCE0112C0C901880F991FF601E80FC9
:102B8000F91F40815181F801E80FF91F208131813F
:102B9000CA0180509C4F821B930BD4E080309D076C
:102BA00008F474CFDF91CF911F910F91FF90EF90B8
:102BB000DF90CF9008952F923F924F925F926F9245
:102BC0007F928F929F92BF92CF92DF92EF92FF926D
:102BD0000F931F93CF93DF936C010F2EF2EA8F2E8A
:102BE000FCE39F2EF02D0F2EF6E96F2EF4E27F2EE0
:102BF000F02D00EA10E30F2EF0EBEF2EF8E0FF2EA1
:102C0000F02DCCEADCE30F2EFCE82F2EF4E23F2E71
:102C1000F02D0F2EFCE94F2EF4E25F2EF02D19C29D
:102C2000D601BC90F801808191818E55974CDC01D2
:102C3000BC92808191810196808391838081918172
:102C4000B4E080309B0710F010821182F70181817F
:102C500085FD1AC032C0E881F98188819981019689
:102C6000888399838881998124E08030920710F0CD
:102C700018821982EE55F74C8081D7018C931196FA
:102C80008C91119785FF19C0F8018081918128816D
:102C900039818217930738F08081918128813981A9
:102CA000821B930B08C080819181288139818050DB
:102CB0009C4F821B930B009771F6F80180819181E4
:102CC000288139818217930738F08081918128818A
:102CD0003981821B930B08C08081918128813981C1
:102CE00080509C4F821B930B009721F0C7010E94DC
:102CF000090E03C0C7010E940E0EBDE0BB1609F00D
:102D00006EC1809193248E3F09F066C1F8018081E5
:102D100091818E55974CE8E1F1E2DC01EC93D8010A
:102D20008D919C91119701968D939C9311978D9104
:102D30009C911197B4E080309B0718F0F801108245
:102D40001182D70111968C91119785FD18C033C05F
:102D5000E881F981888199810196888399838881A6
:102D60009981B4E080309B0710F018821982EE55EB
:102D7000F74C8081F7018083818185FF1CC0D801D9
:102D80008D919C911197288139818217930740F08A
:102D90008D919C91119728813981821B930B09C0D9
:102DA000F801808191812881398180509C4F821B5C
:102DB000930B009769F6D8018D919C91119728810A
:102DC00039818217930740F08D919C91119728814A
:102DD0003981821B930B09C0F80180819181288180
:102DE000398180509C4F821B930B009721F0C701C3
:102DF0000E94090E03C0C7010E940E0ED1012C9142
:102E0000F801808191818E55974CDC012C93808153
:102E1000918101968083918380819181B4E080309B
:102E20009B0710F010821182F701818185FD1AC085
:102E300032C0E881F98188819981019688839983DC
:102E40008881998124E08030920710F018821982DD
:102E5000EE55F74C8081D7018C9311968C91119788
:102E600085FF19C0F80180819181288139818217FD
:102E7000930738F08081918128813981821B930BDF
:102E800008C0808191812881398180509C4F821BAC
:102E9000930B009771F6F801808191812881398127
:102EA0008217930738F08081918128813981821BB4
:102EB000930B08C0808191812881398180509C4F7B
:102EC000821B930B009721F0C7010E94090E03C0DB
:102ED000C7010E940E0EEDE8F4E22081D8018D9129
:102EE0009C9111978E55974CFC0120838D919C915C
:102EF000119701968D939C9311978D919C911197A9
:102F0000F4E080309F0718F01D921C921197D701B2
:102F100011968C91119785FD18C033C0E881F98115
:102F20008881998101968883998388819981B4E009
:102F300080309B0710F018821982EE55F74C808183
:102F4000F7018083818185FF1CC0D8018D919C9100
:102F50001197288139818217930740F08D919C91B8
:102F6000119728813981821B930B09C0F801808158
:102F700091812881398180509C4F821B930B00974F
:102F800069F6D8018D919C9111972881398182171A
:102F9000930740F08D919C91119728813981821B74
:102FA000930B09C0F801808191812881398180507B
:102FB0009C4F821B930B009721F0C7010E94090EC2
:102FC00003C0C7010E940E0E0E945705882339F0E6
:102FD00080E58093942403C08FE4809394248B2D08
:102FE0000E946A05F0EBCF16FBE0DF0661F020EAF5
:102FF000C21628E0D20649F030EBC31638E0D306FB
:1030000031F442E005C040E003C041E001C040E0CF
:1030100050E0CA01880F991FF401E80FF91F2081C1
:103020003181CA01982F8827990F990F820F931F1A
:10303000840D951DDC01BC92808191810196808375
:10304000918380819181B4E080309B0710F01082E1
:103050001182D60111968C91119788230CF04DC0E6
:10306000B0EBCB16BBE0DB0661F0E0EACE16E8E0A1
:10307000DE0649F0F0EBCF16F8E0DF0631F422E08F
:1030800005C020E003C021E001C020E030E0C9011C
:10309000880F991FF401E80FF91F40815181F30156
:1030A000E80FF91F808191814817590788F0220F96
:1030B000331FF401E20FF31F40815181F301E20F4E
:1030C000F31F808191819A01281B390BC90110C01F
:1030D000220F331FF401E20FF31F80819181F3016E
:1030E000E20FF31F2081318180509C4F821B930B94
:1030F00034E08030930708F493CDDF91CF911F9196
:103100000F91FF90EF90DF90CF90BF909F908F90A6
:103110007F906F905F904F903F902F9008951F92F7
:103120000F920FB60F9208B60F9209B60F920BB618
:103130000F9211242F933F934F935F936F937F933D
:103140008F939F93AF93BF93EF93FF9380EB9BE09D
:103150000E94DB15FF91EF91BF91AF919F918F91ED
:103160007F916F915F914F913F912F910F900BBE87
:103170000F9009BE0F9008BE0F900FBE0F901F90CA
:1031800018952BE0803B920751F0E8E0803A9E07CB
:1031900041F0F8E0803B9F0731F482E005C080E019
:1031A00003C081E001C080E090E0880F991FFC011E
:1031B000E456FF4C108211828855934CFC0110821A
:1031C000118208952BE0803B920751F0E8E0803AAD
:1031D0009E0741F0F8E0803B9F0731F482E005C094
:1031E00080E003C081E001C080E090E09C01220FFC
:1031F000331FF901E456FF4C408151812855334C6F
:10320000F901208131814217530780F09C01220F80
:10321000331FF901E456FF4C808191812855334CCE
:10322000F90120813181821B930B08959C01220FAB
:10323000331FF901E456FF4C408151812855334C2E
:10324000F90120813181CA0180509C4F821B930B70
:1032500008952F923F924F925F926F927F928F923A
:103260009F92AF92BF92CF92DF92EF92FF920F9315
:103270001F93CF93DF9300D00F92CDB7DEB76C01D1
:10328000262F372FD9010D900020E9F71197CD0196
:10329000821B930B8B839C83009709F4D3C36983B0
:1032A0007A83222433240F2EFCE96F2EF0E37F2E45
:1032B000F02D0F2EF2EA4F2EF0E35F2EF02D0F2EA1
:1032C000F8EA8F2EFCE39F2EF02D0F2EFEE9EF2E55
:1032D000F0E3FF2EF02DA981BA815D91A983BA8315
:1032E000B0EBCB16BBE0DB0661F0E0EACE16E8E01F
:1032F000DE0649F0F0EBCF16F8E0DF0631F442E0ED
:1033000005C040E003C041E001C040E0642F70E030
:10331000CB01880F991FF301E80FF91F208131813C
:10332000CB01982F8827990F990F820F931F840D37
:10333000951DDC015C93808191810196808391834E
:1033400080819181B4E080309B0710F0108211825F
:10335000442309F4E6C1D60111968C91119785FD9D
:10336000CCC216C3B0EBCB16BBE0DB0661F0E0EAE3
:10337000CE16E8E0DE0649F0F0EBCF16F8E0DF0607
:1033800031F422E005C020E003C021E001C020E0CC
:1033900030E0C901880F991FF401E80FF91F40813F
:1033A0005181808191810196808391838081918177
:1033B00064E08030960710F010821182C901982FC6
:1033C0008827990F990F840F951F840D951DFC0177
:1033D000B080FAEFBF1621F02EEFB21609F011C13E
:1033E000D7018D919C9111978E559B4CFC01A08229
:1033F0008D919C91119701968D939C9311978D912E
:103400009C911197F4E080309F0718F01D921C9258
:103410001197D80111968C91119785FD1FC03FC05F
:10342000AAEABCE3ED91FC9111978D919C911197C3
:1034300001968D939C9311978D919C911197B4E077
:1034400080309B0718F01D921C921197EE55FB4C93
:103450008081F8018083818185FF21C0D7018D9112
:103460009C911197EAEAFCE320813181821793074E
:1034700040F08D919C91119720813181821B930B9B
:103480000CC0D7018D919C911197EAEAFCE3208151
:10349000318180509C4F821B930B009709F6D70116
:1034A0008D919C911197EAEAFCE32081318182178A
:1034B000930740F08D919C91119720813181821B5F
:1034C000930B0CC0D7018D919C911197EAEAFCE314
:1034D0002081318180509C4F821B930B009721F0FB
:1034E000C8010E94090E03C0C8010E940E0ED70138
:1034F0008D919C9111978E559B4CFC01B0828D91C2
:103500009C91119701968D939C9311978D919C910D
:103510001197F4E080309F0718F01D921C921197CC
:10352000D80111968C91119785FD1FC03FC0AAEA62
:10353000BCE3ED91FC9111978D919C9111970196AF
:103540008D939C9311978D919C911197B4E080304D
:103550009B0718F01D921C921197EE55FB4C808131
:10356000F8018083818185FF21C0D7018D919C91D5
:103570001197EAEAFCE3208131818217930740F03A
:103580008D919C91119720813181821B930B0CC0EE
:10359000D7018D919C911197EAEAFCE3208131815A
:1035A00080509C4F821B930B009709F6D7018D9199
:1035B0009C911197EAEAFCE32081318182179307FD
:1035C00040F08D919C91119720813181821B930B4A
:1035D0000CC0D7018D919C911197EAEAFCE3208100
:1035E000318180509C4F821B930B009721F0C801C2
:1035F0000E94090E03C0C8010E940E0EB0929324CF
:1036000096C0D7018D919C9111978E559B4CFC01D2
:10361000B0828D919C91119701968D939C931197F7
:103620008D919C911197F4E080309F0718F01D92C6
:103630001C921197D80111968C91119785FD1FC08E
:103640003FC0AAEABCE3ED91FC9111978D919C914A
:10365000119701968D939C9311978D919C91119741
:10366000B4E080309B0718F01D921C921197EE5524
:10367000FB4C8081F8018083818185FF21C0D701C7
:103680008D919C911197EAEAFCE3208131818217A8
:10369000930740F08D919C91119720813181821B7D
:1036A000930B0CC0D7018D919C911197EAEAFCE332
:1036B0002081318180509C4F821B930B009709F62B
:1036C000D7018D919C911197EAEAFCE32081318129
:1036D0008217930740F08D919C9111972081318141
:1036E000821B930B0CC0D7018D919C911197EAEA34
:1036F000FCE32081318180509C4F821B930B00970B
:1037000021F0C8010E94090E03C0C8010E940E0EDC
:10371000FDE0BF1619F42EE420939424D601BC9248
:1037200006C00F2EFBE2AF2EF02D00EA18E0F601E6
:10373000818185FF4FC0F0EBCF16FBE0DF0661F023
:1037400020EAC21628E0D20649F030EBC31638E072
:10375000D30631F422E005C020E003C021E001C01F
:1037600020E030E0C901880F991FF301E80FF91F2D
:1037700040815181F401E80FF91F80819181481740
:10378000590788F0220F331FF301E20FF31F408126
:103790005181F401E20FF31F80819181DA01A81BAE
:1037A000B90BCD0110C0220F331FF301E20FF31F3D
:1037B00080819181F401E20FF31F208131818050DB
:1037C0009C4F821B930B009729F0809194248235A3
:1037D00009F4C8CDC6010E940E0EB0EBCB16BBE0BB
:1037E000DB0661F0E0EACE16E8E0DE0649F0F0EB39
:1037F000CF16F8E0DF0631F422E005C020E003C078
:1038000021E001C020E030E0C901880F991FF301D9
:10381000E80FF91F40815181F401E80FF91F808101
:1038200091814817590788F0220F331FF301E20FE7
:10383000F31F40815181F401E20FF31F80819181D8
:103840009A01281B390BC90110C0220F331FF30145
:10385000E20FF31F80819181F401E20FF31F2081B9
:10386000318180509C4F821B930B009709F4E1C07B
:1038700080919424823509F0DCC0C6010E94090EB3
:10388000D8C030EBC3163BE0D30661F060EAC61641
:1038900068E0D60649F080EBC81688E0D80631F417
:1038A00022E005C020E003C021E001C020E030E0BC
:1038B000C901880F991FF401E80FF91F4081518158
:1038C0008081918101968083918380819181A4E0A0
:1038D00080309A0710F010821182C901982F882732
:1038E000990F990F840F951F840D951DDC018C9104
:1038F000F6018083818185FF4BC0F0EBCF16FBE0A2
:10390000DF0661F020EAC21628E0D20649F030EB6B
:10391000C31638E0D30631F422E005C020E003C02E
:1039200021E001C020E030E0C901880F991FF301B8
:10393000E80FF91F40815181F401E80FF91F8081E0
:1039400091814817590788F0220F331FF301E20FC6
:10395000F31F40815181F401E20FF31F80819181B7
:10396000DA01A81BB90BCD0110C0220F331FF301E0
:10397000E20FF31F80819181F401E20FF31F208198
:10398000318180509C4F821B930B009709F079CFB7
:10399000B0EBCB16BBE0DB0661F0E0EACE16E8E068
:1039A000DE0649F0F0EBCF16F8E0DF0631F422E056
:1039B00005C020E003C021E001C020E030E0C901E3
:1039C000880F991FF301E80FF91F40815181F4011D
:1039D000E80FF91F808191814817590788F0220F5D
:1039E000331FF301E20FF31F40815181F401E20F15
:1039F000F31F808191819A01281B390BC90110C0E6
:103A0000220F331FF301E20FF31F80819181F40134
:103A1000E20FF31F2081318180509C4F821B930B5A
:103A2000009721F0C6010E94090E03C0C6010E9442
:103A30000E0E0894211C311C8B819C81281639069E
:103A400009F049CC2496CDBFDEBFDF91CF911F9105
:103A50000F91FF90EF90DF90CF90BF90AF909F902D
:103A60008F907F906F905F904F903F902F90089530
:103A70003F924F925F926F927F928F929F92AF92FE
:103A8000BF92CF92DF92EF92FF920F931F93CF934B
:103A9000DF936C012BE0803B920759F038E0803ACD
:103AA000930749F080EBC81688E0D80631F442E06D
:103AB00005C040E003C041E001C040E0C42FD0E0B9
:103AC000FE01EE0FFF1FE456FF4C20813181CE0135
:103AD000982F8827990F990F820F931FDC01AE55FD
:103AE000BF4C6C938081918101968083918380810A
:103AF0009181E4E080309E0730F0CC0FDD1FC4568A
:103B0000DF4C18821982442309F495C1F6018181A2
:103B100085FDA1C2F3C2F0EBCF16FBE0DF0661F03A
:103B200020EAC21628E0D20649F030EBC31638E08E
:103B3000D30631F422E005C020E003C021E001C03B
:103B400020E030E0C901880F991FF401E80FF91F48
:103B50004081518180819181019680839183808110
:103B6000918164E08030960710F010821182C901C3
:103B7000982F8827990F990F840F951F840D951DF5
:103B8000FC01B080FAEFBF1621F02EEFB21609F05B
:103B9000DDC0F801808191818E559B4CFC01A08293
:103BA000F801808191810196808391838081918148
:103BB000F4E080309F0718F0F80110821182F701BD
:103BC000818185FD18C031C0E881F98188819981A2
:103BD0000196888399838881998124E080309207B7
:103BE00010F018821982EE55FB4C8081F70180831A
:103BF000818185FF1AC0F8018081918128813981F6
:103C00008217930738F08081918128813981821B46
:103C1000930B09C0F80180819181288139818050FE
:103C20009C4F821B930B009779F6F801808191815C
:103C3000288139818217930738F08081918128810A
:103C40003981821B930B09C0F80180819181288101
:103C5000398180509C4F821B930B009721F0C70144
:103C60000E94090E03C0C7010E940E0EF801808158
:103C700091818E559B4CFC01B082F801808191812D
:103C800001968083918380819181F4E080309F0749
:103C900018F0F80110821182F701818185FD18C0AA
:103CA00031C0E881F981888199810196888399835F
:103CB0008881998124E08030920710F0188219825F
:103CC000EE55FB4C8081F7018083818185FF1AC00E
:103CD000F80180819181288139818217930738F01A
:103CE0008081918128813981821B930B09C0F80161
:103CF000808191812881398180509C4F821B930B58
:103D0000009779F6F80180819181288139818217A5
:103D1000930738F08081918128813981821B930B30
:103D200009C0F801808191812881398180509C4FA0
:103D3000821B930B009721F0C7010E94090E03C05C
:103D4000C7010E940E0EB092932499C0F8018081A1
:103D500091818E559B4CFC01B082F801808191814C
:103D600001968083918380819181F4E080309F0768
:103D700018F0F80110821182F701818185FD18C0C9
:103D800031C0E881F981888199810196888399837E
:103D90008881998124E08030920710F0188219827E
:103DA000EE55FB4C8081F7018083818185FF1AC02D
:103DB000F80180819181288139818217930738F039
:103DC0008081918128813981821B930B09C0F80180
:103DD000808191812881398180509C4F821B930B77
:103DE000009779F6F80180819181288139818217C5
:103DF000930738F08081918128813981821B930B50
:103E000009C0F801808191812881398180509C4FBF
:103E1000821B930B009721F0C7010E94090E03C07B
:103E2000C7010E940E0EFDE0BF1611F430929424DB
:103E3000F601B08224C00F2EFCE96F2EF0E37F2E36
:103E4000F02D0F2EF8EA8F2EFCE39F2EF02D0F2E73
:103E5000F2EA4F2EF0E35F2EF02D0EE910E30F2E65
:103E6000FBE2AF2EF02D0F2EF0EAEF2EF8E0FF2E42
:103E7000F02DCAEADCE30F2EFEE43F2EF02DF60112
:103E8000818185FF4FC0F0EBCF16FBE0DF0661F0CC
:103E900020EAC21628E0D20649F030EBC31638E01B
:103EA000D30631F422E005C020E003C021E001C0C8
:103EB00020E030E0C901880F991FF301E80FF91FD6
:103EC00040815181F401E80FF91F808191814817E9
:103ED000590788F0220F331FF301E20FF31F4081CF
:103EE0005181F401E20FF31F80819181FA01E81BF7
:103EF000F90BCF0110C0220F331FF301E20FF31FA4
:103F000080819181F401E20FF31F20813181805083
:103F10009C4F821B930B009729F08091942482354B
:103F200009F4F9CDC6010E940E0EF0EBCF16FBE0AE
:103F3000DF0661F020EAC21628E0D20649F030EB35
:103F4000C31638E0D30631F422E005C020E003C0F8
:103F500021E001C020E030E0C901880F991FFC0179
:103F6000E456FF4C408151818855934CFC0180817F
:103F700091814817590778F0220F331FF901E45651
:103F8000FF4C408151812855334CF901808191814A
:103F9000481B590B10C0220F331FF901E456FF4C88
:103FA000408151812855334CF901808191814050E5
:103FB0005C4F481B590B4115510509F4EFC0809126
:103FC0009424823509F0EAC0C6010E94090EE6C0B9
:103FD000F0EBCF16FBE0DF0661F020EAC21628E026
:103FE000D20649F030EBC31638E0D30631F422E0B4
:103FF00005C020E003C021E001C020E030E0C9019D
:10400000880F991FFB01E80FF91F408151818081C2
:10401000918101968083918380819181E4E0803059
:104020009E0740F0C901880F991F860F971FFC015A
:1040300010821182C901982F8827990F990F840F38
:10404000951FFE01E80FF91F8081F60180838181B1
:1040500085FD07C053C0ACE9B0E368EA7CE3C2EA7F
:10406000D0E3F0EBCF16FBE0DF0661F020EAC216EA
:1040700028E0D20649F030EBC31638E0D30631F41D
:1040800022E005C020E003C021E001C020E030E0D4
:10409000C901880F991FFD01E80FF91F4081518167
:1040A000FB01E80FF91F808191814817590788F0BB
:1040B000220F331FFD01E20FF31F40815181FB01ED
:1040C000E20FF31F80819181FA01E81BF90BCF0108
:1040D00012C0C901880F991FFD01E80FF91F408127
:1040E0005181FB01E80FF91F20813181CA01805005
:1040F0009C4F821B930B009709F06ACFF0EBCF1611
:10410000FBE0DF0661F020EAC21628E0D20649F0A3
:1041100030EBC31638E0D30631F422E005C020E0CE
:1041200003C021E001C020E030E0C901880F991FE1
:10413000FC01E456FF4C408151818855934CFC01B1
:10414000808191814817590778F0220F331FF901B8
:10415000E456FF4C408151812855334CF901808150
:104160009181481B590B10C0220F331FF901E456EF
:10417000FF4C408151812855334CF9018081918158
:1041800040505C4F481B590B4115510521F0C601A9
:104190000E94090E03C0C6010E940E0EDF91CF914E
:1041A0001F910F91FF90EF90DF90CF90BF90AF9055
:1041B0009F908F907F906F905F904F903F90089569
:1041C0002BE0803B920751F068E0803A960741F07F
:1041D00028E0803B920731F422E005C020E003C0D4
:1041E00021E001C020E030E0F901EE0FFF1FE855AB
:1041F000F34C40815181808191810196808391832C
:104200008081918164E08030960738F0F901EE0FEB
:10421000FF1FE855F34C10821182F901FE2FEE27A3
:10422000FF0FFF0F4E0F5F1FFA01EE55FF4C80810D
:1042300008952BE0803B920751F0E8E0803A9E071A
:1042400041F0F8E0803B9F0731F482E005C080E058
:1042500003C081E001C080E090E0880F991FFC015D
:10426000EE55F34C108211828A569B4DFC01108250
:1042700011820895CF93DF93EC010E94C118CE0103
:104280000E941921CE010E94FF0DCE010E94090E4D
:10429000DF91CF91089580EA98E00E943A2180EB67
:1042A00098E00E943A2180EB9BE00E943A21089519
:1042B0002BE0803B920751F0E8E0803A9E0741F006
:1042C000F8E0803B9F0731F482E005C080E003C046
:1042D00081E001C080E090E09C01220F331FF901D2
:1042E000EE55F34C408151812A563B4DF901208116
:1042F00031814217530780F09C01220F331FF901CF
:10430000EE55F34C808191812A563B4DF901208175
:104310003181821B930B08959C01220F331FF901F9
:10432000EE55F34C408151812A563B4DF9012081D5
:104330003181CA0180509C4F821B930B08952BE062
:10434000803B920751F028E0803A920741F028E044
:10435000803B920731F442E005C040E003C041E0F9
:1043600001C040E050E0FA01EE0FFF1FEE55F34CA4
:10437000808191819A01322F2227330F330F820FD0
:10438000931FDC01A456BB4D6C93808191810196F3
:10439000808391838081918124E08030920738F07E
:1043A000FA01EE0FFF1FEE55F34C108211820895B3
:1043B0002BE0803B920751F068E0803A960741F08D
:1043C00028E0803B920731F422E005C020E003C0E2
:1043D00021E001C020E030E0F901EE0FFF1FEA56B6
:1043E000FB4D408151818081918101968083918331
:1043F0008081918164E08030960738F0F901EE0FFA
:10440000FF1FEA56FB4D10821182F901FE2FEE27A5
:10441000FF0FFF0F4E0F5F1FFA01E456FB4D808127
:1044200008953F924F925F926F927F928F929F92E8
:10443000AF92BF92CF92DF92EF92FF920F931F93B2
:10444000CF93DF9320919C3030919D308091A83C98
:104450009091A93C2817390758F080919C30909191
:104460009D302091A83C3091A93C821B930B0CC03D
:1044700080919C3090919D302091A83C3091A93C36
:1044800080509C4F821B930B009709F410C28DC182
:10449000D501ED91FC9111978D919C911197019609
:1044A0008D939C9311978D919C911197B4E08030DE
:1044B0009B0720F0D5011D921C921197E40DF51D6C
:1044C000D080BAEFDB1621F0EEEFDE1609F0EFC078
:1044D000D8018D919C9111978E559B4CFC01C08207
:1044E0008D919C91119701968D939C9311978D912D
:1044F0009C911197F4E080309F0718F01D921C9258
:104500001197D70111968C91119785FD18C033C072
:10451000E881F981888199810196888399838881CE
:104520009981B4E080309B0710F018821982EE5513
:10453000FB4C8081F7018083818185FF1CC0D801FD
:104540008D919C911197288139818217930740F0B2
:104550008D919C91119728813981821B930B09C001
:10456000F801808191812881398180509C4F821B84
:10457000930B009769F6D8018D919C911197288132
:1045800039818217930740F08D919C911197288172
:104590003981821B930B09C0F801808191812881A8
:1045A000398180509C4F821B930B009721F0C701EB
:1045B0000E94090E03C0C7010E940E0ED8018D9102
:1045C0009C9111978E559B4CFC01D0828D919C91B2
:1045D000119701968D939C9311978D919C911197B2
:1045E000F4E080309F0718F01D921C921197D701BC
:1045F00011968C91119785FD18C033C0E881F9811F
:104600008881998101968883998388819981B4E012
:1046100080309B0710F018821982EE55FB4C808188
:10462000F7018083818185FF1CC0D8018D919C9109
:104630001197288139818217930740F08D919C91C1
:10464000119728813981821B930B09C0F801808161
:1046500091812881398180509C4F821B930B009758
:1046600069F6D8018D919C91119728813981821723
:10467000930740F08D919C91119728813981821B7D
:10468000930B09C0F8018081918128813981805084
:104690009C4F821B930B009721F0C7010E94090ECB
:1046A00003C0C7010E940E0ED0929324A8C0D80167
:1046B0008D919C9111978E559B4CFC01D0828D91D0
:1046C0009C91119701968D939C9311978D919C913C
:1046D0001197F4E080309F0718F01D921C921197FB
:1046E000D70111968C91119785FD18C033C0E881D0
:1046F000F98188819981019688839983888199813C
:10470000B4E080309B0710F018821982EE55FB4C04
:104710008081F7018083818185FF1CC0D8018D9144
:104720009C911197288139818217930740F08D91D0
:104730009C91119728813981821B930B09C0F80144
:10474000808191812881398180509C4F821B930BFD
:10475000009769F6D8018D919C9111972881398134
:104760008217930740F08D919C9111972881398190
:10477000821B930B09C0F8018081918128813981C6
:1047800080509C4F821B930B009721F0C7010E9421
:10479000090E03C0C7010E940E0EFDE0DF1611F4E2
:1047A00030929424D301DC922AC00F2EF0EB6F2EAE
:1047B000FBE07F2EF02D0F2EFCE98F2EF0E39F2ED5
:1047C000F02D0F2EF8EAAF2EFCE3BF2EF02D0F2EAA
:1047D000F2EA4F2EF0E35F2EF02D0EE910E30F2EDC
:1047E000FBE2CF2EF02D0F2EF0EAEF2EF8E0FF2E99
:1047F000F02DCAEADCE30F2EFEE43F2EF02DF3018C
:10480000818185FF24C0D4018D919C911197F50180
:10481000208131818217930740F08D919C911197EF
:1048200020813181821B930B0BC0D4018D919C910F
:104830001197F5012081318180509C4F821B930B91
:10484000009729F080919424823509F421CE80EBE1
:104850009BE00E940E0E20919C3030919D30809103
:10486000A83C9091A93C2817390758F080919C30BA
:1048700090919D302091A83C3091A93C821B930BD4
:104880000CC080919C3090919D302091A83C30913B
:10489000A93C80509C4F821B930B009741F0809164
:1048A0009424823521F480EB9BE00E94090EDF9175
:1048B000CF911F910F91FF90EF90DF90CF90BF901D
:1048C000AF909F908F907F906F905F904F903F90B0
:1048D0000895813061F0813018F08230A9F40EC063
:1048E0008FEF90E0E0E0FBE080AF91AF08958FEFB5
:1048F00090E0E0E0FBE082AF93AF08958FEF90E0AF
:1049000080933E0B90933F0B0895813051F081309E
:1049100018F0823079F40AC0E0E0FBE010AE11AE8E
:104920000895E0E0FBE012AE13AE089510923E0B46
:1049300010923F0B0895813059F0813018F0823089
:1049400091F40CC070E0E0E0FBE060AF71AF08955F
:1049500070E0E0E0FBE062AF73AF089570E0609359
:104960003E0B70933F0B0895813059F0813018F061
:10497000823091F40CC0E0E0FBE080A5809580A738
:104980000895E0E0FBE082A5809582A70895E0E02D
:10499000FBE086A5809586A7089590E0E0E0FBE027
:1049A00084AF95AF0895CF93DF93E0EAF6E08FE010
:1049B000818380E4808B818B838BC0E0DBE087E0A8
:1049C000888383EF89838FEF90E08EA39FA380E09D
:1049D0000E94CD2418AE19AE1AAE1BAE10923E0B3B
:1049E00010923F0BDF91CF9108958091AF3C8150A1
:1049F0008093AF3C85E280931A2185E08093B03CA0
:104A00008091AE3C0E94CD240895882349F0809384
:104A1000AF3C6115710521F06093AE3C0E94F52416
:104A2000089580911A21853219F0863219F518C03F
:104A30008091B03C81508093B03C8823F1F40E9477
:104A4000CD248091AF3C882321F484E280931A2105
:104A5000089586E280931A2182E38093B03C089502
:104A60008091B03C81508093B03C882331F40E9407
:104A7000F524089580E00E94CD240895A1E21A2E25
:104A8000AA1BBB1BFD010DC0AA1FBB1FEE1FFF1FF2
:104A9000A217B307E407F50720F0A21BB30BE40B42
:104AA000F50B661F771F881F991F1A9469F7609589
:104AB0007095809590959B01AC01BD01CF01089543
:044AC000F894FFCF98
:104AC40048656C6C6F20576F726C642E2E2E004EEE
:104AD4006F21204920726566757365210037352082
:104AE40031203132333400373520313120353637F7
:104AF4003800373520322038373635003735203204
:104B04003120343332310052554E204D5F4F5554CD
:104B14000052554E204D5F4354524C0052554E2086
:104B24004D5F434F4E0000FFFF434F4C4F52203622
:104B34003900434F4C4F5220313600434952434CC5
:104B440045203130204600434F4C4F5220574849AE
:104B5400544500434952434C4520313000415243AF
:104B64002038203132352031343500434F4C4F52F8
:104B740020424C554500424F5820333020333020DA
:104B840046005859203336352031393900585920D8
:104B940033383020323039005859203336352031FB
:104BA40035310058592033383020313631005859C6
:104BB40020333635203130330058592033383020F3
:104BC40031313300585920333635203535005859A2
:0C4BD40020333830203635002B00240040
:00000001FF
