:100000000C94FA000C941F010C941F010C941F0116
:100010000C941F010C941F010C941F010C941F01E0
:100020000C941F010C941F010C941F010C941F01D0
:100030000C941F010C941F010C941F010C941F01C0
:100040000C941F010C941F010C941F010C941F01B0
:100050000C941F010C941F010C941F010C941F01A0
:100060000C941F010C9429180C94BC190C941F01BA
:100070000C9497180C9419190C941F010C941F01DF
:100080000C941F010C941F010C941F010C941F0170
:100090000C941F010C941F010C941F010C941F0160
:1000A0000C941F010C941F010C941F010C941F0150
:1000B0000C941F010C941F010C941F010C941F0140
:1000C0000C941F010C941F010C941F010C941F0130
:1000D0000C941F010C941F010C941F010C941F0120
:1000E0000C941F010C941F010C941F010C941F0110
:1000F0000C941F010C941F010C941F010C941F0100
:100100000C941F010C941F010C941F010C941F01EF
:100110000C941F010C941F010C941F010C941F01DF
:100120000C941F010C941F010C941F010C941F01CF
:100130000C941F010C941F010C941F010C941F01BF
:100140000C941F010C941F010C941F010C941F01AF
:100150000C941F010C941F010C941F010C94DC10D3
:100160000C941F010C941F010C941F010C941F018F
:100170000C941F010C941F010C941F010C941F017F
:100180000C941F010C941F010C941F010C941F016F
:100190000C94C3120C942B130C941F010C941F018C
:1001A0000C941F010C941F010C941F010C941F014F
:1001B0000C941F010C941F010C941F010C941F013F
:1001C0000C941F010C941F010C941F010C941F012F
:1001D0000C941F010C941F010C941F010C941F011F
:1001E0000C941F010C941F010C942B1F0C94591D8F
:1001F0000C941F0111241FBECFEFDFE3DEBFCDBF84
:1002000000E00CBF18BE19BE1ABE1BBE12E2A0E071
:10021000B0E2EAEEFEE500E00BBF02C007900D92EF
:10022000A431B107D9F71EE3A4E1B2E201C01D92E7
:10023000A83DB107E1F70E9402120C94732F0C94B1
:100240000000AAECB1E092E09C93E82FF0E08491EA
:100250001C92089580FF10C0E0E0F2E011A228E0B7
:1002600021A790E191AB88E181AFE0E4F2E011A237
:1002700021A791AB81AF0895E0E0F2E030E231A335
:1002800028E221A790E391AB88E381AFE0E4F2E0BC
:1002900031A321A791AB81AF0895E0E0F2E0808126
:1002A0008C638083E0E4F2E080818C638083089536
:1002B000CF92DF92EF92FF920F931F93CF93DF9332
:1002C00080E20E942101C0E0D2E08C8781E20E949E
:1002D00021018D870F2EF7E0EF2EF02DEC820F2EEF
:1002E000F3E1DF2EF02DDA820F2EF6E0CF2EF02D87
:1002F000C982FF24F394F882F8A2F8A6F8AAF8AE0F
:1003000084E20E94210100E412E0F801848785E282
:100310000E942101F8018587E482D282C182F082A5
:10032000F0A2F0A6F0AAF0AE1092862610928526D2
:1003300080E00E942A01888182608883F80181819F
:10034000826081830E944D01DF91CF911F910F91B7
:10035000FF90EF90DF90CF900895CF92DF92EF92D1
:10036000FF92CF93DF936B017C01E901BA0180E03A
:1003700090E00E94D22DA70196010E94842E0E9437
:10038000A12DDC01CB01BE014AE050E00E94E72E26
:10039000DF91CF91FF90EF90DF90CF900895EF9293
:1003A000FF920F931F93CF93DF937A01A82FB0E0B2
:1003B000AD0142955295507F5427407F5427FA0152
:1003C000EB57FA4D4B565A4D80E090E02191319118
:1003D000820F931FE417F507C9F7969587959695B1
:1003E000879596958795683651F06A3671F067362D
:1003F000E1F4813A910510F1815A904021C0843B8B
:10040000910588F0845B904032C01197AE7FA65E64
:10041000BD4D2D913C9111978217930708F45AC056
:10042000821B930B59C080E090E0683601F16A3678
:1004300009F452C0673609F05FC002C080E090E066
:10044000BC0180E090E00E94D22D27E938EA4FEF0E
:1004500059E30E94842E25E83BEE41E551E40E94D9
:10046000842E44E650E097010E94AD0145C0BC01D6
:1004700080E090E00E94D22D27E938EA4FEF59E35F
:100480000E94842E25E83BEE41E551E40E94842E33
:10049000062F172FD82FC92F862F912FAD2FBC2FA6
:1004A000BC01CD012DEC3CEC4CE050E40E94352D1C
:1004B000882324F400E010E0D0E0C0E0802F912FEA
:1004C000AD2FBC2FBC01CD0144E650E097010E9446
:1004D000AD0112C080E090E0BC0180E090E00E949D
:1004E000D22D23E730E34BE15AE30E94842E48EEFD
:1004F00053E097010E94AD01DF91CF911F910F91C1
:10050000FF90EF900895482F50E042955295507F0C
:100510005427407F5427FA01EB57FA4D4B565A4D5A
:1005200020E030E0819191912817390708F49C016F
:10053000E417F507B9F7822F932F089592958295C6
:100540008F7089279F708927813A910510F481EA7D
:1005500090E00895DF92EF92FF920F931F93CF9355
:10056000DF93E0E0F2E086818F3009F016C1E0E42D
:10057000F2E086818F3009F010C18091862680FFDD
:1005800071C00091852610E0C0E0D2E08889998989
:100590000E949E020F2EF5E8EF2EF5E2FF2EF02DC1
:1005A000F801EE0FFF1FEE0DFF1D808391838A89F6
:1005B0009B890E949E02F8013896EE0FFF1FEE0DF8
:1005C000FF1D808391838C899D890E949E02F80182
:1005D0007096EE0FFF1FEE0DFF1D808391838E89B5
:1005E0009F890E949E02F8017896EE0FFF1FEE0D84
:1005F000FF1D80839183C0E4D2E08CA19DA10E9465
:100600009E02F801E05CFF4FEE0FFF1FEE0DFF1D95
:10061000808391838CA59DA50E949E02F801E85BD2
:10062000FF4FEE0FFF1FEE0DFF1D808391838CA9FE
:100630009DA90E949E02F801E05BFF4FEE0FFF1F95
:10064000EE0DFF1D808391838CAD9DAD0E949E02B7
:10065000085A1F4F000F111FE00EF11EF701808393
:1006600091837AC0D09085260D2D10E0C0E0D2E0B5
:100670008CA19DA10E949E02F801B0960F2EF5E874
:10068000EF2EF5E2FF2EF02DEE0FFF1FEE0DFF1DFA
:10069000808391838CA59DA50E949E02F801B89647
:1006A000EE0FFF1FEE0DFF1D808391838CA99DA986
:1006B0000E949E02F801F096EE0FFF1FEE0DFF1D47
:1006C000808391838CAD9DAD0E949E02F801F896C7
:1006D000EE0FFF1FEE0DFF1D80839183C0E4D2E07B
:1006E0008CA19DA10E949E02F801E05AFF4FEE0FDF
:1006F000FF1FEE0DFF1D808391838A899B890E94D5
:100700009E02F801E859FF4FEE0FFF1FEE0DFF1D8F
:10071000808391838C899D890E949E02F801E05913
:10072000FF4FEE0FFF1FEE0DFF1D808391838E891B
:100730009F890E949E0208581F4F000F111FE00E54
:10074000F11EF701808391838D2D8F5F8093852625
:10075000883010F0109285268FE0E0E0F2E086838A
:10076000E0E4F2E08683809186268F5F8093862680
:100770000E942A010E944D0180918425893269F4EA
:10078000CAE1D2E200E0802F880F8F5F0E948302CF
:10079000899399930F5F0830B1F7DF91CF911F9143
:1007A0000F91FF90EF90DF90089580918325823222
:1007B00089F4809114228F5F8093142280FF05C0FA
:1007C00080E090E20E94860C08958FE090E20E9403
:1007D000860C08958DE190E20E94620B87E290E220
:1007E0000E94620B82E390E20E94620B8CE390E233
:1007F0000E94620B08951092822589E280938425DD
:100800008AE30E949B1185E00E946F0908950E946F
:10081000FB038FE180938325089580E280938325F5
:1008200087E490E20E94620B0895CF93C82F81E085
:1008300064E670E00E94FC2CCF3019F0C03101F565
:1008400010C083E28093832580E590E20E94620BD2
:100850008CE590E20E94620B84E690E20E94620BBB
:100860000FC084E28093832580E590E20E94620BB2
:100870008CE690E20E94620B84E790E20E94620B99
:10088000CF91089581E2809383258CE790E20E94C6
:10089000620B0895CF93C82F81E064E670E00E9458
:1008A000FC2C86E890E20E94620B8FEF8093AC26CE
:1008B000C23191F0C33118F4C13129F505C0C331FB
:1008C00099F0C43101F518C085E28093832580E951
:1008D00090E20E94620B17C086E28093832588E92C
:1008E00090E20E94620B0FC087E28093832580EA2A
:1008F00090E20E94620B07C088E28093832588EA19
:1009000090E20E94620BCF910895CF93C82F81E0AF
:1009100064E670E00E94FC2CC0939726C13619F063
:10092000C23651F405C080EB90E20E94620B04C015
:1009300089EB90E20E94620BCF91089582E280934E
:10094000832582EC90E20E94620B089580918325BA
:100950008052823008F054C08091822580FD04C00E
:1009600081E20E94E20B0DC080918425893221F43E
:1009700080E20E94E20B05C08A3219F48FE10E94E6
:10098000E20B8091822581FD04C081E20E94CE0BA2
:100990000DC080918425893221F480E20E94CE0B23
:1009A00005C08A3219F48FE10E94CE0B8091822516
:1009B00082FD04C081E20E94BA0B0DC080918425A3
:1009C000893221F480E20E94BA0B05C08A3219F400
:1009D0008FE10E94BA0B8091822583FD04C081E2E1
:1009E0000E94A60B089580918425893221F480E22B
:1009F0000E94A60B08958A3219F48FE10E94A60B7B
:100A00000895CF93C82F81E064E670E00E94FC2C2B
:100A100080EB9BE00E94C32982E58093AB2685E1B1
:100A2000809399268BEC90E20E94620BC03269F0B1
:100A3000C13218F4CF3189F405C0C13249F0C23255
:100A400061F409C00E940D0408C00E940D0405C095
:100A50000E94420402C00E949E040E94A604CF91FC
:100A60000895682F809183258232C1F1833240F44A
:100A70008032D1F0813228F58F3109F077C010C073
:100A8000863209F447C0873220F4853209F06EC0FF
:100A900032C0873209F44DC0883209F067C058C0AF
:100AA00080E20E94010508956E3221F481E20E94E5
:100AB000010508956D3209F059C082E20E940105D6
:100AC00008956E3221F482E20E94010508956D328C
:100AD00009F04CC080E20E94010508956E3221F4B5
:100AE00080E20E94010508956D3209F03FC081E265
:100AF0000E940105089580919726813619F082366B
:100B0000A9F504C080E00E943510089581E00E949C
:100B10003510089580919726813619F0823631F587
:100B200004C082E00E943510089583E00E943510D1
:100B3000089580919726813619F08236B9F404C061
:100B400084E00E943510089585E00E9435100895D4
:100B500080919726813619F0823641F404C086E0F0
:100B60000E943510089587E00E9435100895809105
:100B700083258F3119F480E00E943105089580911A
:100B800084258A3289F489E2809384258AE30E944D
:100B90009B118AE30E94DE0F85E00E946F0981E0CD
:100BA000E0EEF6E0868312C0893281F48AE2809317
:100BB00084258CE30E9465118CE30E94AE0F85E0D2
:100BC0000E94430981E0E0EEF6E085830E94A604DE
:100BD0000895CF93C82F81E090E00C2E02C0880FBB
:100BE000991F0A94E2F790918225892780938225A4
:100BF00090E00C2E02C0959587950A94E2F780FD4F
:100C00000AC08C2F0E949B118C2F0E94DE0F8C2F0C
:100C10000E946F090DC08C2F0E944309809184258A
:100C20008A3231F48C2F0E9465118C2F0E94AE0FF6
:100C30000E94A604CF910895CF93DF93CDB7DEB77E
:100C40002C97CDBFDEBF8091152290911622019680
:100C5000809315229093162221E0843F920708F496
:100C6000C8C21092152210921622809183258432D8
:100C700009F4FBC0853250F4813209F467C1833234
:100C800009F482C0803209F0B4C20DC0863209F482
:100C900004C2863208F4C3C1873209F438C28832EC
:100CA00009F0A7C26EC280E067E6AE014F5F5F4FFA
:100CB0000E94CF018CEC90E2BE016F5F7F4F0E94DB
:100CC000F60B81E06AE6AE014F5F5F4F0E94CF01F5
:100CD00082ED90E2BE016F5F7F4F0E94F60B84E0D1
:100CE00067E6AE014F5F5F4F0E94CF0189ED90E252
:100CF000BE016F5F7F4F0E94F60B85E06AE6AE0192
:100D00004F5F5F4F0E94CF018FED90E2BE016F5F9A
:100D10007F4F0E94F60B88E067E6AE014F5F5F4FA2
:100D20000E94CF0186EE90E2BE016F5F7F4F0E946E
:100D3000F60B89E06AE6AE014F5F5F4F0E94CF017C
:100D40008CEE90E2BE016F5F7F4F0E94F60B8CE04D
:100D500067E6AE014F5F5F4F0E94CF0183EF90E2E5
:100D6000BE016F5F7F4F0E94F60B8DE06AE6AE0119
:100D70004F5F5F4F0E94CF0189EF90E2BE016F5F2E
:100D80007F4F0E94F60B35C280E067E6AE014F5FF1
:100D90005F4F0E94CF0180E091E2BE016F5F7F4F05
:100DA0000E94F60B81E06AE6AE014F5F5F4F0E9442
:100DB000CF0187E091E2BE016F5F7F4F0E94F60B8B
:100DC00082E068E6AE014F5F5F4F0E94CF018EE088
:100DD00091E2BE016F5F7F4F0E94F60B83E06AE6EF
:100DE000AE014F5F5F4F0E94CF0186E191E2BE01ED
:100DF0006F5F7F4F0E94F60B84E067E6AE014F5FA6
:100E00005F4F0E94CF018EE191E2BE016F5F7F4F85
:100E10000E94F60B85E06AE6AE014F5F5F4F0E94CD
:100E2000CF0185E291E2BE016F5F7F4F0E94F60B1A
:100E300086E068E6AE014F5F5F4F0E94CF018CE213
:100E400091E2BE016F5F7F4F0E94F60B87E06AE67A
:100E5000AE014F5F5F4F0E94CF0184E391E2BE017C
:100E60006F5F7F4F0E94F60BC4C188E067E6AE015A
:100E70004F5F5F4F0E94CF0180E091E2BE016F5F44
:100E80007F4F0E94F60B89E06AE6AE014F5F5F4F2D
:100E90000E94CF0187E091E2BE016F5F7F4F0E9409
:100EA000F60B8AE068E6AE014F5F5F4F0E94CF010C
:100EB0008EE091E2BE016F5F7F4F0E94F60B8BE0E8
:100EC0006AE6AE014F5F5F4F0E94CF0186E191E27B
:100ED000BE016F5F7F4F0E94F60B8CE067E6AE01AC
:100EE0004F5F5F4F0E94CF018EE191E2BE016F5FC5
:100EF0007F4F0E94F60B8DE06AE6AE014F5F5F4FB9
:100F00000E94CF0185E291E2BE016F5F7F4F0E9498
:100F1000F60B8EE068E6AE014F5F5F4F0E94CF0197
:100F20008CE291E2BE016F5F7F4F0E94F60B8FE073
:100F30006AE6AE014F5F5F4F0E94CF0184E391E20A
:100F4000BE016F5F7F4F0E94F60B53C180E0BE0170
:100F50006F5F7F4F0E9492108CEC90E2BE016F5F3A
:100F60007F4F0E94F60B81E0BE016F5F7F4F0E94B2
:100F7000921082ED90E2BE016F5F7F4F0E94F60BF0
:100F800082E0BE016F5F7F4F0E94921089ED90E278
:100F9000BE016F5F7F4F0E94F60B83E0BE016F5F63
:100FA0007F4F0E9492108FED90E2BE016F5F7F4FE6
:100FB0000E94F60B84E0BE016F5F7F4F0E9492108B
:100FC00086EE90E2BE016F5F7F4F0E94F60B85E0D8
:100FD000BE016F5F7F4F0E9492108CEE90E2BE01C7
:100FE0006F5F7F4F0E94F60B86E0BE016F5F7F4F01
:100FF0000E94921083EF90E2BE016F5F7F4F0E94CC
:10100000F60B87E0BE016F5F7F4F0E94921089EF61
:1010100090E2BE016F5F7F4F0E94F60BEAC08091A5
:10102000AC2690E083709070181619060CF0E1C0A1
:1010300080E0BE016F5F7F4F0E94CF108CE391E292
:10104000BE016F5F7F4F0E94F60B81E0BE016F5FB4
:101050007F4F0E94CF1083E491E2BE016F5F7F4F0C
:101060000E94F60B80E0BE016F5F7F4F0E949210DE
:101070008AE491E2BE016F5F7F4F0E94F60B81E030
:10108000BE016F5F7F4F0E94921081E591E2BE0129
:101090006F5F7F4F0E94F60BACC08091AC268C70C6
:1010A00009F4A7C082E0BE016F5F7F4F0E94CF109E
:1010B0008CE391E2BE016F5F7F4F0E94F60B83E0ED
:1010C000BE016F5F7F4F0E94CF1083E491E2BE01AB
:1010D0006F5F7F4F0E94F60B82E0BE016F5F7F4F14
:1010E0000E9492108AE491E2BE016F5F7F4F0E94DE
:1010F000F60B83E0BE016F5F7F4F0E94921081E587
:1011000091E2BE016F5F7F4F0E94F60B72C080912B
:10111000AC26807309F46DC084E0BE016F5F7F4F21
:101120000E94CF108CE391E2BE016F5F7F4F0E945F
:10113000F60B85E0BE016F5F7F4F0E94CF1083E406
:1011400091E2BE016F5F7F4F0E94F60B84E0BE010B
:101150006F5F7F4F0E9492108AE491E2BE016F5F41
:101160007F4F0E94F60B85E0BE016F5F7F4F0E94AC
:10117000921081E591E2BE016F5F7F4F0E94F60BF6
:1011800038C08091AC26807CA1F186E0BE016F5F03
:101190007F4F0E94CF108CE391E2BE016F5F7F4FC3
:1011A0000E94F60B87E0BE016F5F7F4F0E94CF1059
:1011B00083E491E2BE016F5F7F4F0E94F60B86E0F1
:1011C000BE016F5F7F4F0E9492108AE491E2BE01E0
:1011D0006F5F7F4F0E94F60B87E0BE016F5F7F4F0E
:1011E0000E94921081E591E2BE016F5F7F4F0E94E5
:1011F000F60B2C96CDBFDEBFDF91CF91089580E036
:1012000090E0609182250E94232F8DEA96E261E0B2
:1012100070E040E150E00E94192F089580E090E0D6
:101220000E94092F809382258DEA96E261E070E0AA
:1012300040E150E00E94FD2E08950E940E0908959D
:1012400080E090E00E94092F08950895E0E0F7E023
:1012500080E4818B828B838B848B8EE18683818378
:1012600010929A268FE3E0E2F7E0828389E280938E
:101270009426809391268FEF8093A92680939626BB
:101280008093902608958230B1F0833028F488232B
:1012900041F0813019F50AC0833091F08530F1F4C6
:1012A00014C082E0E0E0F7E08583089584E0E0E0A8
:1012B000F7E08583089588E0E0E0F7E0858308950E
:1012C00080E1E0E0F7E08583089580918225880F32
:1012D000E0E0F7E0858382E00E94602C0895823090
:1012E000B1F0833028F4882341F0813009F50AC039
:1012F000833091F08530E1F414C082E0E0E0F7E063
:101300008683089584E0E0E0F7E08683089588E02E
:10131000E0E0F7E08683089580E1E0E0F7E086838F
:1013200008951092952610929C2681E080939D2628
:10133000089580919626809390268091A926809387
:101340009626E0E2F7E080858093A9260895CF9362
:10135000C82F81E06AE070E00E94FC2C0E94B70573
:10136000C230B1F0C33028F4CC2351F0C13039F58C
:101370000BC0C430A9F0C43078F0C53001F518C0F6
:1013800080E00E94E9051BC081E00E94E90517C0CA
:1013900082E00E94E90513C083E00E94E9050FC0C6
:1013A0001092A7261092A8268AE28093912607C061
:1013B0001092A7261092A8268AE280939426CF91B5
:1013C0000895843019F0853059F515C089E280936D
:1013D00091268091A7269091A82623E0893E920726
:1013E00038F00E94330B1092A7261092A826089579
:1013F0000E94BF05089589E28093942680918325F9
:10140000813271F48091A7269091A82623E0893E2D
:10141000920730F00E94FF081092A7261092A8268B
:101420000895282F30E0042E02C0359527950A94A0
:10143000E2F720FD1BC070E0042E02C07595679591
:101440000A94E2F760FF12C02091A92630E0042E32
:1014500002C0359527950A94E2F720FD04C0842F39
:101460000E94A7090895842F0E94E1090895CF934F
:10147000DF9380919626C091A926C827D091902607
:10148000D827809194268A32B1F48091A726909132
:10149000A82601968093A7269093A82620918325BD
:1014A000213249F423E0893E920728F081E064E686
:1014B00070E00E94FC2C809191268A3291F48091F8
:1014C000A7269091A82601968093A7269093A826F8
:1014D00023E0883E920729F481E064E670E00E94F0
:1014E000FC2C8C2F6D2F40E00E94110A8C2F6D2F49
:1014F00041E00E94110A8C2F6D2F42E00E94110AD8
:101500008C2F6D2F43E00E94110A8C2F6D2F44E029
:101510000E94110A8C2F6D2F45E00E94110ADF9165
:10152000CF910895809183258F518430A8F58091C3
:101530005821909159219923C4F001968093582104
:10154000909359210E94AD120E94B81280915821A7
:101550009091592121E0853F920764F18FEF9FEF31
:10156000809358219093592108950E94AD128823A9
:1015700039F010925821109259218DE20E943105C4
:101580000E94B8128823B1F010925821109259216C
:101590008EE20E94310508950E94AD12882319F051
:1015A0008DE20E9431050E94B812882319F08EE264
:1015B0000E94310508959091822580918425893279
:1015C00009F043C0990F80919526882339F4E0E013
:1015D000F7E095838F5F8093952610C0813039F4B2
:1015E000E0E0F7E0968382E08093952607C08F5F66
:1015F000809395268B3010F01092952680919D2631
:1016000060919C26680F60939C26662334F060FDF1
:1016100012C082E00E94922C0EC0882321F06E5FDF
:1016200060939C2603C06E5F60939C2682E060916D
:101630009C260E94922C80919C2681508E3F28F0FF
:1016400080919D26819580939D260E9499090E94F4
:10165000370A0E94920A08958EE48093AB268FE1A8
:10166000809393260895CF9380EB9BE00E940A1904
:1016700080EB9BE00E94141980EB9BE00E944622C5
:1016800080EB9BE00E94A22980EB9BE00E94051961
:1016900080EB9BE00E940F1982E58093AB26C1E9A5
:1016A000C093932680EB9BE06AE571E20E94AE2234
:1016B00080EB9BE06CE571E20E94AE22C093932622
:1016C000CF910895CF93DF93EC01809193268F31D2
:1016D00091F480EB9BE00E94672223E08C39920713
:1016E00050F480EB9BE0BE010E94AE2280EB9BE0B9
:1016F0006DE00E943426DF91CF9108958F3119F06B
:10170000803251F405C083E691E20E94620B04C06E
:101710008CE691E20E94620B85E791E20E94620BE7
:1017200081E891E20E94620B8DE891E20E94620BD7
:1017300087E991E20E94620B089585EA91E20E9496
:10174000620B80EB91E20E94620B0895CF93C82F49
:10175000813239F48CEB91E20E94620B0E949D0B66
:1017600007C087EC91E20E94620B8C2F0E947E0BD7
:10177000CF910895CF93C82F813239F482ED91E251
:101780000E94620B0E949D0B07C08DED91E20E94AA
:10179000620B8C2F0E947E0BCF910895CF93C82FA0
:1017A000813239F488EE91E20E94620B0E949D0B17
:1017B00007C083EF91E20E94620B8C2F0E947E0B88
:1017C000CF910895CF93C82F813239F48EEF91E2F3
:1017D0000E94620B0E949D0B07C088E092E20E946B
:1017E000620B8C2F0E947E0BCF9108950F931F9355
:1017F000CF93DF93EC018B01809193268F31B9F465
:1018000080EB9BE00E94672223E08C39920778F4FA
:1018100080EB9BE0BE010E94AE2280EB9BE0B80112
:101820000E94AE2280EB9BE06DE00E943426DF91A7
:10183000CF911F910F9108958091AB26823521F0B1
:1018400081E00E94602C03C081E00E947C2C80918A
:101850009326803951F08139F1F4109217221092B9
:10186000182280E98093932616C0809117229091C8
:1018700018220196809317229093182223E187382B
:10188000920748F010921722109218228FE180934D
:101890009326809383258091AB268F3419F482E5BB
:1018A0008093AB26809117229091182223E18838EB
:1018B000920730F40196809317229093182208958E
:1018C00023E18838920749F482E58093AB2688E2C9
:1018D00093E280931722909318220895EAE2F2E2AD
:1018E000A8E8B6E282E895E248E330E222E24083EB
:1018F000418332833483258326831D92E559FF4F2C
:10190000E817F907A1F7109287260895EF92FF9242
:101910000F931F93CF93DF938C0170918726672FCE
:10192000272F30E08BE690E0289FA001299F500DE3
:10193000389F500D11240F2EFAE2EF2EF2E2FF2E07
:10194000F02DE40EF51EA1E34AE252E2EBE6F0E0F0
:10195000862F992787FD90958E9F90018F9F300D40
:101960009E9F300D1124240F351FE901AB83615078
:101970000AF467E0AF5FA93359F7F8018081882343
:1019800099F505C0942F8191882321F503C040E08B
:1019900050E090E0F701E90FF11D82E28683E70154
:1019A000C40FD51F1F8281E08093882680938926EB
:1019B00080938A2680938B2680938C2680938D2615
:1019C00080938E2680938F267F5F70938726783052
:1019D00040F413C08D934F5F5F4F4436510591F62D
:1019E000E2CF1092872609C0E7018E83F801319675
:1019F000D701179641E050E0C5CFDF91CF911F91FD
:101A00000F91FF90EF900895EF92FF920F931F9325
:101A1000CF93809183258232B1F5C9E008E816E2C0
:101A20000F2EFBE6EF2EFF24F02D23C0209119226C
:101A3000F801E20FF11D8081882391F030E02E9DA6
:101A4000C0012F9D900D3E9D900D1124865D9D4DF2
:101A50000E94620B80911922F801E80FF11D10829B
:101A6000809119228F5F80931922883010F0109294
:101A7000192280EB9BE00E94672222E080309207CF
:101A800010F4C15099F6CF911F910F91FF90EF90F4
:101A9000089585E1809399261092A6260895809155
:101AA000992695E190939926089524EA36E290913B
:101AB000A4269093A526D9019E919093A426F9017E
:101AC000329790819C93D90113979C919083F9014F
:101AD000349790819C93808380818D30C1F4809174
:101AE000A1268233A1F48091A226813381F48091D2
:101AF000A326803561F48091A4268A3541F4809133
:101B0000A526843521F48CE0809399260895809150
:101B1000A0268D30C1F48091A1268333A1F4809159
:101B2000A226813381F48091A326803561F48091CF
:101B3000A4268A3541F48091A526843521F48DE0D0
:101B40008093992608958091A0268D30C1F48091CC
:101B5000A1268433A1F48091A226813381F480915F
:101B6000A326803561F48091A4268A3541F48091C2
:101B7000A526843521F48EE08093992608958091DE
:101B8000A0268D30C1F48091A1268733A1F48091E5
:101B9000A226813381F48091A326803561F480915F
:101BA000A4268A3541F48091A526843521F481E16B
:101BB0008093992608958091A0268D30C1F480915C
:101BC000A1268833A1F48091A226813381F48091EB
:101BD000A326803561F48091A4268A3541F4809152
:101BE000A526843521F482E1809399260895809179
:101BF000A0268D30C1F48091A1268933A1F4809173
:101C0000A226813381F48091A326803561F48091EE
:101C1000A4268A3541F48091A526843521F483E1F8
:101C20008093992608958091A0268D30C1F48091EB
:101C3000A1268033A1F48091A226823381F4809181
:101C4000A326803561F48091A4268A3541F48091E1
:101C5000A526843521F484E1809399260895809106
:101C6000A0268D30C1F48091A1268633A1F4809105
:101C7000A226893381F48091A326803561F4809176
:101C8000A4268A3541F48091A526843521F480E686
:101C90008093992608958091A0268D30C1F480917B
:101CA000A1268733A1F48091A226893381F4809103
:101CB000A326803561F48091A4268A3541F4809171
:101CC000A526843521F481E6809399260895809194
:101CD000A0268D30C1F48091A1268833A1F4809193
:101CE000A226893381F48091A326803561F4809106
:101CF000A4268A3541F48091A526843521F482E614
:101D00008093992608958091A0268D30C1F480910A
:101D1000A1268933A1F48091A226893381F4809190
:101D2000A326803561F48091A4268A3541F4809100
:101D3000A526843521F483E6809399260895809121
:101D4000A0268D30C1F48091A1268533A1F4809125
:101D5000A226813381F48091A326803561F480919D
:101D6000A4268A3541F48091A526843521F48FE09C
:101D70008093992608958091A0268D30B9F48091A2
:101D8000A126863399F48091A226813379F480913B
:101D9000A326803559F48091A4268A3539F48091A0
:101DA000A526843519F480E18093992608958091C1
:101DB0009926853109F459C00E944F0D823191F165
:101DC000833180F48E3031F18F3030F48C30D1F0AB
:101DD0008D3009F04AC01AC0803109F443C0813106
:101DE000E8F43CC0803691F1813628F48331F1F07B
:101DF0008431D9F51FC0823629F18236F8F0833656
:101E0000A1F528C080E20E940105089581E20E94A8
:101E10000105089582E20E940105089581E10E9472
:101E20004A04089582E10E944A04089583E10E94D1
:101E30004A04089584E10E944A04089581E60E94BC
:101E40008504089582E60E948504089581E20E9437
:101E50000105089580E20E94010508958FE00E9427
:101E60001504089580E10E9415040895E0EEF6E05F
:101E700016828FE18183E0E6F6E085838BEF818334
:101E8000E0ECF9E08DED808382E081831092AA2658
:101E9000109292261092AC2681E6809397260895A0
:101EA00091E09093AA2680939826843018F482308B
:101EB00058F405C0863068F08830A0F40FC091E077
:101EC000E0E6F6E096830EC092E0E0E6F6E0968368
:101ED00009C094E0E0E6F6E0968304C098E0E0E60E
:101EE000F6E0968380FF05C082E0E0ECF9E08383B2
:101EF000089581E0E0ECF9E08383089561E070E00B
:101F00000090982602C0660F771F0A94E2F760954A
:101F1000809192266823609392266623F1F070E008
:101F200060FD12C021E030E0E1E0F0E0822FAF017F
:101F3000022E02C0440F551F0A94E2F7462357238E
:101F4000141615062CF401C080E00E94500F08956D
:101F50002F5F3F4F2830310549F708958230C1F097
:101F6000833028F4882351F0813039F50CC08A334E
:101F7000C9F08C33E1F0833001F50FC082E0E0EE70
:101F8000F6E08583089584E0E0EEF6E08583089529
:101F900088E0E0EEF6E08583089580E1E0EEF6E08B
:101FA000858308958EE1E0EEF6E0858308958091C3
:101FB0008225880FE0EEF6E0858308958230B1F047
:101FC000833028F4882341F08130F1F40AC0833053
:101FD00091F08A33C9F414C082E0E0EEF6E0868323
:101FE000089584E0E0EEF6E08683089588E0E0EE70
:101FF000F6E08683089580E1E0EEF6E086830895BA
:102000008EE1E0EEF6E0868308959091AA2699236A
:1020100021F020919826281739F1E82FF0E021E0EF
:1020200030E0082E02C0220F331F0A94E2F7422F3D
:102030002091AC26242B2093AC26EE0FFF1FE355F6
:10204000F94D262F372F54E02030350710F02FEFB1
:1020500033E02083318320919226422B40939226B5
:10206000992311F40E94500F08956E32B9F4282F6D
:1020700030E0F901EE0FFF1FE355F94D408151812A
:1020800094E04030590708F5F901EE0FFF1FE355C2
:10209000F94D4F5F5F4F4083518317C06D32A9F4F4
:1020A000282F30E0F901EE0FFF1FE355F94D408175
:1020B00051814115510549F0F901EE0FFF1FE3551C
:1020C000F94D4150504040835183E82FF0E0EE0F2E
:1020D000FF1FE355F94D608171810E94051008953D
:1020E000809397260895E82FF0E0EE0FFF1FE35549
:1020F000F94D6081718180E090E00E94D22D20E056
:1021000030E040EA50E40E94842E20E030EC4FE7BB
:1021100054E40E94392D462F572F682F792FCB0179
:10212000BA010895CF92DF92EF92FF921F93CF935F
:10213000DF93182FEB0180FD08C00E94731048EE5A
:1021400053E09E010E94AD0122C081500E94731095
:102150006B017C01E12FF0E0EE0FFF1FE355F94D1D
:102160006081718180E090E00E94D22D9B01AC01E2
:10217000C701B6010E94842E20E030EC4FE754E402
:102180000E94392D48EE53E09E010E94AD01DF917F
:10219000CF911F91FF90EF90DF90CF900895E82F9F
:1021A000F0E0EE0FFF1FE355F94D808191814AE089
:1021B00050E00E94E72E08951F920F920FB60F92E3
:1021C00008B60F9209B60F920BB60F9211242F93F7
:1021D0003F934F935F936F937F938F939F93AF93AF
:1021E000BF93EF93FF9381E00E94602C8091AA2619
:1021F0008230C9F0833039F1813009F047C082E084
:102200008093AA26E0919826F0E0EE0FFF1FE35599
:10221000F94D808191819695879596958795E0EC0B
:10222000F9E0838333C083E08093AA26E091982667
:10223000F0E0EE0FFF1FE355F94D80818370E0EC75
:10224000F9E0838323C080919826843018F482308B
:1022500058F405C0863068F08830A0F40FC081E0E3
:10226000E0E6F6E085830EC082E0E0E6F6E08583F6
:1022700009C084E0E0E6F6E0858304C088E0E0E69B
:10228000F6E085831092AA260E947E0FFF91EF91BF
:10229000BF91AF919F918F917F916F915F914F917E
:1022A0003F912F910F900BBE0F9009BE0F9008BE6B
:1022B0000F900FBE0F901F9018950895E0E4F6E080
:1022C00083E381838683868308958230C1F08330DF
:1022D00028F4882351F0813069F50CC08A33C9F0A5
:1022E0008C33E1F0833031F50FC081E0E0E4F6E0BB
:1022F0008583089582E0E0E4F6E08583089580E137
:10230000E0E4F6E08583089580E2E0E4F6E085838A
:10231000089583E3E0E4F6E08583089580918225C3
:10232000982F969596959295907F8370892BE0E4EF
:10233000F6E0858308958230B1F0833028F4882355
:1023400041F08130F1F40AC0833091F08A33C9F44E
:1023500014C081E0E0E4F6E08683089582E0E0E4E2
:10236000F6E08683089580E1E0E4F6E08683089550
:1023700080E2E0E4F6E08683089583E3E0E4F6E0BB
:10238000868308950895E0E5F0E082E282838BE0A1
:10239000808380E00E94602CE0E5F0E081818B305A
:1023A000E9F780E00E947C2CE0E5F0E082E08683A3
:1023B00081E08093600098ED94BF809340008AE0B4
:1023C000808380E090E0089587E08093500080E073
:1023D0000E94602CE0E5F0E081818730E9F780E041
:1023E0000E947C2CE0E5F0E082E0868381E080932F
:1023F000600098ED94BF809340008AE0808380E085
:1024000090E008950E94CA2C0E9426090E9485121D
:102410000E94E4110E942C0B0E946E0C0E94490D38
:1024200080EA98E060E00E94AA1380EB98E060E008
:102430000E94AA1380EB9BE060E00E94AA130E9416
:10244000D4290E9458010E945E110E94360F0E94FA
:1024500007040E941D09E0E0F8E087E080838EE336
:1024600090E086A397A387E8E0EAF0E0828378947F
:1024700080E00E947C2C81E00E947C2C82E064E65B
:1024800070E00E94FC2CE0E8F6E083E0818382E0CB
:10249000858380E061E00E94922C12E001E00F2E23
:1024A000F0E8EF2EF6E0FF2EF02DCC24C394BC2CE8
:1024B000DD246894D1F8C0E0D8E001C00195F701AF
:1024C000B7820E94082D0E94DB0A0E94AA020E9485
:1024D0001C060E949A2A0E941C0C0E94040D0E9455
:1024E000D70E0E945D11F701D6828C8580FFFDCF4B
:1024F000CC86F701D58280E0612F0E94922C100FCC
:10250000812F81508E3FD0F6DACFE0E2F7E080EC09
:10251000828380E4828780E883878FE0818780855B
:1025200086FD03C089E9868B04C08AE9E0E2F7E012
:10253000868BE0E2F7E0808588231CF089E9878BB1
:1025400004C08AE9E0E2F7E0878B10929E261092A1
:102550009F268CE280939B26089580919B268D3246
:1025600029F48CE280939B2681E0089580E0089511
:1025700080919B268E3229F48CE280939B2681E009
:10258000089580E008951F920F920FB60F9208B63B
:102590000F920BB60F9211248F939F93EF93FF939B
:1025A000E0E2F7E086898A3901F5808588236CF0BE
:1025B00080919E2690919F26019780939E269093CE
:1025C0009F268EE280939B260CC080919E26909140
:1025D0009F26019680939E2690939F268DE280935E
:1025E0009B2689E9E0E2F7E0868BE0E2F7E0868966
:1025F000893901F5808588236CF080919E26909121
:102600009F26019680939E2690939F268DE280932D
:102610009B260CC080919E2690919F2601978093C7
:102620009E2690939F268EE280939B268AE9E0E285
:10263000F7E0868B81E0E0E2F7E08487FF91EF919D
:102640009F918F910F900BBE0F9008BE0F900FBE01
:102650000F901F9018951F920F920FB60F9208B609
:102660000F920BB60F9211248F939F93EF93FF93CA
:10267000E0E2F7E087898A3901F5808586FD0DC0A3
:1026800080919E2690919F26019680939E269093FE
:102690009F268DE280939B260CC080919E26909170
:1026A0009F26019780939E2690939F268EE280938B
:1026B0009B2689E9E0E2F7E0878BE0E2F7E0878993
:1026C000893901F5808586FD0DC080919E26909107
:1026D0009F26019780939E2690939F268EE280935B
:1026E0009B260CC080919E2690919F2601968093F8
:1026F0009E2690939F268DE280939B268AE9E0E2B6
:10270000F7E0878B82E0E0E2F7E08487FF91EF91CA
:102710009F918F910F900BBE0F9008BE0F900FBE30
:102720000F901F9018950895E0EAF6E080E381830A
:1027300085818F7C8583E0E4FBE087E0808383E113
:1027400081838FEF90E086A397A380E190E080A73C
:1027500091A70895FC0188E0E03AF80751F4A0E45D
:10276000B6E088E011968C93119715968C93159787
:1027700061C088E0E03BF80751F4A0E4B6E080E8EF
:1027800011968C93119715968C93159753C089E0E9
:10279000E03AF80751F4A0E6B6E088E011968C9391
:1027A000119715968C93159745C089E0E03BF80783
:1027B00051F4A0E6B6E080E811968C931197159637
:1027C0008C93159737C08AE0E03AF80751F4A0E8F7
:1027D000B6E088E011968C93119715968C93159717
:1027E00029C08AE0E03BF80751F4A0E8B6E080E8B1
:1027F00011968C93119715968C9315971BC08BE0AF
:10280000E03AF80751F4A0EAB6E088E011968C931C
:10281000119715968C9315970DC08BE0E03BF80748
:1028200049F4A0EAB6E080E811968C9311971596CA
:102830008C931597613039F0623051F48CEA8783BC
:1028400085EC868309C088EA87838EE6868304C088
:1028500084EA878382E38683138288E1848383E02A
:1028600085830895FC01818185FFFDCF60830895F4
:10287000CF92DF92EF92FF920F931F93CF93DF934C
:102880006C01E62FF72FEF0109900020E9F721975F
:10289000CE1BDF0B79F0E62EF72E00E010E0F701FB
:1028A00061917F01C6010E9432140F5F1F4F0C1708
:1028B0001D07A9F7DF91CF911F910F91FF90EF9026
:1028C000DF90CF900895CF93DF93EC01673009F448
:1028D0009DC0683090F4633009F458C0643030F41F
:1028E0006130A1F1623008F041C020C0653009F4C8
:1028F0006DC0663008F07AC059C06B3009F4C6C0AC
:102900006C3038F4693009F4A1C06A3008F0AEC008
:102910008DC06D3009F4DAC06D3008F4C7C06E3078
:1029200009F4E4C06F3009F000C1F0C060E30E9418
:102930003214CE0160E30E943214CE0160E30E94A3
:102940003214CE0160E30E943214EFC060E30E94B3
:102950003214CE0160E30E943214CE0160E30E9483
:102960003214CE0161E30E943214DFC060E30E94A2
:102970003214CE0160E30E943214CE0161E30E9462
:102980003214CE0160E30E943214CFC060E30E9493
:102990003214CE0160E30E943214CE0161E30E9442
:1029A0003214CE0161E30E943214BFC060E30E9482
:1029B0003214CE0161E30E943214CE0160E30E9422
:1029C0003214CE0160E30E943214AFC060E30E9473
:1029D0003214CE0161E30E943214CE0160E30E9402
:1029E0003214CE0161E30E9432149FC060E30E9462
:1029F0003214CE0161E30E943214CE0161E30E94E1
:102A00003214CE0160E30E9432148FC060E30E9452
:102A10003214CE0161E30E943214CE0161E30E94C0
:102A20003214CE0161E30E9432147FC061E30E9440
:102A30003214CE0160E30E943214CE0160E30E94A2
:102A40003214CE0160E30E9432146FC061E30E9431
:102A50003214CE0160E30E943214CE0160E30E9482
:102A60003214CE0161E30E9432145FC061E30E9420
:102A70003214CE0160E30E943214CE0161E30E9461
:102A80003214CE0160E30E9432144FC061E30E9411
:102A90003214CE0160E30E943214CE0161E30E9441
:102AA0003214CE0161E30E9432143FC061E30E9400
:102AB0003214CE0161E30E943214CE0160E30E9421
:102AC0003214CE0160E30E9432142FC061E30E94F1
:102AD0003214CE0161E30E943214CE0160E30E9401
:102AE0003214CE0161E30E9432141FC061E30E94E0
:102AF0003214CE0161E30E943214CE0161E30E94E0
:102B00003214CE0160E30E9432140FC061E30E94D0
:102B10003214CE0161E30E943214CE0161E30E94BF
:102B20003214CE0161E30E943214DF91CF910895F7
:102B30001F93CF93DF93EC01162F62E60E943214AD
:102B4000612F62956F70CE010E946314612F6F70C8
:102B5000CE010E946314DF91CF911F9108956730D9
:102B600009F43FC0683070F4633059F1643028F4E0
:102B70006130F9F0623008F518C0653051F1663007
:102B800060F523C06B30E9F16C3028F4693089F1CD
:102B90006A3098F52AC06D30E1F16D30B0F16E30D9
:102BA000E1F16F3009F040C03CC060E30E94321494
:102BB000089561E30E943214089562E30E94321482
:102BC000089563E30E943214089564E30E9432146E
:102BD000089565E30E943214089566E30E9432145A
:102BE000089567E30E943214089568E30E94321446
:102BF000089569E30E943214089561E40E9432143A
:102C0000089562E40E943214089563E40E9432142D
:102C1000089564E40E943214089565E40E94321419
:102C2000089566E40E94321408951F93CF93DF93B2
:102C3000EC01162F62956F700E94AF15612F6F70B7
:102C4000CE010E94AF15DF91CF911F9108951F9380
:102C5000CF93DF93EC01142F0E941516CE01612F44
:102C60000E941516DF91CF911F9108951F93CF9366
:102C7000DF93EC01162F672F0E941516CE01612FEE
:102C80000E941516DF91CF911F910895CF93DF9386
:102C9000EC01673009F49DC0683090F4633009F4AA
:102CA00058C0643030F46130A1F1623008F041C0A6
:102CB00020C0653009F46DC0663008F07AC059C094
:102CC0006B3009F4C6C06C3038F4693009F4A1C027
:102CD0006A3008F0AEC08DC06D3009F4DAC06D30D6
:102CE00008F4C7C06E3009F4E4C06F3009F000C1C9
:102CF000F0C060E30E943426CE0160E30E943426D7
:102D0000CE0160E30E943426CE0160E30E943426A7
:102D1000EFC060E30E943426CE0160E30E943426B7
:102D2000CE0160E30E943426CE0161E30E94342686
:102D3000DFC060E30E943426CE0160E30E943426A7
:102D4000CE0161E30E943426CE0160E30E94342666
:102D5000CFC060E30E943426CE0160E30E94342697
:102D6000CE0161E30E943426CE0161E30E94342645
:102D7000BFC060E30E943426CE0161E30E94342686
:102D8000CE0160E30E943426CE0160E30E94342627
:102D9000AFC060E30E943426CE0161E30E94342676
:102DA000CE0160E30E943426CE0161E30E94342606
:102DB0009FC060E30E943426CE0161E30E94342666
:102DC000CE0161E30E943426CE0160E30E943426E6
:102DD0008FC060E30E943426CE0161E30E94342656
:102DE000CE0161E30E943426CE0161E30E943426C5
:102DF0007FC061E30E943426CE0160E30E94342646
:102E0000CE0160E30E943426CE0160E30E943426A6
:102E10006FC061E30E943426CE0160E30E94342635
:102E2000CE0160E30E943426CE0161E30E94342685
:102E30005FC061E30E943426CE0160E30E94342625
:102E4000CE0161E30E943426CE0160E30E94342665
:102E50004FC061E30E943426CE0160E30E94342615
:102E6000CE0161E30E943426CE0161E30E94342644
:102E70003FC061E30E943426CE0161E30E94342604
:102E8000CE0160E30E943426CE0160E30E94342626
:102E90002FC061E30E943426CE0161E30E943426F4
:102EA000CE0160E30E943426CE0161E30E94342605
:102EB0001FC061E30E943426CE0161E30E943426E4
:102EC000CE0161E30E943426CE0160E30E943426E5
:102ED0000FC061E30E943426CE0161E30E943426D4
:102EE000CE0161E30E943426CE0161E30E943426C4
:102EF000DF91CF9108951F93CF93DF93EC01162FAD
:102F000062E60E943426612F62956F70CE010E94A6
:102F10004616612F6F70CE010E944616DF91CF9149
:102F20001F910895673009F43FC0683070F4633032
:102F300059F1643028F46130F9F0623008F518C0B6
:102F4000653051F1663060F523C06B30E9F16C30CB
:102F500028F4693089F16A3098F52AC06D30E1F1C2
:102F60006D30B0F16E30E1F16F3009F040C03CC01F
:102F700060E30E943426089561E30E943426089598
:102F800062E30E943426089563E30E943426089584
:102F900064E30E943426089565E30E943426089570
:102FA00066E30E943426089567E30E94342608955C
:102FB00068E30E943426089569E30E943426089548
:102FC00061E40E943426089562E40E943426089544
:102FD00063E40E943426089564E40E943426089530
:102FE00065E40E943426089566E40E94342608951C
:102FF0001F93CF93DF93EC01162F62956F700E94A1
:103000009217612F6F70CE010E949217DF91CF91BE
:103010001F9108951F93CF93DF93EC01142F0E940B
:10302000F817CE01612F0E94F817DF91CF911F9101
:1030300008951F93CF93DF93EC01162F672F0E9403
:10304000F817CE01612F0E94F817DF91CF911F91E1
:1030500008951F920F920FB60F9208B60F9209B6FD
:103060000F920AB60F920BB60F9211242F933F9333
:103070004F935F938F939F93AF93BF93CF93DF93C0
:10308000EF93FF93C0EAD8E0EBECFEE34FEB56E2A0
:1030900013C08881A081B181AD53B54D8C938081DF
:1030A00091810196808391838081918124E0803099
:1030B000920710F01082118289818823FCF48081AC
:1030C0009181DA012D913C9111978217930740F07D
:1030D000808191812D913C911197821B930B0AC0A5
:1030E00080819181DA012D913C91119780509C4F04
:1030F000821B930BB4E080309B0758F2FF91EF9155
:10310000DF91CF91BF91AF919F918F915F914F913F
:103110003F912F910F900BBE0F900ABE0F9009BEEA
:103120000F9008BE0F900FBE0F901F9018951F9222
:103130000F920FB60F9208B60F9209B60F920AB609
:103140000F920BB60F9211242F933F934F935F93DF
:103150008F939F93AF93BF93CF93DF93EF93FF939F
:10316000C0EBD8E0EDECFEE341EC56E213C0888101
:10317000A081B181AD53B14D8C9380819181019635
:10318000808391838081918124E08030920710F0C8
:103190001082118289818823FCF480819181DA0177
:1031A0002D913C9111978217930740F08081918176
:1031B0002D913C911197821B930B0AC080819181C4
:1031C000DA012D913C91119780509C4F821B930BFB
:1031D000B4E080309B0758F2FF91EF91DF91CF91DF
:1031E000BF91AF919F918F915F914F913F912F919F
:1031F0000F900BBE0F900ABE0F9009BE0F9008BE35
:103200000F900FBE0F901F901895FC018381806373
:1032100083830895FC0183818F7C83830895FC015F
:103220008381826083830895FC0183818C7F838303
:1032300008951F920F920FB60F9208B60F9209B61B
:103240000F920AB60F920BB60F9211242F933F9351
:103250004F935F936F937F938F939F93AF93BF939E
:10326000CF93DF93EF93FF93E0EBF8E0818185FD4F
:103270001AC03AC02081318180819181019680837A
:1032800091838081918144E08030940710F0108216
:1032900011822753354CE9018881EB0188838981AC
:1032A00085FD07C021C0A7ECB2E3E3EDFEE360EBD0
:1032B00078E08D919C91119720813181821793073D
:1032C00040F08D919C91119720813181821B930B4D
:1032D00009C08D919C9111972081318180509C4F24
:1032E000821B930B009731F62091C7323091C83280
:1032F0008091D33E9091D43E2817390758F08091A1
:10330000C7329091C8322091D33E3091D43E821B77
:10331000930B0CC08091C7329091C8322091D33E5C
:103320003091D43E80509C4F821B930B009729F024
:1033300080EB98E00E940F1904C080EB98E00E9497
:103340001419FF91EF91DF91CF91BF91AF919F91B0
:103350008F917F916F915F914F913F912F910F903E
:103360000BBE0F900ABE0F9009BE0F9008BE0F90C3
:103370000FBE0F901F9018951F920F920FB60F92CD
:1033800008B60F9209B60F920AB60F920BB60F92BB
:1033900011242F933F934F935F936F937F938F935A
:1033A0009F93AF93BF93CF93DF93EF93FF93E0EAA5
:1033B000F8E0818185FD1AC03AC020813181808189
:1033C00091810196808391838081918144E0803056
:1033D000940710F0108211822753394CE90188813B
:1033E000EB018883898185FD07C021C0A5ECB2E38C
:1033F000E1EDFEE360EA78E08D919C9111972081E8
:1034000031818217930740F08D919C911197208113
:103410003181821B930B09C08D919C911197208162
:10342000318180509C4F821B930B009731F6209185
:10343000C5323091C6328091D13E9091D23E28174C
:10344000390758F08091C5329091C6322091D13E13
:103450003091D23E821B930B0CC08091C53290916B
:10346000C6322091D13E3091D23E80509C4F821B7B
:10347000930B009729F080EA98E00E940F1904C08E
:1034800080EA98E00E941419FF91EF91DF91CF91AB
:10349000BF91AF919F918F917F916F915F914F916C
:1034A0003F912F910F900BBE0F900ABE0F9009BE57
:1034B0000F9008BE0F900FBE0F901F9018950F939E
:1034C0001F93CF93DF93DC0111968C91119785FDAB
:1034D00042C091C02BE0A03BB20751F038E0A03AC7
:1034E000B30741F088E0A03BB80731F422E005C003
:1034F00020E003C021E001C020E030E0C901880FD6
:10350000991FFB01E80FF91F408151818081918152
:1035100001968083918380819181E4E080309E07D1
:1035200040F0C901880F991F860F971FFC01108278
:103530001182C901982F8827990F990F840F951F21
:10354000F801E80FF91F80818C9311968C911197E7
:1035500085FD07C050C0C3ECD2E36FEC7EE309ECFD
:1035600012E3FBE0A03BBF0751F028E0A03AB2070E
:1035700041F038E0A03BB30731F422E005C020E081
:1035800003C021E001C020E030E0C901880F991F8D
:10359000FE01E80FF91F40815181FB01E80FF91F7F
:1035A000808191814817590788F0220F331FFE014F
:1035B000E20FF31F40815181FB01E20FF31F808175
:1035C0009181FA01E81BF90BCF0112C0C901880FE4
:1035D000991FFE01E80FF91F40815181FB01E80F9F
:1035E000F91F20813181CA0180509C4F821B930BAF
:1035F000009709F06FCFFBE0A03BBF0751F028E038
:10360000A03AB20741F038E0A03BB30731F422E022
:1036100005C020E003C021E001C020E030E0C90186
:10362000880F991FFC01ED53FD4C4081518181535E
:10363000914CFC01808191814817590778F0220F45
:10364000331FF901ED53FD4C408151812153314C21
:10365000F90180819181481B590B10C0220F331F43
:10366000F901ED53FD4C408151812153314CF90159
:103670008081918140505C4F481B590B4115510589
:1036800021F0CD010E940F1903C0CD010E94141931
:10369000DF91CF911F910F9108953F924F925F92CA
:1036A0006F927F928F929F92AF92BF92CF92DF9252
:1036B000EF92FF920F931F93CF93DF936C01FC0166
:1036C000818185FD1DC18FC1F0EBCF16FBE0DF06C8
:1036D00061F020EAC21628E0D20649F030EBC316AA
:1036E00038E0D30631F422E005C020E003C021E039
:1036F00001C020E030E0C901880F991FF401E80FF4
:10370000F91F40815181808191810196808391834D
:103710008081918164E08030960710F010821182E0
:10372000C901982F8827990F990F840F951F840D31
:10373000951DFC01B080FDE0BF1611F43092AB2660
:10374000F801808191818753954CFC01A082F8019A
:103750008081918101968083918380819181F4E0C1
:1037600080309F0718F0F80110821182F7018181E3
:1037700085FD18C031C0E881F98188819981019661
:10378000888399838881998124E08030920710F0A2
:1037900018821982E753F54C8081F701808381817B
:1037A00085FF1AC0F80180819181288139818217B3
:1037B000930738F08081918128813981821B930B96
:1037C00009C0F801808191812881398180509C4F06
:1037D000821B930B009779F6F801808191812881F3
:1037E00039818217930738F080819181288139814E
:1037F000821B930B09C0F801808191812881398156
:1038000080509C4F821B930B009721F0C7010E94B0
:103810000F1903C0C7010E941419F801808191811A
:103820008753954CFC01B082F8018081918101960B
:103830008083918380819181F4E080309F0718F02C
:10384000F80110821182F701818185FD18C031C015
:10385000E881F9818881998101968883998388819B
:10386000998124E08030920710F018821982E75382
:10387000F54C8081F7018083818185FF1AC0F801B2
:1038800080819181288139818217930738F0808166
:10389000918128813981821B930B09C0F8018081B5
:1038A00091812881398180509C4F821B930B009716
:1038B00079F6F801808191812881398182179307F7
:1038C00038F08081918128813981821B930B09C056
:1038D000F801808191812881398180509C4F821B21
:1038E000930B009721F0C7010E940F1903C0C70175
:1038F0000E941419F601B082818185FD25C073C034
:103900000F2EF3EC6F2EF2E37F2EF02D0F2EFFEC37
:103910008F2EFEE39F2EF02D0F2EF9EC4F2EF2E3AB
:103920005F2EF02D0F2EFEE43F2EF02D07EC12E35C
:103930000F2EF0E6AF2EF02D0F2EF0EBEF2EF8E06D
:10394000FF2EF02DC3EDDEE3F0EBCF16FBE0DF063C
:1039500061F020EAC21628E0D20649F030EBC31627
:1039600038E0D30631F422E005C020E003C021E0B6
:1039700001C020E030E0C901880F991FF301E80F72
:10398000F91F40815181F401E80FF91F8081918175
:103990004817590788F0220F331FF301E20FF31F76
:1039A00040815181F401E20FF31F80819181FA017E
:1039B000E81BF90BCF0110C0220F331FF301E20FF8
:1039C000F31F80819181F401E20FF31F2081318187
:1039D00080509C4F821B930B009729F08091AB265F
:1039E000823509F471CEC6010E941419F0EBCF168E
:1039F000FBE0DF0661F020EAC21628E0D20649F0BB
:103A000030EBC31638E0D30631F422E005C020E0E5
:103A100003C021E001C020E030E0C901880F991FF8
:103A2000FC01ED53FD4C408151818153914CFC01CF
:103A3000808191814817590778F0220F331FF901CF
:103A4000ED53FD4C808191812153314CF90120814E
:103A50003181821B930B12C0220F331FF901ED53EA
:103A6000FD4C408151812153314CF901808191817C
:103A700040505C4F9A01281B390BC901009739F05F
:103A80008091AB26823519F4C6010E940F19DF918F
:103A9000CF911F910F91FF90EF90DF90CF90BF904B
:103AA000AF909F908F907F906F905F904F903F90DE
:103AB00008951F920F920FB60F9208B60F9209B693
:103AC0000F920AB60F920BB60F9211243F924F92AB
:103AD0005F926F927F928F929F92AF92BF92CF929E
:103AE000DF92EF92FF920F931F932F933F934F9389
:103AF0005F936F937F938F939F93AF93BF93CF9376
:103B0000DF93EF93FF93E0EBFBE0818185FDFBC04A
:103B100048C1D601ED91FC9111978D919C9111971F
:103B200001968D939C9311978D919C911197B4E080
:103B300080309B0720F0D6011D921C921197E40D56
:103B4000F51DB080BDE0BB1611F43092AB26F80134
:103B5000808191818753954CDC01AC928081918169
:103B600001968083918380819181B4E080309B07AE
:103B700010F010821182F701818185FD1AC032C0D8
:103B8000E881F98188819981019688839983888168
:103B9000998124E08030920710F018821982E7534F
:103BA000F54C8081D7018C9311968C91119785FFEC
:103BB00019C0F8018081918128813981821793078A
:103BC00038F08081918128813981821B930B08C054
:103BD000808191812881398180509C4F821B930B79
:103BE000009771F6F80180819181288139818217CF
:103BF000930738F08081918128813981821B930B52
:103C000008C0808191812881398180509C4F821B1E
:103C1000930B009721F0C7010E940F1903C0C70141
:103C20000E941419F801808191818753954CDC0121
:103C3000BC92808191810196808391838081918162
:103C4000B4E080309B0710F010821182F70181816F
:103C500085FD1AC032C0E881F98188819981019679
:103C6000888399838881998124E08030920710F0BD
:103C700018821982E753F54C8081D7018C931196F5
:103C80008C91119785FF19C0F8018081918128815D
:103C900039818217930738F0808191812881398199
:103CA000821B930B08C080819181288139818050CB
:103CB0009C4F821B930B009771F6F80180819181D4
:103CC000288139818217930738F08081918128817A
:103CD0003981821B930B08C08081918128813981B1
:103CE00080509C4F821B930B009721F0C7010E94CC
:103CF0000F1903C0C7010E941419F301B08281811A
:103D000085FD2BC04EC00F2EF3EC8F2EF2E39F2EBD
:103D1000F02D0F2EFFECCF2EFEE3DF2EF02D0F2E19
:103D2000F9EC4F2EF2E35F2EF02D0F2EFEE43F2E26
:103D3000F02D07EC12E30F2EF0E6AF2EF02D0F2E34
:103D4000F0EBEF2EF8E0FF2EF02DC3EDDEE30F2EAB
:103D5000F0EB6F2EFBE07F2EF02DD4018D919C9126
:103D60001197F601208131818217930740F08D91E0
:103D70009C91119720813181821B930B0BC0D40140
:103D80008D919C911197F6012081318180509C4F3B
:103D9000821B930B009729F08091AB26823509F4A2
:103DA000B8CE80EB9BE00E9414192091C332309171
:103DB000C4328091CF3E9091D03E2817390758F0F9
:103DC0008091C3329091C4322091CF3E3091D03E49
:103DD000821B930B0CC08091C3329091C43220910E
:103DE000CF3E3091D03E80509C4F821B930B00976A
:103DF00041F08091AB26823521F480EB9BE00E945C
:103E00000F19FF91EF91DF91CF91BF91AF919F91EA
:103E10008F917F916F915F914F913F912F911F9162
:103E20000F91FF90EF90DF90CF90BF90AF909F9059
:103E30008F907F906F905F904F903F900F900BBE50
:103E40000F900ABE0F9009BE0F9008BE0F900FBED4
:103E50000F901F9018951F920F920FB60F9208B6F1
:103E60000F9209B60F920AB60F920BB60F92112459
:103E70004F925F926F927F928F929F92AF92BF927A
:103E8000CF92DF92EF92FF920F931F932F933F9366
:103E90004F935F936F937F938F939F93AF93BF9352
:103EA000CF93DF93EF93FF930F2EF0EB8F2EFBE07A
:103EB0009F2EF02D0F2EF9ECAF2EFEE3BF2EF02D2E
:103EC0000F2EFDEB6F2EF6E27F2EF02D07EC12E3A6
:103ED0000F2EF0EBEF2EF8E0FF2EF02DC3EDDEE31A
:103EE0000F2EFFE4CF2EF02D0F2EF3EC4F2EF6E227
:103EF0005F2EF02D8DC0F401D080F801808191817A
:103F00008753954CFC01D082F80180819181019604
:103F10008083918380819181F4E080309F0718F045
:103F2000F80110821182F701818185FD18C031C02E
:103F3000E881F981888199810196888399838881B4
:103F4000998124E08030920710F018821982E7539B
:103F5000F54C8081F7018083818185FF1AC0F801CB
:103F600080819181288139818217930738F080817F
:103F7000918128813981821B930B09C0F8018081CE
:103F800091812881398180509C4F821B930B00972F
:103F900079F6F80180819181288139818217930710
:103FA00038F08081918128813981821B930B09C06F
:103FB000F801808191812881398180509C4F821B3A
:103FC000930B009721F0C7010E940F1903C0C7018E
:103FD0000E941419FDE0DF1611F4C092AB268D2D5E
:103FE0000E94550DF50180819181840D951DFC0184
:103FF000D082F501808191810196808391838081B7
:104000009181F4E080309F0718F0F5011082118251
:10401000F401818188230CF5F50180819181F30100
:10402000208131818217930748F0F50180819181C9
:10403000F30120813181821B930B0AC0F50180813D
:104040009181F3012081318180509C4F821B930B21
:10405000F4E080309F0708F44ECFFF91EF91DF919D
:10406000CF91BF91AF919F918F917F916F915F9110
:104070004F913F912F911F910F91FF90EF90DF9003
:10408000CF90BF90AF909F908F907F906F905F90F8
:104090004F900F900BBE0F900ABE0F9009BE0F906D
:1040A00008BE0F900FBE0F901F901895CF92DF9211
:1040B000EF92FF920F931F93CF93DF93DC010F2EAC
:1040C000F9ECCF2EFEE3DF2EF02D0DEB16E20F2ED6
:1040D000F3ECEF2EF6E2FF2EF02D3AC04C912BE0E0
:1040E000A03BB20751F038E0A03AB30741F088E0B6
:1040F000A03BB80731F462E005C060E003C061E0B6
:1041000001C060E070E0CB01880F991FF601E80F55
:10411000F91F20813181CB01982F8827990F990FA2
:10412000820F931F8E0D9F1DEC014883808191812A
:1041300001968083918380819181D4E080309D07B6
:1041400038F0FB01EE0FFF1FEC0DFD1D10821182F8
:1041500011968C91119788230CF04CC02BE0A03B5A
:10416000B20751F038E0A03AB30741F088E0A03B35
:10417000B80731F422E005C020E003C021E001C00F
:1041800020E030E0C901880F991FF601E80FF91F00
:1041900040815181F801E80FF91F80819181481712
:1041A000590788F0220F331FF601E20FF31F4081F9
:1041B0005181F801E20FF31F80819181EA01C81B50
:1041C000D90BCE0112C0C901880F991FF601E80F63
:1041D000F91F40815181F801E80FF91F20813181D9
:1041E000CA0180509C4F821B930BD4E080309D0706
:1041F00008F474CFDF91CF911F910F91FF90EF9052
:10420000DF90CF9008954F925F926F927F928F923E
:104210009F92AF92BF92CF92DF92EF92FF920F9355
:104220001F93CF93DF935C010F2EF9EC8F2EFEE3EB
:104230009F2EF02D0F2EFDEB6F2EF6E27F2EF02D30
:1042400007EC12E30F2EF0EBEF2EF8E0FF2EF02D2F
:10425000C3EDDEE30F2EFFE4CF2EF02D0F2EF3EC97
:104260004F2EF6E25F2EF02DACC0D501DC90F801A8
:10427000808191818753954CDC01DC928081918112
:1042800001968083918380819181B4E080309B0787
:1042900010F010821182F701818185FD1AC032C0B1
:1042A000E881F98188819981019688839983888141
:1042B000998124E08030920710F018821982E75328
:1042C000F54C8081D7018C9311968C91119785FFC5
:1042D00019C0F80180819181288139818217930763
:1042E00038F08081918128813981821B930B08C02D
:1042F000808191812881398180509C4F821B930B52
:10430000009771F6F80180819181288139818217A7
:10431000930738F08081918128813981821B930B2A
:1043200008C0808191812881398180509C4F821BF7
:10433000930B009721F0C7010E940F1903C0C7011A
:104340000E941419BDE0DB1611F4C092AB268D2D2E
:104350000E94550DE0EBAE16EBE0BE0661F0F0EA10
:10436000AF16F8E0BF0649F020EBA21628E0B2062F
:1043700031F442E005C040E003C041E001C040E04C
:1043800050E0CA01880F991FF401E80FF91F20813E
:104390003181CA01982F8827990F990F820F931F97
:1043A000840D951DDC01DC928081918101968083D2
:1043B000918380819181B4E080309B0710F010825E
:1043C0001182D50111968C91119788230CF04DC064
:1043D000B0EBAB16BBE0BB0661F0E0EAAE16E8E07E
:1043E000BE0649F0F0EBAF16F8E0BF0631F422E06C
:1043F00005C020E003C021E001C020E030E0C90199
:10440000880F991FF401E80FF91F40815181F301D2
:10441000E80FF91F808191814817590788F0220F12
:10442000331FF401E20FF31F40815181F301E20FCA
:10443000F31F808191819A01281B390BC90110C09B
:10444000220F331FF401E20FF31F80819181F301EA
:10445000E20FF31F2081318180509C4F821B930B10
:1044600034E08030930708F400CFDF91CF911F91A3
:104470000F91FF90EF90DF90CF90BF90AF909F9003
:104480008F907F906F905F904F9008952BE0803BCE
:10449000920751F0E8E0803A9E0741F0F8E0803B57
:1044A0009F0731F482E005C080E003C081E001C0D5
:1044B00080E090E0880F991FFC01ED53FD4C1082C5
:1044C00011828153914CFC011082118208952BE0DE
:1044D000803B920751F0E8E0803A9E0741F0F8E017
:1044E000803B9F0731F482E005C080E003C081E09B
:1044F00001C080E090E09C01220F331FF901ED53D1
:10450000FD4C408151812153314CF9012081318191
:104510004217530780F09C01220F331FF901ED531E
:10452000FD4C808191812153314CF90120813181F1
:10453000821B930B08959C01220F331FF901ED5349
:10454000FD4C408151812153314CF9012081318151
:10455000CA0180509C4F821B930B08952F923F926B
:104560004F925F926F927F928F929F92AF92BF9283
:10457000CF92DF92EF92FF920F931F93CF93DF932F
:1045800000D00F92CDB7DEB76C01262F372FD9019F
:104590000D900020E9F71197CD01821B930B8B83BF
:1045A0009C83009709F44AC369837A8322243324C5
:1045B0000F2EF3EC6F2EF2E37F2EF02D0F2EF9EC81
:1045C0004F2EF2E35F2EF02D0F2EFFEC8F2EFEE329
:1045D0009F2EF02D0F2EF7ECEF2EF2E3FF2EF02D95
:1045E000A981BA817D91A983BA83B0EBCB16BBE0D8
:1045F000DB0661F0E0EACE16E8E0DE0649F0F0EB1B
:10460000CF16F8E0DF0631F462E005C060E003C0D9
:1046100061E001C060E0462F50E0CA01880F991F99
:10462000F301E80FF91F20813181CA01982F8827F3
:10463000990F990F820F931F840D951DDC017C93B8
:104640008081918101968083918380819181B4E002
:1046500080309B0710F010821182662339F0D6015A
:1046600011968C91119785FD44C28EC2F60181810D
:1046700085FD54C1A8C1F0EBCF16FBE0DF0661F069
:1046800020EAC21628E0D20649F030EBC31638E023
:10469000D30631F422E005C020E003C021E001C0D0
:1046A00020E030E0C901880F991FF401E80FF91FDD
:1046B00040815181808191810196808391838081A5
:1046C000918164E08030960710F010821182C90158
:1046D000982F8827990F990F840F951F840D951D8A
:1046E000FC01B080FDE0BF1619F42EE42093AB2648
:1046F000D7018D919C9111978753954CFC01A08215
:104700008D919C91119701968D939C9311978D910A
:104710009C911197F4E080309F0718F01D921C9235
:104720001197D80111968C91119785FD1FC03FC03C
:10473000A3EDBEE3ED91FC9111978D919C911197A2
:1047400001968D939C9311978D919C911197B4E054
:1047500080309B0718F01D921C921197E753F54C7F
:104760008081F8018083818185FF21C0D7018D91EF
:104770009C911197E3EDFEE320813181821793072D
:1047800040F08D919C91119720813181821B930B78
:104790000CC0D7018D919C911197E3EDFEE3208130
:1047A000318180509C4F821B930B009709F6D701F3
:1047B0008D919C911197E3EDFEE320813181821769
:1047C000930740F08D919C91119720813181821B3C
:1047D000930B0CC0D7018D919C911197E3EDFEE3F3
:1047E0002081318180509C4F821B930B009721F0D8
:1047F000C8010E940F1903C0C8010E941419D701F3
:104800008D919C9111978753954CFC01B0828D91AD
:104810009C91119701968D939C9311978D919C91EA
:104820001197F4E080309F0718F01D921C921197A9
:10483000D80111968C91119785FD1FC03FC0A3ED43
:10484000BEE3ED91FC9111978D919C91119701968A
:104850008D939C9311978D919C911197B4E080302A
:104860009B0718F01D921C921197E753F54C80811D
:10487000F8018083818185FF21C0D7018D919C91B2
:104880001197E3EDFEE3208131818217930740F019
:104890008D919C91119720813181821B930B0CC0CB
:1048A000D7018D919C911197E3EDFEE32081318139
:1048B00080509C4F821B930B009709F6D7018D9176
:1048C0009C911197E3EDFEE32081318182179307DC
:1048D00040F08D919C91119720813181821B930B27
:1048E0000CC0D7018D919C911197E3EDFEE32081DF
:1048F000318180509C4F821B930B009721F0C8019F
:104900000E940F1903C0C8010E941419D601BC925D
:1049100011968C91119785FD07C055C00F2EF0E6BA
:10492000AF2EF02D00EB18E0B0EBCB16BBE0DB06B2
:1049300061F0E0EACE16E8E0DE0649F0F0EBCF16D3
:10494000F8E0DF0631F422E005C020E003C021E0FA
:1049500001C020E030E0C901880F991FF301E80F82
:10496000F91F40815181F401E80FF91F8081918185
:104970004817590788F0220F331FF301E20FF31F86
:1049800040815181F401E20FF31F808191819A01EE
:10499000281B390BC90110C0220F331FF301E20F8E
:1049A000F31F80819181F401E20FF31F2081318197
:1049B00080509C4F821B930B009729F08091AB266F
:1049C000823509F458CEC6010E94141930EBC31683
:1049D0003BE0D30661F060EAC61668E0D60649F00F
:1049E00080EBC81688E0D80631F482E005C080E08C
:1049F00003C081E001C080E0282F30E0C901880FAA
:104A0000991FF301E80FF91F40815181F401E80F6C
:104A1000F91F808191814817590788F0220F331FB1
:104A2000F301E20FF31F40815181F401E20FF31F04
:104A300080819181DA01A81BB90BCD0110C0220F32
:104A4000331FF301E20FF31F80819181F401E20F24
:104A5000F31F2081318180509C4F821B930B009764
:104A600009F4E3C08091AB26823509F0DEC0C601AF
:104A70000E940F19DAC0B0EBCB16BBE0DB0661F089
:104A8000E0EACE16E8E0DE0649F0F0EBCF16F8E0FB
:104A9000DF0631F422E005C020E003C021E001C0C0
:104AA00020E030E0C901880F991FF401E80FF91FD9
:104AB00040815181808191810196808391838081A1
:104AC000918164E08030960710F010821182C90154
:104AD000982F8827990F990F840F951F840D951D86
:104AE000FC018081D6018C9311968C91119785FFE2
:104AF0004BC0B0EBCB16BBE0DB0661F0E0EACE16B4
:104B0000E8E0DE0649F0F0EBCF16F8E0DF0631F41E
:104B100022E005C020E003C021E001C020E030E039
:104B2000C901880F991FF301E80FF91F40815181D6
:104B3000F401E80FF91F808191814817590788F027
:104B4000220F331FF301E20FF31F40815181F40163
:104B5000E20FF31F808191819A01281B390BC90153
:104B600010C0220F331FF301E20FF31F80819181E8
:104B7000F401E20FF31F2081318180509C4F821B92
:104B8000930B009709F077CF30EBC3163BE0D306C9
:104B900061F060EAC61668E0D60649F080EBC816F8
:104BA00088E0D80631F422E005C020E003C021E00F
:104BB00001C020E030E0C901880F991FF301E80F20
:104BC000F91F40815181F401E80FF91F8081918123
:104BD0004817590788F0220F331FF301E20FF31F24
:104BE00040815181F401E20FF31F80819181DA014C
:104BF000A81BB90BCD0110C0220F331FF301E20F28
:104C0000F31F80819181F401E20FF31F2081318134
:104C100080509C4F821B930B009721F0C6010E948D
:104C20000F1903C0C6010E9414190894211C311CDD
:104C3000EB81FC812E163F0609F0D2CC2496CDBF25
:104C4000DEBFDF91CF911F910F91FF90EF90DF902A
:104C5000CF90BF90AF909F908F907F906F905F901C
:104C60004F903F902F9008953F924F925F926F9296
:104C70007F928F929F92AF92BF92CF92DF92EF92EC
:104C8000FF920F931F93CF93DF936C012BE0803B38
:104C9000920759F038E0803A930749F080EBC81644
:104CA00088E0D80631F442E005C040E003C041E0AE
:104CB00001C040E0C42FD0E0FE01EE0FFF1FED5316
:104CC000FD4C20813181CE01982F8827990F990FB3
:104CD000820F931FDC01A753BD4C6C93808191819F
:104CE00001968083918380819181E4E080309E07EA
:104CF00030F0CC0FDD1FCD53DD4C188219824423D8
:104D000029F0F601818185FD2FC281C2F6018181E2
:104D100085FD1DC18FC1F0EBCF16FBE0DF0661F012
:104D200020EAC21628E0D20649F030EBC31638E07C
:104D3000D30631F422E005C020E003C021E001C029
:104D400020E030E0C901880F991FF401E80FF91F36
:104D500040815181808191810196808391838081FE
:104D6000918164E08030960710F010821182C901B1
:104D7000982F8827990F990F840F951F840D951DE3
:104D8000FC01B080FDE0BF1611F43092AB26F801B3
:104D9000808191818753954CFC01A082F80180812C
:104DA000918101968083918380819181F4E08030AC
:104DB0009F0718F0F80110821182F701818185FDAB
:104DC00018C031C0E881F981888199810196888372
:104DD00099838881998124E08030920710F01882AD
:104DE0001982E753F54C8081F7018083818185FF2B
:104DF0001AC0F80180819181288139818217930737
:104E000038F08081918128813981821B930B09C000
:104E1000F801808191812881398180509C4F821BCB
:104E2000930B009779F6F80180819181288139816F
:104E30008217930738F08081918128813981821B04
:104E4000930B09C0F80180819181288139818050BC
:104E50009C4F821B930B009721F0C7010E940F19F2
:104E600003C0C7010E941419F80180819181875302
:104E7000954CFC01B082F80180819181019680837C
:104E8000918380819181F4E080309F0718F0F801D0
:104E900010821182F701818185FD18C031C0E8813F
:104EA000F981888199810196888399838881998184
:104EB00024E08030920710F018821982E753F54CF5
:104EC0008081F7018083818185FF1AC0F80180818C
:104ED0009181288139818217930738F080819181EF
:104EE00028813981821B930B09C0F801808191814F
:104EF0002881398180509C4F821B930B009779F653
:104F0000F80180819181288139818217930738F0D7
:104F10008081918128813981821B930B09C0F8011E
:104F2000808191812881398180509C4F821B930B15
:104F3000009721F0C7010E940F1903C0C7010E940A
:104F40001419F601B082818185FD25C073C00F2E32
:104F5000F3EC6F2EF2E37F2EF02D0F2EFFEC8F2E51
:104F6000FEE39F2EF02D0F2EF9EC4F2EF2E35F2E75
:104F7000F02D0F2EFEE43F2EF02D07EC12E30F2E46
:104F8000F0E6AF2EF02D0F2EF0EBEF2EF8E0FF2E17
:104F9000F02DC3EDDEE3F0EBCF16FBE0DF0661F0B2
:104FA00020EAC21628E0D20649F030EBC31638E0FA
:104FB000D30631F422E005C020E003C021E001C0A7
:104FC00020E030E0C901880F991FF301E80FF91FB5
:104FD00040815181F401E80FF91F808191814817C8
:104FE000590788F0220F331FF301E20FF31F4081AE
:104FF0005181F401E20FF31F80819181FA01E81BD6
:10500000F90BCF0110C0220F331FF301E20FF31F82
:1050100080819181F401E20FF31F20813181805062
:105020009C4F821B930B009729F08091AB26823511
:1050300009F471CEC6010E941419F0EBCF16FBE003
:10504000DF0661F020EAC21628E0D20649F030EB14
:10505000C31638E0D30631F422E005C020E003C0D7
:1050600021E001C020E030E0C901880F991FFC0158
:10507000ED53FD4C408151818153914CFC01808165
:1050800091814817590778F0220F331FF901ED532A
:10509000FD4C808191812153314CF9012081318176
:1050A000821B930B12C0220F331FF901ED53FD4CED
:1050B000408151812153314CF901808191814050CF
:1050C0005C4F9A01281B390BC901009709F4EFC006
:1050D0008091AB26823509F0EAC0C6010E940F1903
:1050E000E6C030EBC3163BE0D30661F080EAC81699
:1050F00088E0D80649F0E0EBCE16E8E0DE0631F4B1
:1051000022E005C020E003C021E001C020E030E043
:10511000C901880F991FFB01E80FF91F40815181D8
:105120008081918101968083918380819181F4E0D7
:1051300080309F0740F0C901880F991F860F971F85
:10514000FC0110821182C901982F8827990F990FAD
:10515000840F951FFE01E80FF91F8081F6018083FF
:10516000818185FD07C053C0A3ECB2E36FEC7EE301
:10517000C9ECD2E3F0EBCF16FBE0DF0661F020EAEA
:10518000C21628E0D20649F030EBC31638E0D30649
:1051900031F422E005C020E003C021E001C020E09E
:1051A00030E0C901880F991FFD01E80FF91F408108
:1051B0005181FB01E80FF91F808191814817590740
:1051C00088F0220F331FFD01E20FF31F4081518150
:1051D000FB01E20FF31F80819181FA01E81BF90BBB
:1051E000CF0112C0C901880F991FFD01E80FF91FF7
:1051F00040815181FB01E80FF91F20813181CA01F3
:1052000080509C4F821B930B009709F06ACFF0EB04
:10521000CF16FBE0DF0661F020EAC21628E0D206D6
:1052200049F030EBC31638E0D30631F422E005C074
:1052300020E003C021E001C020E030E0C901880F78
:10524000991FFC01ED53FD4C408151818153914CDC
:10525000FC01808191814817590778F0220F331F94
:10526000F901ED53FD4C408151812153314CF9013D
:1052700080819181481B590B10C0220F331FF90107
:10528000ED53FD4C408151812153314CF901808116
:10529000918140505C4F481B590B4115510521F03D
:1052A000C6010E940F1903C0C6010E941419DF91A4
:1052B000CF911F910F91FF90EF90DF90CF90BF9013
:1052C000AF909F908F907F906F905F904F903F90A6
:1052D00008952BE0803B920751F068E0803A9607F2
:1052E00041F028E0803B920731F422E005C020E045
:1052F00003C021E001C020E030E0F901EE0FFF1F04
:10530000E153F14C408151818081918101968083EC
:1053100091838081918164E08030960738F0F901B3
:10532000EE0FFF1FE153F14C10821182F901FE2FA5
:10533000EE27FF0FFF0F4E0F5F1FFA01E753FD4CE3
:10534000808108952BE0803B920751F0E8E0803A9D
:105350009E0741F0F8E0803B9F0731F482E005C0F2
:1053600080E003C081E001C080E090E0880F991FD9
:10537000FC01E753F14C108211828354994DFC01DA
:10538000108211820895CF93DF93EC010E94462290
:10539000CE010E94A229CE010E940519CE010E94D1
:1053A0000F19DF91CF91089580EA98E00E94C329F8
:1053B00080EB98E00E94C32980EB9BE00E94C32908
:1053C00008952BE0803B920751F0E8E0803A9E0779
:1053D00041F0F8E0803B9F0731F482E005C080E0B7
:1053E00003C081E001C080E090E09C01220F331FE8
:1053F000F901E753F14C408151812354394DF901B2
:10540000208131814217530780F09C01220F331F06
:10541000F901E753F14C808191812354394DF90111
:1054200020813181821B930B08959C01220F331F31
:10543000F901E753F14C408151812354394DF90171
:1054400020813181CA0180509C4F821B930B0895AB
:105450002BE0803B920751F028E0803A920741F020
:1054600028E0803B920731F442E005C040E003C0F1
:1054700041E001C040E050E0FA01EE0FFF1FE753AA
:10548000F14C808191819A01322F2227330F330F03
:10549000820F931FDC01AD53B94D6C9380819181D4
:1054A0000196808391838081918124E080309207EE
:1054B00038F0FA01EE0FFF1FE753F14C1082118212
:1054C00008952BE0803B920751F068E0803A960700
:1054D00041F028E0803B920731F422E005C020E053
:1054E00003C021E001C020E030E0F901EE0FFF1F12
:1054F000E354F94D408151818081918101968083EF
:1055000091838081918164E08030960738F0F901C1
:10551000EE0FFF1FE354F94D10821182F901FE2FA7
:10552000EE27FF0FFF0F4E0F5F1FFA01ED53F94DEE
:10553000808108953F924F925F926F927F928F92F7
:105540009F92AF92BF92CF92DF92EF92FF920F9312
:105550001F93CF93DF932091C3323091C432809157
:10556000CF3E9091D03E2817390758F08091C33232
:105570009091C4322091CF3E3091D03E821B930B4C
:105580000CC08091C3329091C4322091CF3E3091B3
:10559000D03E80509C4F821B930B009709F47EC134
:1055A000E0EBFBE0818185FDFBC048C1D601ED91B8
:1055B000FC9111978D919C91119701968D939C93DD
:1055C00011978D919C911197B4E080309B0720F04A
:1055D000D6011D921C921197E40DF51DB080BDE01F
:1055E000BB1611F43092AB26F8018081918187536C
:1055F000954CDC01AC9280819181019680839183EE
:1056000080819181B4E080309B0710F0108211827C
:10561000F701818185FD1AC032C0E881F981888156
:1056200099810196888399838881998124E08030CB
:10563000920710F018821982E753F54C8081D70148
:105640008C9311968C91119785FF19C0F801808178
:105650009181288139818217930738F08081918167
:1056600028813981821B930B08C080819181288118
:10567000398180509C4F821B930B009771F6F80183
:1056800080819181288139818217930738F0808148
:10569000918128813981821B930B08C0808191817F
:1056A0002881398180509C4F821B930B009721F0F9
:1056B000C7010E940F1903C0C7010E941419F80105
:1056C000808191818753954CDC01BC9280819181CE
:1056D00001968083918380819181B4E080309B0723
:1056E00010F010821182F701818185FD1AC032C04D
:1056F000E881F981888199810196888399838881DD
:10570000998124E08030920710F018821982E753C3
:10571000F54C8081D7018C9311968C91119785FF60
:1057200019C0F801808191812881398182179307FE
:1057300038F08081918128813981821B930B08C0C8
:10574000808191812881398180509C4F821B930BED
:10575000009771F6F8018081918128813981821743
:10576000930738F08081918128813981821B930BC6
:1057700008C0808191812881398180509C4F821B93
:10578000930B009721F0C7010E940F1903C0C701B6
:105790000E941419F301B082818185FD2BC04EC097
:1057A0000F2EF3EC8F2EF2E39F2EF02D0F2EFFEC39
:1057B000CF2EFEE3DF2EF02D0F2EF9EC4F2EF2E36D
:1057C0005F2EF02D0F2EFEE43F2EF02D07EC12E39E
:1057D0000F2EF0E6AF2EF02D0F2EF0EBEF2EF8E0AF
:1057E000FF2EF02DC3EDDEE30F2EF0EB6F2EFBE06E
:1057F0007F2EF02DD4018D919C911197F60120817F
:1058000031818217930740F08D919C9111972081EF
:105810003181821B930B0BC0D4018D919C91119708
:10582000F6012081318180509C4F821B930B0097A1
:1058300029F08091AB26823509F4B8CE80EB9BE04D
:105840000E9414192091C3323091C4328091CF3E0E
:105850009091D03E2817390758F08091C33290912B
:10586000C4322091CF3E3091D03E821B930B0CC0AE
:105870008091C3329091C4322091CF3E3091D03E7E
:1058800080509C4F821B930B009741F08091AB2678
:10589000823521F480EB9BE00E940F19DF91CF91BC
:1058A0001F910F91FF90EF90DF90CF90BF90AF903E
:1058B0009F908F907F906F905F904F903F90089552
:1058C000813061F0813018F08230A9F40EC08FEF82
:1058D00090E0E0E0FBE080AF91AF08958FEF90E0C3
:1058E000E0E0FBE082AF93AF08958FEF90E080930C
:1058F0003E0B90933F0B0895813051F0813018F0AA
:10590000823079F40AC0E0E0FBE010AE11AE0895F9
:10591000E0E0FBE012AE13AE089510923E0B109241
:105920003F0B0895813059F0813018F0823091F4A6
:105930000CC070E0E0E0FBE060AF71AF089570E094
:10594000E0E0FBE062AF73AF089570E060933E0B60
:1059500070933F0B0895813059F0813018F08230F8
:1059600091F40CC0E0E0FBE080A5809580A708954D
:10597000E0E0FBE082A5809582A70895E0E0FBE0EF
:1059800086A5809586A7089590E0E0E0FBE084AFCF
:1059900095AF0895CF93DF93E0EAF6E08FE081833F
:1059A00080E4808B818B838BC0E0DBE087E08883A1
:1059B00083EF89838FEF90E08EA39FA380E00E9406
:1059C000C42C18AE19AE1AAE1BAE10923E0B10923C
:1059D0003F0BDF91CF9108958091D63E8150809307
:1059E000D63E85E28093122285E08093D73E809157
:1059F000D53E0E94C42C0895882349F08093D63E5A
:105A00006115710521F06093D53E0E94EC2C08953C
:105A100080911222853219F0863219F518C08091D2
:105A2000D73E81508093D73E8823F1F40E94C42C46
:105A30008091D63E882321F484E280931222089537
:105A400086E28093122282E38093D73E089580916C
:105A5000D73E81508093D73E882331F40E94EC2CAE
:105A6000089580E00E94C42C0895D9D008F481E004
:105A700008950CD00FC107D140F0FED030F021F4D2
:105A80005F3F19F0F0C0511139C1F3C014D198F340
:105A90009923C9F35523B1F3951B550BBB27AA27AF
:105AA00062177307840738F09F5F5F4F220F331F21
:105AB000441FAA1FA9F333D00E2E3AF0E0E830D0ED
:105AC00091505040E695001CCAF729D0FE2F27D0F0
:105AD000660F771F881FBB1F261737074807AB07BE
