:100000000C94FA000C941F010C941F010C941F0116
:100010000C941F010C941F010C941F010C941F01E0
:100020000C941F010C941F010C941F010C941F01D0
:100030000C941F010C941F010C941F010C941F01C0
:100040000C941F010C941F010C941F010C941F01B0
:100050000C941F010C941F010C941F010C941F01A0
:100060000C941F010C94B21B0C94451D0C941F01A1
:100070000C94201C0C94A21C0C941F010C941F01C6
:100080000C941F010C941F010C941F010C941F0170
:100090000C941F010C941F010C941F010C941F0160
:1000A0000C941F010C941F010C941F010C941F0150
:1000B0000C941F010C941F010C941F010C941F0140
:1000C0000C941F010C941F010C941F010C941F0130
:1000D0000C941F010C941F010C941F010C941F0120
:1000E0000C941F010C941F010C941F010C941F0110
:1000F0000C941F010C941F010C941F010C941F0100
:100100000C941F010C941F010C941F010C941F01EF
:100110000C941F010C941F010C941F010C941F01DF
:100120000C941F010C941F010C941F010C941F01CF
:100130000C941F010C941F010C941F010C941F01BF
:100140000C941F010C941F010C941F010C941F01AF
:100150000C941F010C941F010C941F010C94651446
:100160000C941F010C941F010C941F010C941F018F
:100170000C941F010C941F010C941F010C941F017F
:100180000C941F010C941F010C941F010C941F016F
:100190000C944C160C94B4160C941F010C941F0173
:1001A0000C941F010C941F010C941F010C941F014F
:1001B0000C941F010C941F010C941F010C941F013F
:1001C0000C941F010C941F010C941F010C941F012F
:1001D0000C941F010C941F010C941F010C941F011F
:1001E0000C941F010C941F010C94B4220C94E22077
:1001F0000C941F0111241FBECFEFDFE3DEBFCDBF84
:1002000000E00CBF18BE19BE1ABE1BBE12E2A0E071
:10021000B0E2E8E4F6E600E00BBF02C007900D9202
:10022000A837B107D9F71FE3A8E7B2E201C01D92D2
:10023000A135B107E1F70E948B150C9422330C9481
:100240000000AAECB1E092E09C93E82FF0E08491EA
:100250001C92089580FF10C0E0E0F2E011A228E0B7
:1002600021A790E191AB88E181AFE0E4F2E011A237
:1002700021A791AB81AF0895E0E0F2E030E231A335
:1002800028E221A790E391AB88E381AFE0E4F2E0BC
:1002900031A321A791AB81AF0895E0E0F2E0808126
:1002A0008C638083E0E4F2E080818C638083089536
:1002B000CF92DF92EF92FF920F931F93CF93DF9332
:1002C00080E20E942101C0E0D2E08C8781E20E949E
:1002D00021018D870F2EF7E0EF2EF02DEC820F2EEF
:1002E000F3E1DF2EF02DDA820F2EF6E0CF2EF02D87
:1002F000C982FF24F394F882F8A2F8A6F8AAF8AE0F
:1003000084E20E94210100E412E0F801848785E282
:100310000E942101F8018587E482D282C182F082A5
:10032000F0A2F0A6F0AAF0AE1092FE261092FB26E4
:1003300080E00E942A01888182608883F80181819F
:10034000826081830E944D01DF91CF911F910F91B7
:10035000FF90EF90DF90CF900895CF92DF92EF92D1
:10036000FF92CF93DF936B017C01E901BA0180E03A
:1003700090E00E945B31A70196010E940D320E941D
:100380002A31DC01CB01BE014AE050E00E949632E6
:10039000DF91CF91FF90EF90DF90CF900895EF9293
:1003A000FF920F931F93CF93DF937A01A82FB0E0B2
:1003B000AD0142955295507F5427407F5427FA0152
:1003C000E550FA4D455F594D80E090E02191319123
:1003D000820F931FE417F507C9F7969587959695B1
:1003E000879596958795683651F06A3671F067362D
:1003F000E1F4813A910510F1815A904021C0843B8B
:10040000910588F0845B904032C01197AE7FA2586E
:10041000BD4D2D913C9111978217930708F45AC056
:10042000821B930B59C080E090E0683601F16A3678
:1004300009F452C0673609F05FC002C080E090E066
:10044000BC0180E090E00E945B3127E938EA4FEF81
:1004500059E30E940D3225E83BEE41E551E40E944C
:100460000D3244E650E097010E94AD0145C0BC0149
:1004700080E090E00E945B3127E938EA4FEF59E3D2
:100480000E940D3225E83BEE41E551E40E940D3219
:10049000062F172FD82FC92F862F912FAD2FBC2FA6
:1004A000BC01CD012DEC3CEC4CE050E40E94BE3090
:1004B000882324F400E010E0D0E0C0E0802F912FEA
:1004C000AD2FBC2FBC01CD0144E650E097010E9446
:1004D000AD0112C080E090E0BC0180E090E00E949D
:1004E0005B3123E730E34BE15AE30E940D3248EEE3
:1004F00053E097010E94AD01DF91CF911F910F91C1
:10050000FF90EF900895482F50E042955295507F0C
:100510005427407F5427FA01E550FA4D455F594D65
:1005200020E030E0819191912817390708F49C016F
:10053000E417F507B9F7822F932F089592958295C6
:100540008F7089279F708927813A910510F481EA7D
:1005500090E00895DF92EF92FF920F931F93CF9355
:10056000DF93E0E0F2E086818F3009F016C1E0E42D
:10057000F2E086818F3009F010C18091FE2680FF65
:1005800071C00091FB2610E0C0E0D2E08889998913
:100590000E949E020F2EFBEFEF2EF5E2FF2EF02DB4
:1005A000F801EE0FFF1FEE0DFF1D808391838A89F6
:1005B0009B890E949E02F8013896EE0FFF1FEE0DF8
:1005C000FF1D808391838C899D890E949E02F80182
:1005D0007096EE0FFF1FEE0DFF1D808391838E89B5
:1005E0009F890E949E02F8017896EE0FFF1FEE0D84
:1005F000FF1D80839183C0E4D2E08CA19DA10E9465
:100600009E02F801E05CFF4FEE0FFF1FEE0DFF1D95
:10061000808391838CA59DA50E949E02F801E85BD2
:10062000FF4FEE0FFF1FEE0DFF1D808391838CA9FE
:100630009DA90E949E02F801E05BFF4FEE0FFF1F95
:10064000EE0DFF1D808391838CAD9DAD0E949E02B7
:10065000085A1F4F000F111FE00EF11EF701808393
:1006600091837AC0D090FB260D2D10E0C0E0D2E03F
:100670008CA19DA10E949E02F801B0960F2EFBEF67
:10068000EF2EF5E2FF2EF02DEE0FFF1FEE0DFF1DFA
:10069000808391838CA59DA50E949E02F801B89647
:1006A000EE0FFF1FEE0DFF1D808391838CA99DA986
:1006B0000E949E02F801F096EE0FFF1FEE0DFF1D47
:1006C000808391838CAD9DAD0E949E02F801F896C7
:1006D000EE0FFF1FEE0DFF1D80839183C0E4D2E07B
:1006E0008CA19DA10E949E02F801E05AFF4FEE0FDF
:1006F000FF1FEE0DFF1D808391838A899B890E94D5
:100700009E02F801E859FF4FEE0FFF1FEE0DFF1D8F
:10071000808391838C899D890E949E02F801E05913
:10072000FF4FEE0FFF1FEE0DFF1D808391838E891B
:100730009F890E949E0208581F4F000F111FE00E54
:10074000F11EF701808391838D2D8F5F8093FB26AF
:10075000883010F01092FB268FE0E0E0F2E0868314
:10076000E0E4F2E086838091FE268F5F8093FE2690
:100770000E942A010E944D018091ED25893269F481
:10078000CEE7D2E200E0802F880F8F5F0E948302C5
:10079000899399930F5F0830B1F7DF91CF911F9143
:1007A0000F91FF90EF90DF9008958091E7258232BE
:1007B00089F4809178228F5F8093782280FF05C032
:1007C00080E090E20E941E0E08958FE090E20E9469
:1007D0001E0E08958DE190E20E94860B87E290E262
:1007E0000E94860B82E390E20E94860B8CE390E2EB
:1007F0000E94860B08951092E62589E28093ED25EC
:100800008AE30E94241585E00E948A0908950E94C7
:10081000FB038FE18093E725089580E28093E7252D
:1008200087E490E20E94860B0895CF93C82F81E061
:1008300064E670E00E948530CF3019F0C03101F5D8
:1008400010C083E28093E72580E590E20E94860B4A
:100850008CE590E20E94860B84E690E20E94860B73
:100860000FC084E28093E72580E590E20E94860B2A
:100870008CE690E20E94860B84E790E20E94860B51
:10088000CF91089581E28093E7258CE790E20E9462
:10089000860B0895CF93C82F81E064E670E00E9434
:1008A000853086E890E20E94860B8FEF80932527A3
:1008B000C23191F0C33118F4C13129F505C0C331FB
:1008C00099F0C43101F518C085E28093E72580E9ED
:1008D00090E20E94860B17C086E28093E72588E9A4
:1008E00090E20E94860B0FC087E28093E72580EAA2
:1008F00090E20E94860B07C088E28093E72588EA91
:1009000090E20E94860BCF910895CF93C82F81E08B
:1009100064E670E00E948530C0931027C13619F05C
:10092000C23651F405C080EB90E20E94860B04C0F1
:1009300089EB90E20E94860BCF91089582E280932A
:10094000E72582EC90E20E94860B08958091E725CE
:100950008052823008F054C08091E62580FD04C0AA
:1009600081E20E94060C0DC08091ED25893221F4B0
:1009700080E20E94060C05C08A3219F48FE10E94C1
:10098000060C8091E62581FD04C081E20E94F20BF5
:100990000DC08091ED25893221F480E20E94F20B96
:1009A00005C08A3219F48FE10E94F20B8091E6258E
:1009B00082FD04C081E20E94DE0B0DC08091ED2516
:1009C000893221F480E20E94DE0B05C08A3219F4DC
:1009D0008FE10E94DE0B8091E62583FD04C081E259
:1009E0000E94CA0B08958091ED25893221F480E29E
:1009F0000E94CA0B08958A3219F48FE10E94CA0B33
:100A00000895CF93C82F81E064E670E00E9485309E
:100A100080EB9BE00E944C2D82E58093242785E1AA
:100A2000809312278BEC90E20E94860BC03269F013
:100A3000C13218F4CF3189F405C0C13249F0C23255
:100A400061F409C00E940D0408C00E940D0405C095
:100A50000E94420402C00E949E040E94A604CF91FC
:100A60000895682F8091E7258232C1F1833240F4E6
:100A70008032D1F0813228F58F3109F077C010C073
:100A8000863209F447C0873220F4853209F06EC0FF
:100A900032C0873209F44DC0883209F067C058C0AF
:100AA00080E20E94010508956E3221F481E20E94E5
:100AB000010508956D3209F059C082E20E940105D6
:100AC00008956E3221F482E20E94010508956D328C
:100AD00009F04CC080E20E94010508956E3221F4B5
:100AE00080E20E94010508956D3209F03FC081E265
:100AF0000E940105089580911027813619F08236F1
:100B0000A9F504C080E00E94BE13089581E00E9410
:100B1000BE13089580911027813619F0823631F581
:100B200004C082E00E94BE13089583E00E94BE13B9
:100B3000089580911027813619F08236B9F404C0E7
:100B400084E00E94BE13089585E00E94BE130895BC
:100B500080911027813619F0823641F404C086E076
:100B60000E94BE13089587E00E94BE1308958091ED
:100B7000E7258F3119F480E00E94310508958091B6
:100B8000ED258A3289F489E28093ED258AE30E947B
:100B900024158AE30E94671385E00E948A0981E098
:100BA000E0EEF6E0868312C0893281F48AE2809317
:100BB000ED258CE30E94EE148CE30E94371385E050
:100BC0000E945E0981E0E0EEF6E085830E94A604C3
:100BD0000895CF93C82F81E090E00C2E02C0880FBB
:100BE000991F0A94E2F79091E625892B8093E625D8
:100BF0008C2F0E945E098091ED258A3231F48C2F72
:100C00000E94EE148C2F0E9437130E94A604CF91ED
:100C10000895CF93C82F81E090E00C2E02C0880F7A
:100C2000991F0A94E2F780959091E6258923809395
:100C3000E6258C2F0E9424158C2F0E9467138C2F81
:100C40000E948A090E94A604CF9108952091E6256A
:100C500030E0082E02C0359527950A94E2F720FD72
:100C600003C00E94E90508950E9409060895CF93E4
:100C7000DF93CDB7DEB72C97CDBFDEBF8091792251
:100C800090917A2201968093792290937A2221E0A2
:100C9000843F920708F4C8C21092792210927A22F7
:100CA0008091E725843209F4FBC0853250F481320B
:100CB00009F467C1833209F482C0803209F0B4C2FA
:100CC0000DC0863209F404C2863208F4C3C18732EB
:100CD00009F438C2883209F0A7C26EC280E067E624
:100CE000AE014F5F5F4F0E94CF018CEC90E2BE01DE
:100CF0006F5F7F4F0E941A0C81E06AE6AE014F5F82
:100D00005F4F0E94CF0182ED90E2BE016F5F7F4F87
:100D10000E941A0C84E067E6AE014F5F5F4F0E94AD
:100D2000CF0189ED90E2BE016F5F7F4F0E941A0CE8
:100D300085E06AE6AE014F5F5F4F0E94CF018FED05
:100D400090E2BE016F5F7F4F0E941A0C88E067E659
:100D5000AE014F5F5F4F0E94CF0186EE90E2BE0171
:100D60006F5F7F4F0E941A0C89E06AE6AE014F5F09
:100D70005F4F0E94CF018CEE90E2BE016F5F7F4F0C
:100D80000E941A0C8CE067E6AE014F5F5F4F0E9435
:100D9000CF0183EF90E2BE016F5F7F4F0E941A0C7C
:100DA0008DE06AE6AE014F5F5F4F0E94CF0189EF91
:100DB00090E2BE016F5F7F4F0E941A0C35C280E047
:100DC00067E6AE014F5F5F4F0E94CF0180E091E286
:100DD000BE016F5F7F4F0E941A0C81E06AE6AE0190
:100DE0004F5F5F4F0E94CF0187E091E2BE016F5FCE
:100DF0007F4F0E941A0C82E068E6AE014F5F5F4FA2
:100E00000E94CF018EE091E2BE016F5F7F4F0E9492
:100E10001A0C83E06AE6AE014F5F5F4F0E94CF017C
:100E200086E191E2BE016F5F7F4F0E941A0C84E061
:100E300067E6AE014F5F5F4F0E94CF018EE191E206
:100E4000BE016F5F7F4F0E941A0C85E06AE6AE011B
:100E50004F5F5F4F0E94CF0185E291E2BE016F5F5D
:100E60007F4F0E941A0C86E068E6AE014F5F5F4F2D
:100E70000E94CF018CE291E2BE016F5F7F4F0E9422
:100E80001A0C87E06AE6AE014F5F5F4F0E94CF0108
:100E900084E391E2BE016F5F7F4F0E941A0CC4C1D0
:100EA00088E067E6AE014F5F5F4F0E94CF0180E0B0
:100EB00091E2BE016F5F7F4F0E941A0C89E06AE6E3
:100EC000AE014F5F5F4F0E94CF0187E091E2BE010C
:100ED0006F5F7F4F0E941A0C8AE068E6AE014F5F99
:100EE0005F4F0E94CF018EE091E2BE016F5F7F4FA6
:100EF0000E941A0C8BE06AE6AE014F5F5F4F0E94C2
:100F0000CF0186E191E2BE016F5F7F4F0E941A0C14
:100F10008CE067E6AE014F5F5F4F0E94CF018EE12C
:100F200091E2BE016F5F7F4F0E941A0C8DE06AE66E
:100F3000AE014F5F5F4F0E94CF0185E291E2BE019B
:100F40006F5F7F4F0E941A0C8EE068E6AE014F5F24
:100F50005F4F0E94CF018CE291E2BE016F5F7F4F35
:100F60000E941A0C8FE06AE6AE014F5F5F4F0E944D
:100F7000CF0184E391E2BE016F5F7F4F0E941A0CA4
:100F800053C180E0BE016F5F7F4F0E941B148CEC49
:100F900090E2BE016F5F7F4F0E941A0C81E0BE019C
:100FA0006F5F7F4F0E941B1482ED90E2BE016F5F66
:100FB0007F4F0E941A0C82E0BE016F5F7F4F0E943C
:100FC0001B1489ED90E2BE016F5F7F4F0E941A0CE7
:100FD00083E0BE016F5F7F4F0E941B148FED90E294
:100FE000BE016F5F7F4F0E941A0C84E0BE016F5FED
:100FF0007F4F0E941B1486EE90E2BE016F5F7F4F11
:101000000E941A0C85E0BE016F5F7F4F0E941B1487
:101010008CEE90E2BE016F5F7F4F0E941A0C86E05B
:10102000BE016F5F7F4F0E941B1483EF90E2BE01F1
:101030006F5F7F4F0E941A0C87E0BE016F5F7F4F8A
:101040000E941B1489EF90E2BE016F5F7F4F0E94E8
:101050001A0CEAC08091252790E0837090701816D2
:1010600019060CF0E1C080E0BE016F5F7F4F0E9467
:1010700058148CE391E2BE016F5F7F4F0E941A0CFF
:1010800081E0BE016F5F7F4F0E94581483E491E2BC
:10109000BE016F5F7F4F0E941A0C80E0BE016F5F40
:1010A0007F4F0E941B148AE491E2BE016F5F7F4F65
:1010B0000E941A0C81E0BE016F5F7F4F0E941B14DB
:1010C00081E591E2BE016F5F7F4F0E941A0CACC0B8
:1010D000809125278C7009F4A7C082E0BE016F5F64
:1010E0007F4F0E9458148CE391E2BE016F5F7F4FE7
:1010F0000E941A0C83E0BE016F5F7F4F0E9458145C
:1011000083E491E2BE016F5F7F4F0E941A0C82E080
:10111000BE016F5F7F4F0E941B148AE491E2BE0103
:101120006F5F7F4F0E941A0C83E0BE016F5F7F4F9D
:101130000E941B1481E591E2BE016F5F7F4F0E9408
:101140001A0C72C080912527807309F46DC084E069
:10115000BE016F5F7F4F0E9458148CE391E2BE0185
:101160006F5F7F4F0E941A0C85E0BE016F5F7F4F5B
:101170000E94581483E491E2BE016F5F7F4F0E948A
:101180001A0C84E0BE016F5F7F4F0E941B148AE43B
:1011900091E2BE016F5F7F4F0E941A0C85E0BE0195
:1011A0006F5F7F4F0E941B1481E591E2BE016F5F6C
:1011B0007F4F0E941A0C38C080912527807CA1F1B6
:1011C00086E0BE016F5F7F4F0E9458148CE391E26E
:1011D000BE016F5F7F4F0E941A0C87E0BE016F5FF8
:1011E0007F4F0E94581483E491E2BE016F5F7F4FEE
:1011F0000E941A0C86E0BE016F5F7F4F0E941B1495
:101200008AE491E2BE016F5F7F4F0E941A0C87E073
:10121000BE016F5F7F4F0E941B1481E591E2BE010A
:101220006F5F7F4F0E941A0C2C96CDBFDEBFDF91FF
:10123000CF91089580E090E06091E6250E94D2323F
:1012400086E297E261E070E040E150E00E94C8323F
:10125000089580E090E00E94B8328093E62586E20F
:1012600097E261E070E040E150E00E94AC32089506
:101270000E942909089580E090E00E94B832089504
:101280000895E0E0F7E080E4818B828B838B848B90
:101290008EE186838183109213278FE3E0E2F7E0EB
:1012A000828389E280930D2780930A278FEF8093B2
:1012B000222780930F278093092708958230B1F069
:1012C000833028F4882341F0813019F50AC0833037
:1012D00091F08530F1F414C082E0E0E0F7E085831E
:1012E000089584E0E0E0F7E08583089588E0E0E099
:1012F000F7E08583089580E1E0E0F7E085830895D5
:101300008091E625880FE0E0F7E0858382E00E9487
:10131000E92F08958230B1F0833028F4882341F01A
:10132000813009F50AC0833091F08530E1F414C0B2
:1013300082E0E0E0F7E08683089584E0E0E0F7E013
:101340008683089588E0E0E0F7E08683089580E1F1
:10135000E0E0F7E08683089510920E27109215279B
:1013600081E080931627089580910F2780930927A5
:101370008091222780930F27E0E2F7E08085809319
:1013800022270895CF93C82F81E06AE070E00E9481
:1013900085300E94B705C230B1F0C33028F4CC23A9
:1013A00051F0C13039F50BC0C430A9F0C43078F029
:1013B000C53001F518C080E00E9426061BC081E000
:1013C0000E94260617C082E00E94260613C083E012
:1013D0000E9426060FC010922027109221278AE231
:1013E00080930A2707C010922027109221278AE2B3
:1013F00080930D27CF910895843019F0853059F5E9
:1014000015C089E280930A27809120279091212797
:1014100023E0893E920738F00E94730B1092202738
:101420001092212708950E94BF05089589E28093B4
:101430000D278091E725813271F4809120279091CA
:10144000212723E0893E920730F00E941A0910926A
:101450002027109221270895282F30E0042E02C063
:10146000359527950A94E2F720FD1BC070E0042E05
:1014700002C0759567950A94E2F760FF12C020914B
:10148000222730E0042E02C0359527950A94E2F712
:1014900020FD04C0842F0E94C2090895842F0E9459
:1014A000FC090895CF93DF9380910F27C0912227E5
:1014B000C827D0910927D82780910D278A32B1F407
:1014C0008091202790912127019680932027909347
:1014D00021272091E725213249F423E0893E920714
:1014E00028F081E064E670E00E94853080910A2750
:1014F0008A3291F480912027909121270196809340
:1015000020279093212723E0883E920729F481E049
:1015100064E670E00E9485308C2F6D2F40E00E94C1
:101520002C0A8C2F6D2F41E00E942C0A8C2F6D2FDE
:1015300042E00E942C0A8C2F6D2F43E00E942C0A5F
:101540008C2F6D2F44E00E942C0A8C2F6D2F45E0CC
:101550000E942C0ADF91CF9108958091E7258F5149
:101560008430A8F580915821909159219923C4F095
:10157000019680935821909359210E9436160E941B
:101580004116809158219091592121E0853F920781
:1015900064F18FEF9FEF8093582190935921089524
:1015A0000E943616882339F0109258211092592142
:1015B0008DE20E9431050E9441168823B1F01092FD
:1015C0005821109259218EE20E94310508950E94FF
:1015D0003616882319F08DE20E9431050E944116CB
:1015E000882319F08EE20E94310508959091E62536
:1015F0008091ED25893209F043C0990F80910E2723
:10160000882339F4E0E0F7E095838F5F80930E271D
:1016100010C0813039F4E0E0F7E0968382E08093F7
:101620000E2707C08F5F80930E278B3010F010922B
:101630000E278091162760911527680F6093152754
:10164000662334F060FD12C082E00E941B300EC0A1
:10165000882321F06E5F6093152703C06E5F60934F
:10166000152782E0609115270E941B308091152775
:1016700081508E3F28F08091162781958093162700
:101680000E94B4090E94520A0E94AD0A08958EE495
:10169000809324278FE180930C27089580EB9BE0B3
:1016A0000E94931C80EB9BE00E949D1C80EB9BE0C2
:1016B0000E94CF2580EB9BE00E942B2D80EB9BE0CE
:1016C0000E948E1C80EB9BE00E94981C82E5809318
:1016D000242781E980930C2780EB9BE06AE571E287
:1016E0000E94372608950E944E0B80EB9BE06CE52C
:1016F00071E20E94372681E980930C2708950E94A9
:101700004E0B8091E7250E9401050895CF93DF934A
:10171000EC0180910C278F3191F480EB9BE00E94CB
:10172000F02523E08C39920750F480EB9BE0BE015A
:101730000E94372680EB9BE06DE00E94BD29DF917F
:10174000CF9108958F3119F0803251F405C083E6AE
:1017500091E20E94860B04C08CE691E20E94860B07
:1017600085E791E20E94860B81E891E20E94860B58
:101770008DE891E20E94860B87E991E20E94860B38
:10178000089585EA91E20E94860B80EB91E20E9427
:10179000860B0895CF93C82F813239F48CEB91E2F8
:1017A0000E94860B0E94C10B07C087EC91E20E9449
:1017B000860B8C2F0E94A20BCF910895CF93C82F38
:1017C000813239F482ED91E20E94860B0E94C10BB6
:1017D00007C08DED91E20E94860B8C2F0E94A20B18
:1017E000CF910895CF93C82F813239F488EE91E2DA
:1017F0000E94860B0E94C10B07C083EF91E20E94FA
:10180000860B8C2F0E94A20BCF910895CF93C82FE7
:10181000813239F48EEF91E20E94860B0E94C10B57
:1018200007C088E092E20E94860B8C2F0E94A20BD8
:10183000CF9108950F931F93CF93DF93EC018B010A
:1018400080910C278F31B9F480EB9BE00E94F0254A
:1018500023E08C39920778F480EB9BE0BE010E9474
:10186000372680EB9BE0B8010E94372680EB9BE097
:101870006DE00E94BD29DF91CF911F910F910895D6
:1018800080912427823521F081E00E94E92F03C056
:1018900081E00E94053080910C27803951F0813918
:1018A000F1F410927B2210927C2280E980930C2725
:1018B00016C080917B2290917C22019680937B229E
:1018C00090937C2223E18738920748F010927B2284
:1018D00010927C228FE180930C278093E7258091E2
:1018E00024278F3419F482E58093242780917B226A
:1018F00090917C2223E18838920730F401968093FE
:101900007B2290937C22089523E18838920749F442
:1019100082E58093242788E293E280937B22909350
:101920007C220895EEE8F2E2A1E0B7E286EE95E2CD
:1019300048E330E222E240834183328334832583CB
:1019400026831D92E559FF4FE817F907A1F710927A
:10195000002786E18093FD261092EC2508958130C2
:10196000C9F0813030F0823029F1833009F042C073
:1019700031C0633509F440C0643518F46D3441F466
:1019800005C06D3619F0633719F436C080E008954C
:1019900080E00895633591F1643518F46D3441F4B5
:1019A00005C06D3619F0633719F428C082E0089538
:1019B00080E00895633521F1643518F46D3441F405
:1019C00005C06D3619F0633719F41AC084E0089524
:1019D00080E008956335B1F0643518F46D3441F456
:1019E00005C06D3619F0633719F40CC086E0089510
:1019F00080E0089580E0089581E0089583E00895EF
:101A000085E0089587E00895CF93DF9388EE95E20F
:101A10000E947032EC018091FA256091FF260E94AD
:101A2000AF0CBE010E948E13DF91CF9108958130DB
:101A300009F449C0813038F0823009F484C0833021
:101A400009F0FBC0C0C0643521F0653509F0F5C070
:101A50001DC08091FC26863559F0873520F48934E5
:101A600009F0EBC00CC0893651F0863709F0E5C0AB
:101A700080E067E64EEE55E20E94CF01089581E0D6
:101A80006AE64EEE55E20E94CF0108958091FC2651
:101A9000863559F0873520F4893409F0CEC00CC062
:101AA000893651F0863709F0C8C082E068E64EEE0C
:101AB00055E20E94CF01089583E06AE64EEE55E2BA
:101AC0000E94CF010895643521F0653509F0B5C055
:101AD0001DC08091FC26863559F0873520F4893465
:101AE00009F0ABC00CC0893651F0863709F0A5C0AB
:101AF00084E067E64EEE55E20E94CF01089585E04E
:101B00006AE64EEE55E20E94CF0108958091FC26D0
:101B1000863559F0873520F4893409F08EC00CC021
:101B2000893651F0863709F088C086E068E64EEEC7
:101B300055E20E94CF01089587E06AE64EEE55E235
:101B40000E94CF010895643521F0653509F075C014
:101B50001DC08091FC26863559F0873520F48934E4
:101B600009F06BC00CC0893651F0863709F065C0AA
:101B700088E067E64EEE55E20E94CF01089589E0C5
:101B80006AE64EEE55E20E94CF0108958091FC2650
:101B9000863559F0873520F4893409F04EC00CC0E1
:101BA000893651F0863709F048C08AE068E64EEE83
:101BB00055E20E94CF0108958BE06AE64EEE55E2B1
:101BC0000E94CF010895643519F06535B1F51BC049
:101BD0008091FC26863549F0873518F4893469F5FB
:101BE0000BC0893649F0863741F58CE067E64EEE4A
:101BF00055E20E94CF0108958DE06AE64EEE55E26F
:101C00000E94CF0108958091FC26863549F08735E2
:101C100018F4893491F40BC0893649F0863769F499
:101C20008EE068E64EEE55E20E94CF0108958FE007
:101C30006AE64EEE55E20E94CF010895EF92FF92C0
:101C40000F931F93CF93DF938C0170910027672F21
:101C5000272F30E08BE690E0289FA001299F500DB0
:101C6000389F500D11240F2EFEE8EF2EF2E2FF2ECA
:101C7000F02DE40EF51EA1E34EE852E2EBE6F0E0B3
:101C8000862F992787FD90958E9F90018F9F300D0D
:101C90009E9F300D1124240F351FE901AB83615045
:101CA0000AF467E0AF5FA93359F7F8018081882310
:101CB00099F505C0942F8191882321F503C040E058
:101CC00050E090E0F701E90FF11D82E28683E70121
:101CD000C40FD51F1F8281E08093012780930227C4
:101CE00080930327809304278093052780930627FA
:101CF00080930727809308277F5F709300277830B1
:101D000040F413C08D934F5F5F4F4436510591F6F9
:101D1000E2CF1092002709C0E7018E83F8013196C7
:101D2000D701179641E050E0C5CFDF91CF911F91C9
:101D30000F91FF90EF9008952F923F924F925F92F4
:101D40006F927F928F929F92AF92BF92CF92DF92CB
:101D5000EF92FF920F931F93CF9302E112E20F2EA7
:101D6000F1E4CF2EF2E2DF2EF02D0F2EF9EE2F2E22
:101D7000F5E23F2EF02D0F2EF9E2EF2EF2E2FF2ECC
:101D8000F02D0F2EFFE4AF2EF2E2BF2EF02D0F2E1E
:101D9000F8E48F2EF2E29F2EF02D0F2EFDE56F2E30
:101DA000F2E27F2EF02D0F2EF6E54F2EF2E25F2E9F
:101DB000F02DA5C180EA98E00E94EA2DC82FC80145
:101DC0000E941E0E8091FD268A3109F4D8C08B3105
:101DD00080F4873109F453C0883120F4863109F04A
:101DE0008EC114C0883109F495C0893109F087C1CA
:101DF000B1C08C3109F405C18C3108F4E0C08D31DB
:101E000009F430C18E3109F07AC11DC180E292E23D
:101E10000E941E0EC43461F1C53440F4C234D1F0C6
:101E2000C334F8F4C13409F06AC10EC0C23691F06F
:101E3000C33620F4C13609F062C106C0C33689F04A
:101E4000C43609F05CC114C087E18093FD2610926E
:101E5000FA2555C187E18093FD2681E08093FA251C
:101E60004EC187E18093FD2682E08093FA2547C129
:101E700087E18093FD2683E08093FA2540C185E2C7
:101E800092E20E941E0ECA35D9F0CB3560F4CE34F2
:101E900029F1CF3418F4CD34B1F527C0C035B9F0ED
:101EA000C33589F529C0C03791F0C13728F4CD3644
:101EB000E1F0CE3641F512C0C337F1F0CA3719F55B
:101EC00088E18093FD2683E58093FF2618C188E191
:101ED0008093FD2684E58093FF2611C188E18093DD
:101EE000FD2685E58093FF260AC189E18093FD26C2
:101EF00086E58093FF2603C189E18093FD2687E56F
:101F00008093FF26FCC0C7010E941E0E86E18093CD
:101F1000FD26F5C085E392E20E941E0EC93469F0E9
:101F2000CA3428F48C2F8053823068F406C0C93636
:101F300021F0C63711F0C63531F48DE18093FD26CE
:101F4000C093FC26DCC0C7010E941E0E86E1809370
:101F5000FD26D5C08AE392E20E941E0E8C2F80538C
:101F60008A3030F48AE18093FD26C093E825C7C00B
:101F7000C7010E941E0E86E18093FD26C0C0C601E7
:101F80000E941E0ECD3061F0CD3090F08C2F80532A
:101F90008A3070F48BE18093FD26F101C083AFC0DD
:101FA000F10110820E94040D86E18093FD26A7C0F6
:101FB000C7010E941E0E86E18093FD26A0C0C401C9
:101FC0000E941E0ECD3069F0CD30A0F08C2F8053D2
:101FD0008A3080F48CE18093FD26EAEEF5E2C0833E
:101FE0008EC0EAEEF5E210820E94040D86E1809335
:101FF000FD2685C0C7010E941E0E86E18093FD2646
:102000007EC0C5010E941E0ECD3069F0CD30A0F01B
:102010008C2F80538A3080F48EE18093FD26EBEE86
:10202000F5E2C0836CC0EBEEF5E210820E94040D75
:1020300086E18093FD2663C0C7010E941E0E86E1E3
:102040008093FD265CC0C2010E941E0ECD3019F4A3
:102050000E94040D03C0C7010E941E0E86E18093FA
:10206000FD264DC0C3010E941E0ECD3009F041C0B7
:102070008091FC26893431F18A3428F48033B1F020
:10208000813381F507C08936E9F08637D9F0863586
:1020900049F518C086E18093FD268091FA250E94BB
:1020A000E90583E692E20E941E0E29C086E1809334
:1020B000FD268091FA250E9409068CE692E20E9494
:1020C0001E0E1DC086E18093FD268091FA25609149
:1020D000FF260E94170D80EA98E06EEE75E20E94DE
:1020E00037260DC0C7010E941E0E86E18093FD2693
:1020F00006C0C7010E941E0E86E18093FD2680EA7D
:1021000098E00E946A2D009709F054CE8091E7254F
:102110008232B1F5C9E001E017E20F2EFBE6EF2EA7
:10212000FF24F02D23C020917D22F801E20FF11D44
:102130008081882391F030E02E9DC0012F9D900D6D
:102140003E9D900D112482579D4D0E94860B8091DB
:102150007D22F801E80FF11D108280917D228F5FB2
:1021600080937D22883010F010927D2280EB9BE0DE
:102170000E94F025F2E080309F0710F4C15099F6DC
:10218000CF911F910F91FF90EF90DF90CF90BF9074
:10219000AF909F908F907F906F905F904F903F9007
:1021A0002F90089585E18093122710921F2708959C
:1021B0008091122795E19093122708952DE137E23F
:1021C00090911D2790931E27D9019E9190931D27D2
:1021D000F901329790819C93D90113979C91908338
:1021E000F901349790819C93808380818D30C1F474
:1021F00080911A278233A1F480911B27813381F4C7
:1022000080911C27803561F480911D278A3541F427
:1022100080911E27843521F48CE080931227089545
:10222000809119278D30C1F480911A278333A1F44E
:1022300080911B27813381F480911C27803561F4C4
:1022400080911D278A3541F480911E27843521F421
:102250008DE0809312270895809119278D30C1F465
:1022600080911A278433A1F480911B27813381F454
:1022700080911C27803561F480911D278A3541F4B7
:1022800080911E27843521F48EE0809312270895D3
:10229000809119278D30C1F480911A278733A1F4DA
:1022A00080911B27813381F480911C27803561F454
:1022B00080911D278A3541F480911E27843521F4B1
:1022C00081E1809312270895809119278D30C1F400
:1022D00080911A278833A1F480911B27813381F4E0
:1022E00080911C27803561F480911D278A3541F447
:1022F00080911E27843521F482E18093122708956E
:10230000809119278D30C1F480911A278933A1F467
:1023100080911B27813381F480911C27803561F4E3
:1023200080911D278A3541F480911E27843521F440
:1023300083E1809312270895809119278D30C1F48D
:1023400080911A278033A1F480911B27823381F476
:1023500080911C27803561F480911D278A3541F4D6
:1023600080911E27843521F484E1809312270895FB
:10237000809119278D30C1F480911A278633A1F4FA
:1023800080911B27893381F480911C27803561F46B
:1023900080911D278A3541F480911E27843521F4D0
:1023A00080E6809312270895809119278D30C1F41B
:1023B00080911A278733A1F480911B27893381F4F8
:1023C00080911C27803561F480911D278A3541F466
:1023D00080911E27843521F481E680931227089589
:1023E000809119278D30C1F480911A278833A1F488
:1023F00080911B27893381F480911C27803561F4FB
:1024000080911D278A3541F480911E27843521F45F
:1024100082E6809312270895809119278D30C1F4A8
:1024200080911A278933A1F480911B27893381F485
:1024300080911C27803561F480911D278A3541F4F5
:1024400080911E27843521F483E680931227089516
:10245000809119278D30C1F480911A278533A1F41A
:1024600080911B27813381F480911C27803561F492
:1024700080911D278A3541F480911E27843521F4EF
:102480008FE0809312270895809119278D30B9F439
:1024900080911A27863399F480911B27813379F430
:1024A00080911C27803559F480911D278A3539F495
:1024B00080911E27843519F480E1809312270895B6
:1024C00080911227853109F459C00E94D8108231B9
:1024D00091F1833180F48E3031F18F3030F48C30D3
:1024E000D1F08D3009F04AC01AC0803109F443C0E0
:1024F0008131E8F43CC0803691F1813628F4833193
:10250000F1F08431D9F51FC0823629F18236F8F016
:102510008336A1F528C080E20E940105089581E27A
:102520000E940105089582E20E940105089581E15B
:102530000E944A04089582E10E944A04089583E1BA
:102540000E944A04089584E10E944A04089581E6A5
:102550000E948504089582E60E948504089581E220
:102560000E940105089580E20E94010508958FE010
:102570000E941504089580E10E9415040895E0EE7C
:10258000F6E016828FE18183E0E6F6E085838BEF4B
:102590008183E0ECF9E08DED808382E0818310920D
:1025A000232710920B271092252781E6809310276E
:1025B000089591E09093232780931127843018F495
:1025C000823058F405C0863068F08830A0F40FC01F
:1025D00091E0E0E6F6E096830EC092E0E0E6F6E0F9
:1025E000968309C094E0E0E6F6E0968304C098E0A4
:1025F000E0E6F6E0968380FF05C082E0E0ECF9E0DB
:102600008383089581E0E0ECF9E08383089561E03D
:1026100070E00090112702C0660F771F0A94E2F75E
:10262000609580910B27682360930B276623F1F058
:1026300070E060FD12C021E030E0E1E0F0E0822FC8
:10264000AF01022E02C0440F551F0A94E2F7462341
:102650005723141615062CF401C080E00E94D912ED
:1026600008952F5F3F4F2830310549F70895823094
:10267000C1F0833028F4882351F0813039F50CC043
:102680008A33C9F08C33E1F0833001F50FC082E06A
:10269000E0EEF6E08583089584E0E0EEF6E08583E1
:1026A000089588E0E0EEF6E08583089580E1E0EEAD
:1026B000F6E0858308958EE1E0EEF6E085830895E7
:1026C0008091E625880FE0EEF6E08583089582305C
:1026D000B1F0833028F4882341F08130F1F40AC04E
:1026E000833091F08A33C9F414C082E0E0EEF6E062
:1026F0008683089584E0E0EEF6E08683089588E01E
:10270000E0EEF6E08683089580E1E0EEF6E0868371
:1027100008958EE1E0EEF6E08683089590912327F8
:10272000992321F020911127281739F1E82FF0E0A3
:1027300021E030E0082E02C0220F331F0A94E2F796
:10274000422F20912527242B20932527EE0FFF1FB2
:10275000EA5DF84D262F372F54E02030350710F072
:102760002FEF33E02083318320910B27422B4093BE
:102770000B27992311F40E94D91208956E32B9F4EF
:10278000282F30E0F901EE0FFF1FEA5DF84D408180
:10279000518194E04030590708F5F901EE0FFF1F11
:1027A000EA5DF84D4F5F5F4F4083518317C06D3234
:1027B000A9F4282F30E0F901EE0FFF1FEA5DF84D74
:1027C000408151814115510549F0F901EE0FFF1F7C
:1027D000EA5DF84D4150504040835183E82FF0E0CE
:1027E000EE0FFF1FEA5DF84D608171810E948E132C
:1027F0000895809310270895E82FF0E0EE0FFF1F53
:10280000EA5DF84D6081718180E090E00E945B316B
:1028100020E030E040EA50E40E940D3220E030EC4D
:102820004FE754E40E94C230462F572F682F792F6C
:10283000CB01BA010895CF92DF92EF92FF921F93DE
:10284000CF93DF93182FEB0180FD08C00E94FC138B
:1028500048EE53E09E010E94AD0122C081500E94CB
:10286000FC136B017C01E12FF0E0EE0FFF1FEA5D2E
:10287000F84D6081718180E090E00E945B319B01A6
:10288000AC01C701B6010E940D3220E030EC4FE7E9
:1028900054E40E94C23048EE53E09E010E94AD0114
:1028A000DF91CF911F91FF90EF90DF90CF9008952F
:1028B000E82FF0E0EE0FFF1FEA5DF84D8081918177
:1028C0004AE050E00E94963208951F920F920FB690
:1028D0000F9208B60F9209B60F920BB60F92112401
:1028E0002F933F934F935F936F937F938F939F9318
:1028F000AF93BF93EF93FF9381E00E94E92F809104
:1029000023278230C9F0833039F1813009F047C084
:1029100082E080932327E0911127F0E0EE0FFF1F64
:10292000EA5DF84D8081918196958795969587957A
:10293000E0ECF9E0838333C083E080932327E091C8
:102940001127F0E0EE0FFF1FEA5DF84D80818370E4
:10295000E0ECF9E0838323C080911127843018F4E0
:10296000823058F405C0863068F08830A0F40FC07B
:1029700081E0E0E6F6E085830EC082E0E0E6F6E086
:10298000858309C084E0E0E6F6E0858304C088E042
:10299000E0E6F6E08583109223270E940713FF915B
:1029A000EF91BF91AF919F918F917F916F915F91C7
:1029B0004F913F912F910F900BBE0F9009BE0F903A
:1029C00008BE0F900FBE0F901F9018950895E0E479
:1029D000F6E083E381838683868308958230C1F0A5
:1029E000833028F4882351F0813069F50CC08A3394
:1029F000C9F08C33E1F0833031F50FC081E0E0E4C1
:102A0000F6E08583089582E0E0E4F6E085830895AA
:102A100080E1E0E4F6E08583089580E2E0E4F6E01A
:102A20008583089583E3E0E4F6E08583089580914B
:102A3000E625982F969596959295907F8370892B91
:102A4000E0E4F6E0858308958230B1F0833028F425
:102A5000882341F08130F1F40AC0833091F08A3349
:102A6000C9F414C081E0E0E4F6E08683089582E0D2
:102A7000E0E4F6E08683089580E1E0E4F6E0868312
:102A8000089580E2E0E4F6E08683089583E3E0E4DD
:102A9000F6E0868308950895E0E5F0E082E282831F
:102AA0008BE0808380E00E94E92FE0E5F0E0818107
:102AB0008B30E9F780E00E940530E0E5F0E082E04D
:102AC000868381E08093600098ED94BF80934000FE
:102AD0008AE0808380E090E0089587E08093500052
:102AE00080E00E94E92FE0E5F0E081818730E9F79E
:102AF00080E00E940530E0E5F0E082E0868381E03E
:102B00008093600098ED94BF809340008AE08083BA
:102B100080E090E008950E9453300E9441090E9495
:102B20000E160E946D150E94470B0E94920C0E9487
:102B3000D21080EA98E060E00E94331780EB98E0C2
:102B400060E00E94331780EB9BE060E00E94331747
:102B50000E945D2D0E9458010E94E7140E94BF123E
:102B60000E9407040E943809E0E0F8E087E08083D3
:102B70008EE390E086A397A387E8E0EAF0E0828303
:102B8000789480E00E94053081E00E94053082E068
:102B900064E670E00E948530E0E8F6E083E081833F
:102BA00082E0858380E061E00E941B3012E001E05A
:102BB0000F2EF0E8EF2EF6E0FF2EF02DCC24C3947C
:102BC000BC2CDD246894D1F8C0E0D8E001C00195A8
:102BD000F701B7820E9491300E94F60A0E94AA0271
:102BE0000E9437060E94232E0E94400C0E949C0ED9
:102BF0000E9460120E94E614F701D6828C8580FF45
:102C0000FDCFCC86F701D58280E0612F0E941B307A
:102C1000100F812F81508E3FD0F6DACFE0E2F7E03F
:102C200080EC828380E4828780E883878FE08187DD
:102C3000808586FD03C089E9868B04C08AE9E0E2CD
:102C4000F7E0868BE0E2F7E0808588231CF089E9D5
:102C5000878B04C08AE9E0E2F7E0878B10921727A0
:102C6000109218278CE280931427089580911427DE
:102C70008D3229F48CE28093142781E0089580E05E
:102C80000895809114278E3229F48CE280931427C2
:102C900081E0089580E008951F920F920FB60F9281
:102CA00008B60F920BB60F9211248F939F93EF9358
:102CB000FF93E0E2F7E086898A3901F58085882371
:102CC0006CF0809117279091182701978093172710
:102CD000909318278EE2809314270CC080911727B9
:102CE00090911827019680931727909318278DE2CB
:102CF0008093142789E9E0E2F7E0868BE0E2F7E0D1
:102D00008689893901F5808588236CF080911727A1
:102D100090911827019680931727909318278DE29A
:102D2000809314270CC08091172790911827019742
:102D300080931727909318278EE2809314278AE9AF
:102D4000E0E2F7E0868B81E0E0E2F7E08487FF9144
:102D5000EF919F918F910F900BBE0F9008BE0F9037
:102D60000FBE0F901F9018951F920F920FB60F92E3
:102D700008B60F920BB60F9211248F939F93EF9387
:102D8000FF93E0E2F7E087898A3901F5808586FDC7
:102D90000DC08091172790911827019680931727CF
:102DA000909318278DE2809314270CC080911727E9
:102DB00090911827019780931727909318278EE2F8
:102DC0008093142789E9E0E2F7E0878BE0E2F7E0FF
:102DD0008789893901F5808586FD0DC08091172787
:102DE00090911827019780931727909318278EE2C8
:102DF000809314270CC08091172790911827019673
:102E000080931727909318278DE2809314278AE9DF
:102E1000E0E2F7E0878B82E0E0E2F7E08487FF9171
:102E2000EF919F918F910F900BBE0F9008BE0F9066
:102E30000FBE0F901F9018950895E0EAF6E080E32A
:102E4000818385818F7C8583E0E4FBE087E080835C
:102E500083E181838FEF90E086A397A380E190E0E8
:102E600080A791A70895FC0188E0E03AF80751F4A3
:102E7000A0E4B6E088E011968C93119715968C9398
:102E8000159761C088E0E03BF80751F4A0E4B6E094
:102E900080E811968C93119715968C93159753C0D3
:102EA00089E0E03AF80751F4A0E6B6E088E0119630
:102EB0008C93119715968C93159745C089E0E03B4C
:102EC000F80751F4A0E6B6E080E811968C931197CC
:102ED00015968C93159737C08AE0E03AF80751F4BD
:102EE000A0E8B6E088E011968C93119715968C9324
:102EF000159729C08AE0E03BF80751F4A0E8B6E056
:102F000080E811968C93119715968C9315971BC09A
:102F10008BE0E03AF80751F4A0EAB6E088E01196B9
:102F20008C93119715968C9315970DC08BE0E03B11
:102F3000F80749F4A0EAB6E080E811968C9311975F
:102F400015968C931597613039F0623051F48CEA04
:102F5000878385EC868309C088EA87838EE686832B
:102F600004C084EA878382E38683138288E18483B2
:102F700083E085830895FC01818185FFFDCF608317
:102F80000895CF92DF92EF92FF920F931F93CF930A
:102F9000DF936C01E62FF72FEF0109900020E9F78E
:102FA0002197CE1BDF0B79F0E62EF72E00E010E024
:102FB000F70161917F01C6010E94BB170F5F1F4F90
:102FC0000C171D07A9F7DF91CF911F910F91FF906B
:102FD000EF90DF90CF900895CF93DF93EC016730AF
:102FE00009F49DC0683090F4633009F458C064302F
:102FF00030F46130A1F1623008F041C020C065308A
:1030000009F46DC0663008F07AC059C06B3009F41D
:10301000C6C06C3038F4693009F4A1C06A3008F0D9
:10302000AEC08DC06D3009F4DAC06D3008F4C7C091
:103030006E3009F4E4C06F3009F000C1F0C060E305
:103040000E94BB17CE0160E30E94BB17CE0160E374
:103050000E94BB17CE0160E30E94BB17EFC060E384
:103060000E94BB17CE0160E30E94BB17CE0160E354
:103070000E94BB17CE0161E30E94BB17DFC060E373
:103080000E94BB17CE0160E30E94BB17CE0161E333
:103090000E94BB17CE0160E30E94BB17CFC060E364
:1030A0000E94BB17CE0160E30E94BB17CE0161E313
:1030B0000E94BB17CE0161E30E94BB17BFC060E353
:1030C0000E94BB17CE0161E30E94BB17CE0160E3F3
:1030D0000E94BB17CE0160E30E94BB17AFC060E344
:1030E0000E94BB17CE0161E30E94BB17CE0160E3D3
:1030F0000E94BB17CE0161E30E94BB179FC060E333
:103100000E94BB17CE0161E30E94BB17CE0161E3B1
:103110000E94BB17CE0160E30E94BB178FC060E323
:103120000E94BB17CE0161E30E94BB17CE0161E391
:103130000E94BB17CE0161E30E94BB177FC061E311
:103140000E94BB17CE0160E30E94BB17CE0160E373
:103150000E94BB17CE0160E30E94BB176FC061E302
:103160000E94BB17CE0160E30E94BB17CE0160E353
:103170000E94BB17CE0161E30E94BB175FC061E3F1
:103180000E94BB17CE0160E30E94BB17CE0161E332
:103190000E94BB17CE0160E30E94BB174FC061E3E2
:1031A0000E94BB17CE0160E30E94BB17CE0161E312
:1031B0000E94BB17CE0161E30E94BB173FC061E3D1
:1031C0000E94BB17CE0161E30E94BB17CE0160E3F2
:1031D0000E94BB17CE0160E30E94BB172FC061E3C2
:1031E0000E94BB17CE0161E30E94BB17CE0160E3D2
:1031F0000E94BB17CE0161E30E94BB171FC061E3B1
:103200000E94BB17CE0161E30E94BB17CE0161E3B0
:103210000E94BB17CE0160E30E94BB170FC061E3A1
:103220000E94BB17CE0161E30E94BB17CE0161E390
:103230000E94BB17CE0161E30E94BB17DF91CF91C3
:1032400008951F93CF93DF93EC01162F62E60E943F
:10325000BB17612F62956F70CE010E94EC17612F32
:103260006F70CE010E94EC17DF91CF911F910895EE
:10327000673009F43FC0683070F4633059F164304E
:1032800028F46130F9F0623008F518C0653051F16A
:10329000663060F523C06B30E9F16C3028F469309A
:1032A00089F16A3098F52AC06D30E1F16D30B0F1E6
:1032B0006E30E1F16F3009F040C03CC060E30E9425
:1032C000BB17089561E30E94BB17089562E30E9453
:1032D000BB17089563E30E94BB17089564E30E943F
:1032E000BB17089565E30E94BB17089566E30E942B
:1032F000BB17089567E30E94BB17089568E30E9417
:10330000BB17089569E30E94BB17089561E40E940A
:10331000BB17089562E40E94BB17089563E40E94FE
:10332000BB17089564E40E94BB17089565E40E94EA
:10333000BB17089566E40E94BB1708951F93CF93AF
:10334000DF93EC01162F62956F700E943819612F80
:103350006F70CE010E943819DF91CF911F910895AF
:103360001F93CF93DF93EC01142F0E949E19CE017F
:10337000612F0E949E19DF91CF911F9108951F9395
:10338000CF93DF93EC01162F672F0E949E19CE0179
:10339000612F0E949E19DF91CF911F910895CF93C5
:1033A000DF93EC01673009F49DC0683090F463301E
:1033B00009F458C0643030F46130A1F1623008F093
:1033C00041C020C0653009F46DC0663008F07AC095
:1033D00059C06B3009F4C6C06C3038F4693009F458
:1033E000A1C06A3008F0AEC08DC06D3009F4DAC0FB
:1033F0006D3008F4C7C06E3009F4E4C06F3009F0D6
:1034000000C1F0C060E30E94BD29CE0160E30E94CC
:10341000BD29CE0160E30E94BD29CE0160E30E9478
:10342000BD29EFC060E30E94BD29CE0160E30E9488
:10343000BD29CE0160E30E94BD29CE0161E30E9457
:10344000BD29DFC060E30E94BD29CE0160E30E9478
:10345000BD29CE0161E30E94BD29CE0160E30E9437
:10346000BD29CFC060E30E94BD29CE0160E30E9468
:10347000BD29CE0161E30E94BD29CE0161E30E9416
:10348000BD29BFC060E30E94BD29CE0161E30E9457
:10349000BD29CE0160E30E94BD29CE0160E30E94F8
:1034A000BD29AFC060E30E94BD29CE0161E30E9447
:1034B000BD29CE0160E30E94BD29CE0161E30E94D7
:1034C000BD299FC060E30E94BD29CE0161E30E9437
:1034D000BD29CE0161E30E94BD29CE0160E30E94B7
:1034E000BD298FC060E30E94BD29CE0161E30E9427
:1034F000BD29CE0161E30E94BD29CE0161E30E9496
:10350000BD297FC061E30E94BD29CE0160E30E9416
:10351000BD29CE0160E30E94BD29CE0160E30E9477
:10352000BD296FC061E30E94BD29CE0160E30E9406
:10353000BD29CE0160E30E94BD29CE0161E30E9456
:10354000BD295FC061E30E94BD29CE0160E30E94F6
:10355000BD29CE0161E30E94BD29CE0160E30E9436
:10356000BD294FC061E30E94BD29CE0160E30E94E6
:10357000BD29CE0161E30E94BD29CE0161E30E9415
:10358000BD293FC061E30E94BD29CE0161E30E94D5
:10359000BD29CE0160E30E94BD29CE0160E30E94F7
:1035A000BD292FC061E30E94BD29CE0161E30E94C5
:1035B000BD29CE0160E30E94BD29CE0161E30E94D6
:1035C000BD291FC061E30E94BD29CE0161E30E94B5
:1035D000BD29CE0161E30E94BD29CE0160E30E94B6
:1035E000BD290FC061E30E94BD29CE0161E30E94A5
:1035F000BD29CE0161E30E94BD29CE0161E30E9495
:10360000BD29DF91CF9108951F93CF93DF93EC01F4
:10361000162F62E60E94BD29612F62956F70CE0160
:103620000E94CF19612F6F70CE010E94CF19DF91D8
:10363000CF911F910895673009F43FC0683070F44E
:10364000633059F1643028F46130F9F0623008F5E4
:1036500018C0653051F1663060F523C06B30E9F178
:103660006C3028F4693089F16A3098F52AC06D30E1
:10367000E1F16D30B0F16E30E1F16F3009F040C032
:103680003CC060E30E94BD29089561E30E94BD290A
:10369000089562E30E94BD29089563E30E94BD2955
:1036A000089564E30E94BD29089565E30E94BD2941
:1036B000089566E30E94BD29089567E30E94BD292D
:1036C000089568E30E94BD29089569E30E94BD2919
:1036D000089561E40E94BD29089562E40E94BD2915
:1036E000089563E40E94BD29089564E40E94BD2901
:1036F000089565E40E94BD29089566E40E94BD29ED
:1037000008951F93CF93DF93EC01162F62956F708E
:103710000E941B1B612F6F70CE010E941B1BDF914B
:10372000CF911F9108951F93CF93DF93EC01142F36
:103730000E94811BCE01612F0E94811BDF91CF91DE
:103740001F9108951F93CF93DF93EC01162F672FDE
:103750000E94811BCE01612F0E94811BDF91CF91BE
:103760001F9108951F920F920FB60F9208B60F92F5
:1037700009B60F920AB60F920BB60F9211242F932F
:103780003F934F935F938F939F93AF93BF93CF9349
:10379000DF93EF93FF93C0EAD8E0E4E4FFE348E36C
:1037A00057E213C08881A081B181A45CB44D8C9391
:1037B000808191810196808391838081918124E031
:1037C0008030920710F01082118289818823FCF4E6
:1037D00080819181DA012D913C9111978217930795
:1037E00040F0808191812D913C911197821B930B28
:1037F0000AC080819181DA012D913C91119780500E
:103800009C4F821B930BB4E080309B0758F2FF91D2
:10381000EF91DF91CF91BF91AF919F918F915F9188
:103820004F913F912F910F900BBE0F900ABE0F90BA
:1038300009BE0F9008BE0F900FBE0F901F901895F5
:103840001F920F920FB60F9208B60F9209B60F9201
:103850000AB60F920BB60F9211242F933F934F93FA
:103860005F938F939F93AF93BF93CF93DF93EF9328
:10387000FF93C0EBD8E0E6E4FFE34AE357E213C06E
:103880008881A081B181A45CB04D8C9380819181AD
:103890000196808391838081918124E0803092071A
:1038A00010F01082118289818823FCF4808191813B
:1038B000DA012D913C9111978217930740F0808196
:1038C00091812D913C911197821B930B0AC08081AD
:1038D0009181DA012D913C91119780509C4F821B70
:1038E000930BB4E080309B0758F2FF91EF91DF918A
:1038F000CF91BF91AF919F918F915F914F913F91E8
:103900002F910F900BBE0F900ABE0F9009BE0F9023
:1039100008BE0F900FBE0F901F901895FC01838179
:10392000806383830895FC0183818F7C8383089562
:10393000FC018381826083830895FC0183818C7FF5
:10394000838308951F920F920FB60F9208B60F92BD
:1039500009B60F920AB60F920BB60F9211242F934D
:103960003F934F935F936F937F938F939F93AF9307
:10397000BF93CF93DF93EF93FF93E0EBF8E0818168
:1039800085FD1AC03AC020813181808191810196E4
:10399000808391838081918144E08030940710F08E
:1039A000108211822E5B344CE9018881EB018883FF
:1039B000898185FD07C021C0A0E4B3E3ECE4FFE307
:1039C00060EB78E08D919C91119720813181821775
:1039D000930740F08D919C91119720813181821B3A
:1039E000930B09C08D919C9111972081318180505A
:1039F0009C4F821B930B009731F6209140333091FE
:103A0000413380914C3F90914D3F2817390758F032
:103A1000809140339091413320914C3F30914D3F04
:103A2000821B930B0CC080914033909141332091C5
:103A30004C3F30914D3F80509C4F821B930B009721
:103A400029F080EB98E00E94981C04C080EB98E07D
:103A50000E949D1CFF91EF91DF91CF91BF91AF919B
:103A60009F918F917F916F915F914F913F912F9196
:103A70000F900BBE0F900ABE0F9009BE0F9008BEAC
:103A80000F900FBE0F901F9018951F920F920FB6B8
:103A90000F9208B60F9209B60F920AB60F920BB6A4
:103AA0000F9211242F933F934F935F936F937F93C4
:103AB0008F939F93AF93BF93CF93DF93EF93FF9336
:103AC000E0EAF8E0818185FD1AC03AC020813181A9
:103AD000808191810196808391838081918144E0EE
:103AE0008030940710F0108211822E5B384CE9016F
:103AF0008881EB018883898185FD07C021C0AEE301
:103B0000B3E3EAE4FFE360EA78E08D919C911197DA
:103B1000208131818217930740F08D919C911197FC
:103B200020813181821B930B09C08D919C9111974B
:103B30002081318180509C4F821B930B009731F67E
:103B400020913E3330913F3380914A3F90914B3FDB
:103B50002817390758F080913E3390913F332091D8
:103B60004A3F30914B3F821B930B0CC080913E33F8
:103B700090913F3320914A3F30914B3F80509C4F72
:103B8000821B930B009729F080EA98E00E94981C12
:103B900004C080EA98E00E949D1CFF91EF91DF91A4
:103BA000CF91BF91AF919F918F917F916F915F91D5
:103BB0004F913F912F910F900BBE0F900ABE0F9027
:103BC00009BE0F9008BE0F900FBE0F901F90189562
:103BD0000F931F93CF93DF93DC0111968C91119774
:103BE00085FD42C091C02BE0A03BB20751F038E008
:103BF000A03AB30741F088E0A03BB80731F422E0D7
:103C000005C020E003C021E001C020E030E0C90190
:103C1000880F991FFB01E80FF91F408151818081B6
:103C2000918101968083918380819181E4E080304D
:103C30009E0740F0C901880F991F860F971FFC014E
:103C400010821182C901982F8827990F990F840F2C
:103C5000951FF801E80FF91F80818C9311968C91C4
:103C6000119785FD07C050C0CCE3D3E368E47FE340
:103C700002E413E3FBE0A03BBF0751F028E0A03AC9
:103C8000B20741F038E0A03BB30731F422E005C0B1
:103C900020E003C021E001C020E030E0C901880F2E
:103CA000991FFE01E80FF91F40815181FB01E80FC8
:103CB000F91F808191814817590788F0220F331F1F
:103CC000FE01E20FF31F40815181FB01E20FF31F60
:103CD00080819181FA01E81BF90BCF0112C0C90163
:103CE000880F991FFE01E80FF91F40815181FB01E8
:103CF000E80FF91F20813181CA0180509C4F821B3F
:103D0000930B009709F06FCFFBE0A03BBF0751F08A
:103D100028E0A03AB20741F038E0A03BB30731F405
:103D200022E005C020E003C021E001C020E030E037
:103D3000C901880F991FFC01E45CFC4C4081518152
:103D4000885B904CFC01808191814817590778F07D
:103D5000220F331FF901E45CFC4C40815181285B48
:103D6000304CF90180819181481B590B10C0220F02
:103D7000331FF901E45CFC4C40815181285B304CDD
:103D8000F9018081918140505C4F481B590B4115CE
:103D9000510521F0CD010E94981C03C0CD010E9465
:103DA0009D1CDF91CF911F910F9108953F924F92EB
:103DB0005F926F927F928F929F92AF92BF92CF92BB
:103DC000DF92EF92FF920F931F93CF93DF936C01DB
:103DD000FC01818185FD1DC18FC1F0EBCF16FBE099
:103DE000DF0661F020EAC21628E0D20649F030EB87
:103DF000C31638E0D30631F422E005C020E003C04A
:103E000021E001C020E030E0C901880F991FF401D2
:103E1000E80FF91F40815181808191810196808353
:103E200091838081918164E08030960710F0108248
:103E30001182C901982F8827990F990F840F951F18
:103E4000840D951DFC01B080FDE0BF1611F4309289
:103E50002427F801808191818E5B944CFC01A08223
:103E6000F801808191810196808391838081918185
:103E7000F4E080309F0718F0F80110821182F701FA
:103E8000818185FD18C031C0E881F98188819981DF
:103E90000196888399838881998124E080309207F4
:103EA00010F018821982EE5BF44C8081F701808358
:103EB000818185FF1AC0F801808191812881398133
:103EC0008217930738F08081918128813981821B84
:103ED000930B09C0F801808191812881398180503C
:103EE0009C4F821B930B009779F6F801808191819A
:103EF000288139818217930738F080819181288148
:103F00003981821B930B09C0F8018081918128813E
:103F1000398180509C4F821B930B009721F0C70181
:103F20000E94981C03C0C7010E949D1CF80180815B
:103F300091818E5B944CFC01B082F801808191816B
:103F400001968083918380819181F4E080309F0786
:103F500018F0F80110821182F701818185FD18C0E7
:103F600031C0E881F981888199810196888399839C
:103F70008881998124E08030920710F0188219829C
:103F8000EE5BF44C8081F7018083818185FF1AC04C
:103F9000F80180819181288139818217930738F057
:103FA0008081918128813981821B930B09C0F8019E
:103FB000808191812881398180509C4F821B930B95
:103FC000009779F6F80180819181288139818217E3
:103FD000930738F08081918128813981821B930B6E
:103FE00009C0F801808191812881398180509C4FDE
:103FF000821B930B009721F0C7010E94981C03C0FD
:10400000C7010E949D1CF601B082818185FD25C0FB
:1040100073C00F2EFCE36F2EF3E37F2EF02D0F2ED7
:10402000F8E48F2EFFE39F2EF02D0F2EF2E44F2E9B
:10403000F3E35F2EF02D0F2EFEE43F2EF02D00E473
:1040400013E30F2EF0E6AF2EF02D0F2EF0EBEF2E38
:10405000F8E0FF2EF02DCCE4DFE3F0EBCF16FBE031
:10406000DF0661F020EAC21628E0D20649F030EB04
:10407000C31638E0D30631F422E005C020E003C0C7
:1040800021E001C020E030E0C901880F991FF30151
:10409000E80FF91F40815181F401E80FF91F808179
:1040A00091814817590788F0220F331FF301E20F5F
:1040B000F31F40815181F401E20FF31F8081918150
:1040C000FA01E81BF90BCF0110C0220F331FF301D7
:1040D000E20FF31F80819181F401E20FF31F208131
:1040E000318180509C4F821B930B009729F0809167
:1040F0002427823509F471CEC6010E949D1CF0EB85
:10410000CF16FBE0DF0661F020EAC21628E0D206F7
:1041100049F030EBC31638E0D30631F422E005C095
:1041200020E003C021E001C020E030E0C901880F99
:10413000991FFC01E45CFC4C40815181885B904CF0
:10414000FC01808191814817590778F0220F331FB5
:10415000F901E45CFC4C80819181285B304CF901D1
:1041600020813181821B930B12C0220F331FF90172
:10417000E45CFC4C40815181285B304CF90180812A
:10418000918140505C4F9A01281B390BC90100975F
:1041900039F080912427823519F4C6010E94981CB9
:1041A000DF91CF911F910F91FF90EF90DF90CF9013
:1041B000BF90AF909F908F907F906F905F904F9047
:1041C0003F9008951F920F920FB60F9208B60F926C
:1041D00009B60F920AB60F920BB60F9211243F92B6
:1041E0004F925F926F927F928F929F92AF92BF9207
:1041F000CF92DF92EF92FF920F931F932F933F93F3
:104200004F935F936F937F938F939F93AF93BF93DE
:10421000CF93DF93EF93FF93E0EBFBE0818185FD8C
:10422000FBC048C1D601ED91FC9111978D919C91F5
:10423000119701968D939C9311978D919C91119755
:10424000B4E080309B0720F0D6011D921C9211979C
:10425000E40DF51DB080BDE0BB1611F430922427AB
:10426000F801808191818E5B944CDC01AC9280815D
:10427000918101968083918380819181B4E0803027
:104280009B0710F010821182F701818185FD1AC011
:1042900032C0E881F9818881998101968883998368
:1042A0008881998124E08030920710F01882198269
:1042B000EE5BF44C8081D7018C9311968C91119711
:1042C00085FF19C0F8018081918128813981821789
:1042D000930738F08081918128813981821B930B6B
:1042E00008C0808191812881398180509C4F821B38
:1042F000930B009771F6F8018081918128813981B3
:104300008217930738F08081918128813981821B3F
:10431000930B08C0808191812881398180509C4F06
:10432000821B930B009721F0C7010E94981C03C0C9
:10433000C7010E949D1CF801808191818E5B944C85
:10434000DC01BC9280819181019680839183808180
:104350009181B4E080309B0710F010821182F70148
:10436000818185FD1AC032C0E881F98188819981F7
:104370000196888399838881998124E0803092070F
:1043800010F018821982EE5BF44C8081D7018C9377
:1043900011968C91119785FF19C0F8018081918148
:1043A000288139818217930738F080819181288193
:1043B0003981821B930B08C08081918128813981CA
:1043C00080509C4F821B930B009771F6F8018081FF
:1043D0009181288139818217930738F080819181FA
:1043E00028813981821B930B08C0808191812881AB
:1043F000398180509C4F821B930B009721F0C7019D
:104400000E94981C03C0C7010E949D1CF301B0824A
:10441000818185FD2BC04EC00F2EFCE38F2EF3E370
:104420009F2EF02D0F2EF8E4CF2EFFE3DF2EF02D80
:104430000F2EF2E44F2EF3E35F2EF02D0F2EFEE44D
:104440003F2EF02D00E413E30F2EF0E6AF2EF02DFB
:104450000F2EF0EBEF2EF8E0FF2EF02DCCE4DFE393
:104460000F2EF0EB6F2EFBE07F2EF02DD4018D91FF
:104470009C911197F601208131818217930740F0BA
:104480008D919C91119720813181821B930B0BC0E0
:10449000D4018D919C911197F6012081318180503A
:1044A0009C4F821B930B009729F080912427823523
:1044B00009F4B8CE80EB9BE00E949D1C20913C3318
:1044C00030913D338091483F9091493F28173907FB
:1044D00058F080913C3390913D332091483F30918A
:1044E000493F821B930B0CC080913C3390913D332C
:1044F0002091483F3091493F80509C4F821B930B45
:10450000009741F080912427823521F480EB9BE0D5
:104510000E94981CFF91EF91DF91CF91BF91AF91D5
:104520009F918F917F916F915F914F913F912F91CB
:104530001F910F91FF90EF90DF90CF90BF90AF90C1
:104540009F908F907F906F905F904F903F900F90D3
:104550000BBE0F900ABE0F9009BE0F9008BE0F90C1
:104560000FBE0F901F9018951F920F920FB60F92CB
:1045700008B60F9209B60F920AB60F920BB60F92B9
:1045800011244F925F926F927F928F929F92AF927F
:10459000BF92CF92DF92EF92FF920F931F932F93D0
:1045A0003F934F935F936F937F938F939F93AF93BB
:1045B000BF93CF93DF93EF93FF930F2EF0EB8F2EEC
:1045C000FBE09F2EF02D0F2EF2E4AF2EFFE3BF2E67
:1045D000F02D0F2EF6E36F2EF7E27F2EF02D00E484
:1045E00013E30F2EF0EBEF2EF8E0FF2EF02DCCE4CE
:1045F000DFE30F2EFFE4CF2EF02D0F2EFCE34F2E26
:10460000F7E25F2EF02D8DC0F401D080F80180819B
:1046100091818E5B944CFC01D082F8018081918164
:1046200001968083918380819181F4E080309F079F
:1046300018F0F80110821182F701818185FD18C000
:1046400031C0E881F98188819981019688839983B5
:104650008881998124E08030920710F018821982B5
:10466000EE5BF44C8081F7018083818185FF1AC065
:10467000F80180819181288139818217930738F070
:104680008081918128813981821B930B09C0F801B7
:10469000808191812881398180509C4F821B930BAE
:1046A000009779F6F80180819181288139818217FC
:1046B000930738F08081918128813981821B930B87
:1046C00009C0F801808191812881398180509C4FF7
:1046D000821B930B009721F0C7010E94981C03C016
:1046E000C7010E949D1CFDE0DF1611F4C092242733
:1046F0008D2D0E94DE10F50180819181840D951D24
:10470000FC01D082F50180819181019680839183A3
:1047100080819181F4E080309F0718F0F5011082CC
:104720001182F401818188230CF5F501808191814A
:10473000F301208131818217930748F0F5018081D0
:104740009181F30120813181821B930B0AC0F50115
:1047500080819181F3012081318180509C4F821BA7
:10476000930BF4E080309F0708F44ECFFF91EF9158
:10477000DF91CF91BF91AF919F918F917F916F9179
:104780005F914F913F912F911F910F91FF90EF906B
:10479000DF90CF90BF90AF909F908F907F906F9061
:1047A0005F904F900F900BBE0F900ABE0F9009BE06
:1047B0000F9008BE0F900FBE0F901F901895CF92CC
:1047C000DF92EF92FF920F931F93CF93DF93DC0161
:1047D0000F2EF2E4CF2EFFE3DF2EF02D06E317E2DB
:1047E0000F2EFCE3EF2EF7E2FF2EF02D3AC04C9196
:1047F0002BE0A03BB20751F038E0A03AB30741F0FC
:1048000088E0A03BB80731F462E005C060E003C077
:1048100061E001C060E070E0CB01880F991FF601F4
:10482000E80FF91F20813181CB01982F8827990F3C
:10483000990F820F931F8E0D9F1DEC01488380817D
:10484000918101968083918380819181D4E0803031
:104850009D0738F0FB01EE0FFF1FEC0DFD1D1082D0
:10486000118211968C91119788230CF04CC02BE08B
:10487000A03BB20751F038E0A03AB30741F088E01E
:10488000A03BB80731F422E005C020E003C021E0DE
:1048900001C020E030E0C901880F991FF601E80F40
:1048A000F91F40815181F801E80FF91F8081918142
:1048B0004817590788F0220F331FF601E20FF31F44
:1048C00040815181F801E20FF31F80819181EA015B
:1048D000C81BD90BCE0112C0C901880F991FF60160
:1048E000E80FF91F40815181F801E80FF91F20817D
:1048F0003181CA0180509C4F821B930BD4E08030E1
:104900009D0708F474CFDF91CF911F910F91FF9015
:10491000EF90DF90CF9008954F925F926F927F92C9
:104920008F929F92AF92BF92CF92DF92EF92FF92BF
:104930000F931F93CF93DF935C010F2EF2E48F2E22
:10494000FFE39F2EF02D0F2EF6E36F2EF7E27F2E62
:10495000F02D00E413E30F2EF0EBEF2EF8E0FF2E26
:10496000F02DCCE4DFE30F2EFFE4CF2EF02D0F2E41
:10497000FCE34F2EF7E25F2EF02DACC0D501DC90AA
:10498000F801808191818E5B944CDC01DC92808106
:10499000918101968083918380819181B4E0803000
:1049A0009B0710F010821182F701818185FD1AC0EA
:1049B00032C0E881F9818881998101968883998341
:1049C0008881998124E08030920710F01882198242
:1049D000EE5BF44C8081D7018C9311968C911197EA
:1049E00085FF19C0F8018081918128813981821762
:1049F000930738F08081918128813981821B930B44
:104A000008C0808191812881398180509C4F821B10
:104A1000930B009771F6F80180819181288139818B
:104A20008217930738F08081918128813981821B18
:104A3000930B08C0808191812881398180509C4FDF
:104A4000821B930B009721F0C7010E94981C03C0A2
:104A5000C7010E949D1CBDE0DB1611F4C092242703
:104A60008D2D0E94DE10E0EBAE16EBE0BE0661F08D
:104A7000F0EAAF16F8E0BF0649F020EBA21628E0F6
:104A8000B20631F442E005C040E003C041E001C09D
:104A900040E050E0CA01880F991FF401E80FF91FA8
:104AA00020813181CA01982F8827990F990F820F91
:104AB000931F840D951DDC01DC928081918101960C
:104AC0008083918380819181B4E080309B0710F0D6
:104AD00010821182D50111968C91119788230CF0C8
:104AE0004DC0B0EBAB16BBE0BB0661F0E0EAAE1622
:104AF000E8E0BE0649F0F0EBAF16F8E0BF0631F48F
:104B000022E005C020E003C021E001C020E030E049
:104B1000C901880F991FF401E80FF91F40815181E5
:104B2000F301E80FF91F808191814817590788F038
:104B3000220F331FF401E20FF31F40815181F30173
:104B4000E20FF31F808191819A01281B390BC90163
:104B500010C0220F331FF401E20FF31F80819181F7
:104B6000F301E20FF31F2081318180509C4F821BA3
:104B7000930B34E08030930708F400CFDF91CF919E
:104B80001F910F91FF90EF90DF90CF90BF90AF906B
:104B90009F908F907F906F905F904F9008952BE043
:104BA000803B920751F0E8E0803A9E0741F0F8E040
:104BB000803B9F0731F482E005C080E003C081E0C4
:104BC00001C080E090E0880F991FFC01E45CFC4C80
:104BD00010821182885B904CFC0110821182089532
:104BE0002BE0803B920751F0E8E0803A9E0741F0CD
:104BF000F8E0803B9F0731F482E005C080E003C00D
:104C000081E001C080E090E09C01220F331FF90198
:104C1000E45CFC4C40815181285B304CF9012081DF
:104C200031814217530780F09C01220F331FF90195
:104C3000E45CFC4C80819181285B304CF90120813F
:104C40003181821B930B08959C01220F331FF901C0
:104C5000E45CFC4C40815181285B304CF90120819F
:104C60003181CA0180509C4F821B930B08952F9273
:104C70003F924F925F926F927F928F929F92AF92EC
:104C8000BF92CF92DF92EF92FF920F931F93CF9339
:104C9000DF9300D00F92CDB7DEB76C01262F372FF0
:104CA000D9010D900020E9F71197CD01821B930BDC
:104CB0008B839C83009709F44AC369837A832224F7
:104CC00033240F2EFCE36F2EF3E37F2EF02D0F2EF7
:104CD000F2E44F2EF3E35F2EF02D0F2EF8E48F2E2B
:104CE000FFE39F2EF02D0F2EF0E4EF2EF3E3FF2EC7
:104CF000F02DA981BA817D91A983BA83B0EBCB163F
:104D0000BBE0DB0661F0E0EACE16E8E0DE0649F043
:104D1000F0EBCF16F8E0DF0631F462E005C060E0AA
:104D200003C061E001C060E0462F50E0CA01880F77
:104D3000991FF301E80FF91F20813181CA01982FD3
:104D40008827990F990F820F931F840D951DDC0101
:104D50007C93808191810196808391838081918170
:104D6000B4E080309B0710F010821182662339F086
:104D7000D60111968C91119785FD44C28EC2F60121
:104D8000818185FD54C1A8C1F0EBCF16FBE0DF06A1
:104D900061F020EAC21628E0D20649F030EBC316D3
:104DA00038E0D30631F422E005C020E003C021E062
:104DB00001C020E030E0C901880F991FF401E80F1D
:104DC000F91F408151818081918101968083918377
:104DD0008081918164E08030960710F0108211820A
:104DE000C901982F8827990F990F840F951F840D5B
:104DF000951DFC01B080FDE0BF1619F42EE4209350
:104E00002427D7018D919C9111978E5B944CFC01C6
:104E1000A0828D919C91119701968D939C931197EF
:104E20008D919C911197F4E080309F0718F01D92AE
:104E30001C921197D80111968C91119785FD1FC076
:104E40003FC0ACE4BFE3ED91FC9111978D919C9133
:104E5000119701968D939C9311978D919C91119729
:104E6000B4E080309B0718F01D921C921197EE5B06
:104E7000F44C8081F8018083818185FF21C0D701B6
:104E80008D919C911197ECE4FFE320813181821791
:104E9000930740F08D919C91119720813181821B65
:104EA000930B0CC0D7018D919C911197ECE4FFE31B
:104EB0002081318180509C4F821B930B009709F613
:104EC000D7018D919C911197ECE4FFE32081318112
:104ED0008217930740F08D919C9111972081318129
:104EE000821B930B0CC0D7018D919C911197ECE420
:104EF000FFE32081318180509C4F821B930B0097F0
:104F000021F0C8010E94981C03C0C8010E949D1C8A
:104F1000D7018D919C9111978E5B944CFC01B082CE
:104F20008D919C91119701968D939C9311978D91E2
:104F30009C911197F4E080309F0718F01D921C920D
:104F40001197D80111968C91119785FD1FC03FC014
:104F5000ACE4BFE3ED91FC9111978D919C91119779
:104F600001968D939C9311978D919C911197B4E02C
:104F700080309B0718F01D921C921197EE5BF44C49
:104F80008081F8018083818185FF21C0D7018D91C7
:104F90009C911197ECE4FFE3208131818217930704
:104FA00040F08D919C91119720813181821B930B50
:104FB0000CC0D7018D919C911197ECE4FFE3208107
:104FC000318180509C4F821B930B009709F6D701CB
:104FD0008D919C911197ECE4FFE320813181821740
:104FE000930740F08D919C91119720813181821B14
:104FF000930B0CC0D7018D919C911197ECE4FFE3CA
:105000002081318180509C4F821B930B009721F0AF
:10501000C8010E94981C03C0C8010E949D1CD601B3
:10502000BC9211968C91119785FD07C055C00F2E2B
:10503000F0E6AF2EF02D00EB18E0B0EBCB16BBE0A6
:10504000DB0661F0E0EACE16E8E0DE0649F0F0EBC0
:10505000CF16F8E0DF0631F422E005C020E003C0FF
:1050600021E001C020E030E0C901880F991FF30161
:10507000E80FF91F40815181F401E80FF91F808189
:1050800091814817590788F0220F331FF301E20F6F
:10509000F31F40815181F401E20FF31F8081918160
:1050A0009A01281B390BC90110C0220F331FF301CD
:1050B000E20FF31F80819181F401E20FF31F208141
:1050C000318180509C4F821B930B009729F0809177
:1050D0002427823509F458CEC6010E949D1C30EB6E
:1050E000C3163BE0D30661F060EAC61668E0D60658
:1050F00049F080EBC81688E0D80631F482E005C09C
:1051000080E003C081E001C080E0282F30E0C901C9
:10511000880F991FF301E80FF91F40815181F401B5
:10512000E80FF91F808191814817590788F0220FF5
:10513000331FF301E20FF31F40815181F401E20FAD
:10514000F31F80819181DA01A81BB90BCD0110C03A
:10515000220F331FF301E20FF31F80819181F401CD
:10516000E20FF31F2081318180509C4F821B930BF3
:10517000009709F4E3C080912427823509F0DEC04E
:10518000C6010E94981CDAC0B0EBCB16BBE0DB0670
:1051900061F0E0EACE16E8E0DE0649F0F0EBCF166B
:1051A000F8E0DF0631F422E005C020E003C021E092
:1051B00001C020E030E0C901880F991FF401E80F19
:1051C000F91F408151818081918101968083918373
:1051D0008081918164E08030960710F01082118206
:1051E000C901982F8827990F990F840F951F840D57
:1051F000951DFC018081D6018C9311968C9111979D
:1052000085FF4BC0B0EBCB16BBE0DB0661F0E0EAFC
:10521000CE16E8E0DE0649F0F0EBCF16F8E0DF0648
:1052200031F422E005C020E003C021E001C020E00D
:1052300030E0C901880F991FF301E80FF91F408181
:105240005181F401E80FF91F8081918148175907B6
:1052500088F0220F331FF301E20FF31F40815181C9
:10526000F401E20FF31F808191819A01281B390B11
:10527000C90110C0220F331FF301E20FF31F808119
:105280009181F401E20FF31F2081318180509C4F06
:10529000821B930B009709F077CF30EBC3163BE0EE
:1052A000D30661F060EAC61668E0D60649F080EBE6
:1052B000C81688E0D80631F422E005C020E003C01B
:1052C00021E001C020E030E0C901880F991FF301FF
:1052D000E80FF91F40815181F401E80FF91F808127
:1052E00091814817590788F0220F331FF301E20F0D
:1052F000F31F40815181F401E20FF31F80819181FE
:10530000DA01A81BB90BCD0110C0220F331FF30126
:10531000E20FF31F80819181F401E20FF31F2081DE
:10532000318180509C4F821B930B009721F0C60166
:105330000E94981C03C0C6010E949D1C0894211C59
:10534000311CEB81FC812E163F0609F0D2CC24964D
:10535000CDBFDEBFDF91CF911F910F91FF90EF90F6
:10536000DF90CF90BF90AF909F908F907F906F9085
:105370005F904F903F902F9008953F924F925F9291
:105380006F927F928F929F92AF92BF92CF92DF9255
:10539000EF92FF920F931F93CF93DF936C012BE05B
:1053A000803B920759F038E0803A930749F080EB50
:1053B000C81688E0D80631F442E005C040E003C0DA
:1053C00041E001C040E0C42FD0E0FE01EE0FFF1F1E
:1053D000E45CFC4C20813181CE01982F8827990F05
:1053E000990F820F931FDC01AE5BBC4C6C938081E4
:1053F000918101968083918380819181E4E0803066
:105400009E0730F0CC0FDD1FC45CDC4C1882198283
:10541000442329F0F601818185FD2FC281C2F60166
:10542000818185FD1DC18FC1F0EBCF16FBE0DF064A
:1054300061F020EAC21628E0D20649F030EBC3162C
:1054400038E0D30631F422E005C020E003C021E0BB
:1054500001C020E030E0C901880F991FF401E80F76
:10546000F91F4081518180819181019680839183D0
:105470008081918164E08030960710F01082118263
:10548000C901982F8827990F990F840F951F840DB4
:10549000951DFC01B080FDE0BF1611F43092242769
:1054A000F801808191818E5B944CFC01A082F8010F
:1054B0008081918101968083918380819181F4E044
:1054C00080309F0718F0F80110821182F701818166
:1054D00085FD18C031C0E881F981888199810196E4
:1054E000888399838881998124E08030920710F025
:1054F00018821982EE5BF44C8081F70180838181F0
:1055000085FF1AC0F8018081918128813981821735
:10551000930738F08081918128813981821B930B18
:1055200009C0F801808191812881398180509C4F88
:10553000821B930B009779F6F80180819181288175
:1055400039818217930738F08081918128813981D0
:10555000821B930B09C0F8018081918128813981D8
:1055600080509C4F821B930B009721F0C7010E9433
:10557000981C03C0C7010E949D1CF8018081918185
:105580008E5B944CFC01B082F80180819181019680
:105590008083918380819181F4E080309F0718F0AF
:1055A000F80110821182F701818185FD18C031C098
:1055B000E881F9818881998101968883998388811E
:1055C000998124E08030920710F018821982EE5BF6
:1055D000F44C8081F7018083818185FF1AC0F80136
:1055E00080819181288139818217930738F08081E9
:1055F000918128813981821B930B09C0F801808138
:1056000091812881398180509C4F821B930B009798
:1056100079F6F80180819181288139818217930779
:1056200038F08081918128813981821B930B09C0D8
:10563000F801808191812881398180509C4F821BA3
:10564000930B009721F0C7010E94981C03C0C7016B
:105650000E949D1CF601B082818185FD25C073C02A
:105660000F2EFCE36F2EF3E37F2EF02D0F2EF8E4C8
:105670008F2EFFE39F2EF02D0F2EF2E44F2EF3E33B
:105680005F2EF02D0F2EFEE43F2EF02D00E413E3ED
:105690000F2EF0E6AF2EF02D0F2EF0EBEF2EF8E0F0
:1056A000FF2EF02DCCE4DFE3F0EBCF16FBE0DF06BE
:1056B00061F020EAC21628E0D20649F030EBC316AA
:1056C00038E0D30631F422E005C020E003C021E039
:1056D00001C020E030E0C901880F991FF301E80FF5
:1056E000F91F40815181F401E80FF91F80819181F8
:1056F0004817590788F0220F331FF301E20FF31FF9
:1057000040815181F401E20FF31F80819181FA0100
:10571000E81BF90BCF0110C0220F331FF301E20F7A
:10572000F31F80819181F401E20FF31F2081318109
:1057300080509C4F821B930B009729F08091242767
:10574000823509F471CEC6010E949D1CF0EBCF1684
:10575000FBE0DF0661F020EAC21628E0D20649F03D
:1057600030EBC31638E0D30631F422E005C020E068
:1057700003C021E001C020E030E0C901880F991F7B
:10578000FC01E45CFC4C40815181885B904CFC0145
:10579000808191814817590778F0220F331FF90152
:1057A000E45CFC4C80819181285B304CF9012081C4
:1057B0003181821B930B12C0220F331FF901E45C6D
:1057C000FC4C40815181285B304CF90180819181F2
:1057D00040505C4F9A01281B390BC901009709F40E
:1057E000EFC080912427823509F0EAC0C6010E94EB
:1057F000981CE6C030EBC3163BE0D30661F080EAAC
:10580000C81688E0D80649F0E0EBCE16E8E0DE06E0
:1058100031F422E005C020E003C021E001C020E017
:1058200030E0C901880F991FFB01E80FF91F408183
:1058300051818081918101968083918380819181C2
:10584000F4E080309F0740F0C901880F991F860F50
:10585000971FFC0110821182C901982F8827990F88
:10586000990F840F951FFE01E80FF91F8081F60143
:105870008083818185FD07C053C0ACE3B3E368E456
:105880007FE3C2E4D3E3F0EBCF16FBE0DF0661F089
:1058900020EAC21628E0D20649F030EBC31638E001
:1058A000D30631F422E005C020E003C021E001C0AE
:1058B00020E030E0C901880F991FFD01E80FF91FB2
:1058C00040815181FB01E80FF91F808191814817C8
:1058D000590788F0220F331FFD01E20FF31F4081AB
:1058E0005181FB01E20FF31F80819181FA01E81BD6
:1058F000F90BCF0112C0C901880F991FFD01E80FF4
:10590000F91F40815181FB01E80FF91F208131818E
:10591000CA0180509C4F821B930B009709F06ACFFD
:10592000F0EBCF16FBE0DF0661F020EAC21628E0BC
:10593000D20649F030EBC31638E0D30631F422E04A
:1059400005C020E003C021E001C020E030E0C90133
:10595000880F991FFC01E45CFC4C40815181885BFD
:10596000904CFC01808191814817590778F0220FF3
:10597000331FF901E45CFC4C40815181285B304CC1
:10598000F90180819181481B590B10C0220F331FF0
:10599000F901E45CFC4C40815181285B304CF901F9
:1059A0008081918140505C4F481B590B4115510536
:1059B00021F0C6010E94981C03C0C6010E949D1CD4
:1059C000DF91CF911F910F91FF90EF90DF90CF90DB
:1059D000BF90AF909F908F907F906F905F904F900F
:1059E0003F9008952BE0803B920751F068E0803AA9
:1059F000960741F028E0803B920731F422E005C091
:105A000020E003C021E001C020E030E0F901EE0F0A
:105A1000FF1FE85BF04C40815181808191810196AC
:105A2000808391838081918164E08030960738F093
:105A3000F901EE0FFF1FE85BF04C10821182F901B3
:105A4000FE2FEE27FF0FFF0F4E0F5F1FFA01EE5BD9
:105A5000FC4C808108952BE0803B920751F0E8E0F8
:105A6000803A9E0741F0F8E0803B9F0731F482E0E6
:105A700005C080E003C081E001C080E090E0880FB5
:105A8000991FFC01EE5BF04C108211828A5C984DEC
:105A9000FC01108211820895CF93DF93EC010E94E4
:105AA000CF25CE010E942B2DCE010E948E1CCE014F
:105AB0000E94981CDF91CF91089580EA98E00E949F
:105AC0004C2D80EB98E00E944C2D80EB9BE00E94D7
:105AD0004C2D08952BE0803B920751F0E8E0803A8E
